:100000000C9423010C944B010C944B010C944B0168
:100010000C944B010C944B010C944B010C944B0130
:100020000C944B010C944B010C944B010C944B0120
:100030000C944B010C944B010C944B010C944B0110
:100040000C94A40D0C944B010C94140E0C94EE0D16
:100050000C944B010C944B010C944B010C944B01F0
:100060000C94460E0C944B014469676974652075C5
:100070006D2076616C6F72210053697374656D61D8
:1000800020696E69636961646F0042656D2D566910
:100090006E646F21004573636F6C6861206F206D23
:1000A0006F646F004D6F646F2064652061726D61D5
:1000B000720020202020202020202020202020200E
:1000C000202000446566696E6120612073656E685A
:1000D000610053656E68612073616C7661004C69E4
:1000E0006D6974652064652074656D706F0054657A
:1000F0006D706F2061706F732061726D617200208E
:10010000202020202020202020202020202020000F
:1001100020202020202020202020202020202020DF
:100120000054656D706F2061706F732061726D6136
:1001300072007365672E0054656D706F206578706E
:100140006C6F73616F007365672E0054656D706F1F
:10015000206C696D697465002020202020202020FB
:1001600020202020202020200020202020202020AF
:100170002020202020202020200054656D706F203A
:100180006C696D6974650028312953696D202D20D3
:100190002832294E616F002020202020202020209E
:1001A000202020202020200020202020202020206F
:1001B0002020202020202020004465662E206D6114
:1001C000782E207074732E004D61782E2064652087
:1001D000706F6E746F7300312D496E69636961725F
:1001E00020422D53616972000000000024002700A6
:1001F0002A0000000000250028002B00000000005D
:100200002300260029000404040404040404020258
:100210000202020203030303030301020408102085
:100220004080010204081020010204081020000090
:1002300000080002010000030407000000000000A5
:100240000000650F191811241FBECFEFD8E0DEBFE4
:10025000CDBF26E0A8EDB3E001C01D92A732B207E2
:10026000E1F713E0A0E0B1E0E6EBF6E302C00590B1
:100270000D92A83DB107D9F711E0C2E2D1E004C068
:100280002197FE010E944219C132D107C9F70E948D
:100290007E100C944E1B0C940000DC0114962D91E2
:1002A0003C911597232B41F0ED91FC9181E09081D9
:1002B000992319F080E0089581E0089596E0899FE0
:1002C000D0011124AC57BA4F90967C936E935F97F0
:1002D00091E091969C939197E091F105F091F20550
:1002E0009091F005992339F0309751F0811108C0B1
:1002F0008091A0050994309719F05C968C91FACF03
:1003000008958CBD9DBD0895833081F028F481301F
:1003100099F08230A9F008958730A9F08830C9F0AB
:100320008430B1F4809180008F7D03C08091800083
:100330008F7780938000089584B58F7784BD08956A
:1003400084B58F7DFBCF8091B0008F778093B00014
:1003500008958091B0008F7DF9CFCF93DF93282F40
:1003600030E0F901E25DFD4F8491F901E65EFD4F59
:10037000D491F901EA5FFD4FC491CC23A1F0811122
:100380000E948401EC2FF0E0EE0FFF1FE450FE4FBF
:10039000A591B491EC91ED2381E090E009F480E027
:1003A000DF91CF91089580E090E0FACF862F0C94F2
:1003B000AD011F93CF93DF93282F30E0F901E25D69
:1003C000FD4F8491F901E65EFD4FD491F901EA5F9A
:1003D000FD4FC491CC23A9F0162F81110E948401F6
:1003E000EC2FF0E0EE0FFF1FEE50FE4FA591B49101
:1003F0008FB7F894EC91111108C0D095DE23DC93EF
:100400008FBFDF91CF911F910895DE2BF8CF862FFC
:10041000642F0C94D901CF93DF9390E0FC01E65E4A
:10042000FD4F24918A5F9D4FFC0184918823C9F080
:1004300090E0880F991FFC01E851FE4FA591B491FF
:10044000FC01EE50FE4FC591D49161110DC09FB7D4
:10045000F8948C91209582238C938881282328837B
:100460009FBFDF91CF910895623051F49FB7F89408
:100470003C91822F809583238C93E8812E2BEFCFA4
:100480008FB7F894EC912E2B2C938FBFEACF862F49
:10049000642F0C940B023FB7F8948091A1049091C3
:1004A000A204A091A304B091A40426B5A89B05C002
:1004B0002F3F19F00196A11DB11D3FBFBA2FA92FE3
:1004C000982F8827BC01CD01620F711D811D911DE0
:1004D00042E0660F771F881F991F4A95D1F708954C
:1004E0008F929F92AF92BF92CF92DF92EF92FF9244
:1004F0004B015C010E944B026B017C010E944B028C
:100500006C197D098E099F09683E7340810591052C
:10051000A8F321E0821A9108A108B10888EEC80E5C
:1005200083E0D81EE11CF11C81149104A104B104E4
:1005300029F7FF90EF90DF90CF90BF90AF909F9002
:100540008F9008952FB7F89460919D0470919E0448
:1005500080919F049091A0042FBF08950F931F9343
:10056000CF93DF93C82FD62F86E0C89FF0011124C8
:10057000EC57FA4F11A2878D90A181309105F1F0CF
:1005800058F082309105F1F1039709F440C0DF91F2
:10059000CF911F910F9108956623C9F361E070E038
:1005A0008C2F0E945E010E94A2026093DC05709372
:1005B000DD058093DE059093DF05E9CF0E94A2025E
:1005C0000091DC051091DD052091DE053091DF05FD
:1005D000AB01BC01401B510B620B730B8091EE050C
:1005E0009091EF05B0E0A0E084179507A607B70744
:1005F00048F462E070E08C2FDF91CF911F910F9152
:100600000C945E0163E070E0D111C1CFF4CF70E0D3
:1006100060E0F1CF6F927F928F929F92AF92BF92E4
:10062000CF92DF92EF92FF920F931F93CF93DF93BE
:1006300081E08093F0050E94A2020091E0051091F4
:10064000E1052091E2053091E305AB01BC01401BBF
:10065000510B620B730B8091EC059091ED05B0E0AE
:10066000A0E084179507A607B70708F014C1C0E0FB
:100670008091EA05C81760F4E091E605F091E7057E
:10068000EC0FF11D62E080810E940B02CF5FF0CF82
:10069000712C812C912C540183948091EB05781658
:1006A00008F05FC0072D10E0E091E805F091E90542
:1006B000E00FF11F61E080810E940B02E091E805EC
:1006C000F091E905E00FF11F60E080810E94D901FF
:1006D000D501C401072C04C0880F991FAA1FBB1F96
:1006E0000A94D2F76C017C01E094F094612C809123
:1006F000EA056816F8F4C62DD0E0E091E605F09121
:10070000E705EC0FFD1F80810E94AD012496CC0F00
:10071000DD1FCC57DA4F892B41F4888199818C29D0
:100720009D29998388836394E2CF888199818E2162
:100730009F21F7CFE091E805F091E905E00FF11F67
:1007400061E080810E94D9018091E8059091E905DE
:10075000080F191F60E0F80180810E940B0273945A
:100760009CCFC4E8D5E0FE018FEF9FEF278D30A12D
:10077000232B21F4148E968F858F11A2369625E0B7
:10078000E03CF20799F7F12C96E0D92E8091EA052A
:10079000F81608F050C0E12C0F2D10E0000F111FCB
:1007A00004571A4F2091EB05E21608F042C0F801F9
:1007B000608171810E2C02C0769567950A94E2F7EC
:1007C000F29E900111242E0D311DE4E8F5E080E049
:1007D000458D568D2417350709F461C08F5F369615
:1007E0008A30B1F760FF23C0E4E8F5E090E080E0F4
:1007F000448D411117C0E091E405F091E505E20F49
:10080000F31F4081D89EF001D99EF00D1124EC57C2
:10081000FA4F448F368F258F10A2178E61E00E9409
:10082000AE0205C0019636968A30910509F7E39429
:10083000B9CFF394ABCF10E089A18111182F269680
:10084000F5E0C03CDF07C1F70E94A2026093E0051B
:100850007093E1058093E2059093E3051123D9F0AD
:100860008091A5058823B9F08091A3059091A405F6
:10087000019789F48091A005DF91CF911F910F918D
:10088000FF90EF90DF90CF90BF90AF909F908F90B0
:100890007F906F9008951092F00580E0EDCF617029
:1008A000BECF08950895DB0114964D915C91159784
:1008B0006D917C91DC01ED91FC910280F381E02D42
:1008C0000994EF92FF920F931F93CF93DF938C01C4
:1008D0007B01D0E0C0E0F701EC0FFD1F64916623BF
:1008E00061F0D801ED91FC910190F081E02DC801FB
:1008F0000995892B11F02196EECFCE01DF91CF9192
:100900001F910F91FF90EF900895AF92BF92CF92F9
:10091000DF92EF92FF920F931F93CF93DF936C01BF
:100920007B018B01040F151FEB015E01AE18BF08A0
:10093000C017D10759F06991D601ED91FC91019052
:10094000F081E02DC6010995892B79F7C501DF916A
:10095000CF911F910F91FF90EF90DF90CF90BF90BC
:10096000AF900895FC01538D448D252F30E0842FE6
:1009700090E0821B930B541710F0CF9608950197C7
:100980000895FC01918D828D981761F0A28DAE0FB4
:10099000BF2FB11D5D968C91928D9F5F9F73928F3B
:1009A00090E008958FEF9FEF0895FC01918D828D67
:1009B000981731F0828DE80FF11D858D90E0089534
:1009C0008FEF9FEF0895FC01918D228D892F90E08C
:1009D000805C9F4F821B91098F739927089585EA48
:1009E00094E00E94E30421E0892B09F420E0822FA7
:1009F000089580E090E0892B29F00E94EF04811196
:100A00000C9400000895FC01A48DA80FB92FB11D0E
:100A1000A35ABF4F2C91848D90E001968F73992734
:100A2000848FA689B7892C93A089B1898C91837012
:100A300080648C93938D848D981306C00288F3890B
:100A4000E02D80818F7D80830895EF92FF920F9338
:100A50001F93CF93DF93EC0181E0888F9B8D8C8D6A
:100A600098131AC0E889F989808185FF15C09FB75E
:100A7000F894EE89FF896083E889F9898081837021
:100A8000806480839FBF81E090E0DF91CF911F91D0
:100A90000F91FF90EF900895F62E0B8D10E00F5FF1
:100AA0001F4F0F731127E02E8C8D8E110CC00FB6C7
:100AB00007FCFACFE889F989808185FFF5CFCE015F
:100AC0000E940305F1CFEB8DEC0FFD2FF11DE35AD2
:100AD000FF4FF0829FB7F8940B8FEA89FB898081E2
:100AE0008062CFCFCF93DF93EC01888D8823B9F05C
:100AF000AA89BB89E889F9898C9185FD03C0808129
:100B000086FD0DC00FB607FCF7CF8C9185FFF2CFA5
:100B1000808185FFEDCFCE010E940305E9CFDF91F3
:100B2000CF910895BC016E5F7F4FDC01ED91FC9188
:100B30000190F081E02D40E0099591E0811190E075
:100B4000892F089508958EBD00000DB407FEFDCFD6
:100B50008EB50895DF92EF92FF920F931F93CF937C
:100B6000DF937C01062FD42E152F80E590E00E94A4
:100B7000810160E0F70186850E94D90182E10E942F
:100B8000A305CD2DD12F0C0F1D2F111DC017D1077F
:100B900021F089910E94A305F9CF61E0F7018685D4
:100BA000DF91CF911F910F91FF90EF90DF900C9408
:100BB000D9011F93CF93DF93EC01162F80E590E0CE
:100BC0000E94810160E08E850E94D901812F80689A
:100BD0000E94A30580E00E94A305182F61E08E8586
:100BE0000E94D901812FDF91CF911F9108950F931A
:100BF0001F93CF93DF93EC01062F142F80E590E035
:100C00000E94810160E08E850E94D901802F0E94A0
:100C1000A305812F0E94A30561E08E85DF91CF910E
:100C20001F910F910C94D901CF92DF92EF92FF9216
:100C30000F931F93CF93DF93EC016B01F42E890187
:100C400040E062E00E94F70544E06AE0CE010E94C5
:100C5000F70540E864E1CE010E94F705A6016F2D7B
:100C6000CE010E94AA0543E062E0CE010E94F70592
:100C70000E94A2026B017C0129E5C20ED11CE11C7D
:100C8000F11C6AE0CE010E94D90582FF1BC040E042
:100C900062E0CE010E94F70564E4CE010E94D9050E
:100CA000F801808362E4CE010E94D905F8018183B6
:100CB00080E0DF91CF911F910F91FF90EF90DF9037
:100CC000CF9008950E94A2026C157D058E059F05A8
:100CD000C0F283E0EECF2F923F924F925F926F92DD
:100CE0007F928F929F92AF92CF92DF92EF92FF927C
:100CF0000F931F93CF93DF9300D0CDB7DEB74C0196
:100D00002B01D42E390180E0E114F10411F0F70138
:100D100080813C2C329490EF3922380E40E062E022
:100D2000C4010E94F7054FE768E0C4010E94F7057F
:100D300040E864E1C4010E94F705A2016D2DC401E1
:100D40000E94AA05432D6AE1C4010E94F7054CE008
:100D500062E0C4010E94F7056AE1C4010E94D9055E
:100D6000482F40686AE1C4010E94F7050E94A20270
:100D70001B012C01F4E22F0E311C411C511C68E0B8
:100D8000C4010E94D905982F907309F0B7C080FF65
:100D900015C083E00F900F90DF91CF911F910F91BD
:100DA000FF90EF90DF90CF90AF909F908F907F90CB
:100DB0006F905F904F903F902F9008950E94A202F5
:100DC0006215730584059505D0F2E3CF61147104B3
:100DD00009F469C00115110509F465C064E1C40195
:100DE0000E94D905382EF8018081831508F480C04F
:100DF00030823320E1F180E590E00E94810160E0E3
:100E0000F40186850E94D9013A9482E90E94A305E3
:100E1000CC20B1F08FEF90E09C0102C0220F331F75
:100E2000CA94E2F7690182E90E94A3059C2D90957E
:100E3000F301208192238C21982B9083CC24C3949E
:100E400023014C0C511CC31440F482E90E94A305F9
:100E5000F20181932F01C394F6CF80E00E94A30595
:100E6000F201808361E0F40186850E94D90168E186
:100E7000C4010E94D9058770E114F10411F0F70153
:100E8000808323FC37C061147104B1F10115110591
:100E900099F1AA2089F1F8014081413031F4843080
:100EA00029F58FEF77CF80E0ECCF4230F8F0811159
:100EB0001DC042509E012F5F3F4FB301C4010E94ED
:100EC0001406811167CFF8019081690E711CF3013E
:100ED000329720819981291309C0F1E06F1A7108B6
:100EE000F30120819A81291709F454CF87E052CF6A
:100EF00084E050CF82E04ECF80E04CCF6CE0C40164
:100F00000E94D905282E837109F460CF81E042CF79
:100F10008F929F92AF92CF92EF92FF920F931F9377
:100F2000CF93DF9300D000D01F92CDB7DEB74C0136
:100F300082E08D8340E064E2C4010E94F70540E056
:100F400066E2C4010E94F70546E268E4C4010E941B
:100F5000F70586E28B838D818230D8F16CE1C40184
:100F60000E94D905482F4F776CE1C4010E94F70514
:100F700087E08C83A12CC12CCE0104967C018E01CC
:100F80000B5F1F4F9E012F5F3F4F41E0BE016D5F22
:100F90007F4FC4010E946B06982F811117C08D816D
:100FA0008230B9F48C81811114C081E00F900F90D0
:100FB0000F900F900F90DF91CF911F910F91FF90A5
:100FC000EF90CF90AF909F908F90089581E09230F6
:100FD00069F380E0EBCF2F923F924F925F926F9236
:100FE0007F928F929F92AF92BF92CF92DF92EF92B9
:100FF000FF920F931F93CF93DF93CDB7DEB72D975B
:101000000FB6F894DEBF0FBECDBF16E0413508F035
:101010004AC1342E3B014C016CE10E94D905482F96
:101020004F776CE1C4010E94F70583E9898333207F
:1010300029F081E0F3019081953008F480E02224CA
:101040002394B12C9B2D990F990F990FD32CD91A5A
:10105000D7FCD12C32E0882319F098E89B8333E049
:1010600021E09D2D977009F420E09D2D9595959593
:101070009595290FC9F094E0811193E0291708F4A0
:10108000922FEB2DF0E03196E60DF71D232F4191C5
:10109000A1E0B0E0AC0FBD1FA20FB11D4C932F5FBC
:1010A000422F431B491798F3882311F0F8E0DF0E15
:1010B0008FE18D150CF082C090E79A838B819C8123
:1010C00089279D8189279E8189278F839E01285F9B
:1010D0003F4F47E0BE016F5F7F4FC4010E9414067F
:1010E000182F8111E0C01A86E3E0EB87DC86CE0181
:1010F00007962C0199E09D87CA844C2D4295407F2C
:101100004C0D6AE1C4010E94F705A12CCE010A969C
:101110007C018E01055F1F4F92014D85BE016F5FFF
:101120007F4FC4010E946B06182F823009F065C002
:101130006CE1C4010E94D90585FDB5C08F7109F429
:1011400080E2282F30E04D2DDD0C550B4217530760
:101150000CF09DC0D82EE82FE595E595E595EF5F5D
:10116000982F977081E009F480E0E80F81E090E02B
:101170008C0F9D1F8E0F911DFC012150310927708E
:10118000332781E090E002C0880F991F2A95E2F78B
:101190009C018081822B80838BCF85E989833320DA
:1011A00031F081E0F3019081983008F04BCF80E07E
:1011B00049CF87E9898326E0B22EF9CF9D2D97701C
:1011C0009A878D2D8595859585958E5F282F2295FB
:1011D000207F290F2A8321E0911101C020E0280FF0
:1011E0002D8744244394512C4C0E5D1E480E511CF7
:1011F000E9E0E81BEB87DC867FCF811154C080E2F9
:10120000D82E9C8590320CF457CF8B81883809F00A
:1012100040C083E093E0EB2DF0E03196E60DF71D42
:10122000980FA1E0B0E0AC0FBD1FA80FB11D2C912D
:1012300021938F5F8913F5CFBB84E3E0BE124DC0CD
:101240008A8581114AC09E012D5F3F4F41E0B20166
:10125000C4010E941406182F811125C09B81F20140
:10126000818198133CC09C818281981338C0808111
:1012700082FF12C02394F2E02F1609F48ECF83E090
:10128000281609F496CF91E0291609F4CECE15E080
:101290000AC082E094E0BFCFF3018387822D880FDC
:1012A000820D8F5F8083812F2D960FB6F894DEBF5D
:1012B0000FBECDBFDF91CF911F910F91FF90EF90A7
:1012C000DF90CF90BF90AF909F908F907F906F9066
:1012D0005F904F903F902F90089511E0E4CF17E07A
:1012E000E2CF089520911904260F3327331F2132AE
:1012F0003105ECF420916204FC0190E080E02430A0
:1013000069F082E00895A09119042191AC01475041
:101310005C4FA40FB52FB11D2C930196861798F33F
:1013200080911904680F6093190480E0089581E0AA
:1013300008951092620481E08093610410923C044D
:1013400061E082E10E94D90161E083E10E94D9015C
:10135000E9EBF0E080818E7F808380818D7F8083C8
:1013600088E48093B80085E48093BC000895CF930F
:10137000DF9391E09093F8038823B9F0C091B8000F
:10138000D091BA008091BC008A7B8093BC0060E061
:1013900082E10E94D90160E083E10E94D9010E94AC
:1013A0009909D093BA00C093B800DF91CF91089506
:1013B0000895E091910480919004E81730F4F0E0F2
:1013C000E852FC4F808190E008958FEF9FEF0895E1
:1013D00090919104809190042FEF3FEF981748F47B
:1013E000E92FF0E0E852FC4F208130E09F5F9093BE
:1013F0009104C90108958091900490919104891BF2
:10140000990B0895CF92DF92EF92FF920F931F9363
:10141000CF93DF937C01CB018A01209168042223C2
:1014200089F0EB016B01C40ED51ECC15DD0569F00A
:101430006991D701ED91FC910190F081E02DC701F8
:101440000995F3CF642F0E947209C801DF91CF91F3
:101450001F910F91FF90EF90DF90CF900895CF9361
:10146000DF931F92CDB7DEB76983209168042223F2
:10147000F9F020918E04203258F021E030E0FC0198
:101480003383228390E080E00F90DF91CF91089525
:1014900080918F04E82FF0E0E759FB4F998190830A
:1014A0008F5F80938F0480938E0481E090E0ECCF77
:1014B00061E0CE0101960E947209F7CFCF92DF92D0
:1014C000EF92FF920F931F93CF93DF93FC01C481A0
:1014D00021E020936804C093890410928F04109235
:1014E0008E048385682B82E495E00E942F0AD091B8
:1014F0008E04D13208F092C00E944B026B017C0135
:1015000080916204811165C082E08093620481E071
:10151000809361048FEF8093600410925F04D093F6
:101520005E04A9E6B4E0EEE3F4E080E0D81385C001
:1015300010923D0480913D04CC0FC82BC0933D0414
:1015400080913C04813009F07CC010923C040E94E0
:101550004B026B017C0180913D048093BB00809124
:10156000640490916504A0916604B0916704892B8E
:101570008A2B8B2B99F00E944B02009164041091EE
:10158000650420916604309167046C197D098E0909
:101590009F090617170728073907E0F18091BC005B
:1015A00083FDD9CF85EC8093BC000E944B026B0178
:1015B0007C0180916204823009F445C0809160040E
:1015C0008F3F61F180916004803241F1809160042D
:1015D00025C08091640490916504A0916604B09147
:1015E0006704892B8A2B8B2B09F48ACF0E944B022C
:1015F00000916404109165042091660430916704A1
:101600006C197D098E099F090617170728073907E6
:1016100008F076CF809163040E94B70910928F047E
:1016200010928E0410926804DF91CF911F910F9158
:10163000FF90EF90DF90CF9008959D9191938F5FF1
:1016400075CF85EEB0CF8091640490916504A09130
:101650006604B0916704892B8A2B8B2B09F4A9CFE0
:101660000E944B020091640410916504209166046D
:10167000309167046C197D098E099F0906171707B9
:101680002807390708F095CFC5CF90E080E008958E
:1016900090939B0480939A041092990410920901EC
:1016A000109208011092010110920001109229017C
:1016B000109228011092210110922001109219011C
:1016C00010921801109211011092100108950F93B9
:1016D0001F93CF938C01C62F0E945E0A6C2F64600B
:1016E000C8010E945E0A6C2F6B7FC8010E945E0ACF
:1016F00083EC90E00197F1F7CF911F910F9108953E
:101700000F931F93CF93DF938C01D62FC42F607F4D
:10171000642B0E94670B80E1D89FB00111246C2BD1
:10172000C801DF91CF911F910F910C94670BCF935C
:10173000DF93CDB7DEB728970FB6F894DEBF0FBEA4
:10174000CDBF98E0E2E6F1E0DE01119601900D9246
:101750009A95E1F790911F06981710F48FEF890F73
:1017600090E0880F991F21E030E02C0F3D1F820F81
:10177000931FFC016081606840E087E196E0289655
:101780000FB6F894DEBF0FBECDBFDF91CF910C94A2
:10179000800B41E00E94800B81E090E0089540E0E2
:1017A00061E087E196E00E94800B8BE39FE1019767
:1017B000F1F70895CF93DF93EC010E94CF0B80E007
:1017C0000E94970B68E670E087E196E00E94610452
:1017D00068EB7BE080E090E00E947002CE01DF9138
:1017E000CF910C94480B8F929F92AF92BF92CF9261
:1017F000DF92EF92FF920F931F93CF93DF93EC0151
:10180000F62EAE81BF81FD0101900020E9F73197EE
:101810008F010A1B1B0B0E94A2028A809B80AC8056
:10182000BD80681979098A099B096C32714081056C
:101830009105A0F1680180E1C80ED11C0E94A202AE
:101840006A837B838C839D838F2D0E94970BF12C61
:10185000E12C888199818E0D9F1DB6010E94ED18A3
:1018600041E060E28017910734F4EE81FF81E80FD8
:10187000F91F41E0608187E196E00E94800B2FEF25
:10188000E21AF20A80E1E816F10419F788819981D9
:101890000196B6010E94ED1899838883DF91CF915C
:1018A0001F910F91FF90EF90DF90CF90BF90AF907E
:1018B0009F908F900895FB0101900020E9F73197E8
:1018C000AF01461B570BDC01ED91FC910280F381C7
:1018D000E02D09940F931F93CF93DF93EC01888140
:1018E0009981009759F02A813B812617370730F0FC
:1018F00081E0DF91CF911F910F9108958B016F5F70
:101900007F4F0E94811A009759F0998388831B8327
:101910000A832C813D81232B59F7FC011082E8CFEB
:1019200080E0E7CFEF92FF920F931F93CF93DF9367
:101930006115710541F480E0DF91CF911F910F9106
:10194000FF90EF90089541155105B1F07B01EC0136
:101950000C811D81040F151FB8010E946A0C882399
:1019600051F3288139818C819D81B701820F931FAA
:101970000E94471B1D830C8381E0DECFFC01448164
:101980005581608171818EE495E00C94920CCF9327
:10199000DF9300D0CDB7DEB769831A8241E050E013
:1019A000BE016F5F7F4F0E94920C0F900F90DF91EE
:1019B000CF910895CF93DF93EC01888199810097AF
:1019C00011F00E94F819198218821D821C821B8254
:1019D0001A82DF91CF910895CF93DF93EC0144E019
:1019E00050E06EEA71E00E94920C811103C0CE01BA
:1019F0000E94DA0CCE01DF91CF910895CF93DF934F
:101A0000EC01FB0144815581608171810E94920C3F
:101A1000811103C0CE010E94DA0CCE01DF91CF917B
:101A20000895EF92FF920F931F93CF93DF93EC01F2
:101A30007B018A01BA010E946A0C81110BC0CE01A0
:101A40000E94DA0CCE01DF91CF911F910F91FF9090
:101A5000EF9008951D830C83B701888199810E94BE
:101A6000471BF0CFFB0101900020E9F73197AF0150
:101A7000461B570B0C94110DCF93DF93EC01FB0128
:101A80008617970749F0608171816115710541F0F2
:101A9000448155810E94110DCE01DF91CF910895AF
:101AA0000E94DA0CF9CFFC0111821082138212829B
:101AB00015821482FB0101900020E9F73197AF01F4
:101AC000461B570B0C94110DFC01808191810097EE
:101AD00011F00C94F819089585ED8093BC00809165
:101AE000640490916504A0916604B0916704079620
:101AF000A11DB11D23E0B695A795979587952A95C9
:101B0000D1F72091BC0024FD03C010926204089517
:101B1000409164045091650460916604709167047B
:101B2000452B462B472B69F30097A105B10541F0E2
:101B30002AE22A95F1F700C00197A109B109E1CF86
:101B4000809163040C94B7091F920F920FB60F9205
:101B500011242F933F938F939F93AF93BF938091C3
:101B60009D0490919E04A0919F04B091A004309197
:101B70009C0423E0230F2D3758F50196A11DB11DBC
:101B800020939C0480939D0490939E04A0939F04B3
:101B9000B093A0048091A1049091A204A091A30409
:101BA000B091A4040196A11DB11D8093A10490934E
:101BB000A204A093A304B093A404BF91AF919F91FA
:101BC0008F913F912F910F900FBE0F901F901895FE
:101BD00026E8230F0296A11DB11DD2CF1F920F92AE
:101BE0000FB60F9211242F933F934F935F936F93F0
:101BF0007F938F939F93AF93BF93EF93FF9385EA68
:101C000094E00E940305FF91EF91BF91AF919F91E6
:101C10008F917F916F915F914F913F912F910F9095
:101C20000FBE0F901F9018951F920F920FB60F9234
:101C300011242F938F939F93EF93FF93E091B5041B
:101C4000F091B6048081E091BB04F091BC0482FD68
:101C50001BC090818091BE048F5F8F732091BF0461
:101C6000821741F0E091BE04F0E0EB55FB4F958FF9
:101C70008093BE04FF91EF919F918F912F910F90D0
:101C80000FBE0F901F9018958081F4CF1F920F9276
:101C90000FB60F9211242F933F934F935F936F933F
:101CA0007F938F939F93AF93BF93EF93FF93809115
:101CB000B900887F803609F44AC0F0F5883209F40B
:101CC000A7C018F5803109F49BC0B8F4882309F443
:101CD000F9C0883009F494C0FF91EF91BF91AF91A2
:101CE0009F918F917F916F915F914F913F912F9134
:101CF0000F900FBE0F901F901895883109F488C07F
:101D0000803251F78093600414C0803409F49DC080
:101D100040F48033B9F38833F9F68093600485EC9E
:101D2000B0C0803509F485C0883509F496C0883480
:101D300099F60E946C0DD0CF883909F48CC038F523
:101D4000883729F050F4883611F0803729F683E07F
:101D50008093620410923B0457C0883809F47BC01A
:101D6000803919F0803809F0B7CF80913B04803278
:101D700008F071C0E0913B0481E08E0F80933B043A
:101D80008091BB00F0E0E55EFB4F80833DC0803B6F
:101D900039F0E0F4803A09F479C0883A09F09CCF30
:101DA00084E08093620410921A0410921904E09166
:101DB0008C04F0918D0409958091190481110FC054
:101DC00081E0809319041092F90309C0803C09F462
:101DD000A6CF883C09F4A3CF883B09F07DCFE091E2
:101DE0001A0481E08E0F80931A04F0E0E750FC4F54
:101DF00080818093BB0090911A048091190429C0BE
:101E000080913D048093BB0085EC8093BC0064CF3F
:101E100090915F0480915E04981758F5E0915F04FB
:101E200081E08E0F80935F04F0E0E25CFB4F8081E5
:101E3000E9CFE0915F0481E08E0F80935F04809191
:101E4000BB00F0E0E25CFB4F808390915F048091E7
:101E50005E049817C8F285E8D8CFE0915F0481E06E
:101E60008E0F80935F048091BB00F0E0E25CFB4F3B
:101E700080838091610481115CCF81E080933C0478
:101E800084EA8093BC001092620426CF85EC809394
:101E9000BC001092620480913B04803230F4E091E7
:101EA0003B04F0E0E55EFB4F108260913B0470E084
:101EB000E0918A04F0918B048BE194E009951092F3
:101EC0003B040ACF1092600434CF1092A804109201
:101ED000A70488EE93E0A0E0B0E08093A90490937B
:101EE000AA04A093AB04B093AC042EE631E0309387
:101EF000A6042093A50425EC30E03093B20420938F
:101F0000B10424EC30E03093B4042093B30420EC0B
:101F100030E03093B6042093B50421EC30E03093E8
:101F2000B8042093B70422EC30E03093BA04209335
:101F3000B90426EC30E03093BC042093BB0410922B
:101F4000BE041092BF041092C0041092C1041092FB
:101F50004505109244058093460590934705A0934C
:101F60004805B093490580E891E09093430580933C
:101F7000420510921A061092190686EA91E0909393
:101F800018068093170687E280931B0680E18093F2
:101F9000200682E080932106109222068CE991E0CF
:101FA00090930806809307068AE08093150689E0DF
:101FB000809316068AEA8093F3058BEB8093F405F1
:101FC0008CEC8093F5058DED8093F60563EB71E065
:101FD00087EF95E00E94530D81E18093FD0582E239
:101FE0008093FE0583E38093FF0584E480930006DD
:101FF0006CEB71E081E096E00E94530D1092860533
:1020000010928A051092890510928B0582E991E061
:102010009093850580938405E0EAF5E010821482B0
:1020200013821582369685E0EC3DF807B9F788E40F
:1020300091E09093E7058093E60584E491E0909326
:10204000E9058093E80584E08093EA058093EB0539
:102050008CE491E09093E5058093E4058AE090E0BC
:102060009093ED058093EC0584EF91E09093EF055C
:102070008093EE051092F2051092F1051092E005A2
:102080001092E1051092E2051092E3051092F0051E
:1020900067EC71E08EE795E00E94530D62EC71E011
:1020A00088E795E00E94530D67EC71E082E795E0C8
:1020B0000E94530D64EF71E08CE695E00E94530D91
:1020C00067EC71E086E695E00E94530D67EC71E0E5
:1020D00080E695E00E94530D67EC71E08AE595E09B
:1020E0000E94530D67EC71E084E595E00E94530D6A
:1020F00067EC71E08EE495E00C94530DCF93DF9381
:10210000CDB7DEB7A7970FB6F894DEBF0FBECDBF31
:10211000789484B5826084BD84B5816084BD85B5C2
:10212000826085BD85B5816085BD80916E008160CE
:1021300080936E0010928100809181008260809374
:102140008100809181008160809381008091800076
:102150008160809380008091B10084608093B100A1
:102160008091B00081608093B00080917A0084609B
:1021700080937A0080917A00826080937A008091C7
:102180007A00816080937A0080917A0080688093E1
:102190007A001092C100E091B504F091B60482E09B
:1021A0008083E091B104F091B2041082E091B30415
:1021B000F091B40480E180831092BD04E091B904F1
:1021C000F091BA0486E08083E091B704F091B804FE
:1021D000808180618083E091B704F091B8048081B0
:1021E00088608083E091B704F091B80480818068B2
:1021F0008083E091B704F091B80480818F7D808363
:10220000109291041092900410928F0410928E04F8
:102210000E94990981E594E090938D0480938C0449
:1022200082E594E090938B0480938A0410921C06BC
:1022300080912106823018F098E090931C068093DC
:102240001F0662E370E080E090E00E9470026091FF
:10225000220687E196E00E945E0A68EE73E080E065
:1022600090E00E94700260E387E196E00E94670BB5
:102270000BE416E4C8010197F1F760E387E196E00B
:102280000E94670BC8010197F1F760E387E196E0D0
:102290000E94670B83E592E00197F1F760E287E126
:1022A00096E00E94670B60911C06606240E087E147
:1022B00096E00E94800B84E080931D0640E06CE075
:1022C00087E196E00E94800B0E94CF0B82E0809312
:1022D0001E0640E066E087E196E00E94800B40E049
:1022E00062E087E196E00E94800B8BE39FE101971B
:1022F000F1F788E08093220660E087E196E00E9493
:102300005E0A0E94CF0B1FB7F8948091920481114E
:1023100027C0E0E1F2E08491E4E2F2E09491E82F5A
:10232000F0E0EE0FFF1FE851FE4FA591B491EC9144
:10233000E92321F461E08AE00E94D90161E08AE0AA
:102340000E940B028CB580618CBD8CB580648CBD05
:1023500061E08DE00E940B0261E08BE00E940B02C5
:10236000809192048F5F809392041FBF61E08091FF
:1023700015060E940B0261E0809115060E94D901AA
:10238000809116068F3F09F4A8C060E00E940B02FE
:10239000809116060E94AD01892B09F09EC061E074
:1023A000809116060E940B0260E0809116060E9442
:1023B000D90183E090E00197F1F761E08091160682
:1023C0000E94D90162E370E080E090E00E94700218
:1023D00040E064E287E096E00E94F70540E066E2B4
:1023E00087E096E00E94F70546E268E487E096E021
:1023F0000E94F70540E864E587E096E00E94F70553
:1024000049EA66E587E096E00E94F70543E068E563
:1024100087E096E00E94F70548EE6AE587E096E0DF
:102420000E94F70540E46AE287E096E00E94F70523
:102430004DE362E287E096E00E94F70568E287E0FC
:1024400096E00E94D905982F9370933039F0482F69
:10245000436068E287E096E00E94F70562E08FE063
:102460000E940B0262E080E10E940B0269E770E0CB
:1024700085EA94E00E94610465EC71E085EA94E0ED
:102480000E945B0C2AE0422E512C612C712C02E040
:1024900010E0EE24E394F12C9CE2292E33243394B3
:1024A000E0919A04F0919B04E131F10508F0BEC57A
:1024B000E45AFD4E0C9442198412AA12DF12EA1358
:1024C0004513B715F9159D14531501152915C81392
:1024D0007116161816181618CD164FE062E087E030
:1024E00096E00E94F70513E062E370E080E090E080
:1024F0000E94700262E087E096E00E94D90584FFA6
:1025000067CF115089F764CF10929404109293040E
:102510008091990481110EC00E94CF0B80E00E942F
:10252000970B6AE870E087E196E00E94610481E021
:102530008093990461E070E080E091E00E94F30BE9
:102540000E940A03813309F064C081E090E00E9498
:10255000480B5FC0109294041092930480919904E8
:1025600081110EC00E94CF0B80E00E94970B65E99D
:1025700070E087E196E00E94610481E08093990415
:1025800061E070E088E091E00E94F30B0E940A0392
:10259000823429F48091930490919404D8CF8133AC
:1025A00039F4109298041092970482E090E0CFCF13
:1025B000823379F5F0929804E0929704F6CFF09286
:1025C0009404E09293048091990481110EC00E94BA
:1025D000CF0B80E00E94970B64EA70E087E196E001
:1025E0000E94610481E0809399040E940A03D82E1E
:1025F00082E4D81206C080919304909194040E94C2
:10260000480B8091970490919804009779F0019776
:1026100079F180E090E0892B09F442CF0E94EF0429
:10262000882309F434CF0E94000031CF61E070E0CC
:1026300088E191E00E94F30B91E3D91207C0109258
:1026400096041092950483E090E081CFE2E3DE12DD
:1026500005C0F0929604E0929504F5CFF3E3DF1203
:10266000D8CF109396040093950484E090E06FCF48
:1026700061E070E080E191E00E94F30B81E3D81605
:10268000F1F292E3D912C5CFE4CF109394040093F2
:10269000930480919904811114C067EC71E08AE57C
:1026A00095E00E94320D0E94CF0B80E00E94970BB4
:1026B00063EC70E087E196E00E94610481E0809322
:1026C00099040E940A03D82E80ED8D0D8A30D8F42B
:1026D0006D2D8AE595E00E94C70C81E00E94970B62
:1026E00068EC71E087E196E00E945B0C81E00E945B
:1026F000970B6AE575E087E196E00E94530482E457
:10270000D81287CF47CFE4E4DE1210C067EC71E047
:102710008AE595E00E94320D81E00E94970B62EB02
:1027200070E087E196E00E94610473CFF3E2DF126C
:10273000E6CF8AE595E00E944D01882329F084E0E8
:1027400090E00E94DA0B65CF6AE575E080E695E0DF
:102750000E943C0D69ED71E0CE0101960E94530D7F
:1027600060E675E0CE0101960E94FE0CBC0185EA90
:1027700094E00E94530465EC71E085EA94E00E94C5
:102780005B0CCE0101960E94640D8BE090E0DFCEE1
:1027900080919904811117C00E94CF0B80E00E94A4
:1027A000970B62ED70E087E196E00E94610481E0A2
:1027B0000E94970B60E675E087E196E00E94530463
:1027C00081E08093990468EE73E080E090E00E94DD
:1027D000700239CF1093940400939304809199046C
:1027E00081111AC0C0909704D09098040E94CF0B1A
:1027F00080E00E94970B6EEE70E0C114D10429F0C6
:10280000CA94CD2831F46EED70E087E196E00E9425
:10281000610481E0809399048091970490919804D9
:10282000009781F461E070E088E291E00E94F30B90
:102830000E940A039FEC980F943058F0823409F0FC
:10284000E8CEA8CE0197A1F761E070E080E291E0C8
:10285000EDCF2091970430919804833309F440C060
:10286000843309F457C0823381F4F0923901E09245
:1028700038012115310519F567EE71E088E795E01B
:102880000E94320D80E190E062CE109239011092E8
:10289000380162EC71E02115310581F321303105F9
:1028A00009F0B7CE64EF71E08CE695E00E94320D3E
:1028B00030923B0120923A018CE090E048CE2130EA
:1028C000310509F0A6CE6AEE71E08CE695E00E9433
:1028D000320DE4E8F3E0F0933B01E0933A01ECCFF2
:1028E00010933901009338016FEE71E02115310525
:1028F00029F22130310509F08CCE63EF71E08CE6CE
:1029000095E00E94320D88E097E090933B01809320
:102910003A01D2CF83E090E090933901809338015F
:1029200087E090E02115310509F411CE88E090E0B0
:102930002130310509F06DCE0ACE83E090E090930E
:1029400094048093930480919904811114C067ECDE
:1029500071E082E795E00E94320D0E94CF0B80E08B
:102960000E94970B61E271E087E196E00E946104AA
:1029700081E0809399040E940A03D82E80ED8D0D8A
:102980008A30D8F46D2D82E795E00E94C70C81E073
:102990000E94970B60E171E087E196E00E9461047C
:1029A00081E00E94970B62E775E087E196E00E9464
:1029B0005304F2E4DF122DCEEDCD94E4D9120CC015
:1029C00067EC71E082E795E00E94320D81E00E94A1
:1029D000970B6FEF70E0A5CEE3E2DE12EACF82E75D
:1029E00095E00E944D01882319F087E090E0A9CE80
:1029F00062E775E088E795E00E943C0D89E090E091
:102A0000A6CD8091990481111DC00E94CF0B80E05A
:102A10000E94970B67E371E087E196E00E946104F2
:102A200081E00E94970B68E775E087E196E00E94DD
:102A3000530462E371E087E196E00E94610481E063
:102A40008093990468EE73E080E090E00E94700249
:102A500019CF8091990481111DC00E94CF0B80E095
:102A60000E94970B6BE471E087E196E00E9461049D
:102A700081E00E94970B6CE675E087E196E00E948A
:102A8000530466E471E087E196E00E94610481E00E
:102A90008093990468EE73E080E090E00E947002F9
:102AA00085E090E054CD83E090E09093940480938F
:102AB000930480919904811114C067EC71E086E65B
:102AC00095E00E94320D0E94CF0B80E00E94970B90
:102AD0006AE771E087E196E00E94610481E08093FB
:102AE00099040E940A03D82E80ED8D0D8A30D8F407
:102AF0006D2D86E695E00E94C70C81E00E94970B41
:102B000069E671E087E196E00E94610481E00E943D
:102B1000970B66E675E087E196E00E945304E2E4D5
:102B2000DE1277CD37CD84E4D8120CC067EC71E0AB
:102B300086E695E00E94320D81E00E94970B68E5E1
:102B400071E0EFCD93E2D912EACF86E695E00E94DC
:102B50004D01882319F088E090E0F3CD66E675E03A
:102B60008CE695E00E943C0D8AE090E0F0CC88E095
:102B700090E0909394048093930480919904811140
:102B80000EC00E94CF0B81E00E94970B67E871E0B6
:102B900087E196E00E94610481E08093990480E0DF
:102BA0000E94970B70E060E080E391E00E94F30BDD
:102BB0000E940A03813319F486E090E0C8CC823386
:102BC00009F03CCE80916C0590916D05009769F0FD
:102BD0000E94451822E030E040E050E00E942319B6
:102BE00030933B0120933A0167CE60E070E0CB0167
:102BF000F1CFE5E0F0E0F0939404E093930480914A
:102C00009904811114C067EC71E084E595E00E949D
:102C1000320D0E94CF0B80E00E94970B69EB71E0B0
:102C200087E196E00E94610481E0809399040E940C
:102C30000A03D82E80ED8D0D8A30D8F46D2D84E5F1
:102C400095E00E94C70C81E00E94970B68EA71E052
:102C500087E196E00E94610481E00E94970B64E5A1
:102C600075E087E196E00E94530492E4D912D1CC3A
:102C700091CCF4E4DF120CC067EC71E084E595E0E0
:102C80000E94320D81E00E94970B67E971E049CD07
:102C900083E2D812EACF84E595E00E944D018823B3
:102CA00019F086E090E04DCD809154059091550546
:102CB000009799F00E94451870933B0160933A0188
:102CC00068507E4F85EA94E00E945B0C65EC71E0F1
:102CD00085EA94E00E945B0CEFCD60E070E0CB01F0
:102CE000EBCF809199048111ADCE0E94CF0B80E093
:102CF0000E94970B68EC71E087E196E00E94610406
:102D000081E00E94970B80903A0190903B01092C42
:102D1000000CAA08BB08B7FE2AC041E06DE287E1BB
:102D200096E00E94800B22273327A9012819390930
:102D30004A095B0919A2FE01B1966F01CA01B901E6
:102D4000A30192010E940119605DF60162936F0177
:102D5000211531054105510589F7C114D10409F444
:102D60006ECEB60187E196E00E945B0C68CEA501AD
:102D7000940119A2CE0181966C01CA01B901A30187
:102D800092010E940119605DF60162936F012115A5
:102D900031054105510589F7E0CF809199048111F2
:102DA000C6C00E94CF0BC0909704D0909804C11465
:102DB000D10409F4CAC0F1E0CF16D10409F4CCC0A3
:102DC00066E172E0CE0182960E94530DBE016F5FF4
:102DD0007F4FCE0182960E94FE0CBC018EE495E0EE
:102DE0000E943C0DCE0182960E94640DCE01019698
:102DF0000E94640DA0909504B090960481E0A816FE
:102E0000B10409F4B3C008F4AAC0E2E0AE16B104FC
:102E100009F4AFC064E272E0CE0182960E94530DC5
:102E2000BE016F5F7F4FCE0182960E94FE0C0E9412
:102E3000BE0CCE0182960E94640DCE0101960E94C6
:102E4000640D80913801909139018130910509F428
:102E50009AC008F491C08230910509F497C0039795
:102E600009F497C067E472E0CE0182960E94530D88
:102E7000BE016F5F7F4FCE0182960E94FE0C0E94C2
:102E8000BE0CCE0182960E94640DCE0101960E9476
:102E9000640DC114D10409F07FC061E572E0CE0178
:102EA00001960E94530D68E775E0CE0101960E94DD
:102EB000FE0C0E94EC0C0E94BE0CCE0101960E94FA
:102EC000640DF2E0AF16B10491F46CE572E0CE014E
:102ED00001960E94530D60E675E0CE0101960E94B6
:102EE000FE0C0E94BE0CCE0101960E94640D43E0D0
:102EF00050E065ED71E08EE495E00E94920C8091C7
:102F00004E0590914F05909343018093420110929A
:102F10003D0110923C0181E00E94970B67ED71E04A
:102F200087E196E00E94610481E08093990470E05B
:102F300060E08CE391E00E94F30B0E940A0381336E
:102F400009F071C081E190E002CB6CE072E0CE014B
:102F500001960E94530D34CF69EA72E0F8CF6EE11A
:102F600072E0CE0101960E94530D54CF64EC72E0E2
:102F7000F8CF69EE72E0F5CF6FE272E0CE01019614
:102F80000E94530D6FCF63E372E0F8CF6AE372E003
:102F9000F5CF66E373E0F2CFCA94CD2809F0A7CF4E
:102FA00061E572E0CE0101960E94530D6CE675E07A
:102FB000CE0101960E94FE0C0E94EC0C0E94BE0CF9
:102FC000CE0101960E94640D80913A0190913B01DF
:102FD0001BA21AA21DA21CA21FA21EA24AE0BE0191
:102FE0006F5F7F4F0E946C18BE016F5F7F4FCE01F5
:102FF00082960E94320D67E672E0CE0101960E9431
:10300000530DBE016E5D7F4FCE0101960E94FE0CF6
:103010000E94BE0CCE0101960E94640DCE018296E4
:103020000E94640D64CF823409F0F3CA90E080E01E
:103030008ECA8EE495E00E94640D84E595E00E94BE
:10304000640D8AE595E00E94640D80E695E00E949B
:10305000640D86E695E00E94640D8CE695E00E9482
:10306000640D82E795E00E94640D88E795E00E9478
:10307000640D8EE795E00E94640D81E096E00E9469
:10308000640D87EF95E00C94640D1F93FC01992764
:103090008827BC01E89411911032E9F3193010F03F
:1030A0001E30C8F31B3251F01D3249F4689406C03B
:1030B0000E947718610F711D811D911D1191105390
:1030C0001A30B0F33EF490958095709561957F4FDE
:1030D0008F4F9F4F1F910895BB274A3031F499239A
:1030E00022F4BDE2909581959F4F0C948D18592F35
:1030F000482F372F262F660F771F881F991F660FBF
:10310000771F881F991F620F731F841F951F660FFB
:10311000771F881F991F0895BB27FB015527AA27F2
:10312000880F991FAA1FA41710F0A41B8395505154
:10313000B9F7A05DAA3308F0A95DA193009779F7CC
:10314000B111B1931192CB010C94A618DC01FC01D2
:10315000672F71917723E1F7329704C07C916D93CB
:1031600070836291AE17BF07C8F308952F923F9204
:103170004F925F926F927F928F929F92AF92BF9287
:10318000CF92DF92EF92FF920F931F93CF93DF9333
:10319000CDB7DEB7CA1BDB0B0FB6F894DEBF0FBE90
:1031A000CDBF09942A88398848885F846E847D84DD
:1031B0008C849B84AA84B984C884DF80EE80FD80DF
:1031C0000C811B81AA81B981CE0FD11D0FB6F89455
:1031D000DEBF0FBECDBFED01089597FB072E16F49D
:1031E000009407D077FD09D00E94481907FC05D04C
:1031F0003EF4909581959F4F0895709561957F4F0E
:103200000895A1E21A2EAA1BBB1BFD010DC0AA1F27
:10321000BB1FEE1FFF1FA217B307E407F50720F03F
:10322000A21BB30BE40BF50B661F771F881F991FBA
:103230001A9469F760957095809590959B01AC0103
:10324000BD01CF010895052E97FB1EF400940E9446
:103250003A1957FD07D00E94011907FC03D04EF41C
:103260000C943A1950954095309521953F4F4F4F0A
:103270005F4F089590958095709561957F4F8F4F22
:103280009F4F0895EE0FFF1F0590F491E02D0994D4
:10329000AA1BBB1B51E107C0AA1FBB1FA617B7077C
:1032A00010F0A61BB70B881F991F5A95A9F7809598
:1032B0009095BC01CD0108950F931F93CF93DF9399
:1032C0008230910510F482E090E0E0912506F091C3
:1032D000260630E020E0B0E0A0E0309799F4211518
:1032E000310509F44AC0281B390B24303105D8F5C3
:1032F0008A819B816115710589F1FB01938382832A
:10330000FE0111C040815181028113814817590784
:10331000E0F04817590799F4109761F012960C9352
:10332000129713961C933296CF01DF91CF911F9184
:103330000F9108950093250610932606F4CF2115CA
:10334000310551F04217530738F0A901DB019A010A
:10335000BD01DF01F801C1CFEF01F9CF909326063F
:1033600080932506CDCFFE01E20FF31F8193919349
:103370002250310939832883D7CF209123063091F9
:103380002406232B41F420915E0130915F0130939C
:1033900024062093230620915C0130915D012115C4
:1033A000310541F42DB73EB7409160015091610164
:1033B000241B350BE0912306F0912406E217F30756
:1033C000A0F42E1B3F0B2817390778F0AC014E5F95
:1033D0005F4F2417350748F04E0F5F1F50932406A8
:1033E00040932306819391939FCFF0E0E0E09CCF40
:1033F000CF93DF930097E9F0FC013297138212829A
:10340000A0912506B0912606ED0130E020E010974E
:10341000A1F420813181820F931F209123063091E6
:1034200024062817390709F061C0F0932406E093B9
:103430002306DF91CF910895EA01CE17DF07E8F563
:103440004A815B819E0141155105B1F7E901FB837A
:10345000EA8349915991C40FD51FEC17FD0761F418
:10346000808191810296840F951FE9019983888359
:10347000828193819B838A83F0E0E0E012968D91B4
:103480009C9113970097B9F52D913C911197CD011F
:103490000296820F931F209123063091240628174D
:1034A000390739F6309751F5109226061092250605
:1034B000B0932406A0932306BCCFD383C28340815C
:1034C0005181840F951FC817D90761F44E5F5F4F74
:1034D00088819981480F591F518340838A819B813C
:1034E000938382832115310509F0B0CFF09326062E
:1034F000E09325069ECFFD01DC01C0CF138212822E
:10350000D7CFB0E0A0E0E7E8FAE10C94B8188C015E
:10351000009751F4CB010E945C198C01C801CDB712
:10352000DEB7E0E10C94D418FC01E60FF71F9C0114
:1035300022503109E217F30708F49DC0D901CD915B
:10354000DC911197C617D70798F0C530D10530F335
:10355000CE0104978617970708F3C61BD70B22974F
:10356000C193D1936D937C93CF010E94F819D6CF6C
:103570005B01AC1ABD0A4C018C0E9D1EA091250664
:10358000B0912606512C412CF12CE12C109731F5ED
:1035900080912306909124068815990509F05CC056
:1035A0004616570608F058C080915C0190915D0165
:1035B000009741F48DB79EB7409160015091610131
:1035C000841B950BE817F90708F055C0F093240603
:1035D000E0932306F90171836083A0CF8D919C91C4
:1035E000119712966C90129713967C901397A815CA
:1035F000B90559F56C0142E0C40ED11CCA14DB04B4
:1036000020F1AC014A195B09DA011296159780F096
:103610006282738251834083D9016D937C93E1145C
:10362000F10471F0D7011396FC93EE93129776CFC5
:1036300022968C0F9D1FF90191838083F301EFCFB8
:10364000F0932606E093250669CF4816590608F43C
:103650002C017D01D3019ACFCB010E945C197C0122
:10366000009749F0AE01B8010E943E1BC8010E94BC
:10367000F819870153CF10E000E050CFFB01DC01C7
:1036800002C001900D9241505040D8F70895FB01BF
:10369000DC0101900D920020E1F7089511E0C2E2F3
:1036A000D1E004C0FE010E9442192196C332D10725
:0636B000C9F7F894FFCFFA
:1036B60000000000000073020000000000009402F9
:1036C600000000000000B302000000000000CB0272
:1036D600000000000000EF020000000000004403AC
:1036E600000000000000970301002C01000000000C
:1036F6000000C7010607080E0203040531323341F4
:1037060034353642373839432A30234400002706F9
:103716008000000040001400540000000000250551
:103726008504B2047205E304C104D5040000000058
:103736002F0A020A450BD809FB09E809D909000036
:10374600000047020702D60100000000EB078807C9
:10375600920500000000C90B8504450B71097365CD
:10376600672E005665726D656C686F0056657264EB
:1037760065003530000D0A00202020202020202062
:1037860020202020202020200053454E4841205351
:10379600414C56413A200039300031383030003241
:1037A60036300033363030004C494D2E20504F4EC7
:1037B600544F532053414C564F3A20005361626F89
:1037C600746167656D00204A6F676F3A2000426F2B
:1037D60074616F00202D2041726D61723A200043A2
:1037E60051420050616472616F0043616D706F20D9
:1037F60041626572746F00202D204475722E3A2046
:1038060000202D2054656D706F3A2000202D205326
:10381600656E68613A2000202D20506F6E746F73BC
:103826003A200020283129204E6F766F204A6F6794
:103836006F202D2028322920556C74696D6F204A1F
:103846006F676F0020283129205361626F746167AA
:10385600656D202D2028322920446F6D696E6163C5
:10386600616F002028312920426F74616F202D205E
:103876002832292043617274616F00202831292083
:10388600426F74616F202D202832292043617274A3
:10389600616F202D202833292053656E6861002032
:1038A600283129204351423A2031306D696E2E204D
:1038B6002D202832292050616472616F3A203330FE
:1038C6006D696E2E202D202833292043616D706F7F
:1038D6002041626572746F3A2036306D696E2E2013
:1038E6002D2028342920506572736F6E616C697AB9
:1038F6006164610020283129204351423A20353045
:10390600732E202D202832292050616472616F3A6F
:1039160020316D3330732E202D202833292043612A
:103926006D706F2041626572746F3A20346D32306B
:10393600732E202D2028342920506572736F6E61F6
:103946006C697A6164610020446573656A61207000
:103956006572736F6E616C697A6172206F206D613A
:10396600782E20646520706F6E746F733F20285028
:10397600414452414F203D202854656D706F204CC4
:08398600696D2E2F32290000AB
:00000001FF
