:100000000C9469010C9491010C9491010C94910150
:100010000C9491010C9491010C9491010C94910118
:100020000C9491010C9491010C9491010C94910108
:100030000C9491010C9491010C9491010C949101F8
:100040000C943B100C9491010C94AB100C94851003
:100050000C9491010C9491010C9491010C949101D8
:100060000C94DD100C9491014469676974652075E6
:100070006D2076616C6F7221004552524F00202036
:100080002020202020202020202020202020002090
:100090002020202020202020202020202020200080
:1000A00053697374656D6120696E69636961646F1A
:1000B0000042656D2D56696E646F21004573636F54
:1000C0006C6861206F206D6F646F004D6F646F20EE
:1000D00064652061726D6172002020202020202044
:1000E00020202020202020202000446566696E61A9
:1000F00020612073656E68610053656E68612073CE
:10010000616C7661004C696D69746520646520746A
:10011000656D706F0054656D706F2061706F732036
:1001200061726D617200202020202020202020207C
:1001300020202020202000202020202020202020DF
:10014000202020202020200054656D706F206170D9
:100150006F732061726D6172007365672E00546564
:100160006D706F206578706C6F73616F0073656779
:100170002E0054656D706F206C696D697465002088
:10018000202020202020202020202020202020008F
:10019000202020202020202020202020202020205F
:1001A0000054656D706F206C696D6974650028314D
:1001B0002953696D202D202832294E616F0020209F
:1001C000202020202020202020202020202000204F
:1001D000202020202020202020202020202020003F
:1001E0004465662E206D61782E207074732E004D4C
:1001F00061782E20646520706F6E746F730020200C
:100200002000202D20506F6E746F733A20007365AC
:10021000672E00202D2054656D706F3A2000202D30
:100220002053656E68613A20007365672E00202DAB
:100230002054656D706F3A2000202D204475722E79
:100240003A2000202D2041726D61723A2000204A30
:100250006F676F3A2000312D496E696369617220C2
:10026000422D536169720053454E48412045525218
:100270004144410000000000240027002A00000043
:100280000000250028002B000000000023002600AD
:100290002900040404040404040402020202020209
:1002A000030303030303010204081020408001023A
:1002B00004081020010204081020000000080002B9
:1002C0000100000304070000000000000000FC1112
:1002D0007E2111241FBECFEFD8E0DEBFCDBF27E0C7
:1002E000A6EDB4E001C01D92A334B207E1F714E01B
:1002F000A0E0B1E0EEE0FFE402C005900D92A63D63
:10030000B107D9F711E0C8E6D1E004C02197FE019A
:100310000E94B722C736D107C9F70E9415130C9463
:100320007A270C940000CF93DF9366E277E0EFE04A
:10033000F7E0DF019B0190E0AD014F5057404817B7
:100340005907BCF4E90159919E014D915417A1F34D
:10035000815F984F8E179F0779F0DB013D91BD01BA
:10036000319621853217B1F38FEF9FEFDF91CF9157
:10037000089590E080E0FACF81E090E0F7CF96E03A
:10038000899FD0011124A056B94F90967C936E930B
:100390005F9791E091969C939197E0910D07F09172
:1003A0000E0790910C07992339F0309751F0811185
:1003B00008C08091BC060994309719F05C968C9126
:1003C000FACF08958CBD9DBD0895833081F028F447
:1003D000813099F08230A9F008958730A9F08830F3
:1003E000C9F08430B1F4809180008F7D03C080918A
:1003F00080008F7780938000089584B58F7784BDC7
:10040000089584B58F7DFBCF8091B0008F77809366
:10041000B00008958091B0008F7DF9CFCF93DF9326
:10042000282F30E0F901E654FD4F8491F901EA5597
:10043000FD4FD491F901EE56FD4FC491CC23A1F0AC
:1004400081110E94E501EC2FF0E0EE0FFF1FE8574D
:10045000FD4FA591B491EC91ED2381E090E009F47A
:1004600080E0DF91CF91089580E090E0FACF862F71
:100470000C940E021F93CF93DF93282F30E0F901E5
:10048000E654FD4F8491F901EA55FD4FD491F901ED
:10049000EE56FD4FC491CC23A9F0162F81110E9476
:1004A000E501EC2FF0E0EE0FFF1FE258FD4FA591A4
:1004B000B4918FB7F894EC91111108C0D095DE2358
:1004C000DC938FBFDF91CF911F910895DE2BF8CF82
:1004D000862F642F0C943A02CF93DF9390E0FC01B7
:1004E000EA55FD4F24918E569D4FFC01849188233F
:1004F000C9F090E0880F991FFC01EC58FD4FA591C1
:10050000B491FC01E258FD4FC591D49161110DC029
:100510009FB7F8948C91209582238C93888128230F
:1005200028839FBFDF91CF910895623051F49FB728
:10053000F8943C91822F809583238C93E8812E2B15
:10054000EFCF8FB7F894EC912E2B2C938FBFEACF7F
:10055000862F642F0C946C023FB7F8948091BD05F0
:100560009091BE05A091BF05B091C00526B5A89B8E
:1005700005C02F3F19F00196A11DB11D3FBFBA2F35
:10058000A92F982F8827BC01CD01620F711D811DF5
:10059000911D42E0660F771F881F991F4A95D1F77A
:1005A00008958F929F92AF92BF92CF92DF92EF9277
:1005B000FF924B015C010E94AC026B017C010E9426
:1005C000AC026C197D098E099F09683E7340810554
:1005D0009105A8F321E0821A9108A108B10888EEDC
:1005E000C80E83E0D81EE11CF11C81149104A10403
:1005F000B10429F7FF90EF90DF90CF90BF90AF90BC
:100600009F908F9008952FB7F8946091B9057091DD
:10061000BA058091BB059091BC052FBF08950F933B
:100620001F93CF93DF93C82FD62F86E0C89FF0018A
:100630001124E056F94F11A2878D90A181309105C8
:10064000F1F058F082309105F1F1039709F440C0C0
:10065000DF91CF911F910F9108956623C9F361E057
:1006600070E08C2F0E94BF010E9403036093F80684
:100670007093F9068093FA069093FB06E9CF0E94E7
:1006800003030091F8061091F9062091FA063091C3
:10069000FB06AB01BC01401B510B620B730B80913D
:1006A0000A0790910B07B0E0A0E084179507A60712
:1006B000B70748F462E070E08C2FDF91CF911F9173
:1006C0000F910C94BF0163E070E0D111C1CFF4CF62
:1006D00070E060E0F1CF6F927F928F929F92AF9225
:1006E000BF92CF92DF92EF92FF920F931F93CF931F
:1006F000DF930E9403030091FC061091FD062091F8
:10070000FE063091FF06AB01BC01401B510B620B92
:10071000730B8091080790910907B0E0A0E010E00A
:1007200084179507A607B70708F0F7C0C0E08091C7
:100730000607C81760F4E0910207F0910307EC0F79
:10074000F11D62E080810E946C02CF5FF0CF712CBE
:10075000812C912C5401839480910707781608F01E
:100760005FC0072D10E0E0910407F0910507E00F4E
:10077000F11F61E080810E946C02E0910407F0911A
:100780000507E00FF11F60E080810E943A02D50169
:10079000C401072C04C0880F991FAA1FBB1F0A940D
:1007A000D2F76C017C01E094F094612C80910607F3
:1007B0006816F8F4C62DD0E0E0910207F091030727
:1007C000EC0FFD1F80810E940E022496CC0FDD1FCE
:1007D000C056D94F892B41F4888199818C299D2954
:1007E000998388836394E2CF888199818E219F21A8
:1007F000F7CFE0910407F0910507E00FF11F61E0EA
:1008000080810E943A028091040790910507080FA9
:10081000191F60E0F80180810E946C0273949CCFE4
:10082000C0EAD6E0FE018FEF9FEF278D30A1232B8A
:1008300021F4148E968F858F11A2369626E0EC3D1A
:10084000F20799F7F12C96E0D92E80910607F81659
:1008500008F050C0E12C0F2D10E0000F111F0855BB
:10086000194F20910707E21608F042C0F801608195
:1008700071810E2C02C0769567950A94E2F7F29E7C
:10088000900111242E0D311DE0EAF6E080E0458D47
:10089000568D2417350709F450C08F5F36968A307D
:1008A000B1F760FF23C0E0EAF6E090E080E0448D1D
:1008B000411117C0E0910007F0910107E20FF31F0B
:1008C0004081D89EF001D99EF00D1124E056F94FD9
:1008D000448F368F258F10A2178E61E00E940F0380
:1008E00005C0019636968A30910509F7E394B9CF91
:1008F000F394ABCF10E089A18111182F2696F6E072
:10090000CC3DDF07C1F70E9403036093FC067093A0
:10091000FD068093FE069093FF06812FDF91CF9115
:100920001F910F91FF90EF90DF90CF90BF90AF900D
:100930009F908F907F906F9008956170CFCF81E0EE
:1009400080930C070E946B03882369F08091C10695
:10095000882349F08091BF069091C006019719F451
:100960008091BC06089510920C0780E008950895C8
:100970000895DB0114964D915C9115976D917C91D2
:10098000DC01ED91FC910280F381E02D0994EF925E
:10099000FF920F931F93CF93DF938C017B01D0E0E5
:1009A000C0E0F701EC0FFD1F6491662361F0D801F0
:1009B000ED91FC910190F081E02DC8010995892B02
:1009C00011F02196EECFCE01DF91CF911F910F91C3
:1009D000FF90EF900895AF92BF92CF92DF92EF9287
:1009E000FF920F931F93CF93DF936C017B018B01D9
:1009F000040F151FEB015E01AE18BF08C017D10729
:100A000059F06991D601ED91FC910190F081E02DB2
:100A1000C6010995892B79F7C501DF91CF911F9107
:100A20000F91FF90EF90DF90CF90BF90AF9008951F
:100A3000FC01538D448D252F30E0842F90E0821BE4
:100A4000930B541710F0CF96089501970895FC0169
:100A5000918D828D981761F0A28DAE0FBF2FB11DC1
:100A60005D968C91928D9F5F9F73928F90E0089519
:100A70008FEF9FEF0895FC01918D828D981731F0D3
:100A8000828DE80FF11D858D90E008958FEF9FEF27
:100A90000895FC01918D228D892F90E0805C9F4FFD
:100AA000821B91098F739927089581EC95E00E942C
:100AB000490521E0892B09F420E0822F089580E088
:100AC00090E0892B29F00E94550581110C940000BB
:100AD0000895FC01A48DA80FB92FB11DA35ABF4FD3
:100AE0002C91848D90E001968F739927848FA6892D
:100AF000B7892C93A089B1898C91837080648C9381
:100B0000938D848D981306C00288F389E02D80812F
:100B10008F7D80830895EF92FF920F931F93CF9361
:100B2000DF93EC0181E0888F9B8D8C8D98131AC028
:100B3000E889F989808185FF15C09FB7F894EE890F
:100B4000FF896083E889F98980818370806480836C
:100B50009FBF81E090E0DF91CF911F910F91FF90B7
:100B6000EF900895F62E0B8D10E00F5F1F4F0F735F
:100B70001127E02E8C8D8E110CC00FB607FCFACF1A
:100B8000E889F989808185FFF5CFCE010E9469054A
:100B9000F1CFEB8DEC0FFD2FF11DE35AFF4FF082EB
:100BA0009FB7F8940B8FEA89FB8980818062CFCF51
:100BB000CF93DF93EC01888D8823B9F0AA89BB8994
:100BC000E889F9898C9185FD03C0808186FD0DC07F
:100BD0000FB607FCF7CF8C9185FFF2CF808185FFA0
:100BE000EDCFCE010E946905E9CFDF91CF91089545
:100BF000BC016E5F7F4FDC01ED91FC910190F081B3
:100C0000E02D40E0099591E0811190E0892F089551
:100C100008958EBD00000DB407FEFDCF8EB508957A
:100C2000DF92EF92FF920F931F93CF93DF937C019C
:100C3000062FD42E152F80E590E00E94E20160E09F
:100C4000F70186850E943A0282E10E940906CD2DB5
:100C5000D12F0C0F1D2F111DC017D10721F0899125
:100C60000E940906F9CF61E0F7018685DF91CF91F7
:100C70001F910F91FF90EF90DF900C943A021F9319
:100C8000CF93DF93EC01162F80E590E00E94E20104
:100C900060E08E850E943A02812F80680E940906DA
:100CA00080E00E940906182F61E08E850E943A02BA
:100CB000812FDF91CF911F9108950F931F93CF93B1
:100CC000DF93EC01062F142F80E590E00E94E201F3
:100CD00060E08E850E943A02802F0E940906812FD3
:100CE0000E94090661E08E85DF91CF911F910F91DF
:100CF0000C943A02CF92DF92EF92FF920F931F93E0
:100D0000CF93DF93EC016B01F42E890140E062E0A8
:100D10000E945D0644E06AE0CE010E945D0640E864
:100D200064E1CE010E945D06A6016F2DCE010E94F6
:100D3000100643E062E0CE010E945D060E940303BC
:100D40006B017C0129E5C20ED11CE11CF11C6AE09B
:100D5000CE010E943F0682FF1BC040E062E0CE0150
:100D60000E945D0664E4CE010E943F06F801808384
:100D700062E4CE010E943F06F801818380E0DF91AA
:100D8000CF911F910F91FF90EF90DF90CF9008953A
:100D90000E9403036C157D058E059F05C0F283E05C
:100DA000EECF2F923F924F925F926F927F928F92EF
:100DB0009F92AF92CF92DF92EF92FF920F931F9389
:100DC000CF93DF9300D0CDB7DEB74C012B01D42EEB
:100DD000390180E0E114F10411F0F70180813C2C2D
:100DE000329490EF3922380E40E062E0C4010E9454
:100DF0005D064FE768E0C4010E945D0640E864E1DB
:100E0000C4010E945D06A2016D2DC4010E9410065E
:100E1000432D6AE1C4010E945D064CE062E0C4011A
:100E20000E945D066AE1C4010E943F06482F4068A7
:100E30006AE1C4010E945D060E9403031B012C01AC
:100E4000F4E22F0E311C411C511C68E0C4010E94C9
:100E50003F06982F907309F0B7C080FF15C083E05C
:100E60000F900F90DF91CF911F910F91FF90EF9016
:100E7000DF90CF90AF909F908F907F906F905F901A
:100E80004F903F902F9008950E94030362157305C1
:100E900084059505D0F2E3CF6114710409F469C0AB
:100EA0000115110509F465C064E1C4010E943F0603
:100EB000382EF8018081831508F480C030823320F9
:100EC000E1F180E590E00E94E20160E0F4018685B6
:100ED0000E943A023A9482E90E940906CC20B1F0BD
:100EE0008FEF90E09C0102C0220F331FCA94E2F7FB
:100EF000690182E90E9409069C2D9095F3012081E9
:100F000092238C21982B9083CC24C39423014C0CE6
:100F1000511CC31440F482E90E940906F201819336
:100F20002F01C394F6CF80E00E940906F20180836E
:100F300061E0F40186850E943A0268E1C4010E94E2
:100F40003F068770E114F10411F0F701808323FC60
:100F500037C061147104B1F10115110599F1AA208E
:100F600089F1F8014081413031F4843029F58FEF67
:100F700077CF80E0ECCF4230F8F081111DC04250B5
:100F80009E012F5F3F4FB301C4010E947A06811179
:100F900067CFF8019081690E711CF30132972081AF
:100FA0009981291309C0F1E06F1A7108F3012081BA
:100FB0009A81291709F454CF87E052CF84E050CFAB
:100FC00082E04ECF80E04CCF6CE0C4010E943F062F
:100FD000282E837109F460CF81E042CF8F929F92D7
:100FE000AF92CF92DF92EF92FF920F931F93CF9326
:100FF000DF9300D000D0CDB7DEB74C0180E5898308
:101000001A829E012D5F3F4F42E0BE016F5F7F4F0E
:10101000C4010E947A06D82E811116C0A12CC12CC1
:10102000F12CE12C10E000E030E020E044E0BE01D3
:101030006F5F7F4FC4010E94D106833029F0D82E04
:10104000811102C0DD24D3948D2D0F900F900F904D
:101050000F90DF91CF911F910F91FF90EF90DF9054
:10106000CF90AF909F908F9008950F931F93CF9341
:10107000DF938C01D62FC42F0E943F06C0954C2FC2
:1010800048236D2FC801DF91CF911F910F910C94D0
:101090005D0648E060E183E297E00C9435088F92AA
:1010A0009F92AF92CF92EF92FF920F931F93CF93A5
:1010B000DF9300D000D01F92CDB7DEB74C0182E0A5
:1010C0008D8340E064E2C4010E945D0640E066E278
:1010D000C4010E945D0646E268E4C4010E945D0608
:1010E00086E28B838D818230B0F140E86CE1C401EF
:1010F0000E94350887E08C83A12CC12CCE01049678
:101100007C018E010B5F1F4F9E012F5F3F4F41E01F
:10111000BE016D5F7F4FC4010E94D106982F8111DF
:1011200017C08D818230B9F48C81811114C081E0A7
:101130000F900F900F900F900F90DF91CF911F9114
:101140000F91FF90EF90CF90AF909F908F90089568
:1011500081E0923069F380E0EBCF2F923F924F9283
:101160005F926F927F928F929F92AF92BF92CF9237
:10117000DF92EF92FF920F931F93CF93DF93CDB740
:10118000DEB72D970FB6F894DEBF0FBECDBF16E0C9
:10119000413508F045C1342E4B013C0140E86CE17B
:1011A0000E94350883E98983332029F081E0F40126
:1011B0009081953008F480E022242394B12C9B2D5B
:1011C000990F990F990FD32CD91AD7FCD12C32E053
:1011D000882319F098E89B8333E021E09D2D9770D8
:1011E00009F420E09D2D959595959595290FC9F0C9
:1011F00094E0811193E0291708F4922FEB2DF0E091
:101200003196E80DF91D232F4191A1E0B0E0AC0F1C
:10121000BD1FA20FB11D4C932F5F422F431B4917D7
:1012200098F3882311F0F8E0DF0E8FE18D150CF0B4
:1012300082C090E79A838B819C8189279D81892731
:101240009E8189278F839E01285F3F4F47E0BE0123
:101250006F5F7F4FC3010E947A06182F8111E0C093
:101260001A86E3E0EB87DC86CE0107962C0199E035
:101270009D87CA844C2D4295407F4C0D6AE1C30185
:101280000E945D06A12CCE010A967C018E01055FAD
:101290001F4F92014D85BE016F5F7F4FC3010E94BA
:1012A000D106182F823009F065C06CE1C3010E949D
:1012B0003F0685FDB5C08F7109F480E2282F30E02C
:1012C0004D2DDD0C550B421753070CF09DC0D82E49
:1012D000E82FE595E595E595EF5F982F977081E00C
:1012E00009F480E0E80F81E090E08C0F9D1F8E0FE5
:1012F000911DFC01215031092770332781E090E0D6
:1013000002C0880F991F2A95E2F79C018081822BE9
:1013100080838BCF85E98983332031F081E0F4012C
:101320009081983008F04BCF80E049CF87E98983DE
:1013300026E0B22EF9CF9D2D97709A878D2D859539
:10134000859585958E5F282F2295207F290F2A83EA
:1013500021E0911101C020E0280F2D8744244394FF
:10136000512C4C0E5D1E480E511CE9E0E81BEB872A
:10137000DC867FCF811154C080E2D82E9C859032CC
:101380000CF457CF8B81883809F040C083E093E09C
:10139000EB2DF0E03196E80DF91D980FA1E0B0E0DB
:1013A000AC0FBD1FA80FB11D2C9121938F5F891326
:1013B000F5CFBB84E3E0BE124DC08A8581114AC0DF
:1013C0009E012D5F3F4F41E0B201C3010E947A06AA
:1013D000182F811125C09B81F201818198133CC097
:1013E0009C818281981338C0808182FF12C023942F
:1013F000F2E02F1609F48ECF83E0281609F496CF79
:1014000091E0291609F4CECE15E00AC082E094E0FE
:10141000BFCFF4018387822D880F820D8F5F808379
:10142000812F2D960FB6F894DEBF0FBECDBFDF9192
:10143000CF911F910F91FF90EF90DF90CF90BF90D1
:10144000AF909F908F907F906F905F904F903F9064
:101450002F90089511E0E4CF17E0E2CF0895209196
:101460001705260F3327331F21323105ECF4209165
:101470006005FC0190E080E0243069F082E008958E
:10148000A09117052191AC0149505B4FA40FB52FD6
:10149000B11D2C930196861798F380911705680F5C
:1014A0006093170580E0089581E00895109260052B
:1014B00081E080935F0510923A0561E082E10E942D
:1014C0003A0261E083E10E943A02E9EBF0E08081B8
:1014D0008E7F808380818D7F808388E48093B800B5
:1014E00085E48093BC000895CF93DF9391E09093BF
:1014F000F6048823B9F0C091B800D091BA00809169
:10150000BC008A7B8093BC0060E082E10E943A02CA
:1015100060E083E10E943A020E94560AD093BA002A
:10152000C093B800DF91CF9108950895E0918F05A1
:1015300080918E05E81730F4F0E0EA52FB4F80818D
:1015400090E008958FEF9FEF089590918F0580911F
:101550008E052FEF3FEF981748F4E92FF0E0EA529D
:10156000FB4F208130E09F5F90938F05C901089564
:1015700080918E0590918F05891B990B0895CF92CC
:10158000DF92EF92FF920F931F93CF93DF937C0133
:10159000CB018A0120916605222389F0EB016B01C2
:1015A000C40ED51ECC15DD0569F06991D701ED910A
:1015B000FC910190F081E02DC7010995F3CF642FD4
:1015C0000E942F0AC801DF91CF911F910F91FF90C8
:1015D000EF90DF90CF900895CF93DF931F92CDB718
:1015E000DEB76983209166052223F9F020918C05EE
:1015F000203258F021E030E0FC013383228390E078
:1016000080E00F90DF91CF91089580918D05E82FB4
:10161000F0E0E959FA4F998190838F5F80938D05AF
:1016200080938C0581E090E0ECCF61E0CE010196E3
:101630000E942F0AF7CFCF92DF92EF92FF920F9383
:101640001F93CF93DF93FC01C48121E020936605B3
:10165000C093870510928D0510928C058385682BA9
:101660008EE596E00E94EC0AD0918C05D13208F00C
:1016700092C00E94AC026B017C01809160058111D7
:1016800065C082E08093600581E080935F058FEF05
:1016900080935E0510925D05D0935C05A7E6B5E0EA
:1016A000ECE3F5E080E0D81385C010923B05809113
:1016B0003B05CC0FC82BC0933B0580913A05813088
:1016C00009F07CC010923A050E94AC026B017C01CB
:1016D00080913B058093BB008091620590916305EA
:1016E000A0916405B0916505892B8A2B8B2B99F00D
:1016F0000E94AC020091620510916305209164057F
:10170000309165056C197D098E099F090617170729
:1017100028073907E0F18091BC0083FDD9CF85EC23
:101720008093BC000E94AC026B017C01809160053B
:10173000823009F445C080915E058F3F61F1809150
:101740005E05803241F180915E0525C08091620581
:1017500090916305A0916405B0916505892B8A2B52
:101760008B2B09F48ACF0E94AC0200916205109184
:10177000630520916405309165056C197D098E091A
:101780009F09061717072807390708F076CF8091B9
:1017900061050E94740A10928D0510928C051092BA
:1017A0006605DF91CF911F910F91FF90EF90DF9031
:1017B000CF9008959D9191938F5F75CF85EEB0CFB7
:1017C0008091620590916305A0916405B0916505D3
:1017D000892B8A2B8B2B09F4A9CF0E94AC02009194
:1017E00062051091630520916405309165056C19BF
:1017F0007D098E099F09061717072807390708F082
:1018000095CFC5CF90E080E00895CF93C82F0E9478
:101810000E02892B61F48C2F0E940E02892B51F449
:101820006AE070E080E090E00E94D102F4CF80E0B6
:10183000CF91089581E0FCCF9093B7058093B605D2
:101840001092B50510921901109218011092110111
:10185000109210011092390110923801109231014A
:10186000109230011092290110922801109221014A
:1018700010922001109201011092000110920901B2
:1018800010920801892B81F41092B4051092B305CF
:101890001092B2051092B1051092AA051092A905F6
:1018A0001092B0051092AF0508950F931F93CF9338
:1018B0008C01C62F0E941B0B6C2F6460C8010E9414
:1018C0001B0B6C2F6B7FC8010E941B0B83EC90E0FD
:1018D0000197F1F7CF911F910F9108950F931F93E7
:1018E000CF93DF938C01D62FC42F607F642B0E948F
:1018F000550C80E1D89FB00111246C2BC801DF91F9
:10190000CF911F910F910C94550C40E061E083E35F
:1019100097E00E946E0C8BE39FE10197F1F7089529
:10192000CF93DF93CDB7DEB728970FB6F894DEBF1D
:101930000FBECDBF98E0E2E8F1E0DE011196019024
:101940000D929A95E1F790913B07961710F46FEF7F
:10195000690F262F30E0220F331F41E050E04C0F7B
:101960005D1F240F351FF9016081680F606840E03A
:1019700083E397E028960FB6F894DEBF0FBECDBF85
:10198000DF91CF910C946E0CCF93DF93EC010E940A
:10199000850C60E086E00E94900C69E770E083E3CC
:1019A00097E00E94C70468EE73E080E090E00E9438
:1019B000D102CE01DF91CF910C941C0CCF93DF9319
:1019C000EC010E94850C60E080E00E94900C68E6CB
:1019D00070E083E397E00E94C70468EB7BE080E05F
:1019E00090E00E94D102CE01DF91CF910C941C0CAB
:1019F00041E00E946E0C81E090E008950F931F93E8
:101A0000CF93DF938C0140E060E483E397E00E9492
:101A10006E0CE801085F1F4F699183E397E00E9415
:101A2000F80C0C171D07C1F7DF91CF911F910F9193
:101A300008958F929F92AF92BF92CF92DF92EF92D2
:101A4000FF92CF936C0182E591E00E94FE0C0E9410
:101A500003034B015C0161E080E00E94900C6FE8A1
:101A600070E083E397E00E94C7040D2C000CEE08A1
:101A7000FF08C0E00E940303681979098A099B09DD
:101A80006C157D058E059F05E8F461E08C2F0E94A2
:101A9000900C60E083E397E00E94F80C6AEF70E03E
:101AA00080E090E00E94D102CF5FC03119F761E081
:101AB00080E00E94900C6EE770E083E397E00E9464
:101AC000C704D7CFCF91FF90EF90DF90CF90BF901A
:101AD000AF909F908F900895FB0101900020E9F74F
:101AE0003197AF01461B570BDC01ED91FC91028051
:101AF000F381E02D0994BC0183E397E00C946C0D15
:101B00008F929F92AF92BF92CF92DF92EF92FF920D
:101B1000CF93DF93CDB7DEB7A1970FB6F894DEBFB2
:101B20000FBECDBF6C01990FEE08FF08F7FE40C055
:101B300041E06DE283E397E00E946E0C2227332799
:101B4000A9012C193D094E095F0919A2CE01819600
:101B50007C019AE0892E912CA12CB12CCA01B901EB
:101B6000A50194010E947622605DF70162937F01D6
:101B7000211531054105510589F790E080E0309746
:101B800029F0BF0183E397E00E946C0D0196A196B6
:101B90000FB6F894DEBF0FBECDBFDF91CF91FF909F
:101BA000EF90DF90CF90BF90AF909F908F9008956F
:101BB000A701960119A2CE0181967C018AE0882EA8
:101BC000912CA12CB12CCA01B901A50194010E944C
:101BD0007622605DF70162937F0121153105410591
:101BE000510589F790E080E0309789F2BF0183E3E7
:101BF00097E00E946C0DCBCF4F925F926F927F92D5
:101C00008F929F92AF92BF92CF92DF92EF92FF920C
:101C10000F931F93CF93DF93EC01F62E49015A01E6
:101C2000AE81BF81FD0101900020E9F731978F015E
:101C30000A1B1B0B0E9403034A805B806C807D8023
:101C40006419750986099709681579058A059B0540
:101C5000A8F1680180E1C80ED11C0E9403036A83C9
:101C60007B838C839D836F2D80E00E94900CF12CF0
:101C7000E12C888199818E0D9F1DB6010E94622200
:101C800041E060E28017910734F4EE81FF81E80FB4
:101C9000F91F41E0608183E397E00E946E0C8FEFB3
:101CA000E81AF80A80E1E816F10419F788819981A9
:101CB0000196B6010E94622299838883DF91CF91B9
:101CC0001F910F91FF90EF90DF90CF90BF90AF905A
:101CD0009F908F907F906F905F904F900895CF93DB
:101CE000DF93EC018091B50581110DC00E94850C38
:101CF00060E081E00E94900C8EEC91E00E947B0DF0
:101D000081E08093B50526E930E040E050E061E0F5
:101D100070E088E091E0219711F480E091E00E946A
:101D2000FC0D0E949F04882389F00E94850C8DED94
:101D300091E00E947B0D6CED75E080E090E00E94E8
:101D4000D102F0E0E0E0DF91CF910994DF91CF91F3
:101D50000895FC0124813581232B39F421E0FB0116
:101D60008081882349F020E007C0808191810E9412
:101D7000BC2421E0892BB9F7822F0895FC018081D2
:101D80009181009711F00C94AA2160E070E0CB01E2
:101D90000895CF93DF93EC018091B50581111EC0AA
:101DA0000E94850C60E080E00E94900CD093B0050A
:101DB000C093AF058CEE91E00E947B0D88E896E021
:101DC0000E94BE0E6A327340810591057CF480EA60
:101DD0009FE00E94190D81E08093B5050E94850C5B
:101DE00085E190E0DF91CF910C941C0C80E49FE1A1
:101DF000F0CF0F931F93CF93DF93EC0188819981EC
:101E0000009759F02A813B812617370730F081E08F
:101E1000DF91CF911F910F9108958B016F5F7F4FDD
:101E20000E94F623009759F0998388831B830A83C5
:101E30002C813D81232B59F7FC011082E8CF80E0F3
:101E4000E7CF0F931F93CF93DF938C010E94D8218C
:101E50000097F1F0C0916E06D0916F06C80FD91FA0
:101E6000BE018AE696E00E94F90E882391F0209147
:101E70006A0630916B0680916E0690916F06B801EC
:101E8000820F931F0E94D121D0936F06C0936E06DC
:101E900081E0DF91CF911F910F910895EF92FF9212
:101EA0000F931F93CF93DF936115710541F480E089
:101EB000DF91CF911F910F91FF90EF900895411501
:101EC0005105B1F07B01EC010C811D81040F151F40
:101ED000B8010E94F90E882351F3288139818C8141
:101EE0009D81B701820F931F0E94C5241D830C831F
:101EF00081E0DECFFC0144815581608171818AE6F9
:101F000096E00C944E0FCF93DF9300D0CDB7DEB7A1
:101F100069831A8241E050E0BE016F5F7F4F0E94EB
:101F20004E0F0F900F90DF91CF910895CF93DF93D5
:101F3000EC0188819981009711F00E946D2319822C
:101F400018821D821C821B821A82DF91CF91089514
:101F5000EF92FF920F931F93CF93DF93EC017B01DE
:101F60008A01BA010E94F90E81110BC0CE010E94B4
:101F7000960FCE01DF91CF911F910F91FF90EF90BF
:101F800008951D830C83B701888199810E94C5241F
:101F9000F0CFFB0101900020E9F73197AF01461B1C
:101FA000570B0C94A80FCF93DF93EC01FB0186171E
:101FB000970749F0608171816115710541F0448195
:101FC00055810E94A80FCE01DF91CF9108950E9404
:101FD000960FF9CFFC0111821082138212821582B2
:101FE0001482FB0101900020E9F73197AF01461BF5
:101FF000570B0C94A80FFC0180819181009711F080
:102000000C946D23089585ED8093BC00809162054A
:1020100090916305A0916405B09165050796A11D97
:10202000B11D23E0B695A795979587952A95D1F789
:102030002091BC0024FD03C01092600508954091DA
:102040006205509163056091640570916505452BAB
:10205000462B472B69F30097A105B10541F02AE211
:102060002A95F1F700C00197A109B109E1CF80914C
:1020700061050C94740A1F920F920FB60F921124EF
:102080002F933F938F939F93AF93BF938091B90505
:102090009091BA05A091BB05B091BC053091B805EF
:1020A00023E0230F2D3758F50196A11DB11D209374
:1020B000B8058093B9059093BA05A093BB05B0937A
:1020C000BC058091BD059091BE05A091BF05B09162
:1020D000C0050196A11DB11D8093BD059093BE055D
:1020E000A093BF05B093C005BF91AF919F918F9111
:1020F0003F912F910F900FBE0F901F90189526E8DB
:10210000230F0296A11DB11DD2CF1F920F920FB6C1
:102110000F9211242F933F934F935F936F937F936D
:102120008F939F93AF93BF93EF93FF9381EC95E0D1
:102130000E946905FF91EF91BF91AF919F918F919F
:102140007F916F915F914F913F912F910F900FBEB3
:102150000F901F9018951F920F920FB60F92112497
:102160002F938F939F93EF93FF93E091D105F0917D
:10217000D2058081E091D705F091D80582FD1BC082
:1021800090818091DA058F5F8F732091DB05821734
:1021900041F0E091DA05F0E0EF53FA4F958F80932C
:1021A000DA05FF91EF919F918F912F910F900FBEC4
:1021B0000F901F9018958081F4CF1F920F920FB649
:1021C0000F9211242F933F934F935F936F937F93BD
:1021D0008F939F93AF93BF93EF93FF938091B90039
:1021E000887F803609F44AC0F0F5883209F4A7C028
:1021F00018F5803109F49BC0B8F4882309F4F9C0BC
:10220000883009F494C0FF91EF91BF91AF919F91F5
:102210008F917F916F915F914F913F912F910F908F
:102220000FBE0F901F901895883109F488C0803236
:1022300051F780935E0514C0803409F49DC040F4CA
:102240008033B9F38833F9F680935E0585ECB0C02E
:10225000803509F485C0883509F496C0883499F62C
:102260000E940310D0CF883909F48CC038F5883724
:1022700029F050F4883611F0803729F683E08093F6
:1022800060051092390557C0883809F47BC0803941
:1022900019F0803809F0B7CF80913905803208F005
:1022A00071C0E091390581E08E0F809339058091EE
:1022B000BB00F0E0E75EFA4F80833DC0803B39F021
:1022C000E0F4803A09F479C0883A09F09CCF84E0C0
:1022D000809360051092180510921705E0918A0509
:1022E000F0918B0509958091170581110FC081E050
:1022F000809317051092F70409C0803C09F4A6CF1B
:10230000883C09F4A3CF883B09F07DCFE091180504
:1023100081E08E0F80931805F0E0E950FB4F80813B
:102320008093BB00909118058091170529C080917A
:102330003B058093BB0085EC8093BC0064CF9091FB
:102340005D0580915C05981758F5E0915D0581E089
:102350008E0F80935D05F0E0E45CFA4F8081E9CF59
:10236000E0915D0581E08E0F80935D058091BB005B
:10237000F0E0E45CFA4F808390915D0580915C050C
:102380009817C8F285E8D8CFE0915D0581E08E0FFF
:1023900080935D058091BB00F0E0E45CFA4F8083A0
:1023A00080915F0581115CCF81E080933A0584EADA
:1023B0008093BC001092600526CF85EC8093BC0012
:1023C0001092600580913905803230F4E091390532
:1023D000F0E0E75EFA4F10826091390570E0E0911D
:1023E0008805F091890589E195E0099510923905F4
:1023F0000ACF10925E0534CF1092C4051092C30527
:1024000088EE93E0A0E0B0E08093C5059093C60508
:10241000A093C705B093C8052EE831E03093C205FC
:102420002093C10525EC30E03093CE052093CD05F7
:1024300024EC30E03093D0052093CF0520EC30E041
:102440003093D2052093D10521EC30E03093D405B0
:102450002093D30522EC30E03093D6052093D505A8
:1024600026EC30E03093D8052093D7051092DA059A
:102470001092DB051092DC051092DD0510926106CA
:10248000109260068093620690936306A0936406A0
:10249000B093650680EA91E090935F0680935E06B4
:1024A000109236071092350786EC91E0909334072E
:1024B0008093330787E28093370780E180933C075E
:1024C00082E080933D0710923E078CEB91E0909361
:1024D0002407809323078AE08093310789E0809363
:1024E00032078AEA80930F078BEB809310078CECFE
:1024F000809311078DED809312076DEF71E083E1FA
:1025000097E00E94EA0F81E18093190782E28093AD
:102510001A0783E380931B0784E480931C0766E01B
:1025200072E08DE197E00E94EA0F1092A2061092ED
:10253000A6061092A5061092A70682EB91E0909352
:10254000A1068093A006ECEBF6E0108214821382C1
:102550001582369686E0E83FF807B9F788E691E0FD
:10256000909303078093020784E691E09093050718
:102570008093040784E080930607809307078CE626
:1025800091E090930107809300078AE090E0909398
:1025900009078093080784EF91E090930B078093DD
:1025A0000A0710920E0710920D071092FC06109267
:1025B000FD061092FE061092FF0610920C0761E1D4
:1025C00072E08AE996E00E94EA0F6CE072E084E92A
:1025D00096E00E94EA0F61E172E08EE896E00E94C8
:1025E000EA0F6EE372E088E896E00E94EA0F61E18C
:1025F00072E082E896E00E94EA0F61E172E08CE707
:1026000096E00E94EA0F61E172E086E796E00E94A0
:10261000EA0F61E172E080E796E00E94EA0F61E173
:1026200072E08AE696E00C94EA0FCF93DF93CDB781
:10263000DEB761970FB6F894DEBF0FBECDBF7894BA
:1026400084B5826084BD84B5816084BD85B58260B7
:1026500085BD85B5816085BD80916E008160809368
:102660006E001092810080918100826080938100D1
:1026700080918100816080938100809180008160E1
:10268000809380008091B10084608093B10080913C
:10269000B00081608093B00080917A008460809364
:1026A0007A0080917A00826080937A0080917A002B
:1026B000816080937A0080917A00806880937A00AC
:1026C0001092C100E091D105F091D20582E08083A3
:1026D000E091CD05F091CE051082E091CF05F0910B
:1026E000D00580E180831092D905E091D505F09165
:1026F000D60586E08083E091D305F091D4058081F2
:1027000080618083E091D305F091D4058081886059
:102710008083E091D305F091D40580818068808327
:10272000E091D305F091D40580818F7D8083109254
:102730008F0510928E0510928D0510928C050E94C7
:10274000560A87EB94E090938B0580938A0588EB7B
:1027500094E09093890580938805109238078091C2
:102760003D07823018F098E09093380780933B073C
:1027700062E370E080E090E00E94D10260913E0749
:1027800083E397E00E941B0B68EE73E080E090E02B
:102790000E94D10260E383E397E00E94550C0BE4B2
:1027A00016E4C8010197F1F760E383E397E00E9424
:1027B000550CC8010197F1F760E383E397E00E94AD
:1027C000550C83E592E00197F1F760E283E397E02F
:1027D0000E94550C60913807606240E083E397E007
:1027E0000E946E0C84E08093390740E06CE083E344
:1027F00097E00E946E0C0E94850C82E080933A075D
:1028000040E066E083E397E00E946E0C40E062E007
:1028100083E397E00E946E0C8BE39FE10197F1F751
:1028200088E080933E0760E083E397E00E941B0B03
:102830000E94850C1FB7F89480919005811127C0E4
:10284000ECE9F2E08491E0EBF2E09491E82FF0E023
:10285000EE0FFF1FEC58FD4FA591B491EC91E923C9
:1028600021F461E08AE00E943A0261E08AE00E947D
:102870006C028CB580618CBD8CB580648CBD61E0D0
:102880008DE00E946C0261E08BE00E946C028091FE
:1028900090058F5F809390051FBF61E080913107A5
:1028A0000E946C0261E0809131070E943A0280919F
:1028B00032078F3F09F4ABC060E00E946C02809148
:1028C00032070E940E02892B09F0A1C061E08091BD
:1028D00032070E946C0260E0809132070E943A0247
:1028E00083E090E00197F1F761E0809132070E9468
:1028F0003A0262E370E080E090E00E94D10240E0A2
:1029000064E283E297E00E945D0640E066E283E2D3
:1029100097E00E945D0646E268E483E297E00E9449
:102920005D0640E864E583E297E00E945D0649EABF
:1029300066E583E297E00E945D0643E068E583E296
:1029400097E00E945D0648EE6AE583E297E00E9408
:102950005D0640E46AE283E297E00E945D064DE393
:1029600062E283E297E00E945D0668E283E297E01C
:102970000E943F06982F9370933039F0482F4360A0
:1029800068E283E297E00E945D0662E08FE00E94C9
:102990006C0262E080E10E946C0260EA70E081EC0F
:1029A00095E00E94C7046FE072E081EC95E00E9420
:1029B0006C0D8E010F5F1F4FCC24C394D12C52E0BD
:1029C000252E312CE091B605F091B705E931F105DE
:1029D00008F0E5C5E251FB4E0C94B7221E154915CF
:1029E0009115D2161916CB181C198B1755180118EA
:1029F0002B18AE169819B319D21A211C5F1C4C1D46
:102A0000601E441F4A1F4D1F571E5D1E02214FE0CE
:102A100062E083E297E00E945D0613E062E370E00B
:102A200080E090E00E94D10262E083E297E00E94A1
:102A30003F0684FF64CF115089F761CF1092920551
:102A4000109291058091B50581110FC00E94850CEF
:102A500060E080E00E94900C61EB70E083E397E01F
:102A60000E94C70481E08093B5052CE231E040E08C
:102A700050E061E070E080E191E00E94FC0D0E9476
:102A80009F04813309F07FC081E090E00E941C0C1C
:102A90007AC010929205109291058091B50581112E
:102AA0000FC00E94850C60E080E00E94900C6CEBEF
:102AB00070E083E397E00E94C70481E08093B5054E
:102AC0002CE231E040E050E061E070E088E191E02C
:102AD0000E94FC0D0E949F04823439F461E270E090
:102AE00080E090E00E94D10299C1813369F461E2F3
:102AF00070E080E090E00E94D10210929405109264
:102B0000930582E090E0C2CF8233E9F561E270E0A4
:102B100080E090E00E94D102D0929405C09293058B
:102B2000F0CFD0929205C09291058091B5058111A8
:102B30000FC00E94850C60E080E00E94900C6BEC5E
:102B400070E083E397E00E94C70481E08093B505BD
:102B50000E949F04F82E22E482130CC061E270E010
:102B600080E090E00E94D1028091910590919205C1
:102B70000E941C0C8091930590919405009781F020
:102B8000019709F445C080E090E0892B09F41ACF41
:102B90000E945505882309F415CF0E94000012CF2A
:102BA0002CE231E040E050E061E070E088E291E04A
:102BB0000E94FC0D31E3F3120DC061E270E080E091
:102BC00090E00E94D1021092A00510929F0583E030
:102BD00090E05CCF42E3F4120BC061E270E080E071
:102BE00090E00E94D102D092A005C0929F05EFCF45
:102BF00053E3F512C8CF61E270E080E090E00E94FC
:102C0000D1023092A00520929F0584E090E03ECF53
:102C10002CE231E040E050E061E070E080E291E0E1
:102C20000E94FC0D81E3F81641F292E3F912ABCF5A
:102C3000D4CF30929205209291058091B5058111F3
:102C400015C061E172E086E796E00E94C90F0E941C
:102C5000850C60E080E00E94900C6AEE70E083E3F7
:102C600097E00E94C70481E08093B5050E949F040D
:102C7000F82E80ED8F0D8A30D8F46F2D86E796E020
:102C80000E94830F61E080E00E94900C82E192E05C
:102C90000E947B0D61E080E00E94900C66E776E088
:102CA00083E397E00E94B90422E4F2126CCF16CFBE
:102CB000E4E4FE1211C061E172E086E796E00E9452
:102CC000C90F61E080E00E94900C69ED70E083E341
:102CD00097E00E94C70457CFF3E2FF12E5CF61E20D
:102CE00070E080E090E00E94D10261E172E086E74E
:102CF00096E00E94A90E882329F084E090E00E94CB
:102D0000DE0C41CF66E776E08CE796E00E94D30FB9
:102D100063E272E0C8010E94EA0F40918006509180
:102D2000810660917C0670917D06C8010E944E0F5D
:102D3000811103C0C8010E94960FB80181EC95E093
:102D40000E94B9046FE072E081EC95E00E946C0D86
:102D5000C8010E94FB0F8BE090E098CE8091B505F2
:102D6000811119C00E94850C60E080E00E94900CE7
:102D700069EF70E083E397E00E94C70461E080E0C0
:102D80000E94900C6CE776E083E397E00E94B90420
:102D900081E08093B50568EE73E080E090E00E94EA
:102DA000D10215CF30929205209291058091B50500
:102DB00081111BC0E0909305F09094050E94850C52
:102DC00060E080E00E94900C65E171E0E114F104A4
:102DD00029F0EA94EF2831F465E071E083E397E0AD
:102DE0000E94C70481E08093B5058091930590917E
:102DF00094050097C1F42CE231E040E050E061E03E
:102E000070E088E391E00E94FC0D0E949F049FEC1B
:102E1000980F943098F0823409F0B5CE80919105E6
:102E20009091920533CE019781F72CE231E040E09A
:102E300050E061E070E080E391E0E5CF2091930500
:102E4000309194058333F1F1843309F451C0823316
:102E500081F4D0924901C09248012115310529F52C
:102E600061E372E084E996E00E94C90F8DE090E092
:102E70000DCE10924901109248016CE072E02115CC
:102E8000310581F32130310509F07DCE6EE372E02A
:102E900088E896E00E94C90F8CE291E090935B0174
:102EA00080935A0185E090E0F1CD2130310509F0A1
:102EB0006ACE64E372E088E896E00E94C90F84E875
:102EC00093E0ECCF309249012092480169E372E02F
:102ED0002115310539F22130310509F054CE6DE369
:102EE00072E088E896E00E94C90F88E097E0D6CFAC
:102EF00083E090E0909349018093480187E090E05F
:102F00002115310509F4C2CD88E090E0213031056A
:102F100009F039CEBBCD83E090E090939205809389
:102F200091058091B505811115C061E172E08EE8CF
:102F300096E00E94C90F0E94850C60E080E00E942C
:102F4000900C68E471E083E397E00E94C70481E09D
:102F50008093B5050E949F04F82E80ED8F0D8A3076
:102F6000E8F46F2D8EE896E00E94830F61E080E028
:102F70000E94900C67E371E083E397E00E94C7042E
:102F800061E080E00E94900C6EE876E083E397E0D9
:102F90000E94B90482E4F812F6CDA0CD44E4F41204
:102FA00013C061E270E080E090E00E94D10261E134
:102FB00072E08EE896E00E94C90F61E080E00E9416
:102FC000900C66E271E083CE53E2F512E3CF61E24A
:102FD00070E080E090E00E94D10261E172E08EE852
:102FE00096E00E94A90E882319F087E090E087CE32
:102FF0006EE876E084E996E00E94D30F89E090E0E5
:1030000045CD8091B50581111FC00E94850C60E0FF
:1030100080E00E94900C6EE571E083E397E00E94EF
:10302000C70461E080E00E94900C64E976E083E3ED
:1030300097E00E94B90469E571E083E397E00E949C
:10304000C70481E08093B50568EE73E080E090E00E
:103050000E94D1020BCF8091B50581111FC00E9443
:10306000850C60E080E00E94900C62E771E083E3F1
:1030700097E00E94C70461E080E00E94900C68E83D
:1030800076E083E397E00E94B9046DE671E083E3A4
:1030900097E00E94C70481E08093B50568EE73E075
:1030A00080E090E00E94D102FDCE83E090E090931A
:1030B0009205809391058091B505811115C061E15C
:1030C00072E082E896E00E94C90F0E94850C60E0E1
:1030D00080E00E94900C61EA71E083E397E00E9437
:1030E000C70481E08093B5050E949F04F82E80ED0F
:1030F0008F0D8A30E8F46F2D82E896E00E94830FEE
:1031000061E080E00E94900C60E971E083E397E069
:103110000E94C70461E080E00E94900C62E876E0C3
:1031200083E397E00E94B904F2E4FF122CCDD6CCE1
:1031300094E4F91213C061E270E080E090E00E9434
:10314000D10261E172E082E896E00E94C90F61E07D
:1031500080E00E94900C6FE771E0B9CDE3E2FE12CF
:10316000E3CF61E270E080E090E00E94D10261E193
:1031700072E082E896E00E94A90E882319F088E0A8
:1031800090E0BDCD62E876E088E896E00E94D30F3B
:103190008AE090E07BCC28E030E0309392052093E9
:1031A00091058091B50581110FC00E94850C61E0E9
:1031B00080E00E94900C6EEA71E083E397E00E9449
:1031C000C70481E08093B50560E080E00E94900C28
:1031D0002CE231E040E050E070E060E080E491E01B
:1031E0000E94FC0D0E949F04813349F461E270E06B
:1031F00080E090E00E94D10286E090E047CC8233EC
:10320000B9F461E270E080E090E00E94D10288E8C9
:1032100096E00E94BE0E22E030E040E050E00E94C6
:10322000982230935B0120935A018CE090E02ECCE1
:10323000823409F0A8CC52CC45E050E0509392057E
:10324000409391058091B505811115C061E172E04F
:1032500080E796E00E94C90F0E94850C60E080E044
:103260000E94900C60EE71E083E397E00E94C70437
:1032700081E08093B5050E949F04F82E80ED8F0DAC
:103280008A30E8F46F2D80E796E00E94830F61E0BA
:1032900080E00E94900C6FEC71E083E397E00E9465
:1032A000C70461E080E00E94900C60E776E083E371
:1032B00097E00E94B90492E4F91265CC0FCC54E473
:1032C000F5120DC061E172E080E796E00E94C90F3F
:1032D00061E080E00E94900C6EEB71E0F8CC83E23C
:1032E000F812E9CF61E270E080E090E00E94D10244
:1032F00061E172E080E796E00E94A90E882319F050
:1033000086E090E0FCCC80E796E00E94BE0E7093D1
:103310005B0160935A016E5B7D4F81EC95E00E94EA
:103320006C0D6FE072E081EC95E00E946C0D7DCF3A
:103330008091B505811188CE0E94850C60E080E007
:103340000E94900C6FEE71E083E397E00E94C70447
:1033500061E080E00E94900C80915A0190915B01A5
:103360000E94800D6ECE8091B50581118EC00E94A5
:10337000850C67E070E08AE696E00E94F90E811104
:10338000A3C08AE696E00E94960F809193059091E3
:103390009405009709F4A7C0019709F4AAC0C801D1
:1033A0000E947A0FC8010E94FB0F83E492E00E9402
:1033B000210F80919F059091A0058130910509F41E
:1033C000A1C008F499C0029709F49FC0C8010E94E7
:1033D0007A0FC8010E94FB0F89E392E00E94210F3F
:1033E00080914801909149018130910509F496C07E
:1033F00008F48EC08230910509F493C0039709F454
:1034000093C0C8010E947A0FC8010E94FB0F8091EF
:10341000930590919405009709F089C08EE292E09F
:103420000E94210F84E996E00E947A0F89E292E0DF
:103430000E94210F80919F059091A005029741F471
:103440008EE192E00E94210F8CE796E00E947A0FB5
:103450008EEF91E00E94210F80916A0690916B0699
:10346000909351018093500110924B0110924A01A8
:1034700061E080E00E94900C66E572E083E397E0F3
:103480000E94C70481E08093B5052CE231E040E062
:1034900050E070E060E08AE491E00E94FC0D0E9440
:1034A0009F04813309F072C061E270E080E090E037
:1034B0000E94D1028091930590919405009709F0A4
:1034C0005FC08EE090E0E2CA87E090E090936F06E4
:1034D00080936E066EE472E080916A0690916B06AE
:1034E0000E94D12152CF66E572E0C8010E94EA0F26
:1034F00056CF68EA73E0F9CF60E672E0C8010E9437
:10350000EA0F64CF63EC73E0F9CF68EE73E0F6CFB7
:1035100066E672E0C8010E94EA0F73CF6AE672E0C5
:10352000F9CF61E772E0F6CF6EE772E0F3CF019773
:1035300009F08ECF83E192E00E94210F88E896E0A7
:103540000E947A0F8EE092E00E94210F82E092E0CA
:103550000E94210F4AE0B80180915A0190915B01CD
:103560000E94E121F80101900020E9F73197AF01B5
:10357000401B510BB8018AE696E00E944E0F68CFBF
:10358000019709F000CB82E190E080CA823409F013
:10359000FACA61E270E080E090E00E94D10290E01F
:1035A00080E074CA61E172E0C8010E94EA0F809174
:1035B000B50581112CC00E94850C60E080E00E945E
:1035C000900C66E872E0C8010E94C90FB80183E35D
:1035D00097E00E94B9048D8160E08F5F0E94900C9B
:1035E00080919F059091A0058130910511F120F106
:1035F000029751F461E172E086E796E00E94C90FFC
:1036000083E992E00E947B0D81E08093B5050E94E2
:103610009F04F82E80919F059091A005813091051F
:1036200009F4C9C060F00297B9F1C8010E94FB0F0C
:10363000AACA87E992E0E6CF8BE992E0E3CF8FE078
:1036400090E00E94050C882321F08FE090E00E941A
:103650001C0C80E190E00E94050C811102C0FF204B
:1036600021F08EE090E00E94C40C83E297E00E947B
:103670004F088823D1F283E297E00E94F80588235F
:10368000A1F28EE090E00E94C40C83E297E00E94D9
:10369000EE070E944908C9CF80ED8F0D8A3008F0EF
:1036A0004BC06F2D86E796E00E94830F61E080E0BB
:1036B0000E94900C82E192E00E947B0D61E080E02C
:1036C0000E94900C66E776E083E397E00E94B904DD
:1036D0008FE090E00E94050C811131C083E297E0F9
:1036E0000E944F088823B1F083E297E00E94F8051A
:1036F000882381F061E270E080E090E00E94D102D6
:103700008EE090E00E94C40C83E297E00E94EE07F6
:103710000E94490880E190E00E94050C882309F48A
:1037200084CF61E270E080E090E00E94D1028EE000
:1037300090E00E94C40C79CFE1E4FE1220C02091F9
:103740007A0630917B068091800690918106281739
:103750003907E1F4809176069091770660917C06B6
:1037600070917D06009709F4B0C56115710559F493
:10377000232B09F4B8C5FC01808190E0B1C5F3E2C8
:10378000FF16E9F2A5CF0E94BC24AAC50E94850CB1
:1037900060E082E00E94900C67E672E083E397E0CD
:1037A0000E94C70468EE73E080E090E00E94D102BE
:1037B0008EE090E0A0C583E297E00E944F08882346
:1037C00031F183E297E00E94F805882301F18091AE
:1037D00025070E9493018F3F980779F04AE0489FA0
:1037E0009001499F300D112466E072E0C9018D5EA1
:1037F000984F0E94A90E811119C08EE090E00E949E
:10380000C40C83E297E00E94EE070E94490880E121
:1038100090E00E94050C81118ACF8FE090E00E9419
:10382000050C811184CFF11082CFFFCE61E270E0F0
:1038300080E090E00E94D1028FE090E00E941C0C9A
:10384000E0CF8091B50581111AC00E94850C60E01F
:1038500081E00E94900C8FE992E00E947B0D84E948
:1038600096E00E94BE0E603571058105910524F138
:1038700080E49FE10E94190D81E08093B5050E94CC
:10388000850C60E082E00E94900C8EEA92E00E943B
:103890007B0D68EE73E080E090E00E94D1020E9410
:1038A000030360939B0570939C0580939D05909303
:1038B0009E0580E190E0EAC880EA9FE0DBCF80913E
:1038C000B50581110DC00E94850C60E082E00E9468
:1038D000900C8EEA92E00E947B0D81E08093B5050A
:1038E00084E996E00E94BE0E4B010E9403034090C3
:1038F0009B0550909C0560909D0570909E056419F5
:1039000075098609970928EE33E040E050E00E94EF
:103910007622821A930A97FC38C02CE3821691040F
:10392000B4F1C4016CE370E00E9462229F938F9314
:103930007F936F934BEB52E05F934F931F9281E124
:103940008F931F930F930E94CC240FB6F894DEBF81
:103950000FBECDBF61E080E00E94900CC8010E94C4
:103960007B0DF80101900020E9F731975F01A01A63
:10397000B10A90E1A916B104C4F481E292E00E9478
:103980007B0DEFEFAE1ABE0AF4CF912C812C9F92E3
:103990008F922BEC32E03F932F931F9281E18F9314
:1039A0001F930F930E94CC24D0CF892819F486E16D
:1039B00090E06CC880919F059091A00582309105A0
:1039C00069F50E946B0330EAE32E36E0F32EF7012F
:1039D000848D8434A9F4878D90A1029789F4109284
:1039E0009605109295050E940303609397057093C6
:1039F00098058093990590939A0581E190E046C8D7
:103A000080E10E940E02892B51F3F6E0EF0EF11CCB
:103A10002CEDE21626E0F206D1F6B5C8009731F497
:103A200080E10E940E02892BD1F2ADC8019709F006
:103A3000AAC883E297E00E944F08882309F4A3C82C
:103A400083E297E00E94F805F82E882309F49BC8CA
:103A5000809125070E9493018F3F980779F04AE0F3
:103A6000489F9001499F300D11246DEF71E0C9010D
:103A70008D5E984F0E94A90E811105C080E190E0F3
:103A80000E94C40CF12C83E297E00E94EE070E9492
:103A90004908F110A4CF77C884E996E00E94BE0ED1
:103AA0004B010E94030340909B0550909C05609041
:103AB0009D0570909E05641975098609970928EE81
:103AC00033E040E050E00E947622821A930A1814F4
:103AD00019040CF06CCF8091B505811109C00E94CA
:103AE000850C82E591E00E94FE0C81E08093B50593
:103AF0004CE384169104A4F1C4016CE370E00E94CD
:103B000062229F938F937F936F9389ED92E09F93AF
:103B10008F931F9281E18F931F930F930E94CC2468
:103B20000FB6F894DEBF0FBECDBF60E080E00E940C
:103B3000900CC8010E947B0DF80101900020E9F76C
:103B400031977F01E01AF10AF0E1EF16F104B4F4C5
:103B500081E292E00E947B0D2FEFE21AF20AF4CF8D
:103B60009F928F924AEE52E05F934F931F9281E1B2
:103B70008F931F930F930E94CC24D2CF80919F05E7
:103B80009091A0058230910509F05BC00E946B0303
:103B9000E0EAF6E0848D843429F4878D90A10197C2
:103BA000029790F036964CED56E04E175F0791F76E
:103BB00080E10E940E02892B39F080919F0590913F
:103BC000A005019709F075CE0E9403038090970528
:103BD00090909805A0909905B0909A056819790978
:103BE0008A099B09643F71408105910510F40C948A
:103BF000C3150E9403036093970570939805809303
:103C0000990590939A05E0909505F090960561E0EE
:103C10008E2D0E94900C60E083E397E00E94F80CE8
:103C2000FFEFEF1AFF0AF0929605E092950587E103
:103C300090E021E1E216F10414F40C94C3150C9405
:103C40004615009709F4B4CF019709F0B6CF83E287
:103C500097E00E944F08882309F4AFCF83E297E0F2
:103C60000E94F805882309F4A8CF809125070E94B7
:103C700093018F3F980789F04AE0489F9001499F40
:103C8000300D11246DEF71E0C9018D5E984F0E94D7
:103C9000A90EFF24F394811101C0F12C83E297E077
:103CA0000E94EE070E944908F1108ECF86CF81E076
:103CB00090E00E946F0E0C94C31590E080E0F9CF65
:103CC0008091B50581112DC061E172E0C8010E94AB
:103CD000EA0F0E94850C60E080E00E94900C69EF82
:103CE00072E0C8010E94C90FB80183E397E00E9407
:103CF000B9048D8160E08F5F0E94900C80919F05D8
:103D00009091A005009709F45CC0019721F487E920
:103D100092E00E947B0D81E08093B505C8010E946E
:103D2000FB0F0E949F04B82E80919F059091A005E3
:103D3000009709F449C0019711F00C94C31583E270
:103D400097E00E944F08882379F183E297E00E9470
:103D5000F805882349F1809125070E9493018F3F40
:103D6000980709F47DC04AE0489F9001499F300DB3
:103D70001124C9018D5E984F7C0166E072E00E94BB
:103D8000A90E882309F45BC061E270E080E090E056
:103D90000E94D10283E190E00E941C0C83E297E034
:103DA0000E94EE070E9449088FE090E00E94050CF7
:103DB000882309F45AC082E190E00E94C40C0C945C
:103DC000C3158BE992E0A5CF8FE090E00E94050C2F
:103DD000811103C031E3B3120AC061E270E080E0F8
:103DE00090E00E94D10283E190E00E941C0C80E1EF
:103DF00090E00E94050C811103C042E3B4120AC096
:103E000061E270E080E090E00E94D10284E190E005
:103E10000E941C0C83E297E00E944F08882311F453
:103E20000C94C31583E297E00E94F805882311F4EF
:103E30000C94C31582E190E00E94C40C84C16DEF24
:103E400071E0C7010E94A90E882309F4A7CF61E29F
:103E500070E080E090E00E94D10284E190E09CCF8D
:103E600082E190E00E94C40C99CF91E3B91609F465
:103E7000A2CF80E190E00E94050C81119CCFE2E38B
:103E8000BE120C94C31597CF81E090E00E94C90E3A
:103E90000C94C31582E090E0F9CF8091B5058111B3
:103EA00072C00E94850C8CE591E00E94FE0C80910E
:103EB000AF059091B00522E0F22E8130910509F016
:103EC000F12CF092AD051092AE0522E030E0823088
:103ED000910511F030E020E03093AC052093AB0564
:103EE00060E08130910519F0029749F461E080E0CB
:103EF0000E94900C60E083E397E00E94F80C60E081
:103F00008F2D0E94900C87E093E00E947B0D8091A2
:103F1000AD059091AE0507969093AE058093AD05E3
:103F200061E08091AB050E94900C8FE093E00E94CD
:103F30007B0D8091AB059091AC0507969093AC05F5
:103F40008093AB058091A9059091AA05892B71F406
:103F50000E9403036093A5057093A6058093A705AF
:103F60009093A805D092AA05C092A9050E940303C8
:103F70006093A1057093A2058093A3059093A40577
:103F800081E08093B5050E9403038090A105909085
:103F9000A205A090A305B090A405681979098A0923
:103FA0009B09683E734081059105E8F0E090B305F8
:103FB000F090B4050E9403036093A1057093A205DD
:103FC0008093A3059093A4058091AF059091B005CF
:103FD0008130910509F057C02FEFE21AF20AF092F2
:103FE000B405E092B30560E08091AD050E94900CAD
:103FF0008091B3059091B4050E94800D8FE192E00D
:104000000E947B0D61E08091AB050E94900C809135
:10401000B1059091B2050E94800D8FE192E00E945F
:104020007B0D0E949F04F82E0E9403034B015C014C
:1040300088E896E00E94BE0E2B013C018091A50508
:104040009091A605A091A705B091A805A50194019E
:10405000281B390B4A0B5B0BCA01B90128EE33E070
:1040600040E050E00E9476222415350546055705AC
:10407000B8F061E270E080E090E00E94D10288E157
:1040800090E00C944615029709F0ADCF8091B105F0
:104090009091B20501969093B2058093B105A3CF9C
:1040A00080915A0190915B012091B3053091B40544
:1040B00028173907F4F62091B1053091B205281779
:1040C0003907BCF680919F059091A005009709F4EF
:1040D0005FC0019711F00C94C31583E297E00E9432
:1040E0004F08882311F40C94C31583E297E00E94D3
:1040F000F805882311F40C94C315809125070E94BC
:1041000093018F3F980709F440C04AE0489F90010F
:10411000499F300D1124A9014D5E584F7A0166E088
:1041200072E0CA010E94A90E882331F08091AF0588
:104130009091B005019779F46DEF71E0C7010E948D
:10414000A90E811117C083E297E00E94EE070E943A
:1041500049080C94C315D092B005C092AF0561E236
:1041600070E080E090E00E94D10285E190E00E9442
:104170001C0CE9CF8091AF059091B005029719F31F
:104180003092B0052092AF05EACF85E190E054CEA1
:1041900051E4F51210C08091AF059091B0050197E0
:1041A00009F48AC0D092B005C092AF0585E190E0D5
:1041B0000E941C0C09C081E3F81669F38FE090E0BF
:1041C0000E94050C8111E7CF92E4F91210C0809192
:1041D000AF059091B005029711F40C94C31530927D
:1041E000B0052092AF0585E190E00C944615E2E31E
:1041F000FE1669F380E190E00E94050C8111E7CF83
:104200000C94C3158091B50581112BC00E94850CBB
:10421000E090B305F090B4058091B1059091B2059E
:104220008E159F05ACF1E816F9060CF440C060E06D
:1042300081E00E94900C87E193E00E947B0D61E099
:1042400080E00E94900C86E393E00E947B0DC70102
:104250000E94800D8BE393E00E947B0D81E08093B0
:10426000B5050E949F04882311F40C94C3150E9485
:10427000850C8DED91E00E947B0D6CED75E080E08A
:1042800090E00E94D102F0E0E0E009950C94C315A3
:10429000AA24A394B12C60E080E00E94900C86E2F6
:1042A00093E00E947B0DC5010E94800DC8CF7C0168
:1042B00082E0A82EB12CEFCFF2E4FF1609F48FCFE5
:1042C00022E3F21609F48BCF95CF6115710559F0F1
:1042D000232B49F0FB01808190E091958195910914
:1042E000892B09F053CA61E270E080E090E00E94FF
:1042F000D1028FE090E00E941C0CF0C98AE696E0A3
:104300000E94FB0F80E796E00E94FB0F86E796E095
:104310000E94FB0F8CE796E00E94FB0F82E896E07C
:104320000E94FB0F88E896E00E94FB0F8EE896E063
:104330000E94FB0F84E996E00E94FB0F8AE996E059
:104340000E94FB0F8DE197E00E94FB0F83E197E055
:104350000C94FB0F1F93FC0199278827BC01E8945C
:1043600011911032E9F3193010F01E30C8F31B32EE
:1043700051F01D3249F4689406C00E94EC21610F8F
:10438000711D811D911D119110531A30B0F33EF42F
:1043900090958095709561957F4F8F4F9F4F1F919E
:1043A0000895FB01DC0105900D920020E1F70895CE
:1043B000FC0105900020E9F7809590958E0F9F1FD6
:1043C0000895BB274A3031F4992322F4BDE2909539
:1043D00081959F4F0C940222592F482F372F262F5B
:1043E000660F771F881F991F660F771F881F991FF9
:1043F000620F731F841F951F660F771F881F991FF9
:104400000895BB27FB015527AA27880F991FAA1FCC
:10441000A41710F0A41B83955051B9F7A05DAA33DF
:1044200008F0A95DA193009779F7B111B1931192AA
:10443000CB010C941B22DC01FC01672F71917723C7
:10444000E1F7329704C07C916D9370836291AE174F
:10445000BF07C8F308952F923F924F925F926F92D9
:104460007F928F929F92AF92BF92CF92DF92EF9204
:10447000FF920F931F93CF93DF93CDB7DEB7CA1B85
:10448000DB0B0FB6F894DEBF0FBECDBF09942A88B0
:10449000398848885F846E847D848C849B84AA8458
:1044A000B984C884DF80EE80FD800C811B81AA81E5
:1044B000B981CE0FD11D0FB6F894DEBF0FBECDBFB0
:1044C000ED01089597FB072E16F4009407D077FDB1
:1044D00009D00E94BD2207FC05D03EF4909581953D
:1044E0009F4F0895709561957F4F0895A1E21A2E10
:1044F000AA1BBB1BFD010DC0AA1FBB1FEE1FFF1F88
:10450000A217B307E407F50720F0A21BB30BE40BD7
:10451000F50B661F771F881F991F1A9469F760951E
:104520007095809590959B01AC01BD01CF010895D8
:10453000052E97FB1EF400940E94AF2257FD07D072
:104540000E94762207FC03D04EF40C94AF225095C3
:104550004095309521953F4F4F4F5F4F089590956F
:104560008095709561957F4F8F4F9F4F0895EE0F07
:10457000FF1F0590F491E02D0994AA1BBB1B51E18C
:1045800007C0AA1FBB1FA617B70710F0A61BB70BC3
:10459000881F991F5A95A9F780959095BC01CD0168
:1045A00008950F931F93CF93DF938230910510F4FA
:1045B00082E090E0E0914107F091420730E020E096
:1045C000B0E0A0E0309799F42115310509F44AC014
:1045D000281B390B24303105D8F58A819B81611560
:1045E000710589F1FB0193838283FE0111C0408133
:1045F00051810281138148175907E0F04817590784
:1046000099F4109761F012960C93129713961C93DD
:104610003296CF01DF91CF911F910F9108950093B2
:10462000410710934207F4CF2115310551F042178D
:10463000530738F0A901DB019A01BD01DF01F80140
:10464000C1CFEF01F9CF9093420780934107CDCFBF
:10465000FE01E20FF31F81939193225031093983B8
:104660002883D7CF20913F0730914007232B41F477
:1046700020917E0130917F013093400720933F07C6
:1046800020917C0130917D012115310541F42DB738
:104690003EB74091800150918101241B350BE09180
:1046A0003F07F0914007E217F307A0F42E1B3F0BE2
:1046B0002817390778F0AC014E5F5F4F2417350794
:1046C00048F04E0F5F1F5093400740933F07819380
:1046D00091939FCFF0E0E0E09CCFCF93DF930097E2
:1046E000E9F0FC01329713821282A0914107B09148
:1046F0004207ED0130E020E01097A1F420813181E4
:10470000820F931F20913F073091400728173907E8
:1047100009F061C0F0934007E0933F07DF91CF912C
:104720000895EA01CE17DF07E8F54A815B819E0113
:1047300041155105B1F7E901FB83EA83499159918C
:10474000C40FD51FEC17FD0761F48081918102969B
:10475000840F951FE90199838883828193819B83CC
:104760008A83F0E0E0E012968D919C911397009778
:10477000B9F52D913C911197CD010296820F931FAF
:1047800020913F07309140072817390739F63097B5
:1047900051F51092420710924107B0934007A09341
:1047A0003F07BCCFD383C28340815181840F951FC3
:1047B000C817D90761F44E5F5F4F88819981480F10
:1047C000591F518340838A819B8193838283211562
:1047D000310509F0B0CFF0934207E09341079ECF37
:1047E000FD01DC01C0CF13821282D7CFB0E0A0E080
:1047F000ECEFF3E20C942D228C01009751F4CB01E5
:104800000E94D1228C01C801CDB7DEB7E0E10C9443
:104810004922FC01E60FF71F9C0122503109E217E3
:10482000F30708F49DC0D901CD91DC911197C6170B
:10483000D70798F0C530D10530F3CE01049786171D
:10484000970708F3C61BD70B2297C193D1936D939B
:104850007C93CF010E946D23D6CF5B01AC1ABD0AB9
:104860004C018C0E9D1EA0914107B0914207512C26
:10487000412CF12CE12C109731F580913F0790915C
:1048800040078815990509F05CC04616570608F0E0
:1048900058C080917C0190917D01009741F48DB7C3
:1048A0009EB74091800150918101841B950BE817C0
:1048B000F90708F055C0F0934007E0933F07F9016E
:1048C00071836083A0CF8D919C91119712966C900B
:1048D000129713967C901397A815B90559F56C019A
:1048E00042E0C40ED11CCA14DB0420F1AC014A1909
:1048F0005B09DA011296159780F062827382518308
:104900004083D9016D937C93E114F10471F0D701D8
:104910001396FC93EE93129776CF22968C0F9D1FE1
:10492000F90191838083F301EFCFF0934207E09385
:10493000410769CF4816590608F42C017D01D301BF
:104940009ACFCB010E94D1227C01009749F0AE01A1
:10495000B8010E94B324C8010E946D23870153CF80
:1049600010E000E050CFFB01DC0102C001900D928D
:1049700041505040D8F70895FB01DC018D91019022
:1049800080190110D9F3990B0895FB01DC01019006
:104990000D920020E1F70895AEE0B0E0E2EDF4E220
:1049A0000C9439220D891E898F89988D26E02C83DD
:1049B0001A83098397FF02C080E090E801979E83E5
:1049C0008D83AE01455E5F4F698D7A8DCE01019674
:1049D0000E94FC244D815E8157FD0AC02F813885DD
:1049E000421753070CF49A01020F131FF8011082AB
:1049F0002E96E4E00C945522ABE0B0E0E2E0F5E264
:104A00000C942B227C013B018A01FC011782168247
:104A1000838181FFC8C1CE0101965C01F7019381BA
:104A2000F30193FD859193FF81913F01882309F460
:104A300053C1853239F493FD859193FF81913F01F4
:104A4000853229F4B70190E00E94EC26E7CF912C43
:104A5000212C312CFFE1F31538F08B3211F190F459
:104A6000803209F1833229F137FC3CC020ED280F58
:104A70002A3050F536FE20C08AE0989E200D112481
:104A8000922E06C08D3291F0803371F7689430F821
:104A9000F30193FD859193FF81913F018111DACF5D
:104AA00021C0689431F8689432F8F2CF689433F8F2
:104AB000EFCF689434F8ECCFEAE02E9E200D11245D
:104AC000222E689435F8E4CF8E3229F436FC04C1E6
:104AD000689436F8DDCF8C3619F4689437F8D8CF5F
:104AE0008836B1F2982F9F7D95549330E0F083364D
:104AF000A1F18337C1F1833509F063C02801F2E0E9
:104B00004F0E511CF801C080D180692D70E036FC39
:104B100002C06FEF7FEFC6010E94D6264C01689459
:104B200037F882010AC00C5F1F4FFFE3F983882426
:104B30008394912C6501E89437F833FE2DC0522CF4
:104B40008114910471F5552009F468CFB70180E212
:104B500090E00E94EC265A94F6CFF8018081898378
:104B60000E5F1F4FE4CF2801F2E04F0E511CF801F9
:104B7000C080D180692D70E036FC02C06FEF7FEFFE
:104B8000C6010E94E1264C018201D5CFB70180E227
:104B900090E00E94EC262A942814190409F0B0F73A
:104BA000CECFF60137FC859137FE81916F01B701B9
:104BB00090E00E94EC2651105A94F1E08F1A91086F
:104BC000BFCF843619F0893609F077C0F80137FE77
:104BD0006BC060817181828193810C5F1F4FF32DC7
:104BE000FF763F2E97FF09C090958095709561954F
:104BF0007F4F8F4F9F4F689437F82AE030E0A50130
:104C00000E941C27C82ECA188C2C432C36FE0CC0C0
:104C1000E89440F8C91440F434FE05C032FC03C0E7
:104C2000F32DFE7E4F2E892C44FE95C0FE01EC0D27
:104C3000F11D8081803309F087C0242D297E422E0A
:104C4000842D8870582E43FC95C040FE8FC09C2C4C
:104C5000821418F42C0C922C981844FE91C0B701C1
:104C600080E390E00E94EC2642FE09C088E790E0D5
:104C700041FE02C088E590E0B7010E94EC26C9140D
:104C800008F48AC0CA94D12C9FEFC91AD90ACA0C59
:104C9000DB1CF60182916F01B70190E00E94EC26C7
:104CA000AC14BD04B1F74FCF60817181072E000CA9
:104CB000880B990B0E5F1F4F92CFD32CE894D4F83A
:104CC0002AE030E0853739F1232D297FD22E8F3627
:104CD00001F148F48835A9F0F701868197812B9678
:104CE000E2E10C944722803749F08837A9F7D4FED7
:104CF00002C06894D2F820E130E00DC06894D4F886
:104D0000F6CF34FE03C0822F8660D82E20E132E039
:104D100002C028E030E0F801D7FE0FC06081718149
:104D2000828193810C5F1F4FA5010E941C27C82E12
:104D3000CA183D2CE89437F867CF6081718190E004
:104D400080E00E5F1F4FF0CF42FC02C0839478CF0B
:104D50008394839475CF842D867809F471CFF6CF30
:104D6000B70180E290E00E94EC2683948214C0F3A5
:104D7000512C73CF522C5818821408F46ECFF8CFF0
:104D8000842D867809F47BCF8BE241FE80E247FCDC
:104D90008DE2B70190E071CFB70180E390E00E940F
:104DA000EC269A946CCF8FEF9FEF99CFFC01059082
:104DB000615070400110D8F7809590958E0F9F1F1D
:104DC0000895FC016150704001900110D8F7809562
:104DD00090958E0F9F1F08950F931F93CF93DF938E
:104DE000182F092FEB018B8181FD09C01FEF0FEFF9
:104DF000812F902FDF91CF911F910F91089582FF06
:104E000014C02E813F818C819D81281739073CF485
:104E1000E881F981CF0101969983888310838E817F
:104E20009F8101969F838E83E3CFE885F985812F4B
:104E30000995892BA1F3DACFFA01AA27283051F17D
:104E4000203181F1E8946F936E7F6E5F7F4F8F4FBB
:104E50009F4FAF4FB1E03ED0B4E03CD0670F781F1A
:104E6000891F9A1FA11D680F791F8A1F911DA11DFF
:104E70006A0F711D811D911DA11D20D009F4689438
:104E80003F912AE0269F11243019305D3193DEF6E0
:104E9000CF010895462F4770405D4193B3E00FD096
:104EA000C9F7F6CF462F4F70405D4A3318F0495D81
:104EB00031FD4052419302D0A9F7EACFB4E0A69564
:104EC0009795879577956795BA95C9F70097610586
:104ED000710508959B01AC010A2E069457954795DC
:104EE00037952795BA95C9F7620F731F841F951FD1
:104EF000A01D089511E0C8E6D1E004C0FE010E94A3
:0E4F0000B7222196C936D107C9F7F894FFCF22
:104F0E0000000000000041030000000000005903F3
:104F1E000000000000007203000000000000930378
:104F2E00000000000000B203000000000000CA03F1
:104F3E00000000000000EE0300000000000043042B
:104F4E0000000000000096040100000000000000B8
:104F5E0011021F1F1F1F1F1F1F1F2C011C1E1F1F93
:104F6E001F1E1C000607080E0203040531323341D2
:104F7E0034353642373839432A302344000043074C
:104F8E0080000000400014005400000000008B055B
:104F9E00EB041805D805490527053B050000000060
:104FAE00EC0ABF0A020C950AB80AA50A960A000076
:104FBE000000A8026802370200000000AD084F088A
:104FCE00F80500000000F80CEB04020C2E0A46490E
:104FDE004E414C204445204A4F474F2100524549EF
:104FEE004E494349414E444F2E2E2E00444F4D49BB
:104FFE004E414E444F20412041524541005665726C
:10500E006D656C686F005665726465003530000D15
:10501E000A002020202020202020202020202020B8
:10502E0020200053454E48412053414C56413A20D2
:10503E0000393000313830300032363000333630FF
:10504E0030004C494D2E20504F4E544F532053415B
:10505E004C564F3A20005361626F746167656D0064
:10506E00426F74616F004351420050616472616F10
:10507E000043616D706F2041626572746F00506500
:10508E0072736F6E2E0041524D45204120424F4D9E
:10509E004241002D2033002D2032002D20310041C1
:1050AE00524D414E444F2020424F4D424100424FFF
:1050BE004D42412041524D4144410054656D706F47
:1050CE003A2025646D696E2564730054656D706FAA
:1050DE003A2025647365672E0044455341524D2E88
:1050EE002025646D696E2564730044455341524D0D
:1050FE002E2025647365672E00444F4D494E452082
:10510E004120415245410045512E20313A20004563
:10511E00512E20323A200021212120454D5041545C
:10512E0045202121210056454E4345204120455121
:10513E00554950452000434F4D2000205054532ECA
:10514E00002020202041544143414E5445532056C7
:10515E00454E434552414D210020202020444546D6
:10516E00454E534F5245532056454E434552414DA1
:10517E00210020283129204E6F766F204A6F676FED
:10518E00202D2028322920556C74696D6F204A6FAE
:10519E00676F0020283129205361626F7461676543
:1051AE006D202D2028322920446F6D696E61636158
:1051BE006F002028312920426F74616F202D202826
:1051CE0032292043617274616F00202831292042F8
:1051DE006F74616F202D2028322920436172746113
:1051EE006F202D202833292053656E6861002028FA
:1051FE003129204351423A2031306D696E2E202DD7
:10520E00202832292050616472616F3A2033306D4C
:10521E00696E2E202D202833292043616D706F205A
:10522E0041626572746F3A2036306D696E2E202D94
:10523E002028342920506572736F6E616C697A6113
:10524E0064610020283129204351423A20353073C1
:10525E002E202D202832292050616472616F3A2051
:10526E00316D3330732E202D202833292043616D6C
:10527E00706F2041626572746F3A20346D323073F4
:10528E002E202D2028342920506572736F6E616C8C
:10529E00697A6164610020446573656A6120706596
:1052AE0072736F6E616C697A6172206F206D6178B6
:1052BE002E20646520706F6E746F733F20285041EE
:1052CE004452414F203D202854656D706F204C692B
:0652DE006D2E2F322900A5
:00000001FF
