:100000000C94FA010C9422020C9422020C94220209
:100010000C9422020C9422020C9422020C942202D0
:100020000C9422020C9422020C9422020C942202C0
:100030000C9422020C9422020C9422020C942202B0
:100040000C944C110C9422020C94BC110C9496113B
:100050000C9422020C9422020C9422020C94220290
:100060000C94EE110C942202446967697465207542
:100070006D2076616C6F7221004552524F00202036
:100080002020202020202020202020202020002090
:100090002020202020202020202020202020200080
:1000A0005245494E494349414E444F2E2E2E00465B
:1000B000494E414C204445204A4F474F2100444F70
:1000C0004D494E414E444F2041204152454100533D
:1000D000697374656D6120696E69636961646F003D
:1000E000556C74696D6F206A6F676F2063617272FF
:1000F000656761646F210053414C564F2041494E62
:10010000444121004E454E48554D204A4F474F002F
:1001100042656D2D56696E646F21004573636F6C87
:100120006861206F206D6F646F004D6F646F206495
:10013000652061726D617200202020202020202027
:10014000202020202020202000446566696E612048
:10015000612073656E68610053656E68612020736D
:10016000616C7661004C696D69746520646520740A
:10017000656D706F0054656D706F2061706F7320D6
:1001800061726D617200202020202020202020201C
:10019000202020202020002020202020202020207F
:1001A000202020202020200054656D706F20617079
:1001B0006F732061726D6172007365672E00546504
:1001C0006D706F206578706C6F73616F0073656719
:1001D0002E0054656D706F206C696D697465002028
:1001E000202020202020202020202020202020002F
:1001F00020202020202020202020202020202020FF
:100200000054656D706F206C696D697465002831EC
:100210002953696D202D202832294E616F0020203E
:1002200020202020202020202020202020200020EE
:1002300020202020202020202020202020202000DE
:100240004465662E206D61782E207074732E004DEB
:1002500061782E20646520706F6E746F73002020AB
:100260002000202D20506F6E746F733A200073654C
:10027000672E00202D2054656D706F3A2000202DD0
:100280002053656E68613A20007365672E00202D4B
:100290002054656D706F3A2000202D204475722E19
:1002A0003A2000202D2041726D61723A2000204AD0
:1002B0006F676F3A20004A6F676F2073616C766FCB
:1002C000206E6120454550524F4D2100312D496E21
:1002D000696369617220422D536169720053454E12
:1002E00048412045525241444100202020202020F6
:1002F000202020202020202020200041524D452079
:100300004120424F4D424100424F4D424120415217
:100310004D4144410041524D414E444F2020424FF7
:100320004D4241002000424F4D42412041524D413B
:100330004441002000444F4D494E45204120415248
:1003400045412100202020002020200045512E2062
:10035000323A200045512E20313A20005245494E74
:10036000494349414E444F2E2E2E00205054532EC7
:1003700000434F4D200056454E43452041204551F6
:1003800055495045200021212120454D50415445DB
:10039000202121210000000000240027002A000065
:1003A000000000250028002B00000000002300268C
:1003B00000290004040404040404040202020202EA
:1003C0000203030303030301020408102040800119
:1003D0000204081020010204081020000000080098
:1003E00002010000030407000000000000000000FC
:1003F0000D135A2411241FBECFEFD8E0DEBFCDBFAE
:1004000026E0AAE2B4E001C01D92A739B207E1F7E5
:1004100014E0A0E0B1E0E0E1F5E502C005900D9246
:10042000AA32B107D9F711E0C9EFD1E004C0219792
:10043000FE010E94A925C83FD107C9F70E942614D2
:100440000C947B2A0C940000CF93DF936AE776E04C
:10045000E3E6F6E0DF019B0190E0AD014356564034
:1004600048175907BCF4E90159919E014D91541761
:10047000A1F38D59994F8E179F0779F0DB013D91BC
:10048000BD01319621853217B1F38FEF9FEFDF91D8
:10049000CF91089590E080E0FACF81E090E0F7CF2F
:1004A00096E0899FD0011124AC50BA4F90967C936E
:1004B0006E935F9791E091969C939197E09161067E
:1004C000F091620690916006992339F0309751F0CF
:1004D000811108C0809110060994309719F05C963C
:1004E0008C91FACF08958CBD9DBD0895833081F025
:1004F00028F4813099F08230A9F008958730A9F06E
:100500008830C9F08430B1F4809180008F7D03C0C1
:10051000809180008F7780938000089584B58F77D5
:1005200084BD089584B58F7DFBCF8091B0008F7717
:100530008093B00008958091B0008F7DF9CFCF9364
:10054000DF93282F30E0F901E552FC4F8491F90147
:10055000E953FC4FD491F901ED54FC4FC491CC23E5
:10056000A1F081110E947602EC2FF0E0EE0FFF1F48
:10057000E755FC4FA591B491EC91ED2381E090E01B
:1005800009F480E0DF91CF91089580E090E0FACF08
:10059000862F0C949F021F93CF93DF93282F30E078
:1005A000F901E552FC4F8491F901E953FC4FD491D4
:1005B000F901ED54FC4FC491CC23A9F0162F811101
:1005C0000E947602EC2FF0E0EE0FFF1FE156FC4F89
:1005D000A591B4918FB7F894EC91111108C0D09502
:1005E000DE23DC938FBFDF91CF911F910895DE2B27
:1005F000F8CF862F642F0C94CB02CF93DF9390E03B
:10060000FC01E953FC4F24918D549C4FFC018491D3
:100610008823C9F090E0880F991FFC01EB56FC4F2E
:10062000A591B491FC01E156FC4FC591D4916111A3
:100630000DC09FB7F8948C91209582238C9388816C
:10064000282328839FBFDF91CF910895623051F412
:100650009FB7F8943C91822F809583238C93E881F7
:100660002E2BEFCF8FB7F894EC912E2B2C938FBFBE
:10067000EACF862F642F0C94FD023FB7F894809147
:10068000110590911205A0911305B091140526B59E
:10069000A89B05C02F3F19F00196A11DB11D3FBFBA
:1006A000BA2FA92F982F8827BC01CD01620F711D89
:1006B000811D911D42E0660F771F881F991F4A9583
:1006C000D1F708958F929F92AF92BF92CF92DF920F
:1006D000EF92FF924B015C010E943D036B017C0194
:1006E0000E943D036C197D098E099F09683E734085
:1006F00081059105A8F321E0821A9108A108B108AB
:1007000088EEC80E83E0D81EE11CF11C8114910410
:10071000A104B10429F7FF90EF90DF90CF90BF9034
:10072000AF909F908F9008952FB7F89460910D052A
:1007300070910E0580910F05909110052FBF0895BF
:100740000F931F93CF93DF93C82FD62F86E0C89FB8
:10075000F0011124EC50FA4F11A2878D90A1813045
:100760009105F1F058F082309105F1F1039709F409
:1007700040C0DF91CF911F910F9108956623C9F377
:1007800061E070E08C2F0E9450020E9494036093FD
:100790004C0670934D0680934E0690934F06E9CF1A
:1007A0000E94940300914C0610914D0620914E0634
:1007B00030914F06AB01BC01401B510B620B730B18
:1007C00080915E0690915F06B0E0A0E084179507E7
:1007D000A607B70748F462E070E08C2FDF91CF9155
:1007E0001F910F910C94500263E070E0D111C1CFC2
:1007F000F4CF70E060E0F1CF6F927F928F929F9282
:10080000AF92BF92CF92DF92EF92FF920F931F931E
:10081000CF93DF930E9494030091500610915106EC
:100820002091520630915306AB01BC01401B510B85
:10083000620B730B80915C0690915D06B0E0A0E0C6
:1008400010E084179507A607B70708F0F7C0C0E0C7
:1008500080915A06C81760F4E0915606F091570649
:10086000EC0FF11D62E080810E94FD02CF5FF0CFAE
:10087000712C812C912C5401839480915B06781605
:1008800008F05FC0072D10E0E0915806F09159067E
:10089000E00FF11F61E080810E94FD02E0915806A7
:1008A000F0915906E00FF11F60E080810E94CB02B9
:1008B000D501C401072C04C0880F991FAA1FBB1FB4
:1008C0000A94D2F76C017C01E094F094612C809141
:1008D0005A066816F8F4C62DD0E0E0915606F0915D
:1008E0005706EC0FFD1F80810E949F022496CC0FBB
:1008F000DD1FCC50DA4F892B41F4888199818C29F6
:100900009D29998388836394E2CF888199818E2180
:100910009F21F7CFE0915806F0915906E00FF11FA3
:1009200061E080810E94CB02809158069091590627
:10093000080F191F60E0F80180810E94FD02739486
:100940009CCFC4EFD5E0FE018FEF9FEF278D30A144
:10095000232B21F4148E968F858F11A2369626E0D4
:10096000E033F20799F7F12C96E0D92E80915A06E0
:10097000F81608F050C0E12C0F2D10E0000F111FE9
:1009800004501A4F20915B06E21608F042C0F801AD
:10099000608171810E2C02C0769567950A94E2F70A
:1009A000F29E900111242E0D311DE4EFF5E080E060
:1009B000458D568D2417350709F450C08F5F369644
:1009C0008A30B1F760FF23C0E4EFF5E090E080E00B
:1009D000448D411117C0E0915406F0915506E20F85
:1009E000F31F4081D89EF001D99EF00D1124EC50E8
:1009F000FA4F448F368F258F10A2178E61E00E9428
:100A0000A00305C0019636968A30910509F7E39454
:100A1000B9CFF394ABCF10E089A18111182F26969E
:100A2000F6E0C033DF07C1F70E94940360935006DD
:100A3000709351068093520690935306812FDF9155
:100A4000CF911F910F91FF90EF90DF90CF90BF90CB
:100A5000AF909F908F907F906F9008956170CFCFEF
:100A600081E0809360060E94FC03882369F08091F6
:100A70001506882349F0809113069091140601977A
:100A800019F48091100608951092600680E0089590
:100A9000089508950895DB0114964D915C91159782
:100AA0006D917C91DC01ED91FC910280F381E02D50
:100AB0000994EF92FF920F931F93CF93DF938C01D2
:100AC0007B01D0E0C0E0F701EC0FFD1F64916623CD
:100AD00061F0D801ED91FC910190F081E02DC80109
:100AE0000995892B11F02196EECFCE01DF91CF91A0
:100AF0001F910F91FF90EF900895AF92BF92CF9208
:100B0000DF92EF92FF920F931F93CF93DF936C01CD
:100B10007B018B01040F151FEB015E01AE18BF08AE
:100B2000C017D10759F06991D601ED91FC91019060
:100B3000F081E02DC6010995892B79F7C501DF9178
:100B4000CF911F910F91FF90EF90DF90CF90BF90CA
:100B5000AF900895FC01538D448D252F30E0842FF4
:100B600090E0821B930B541710F0CF9608950197D5
:100B70000895FC01918D828D981761F0A28DAE0FC2
:100B8000BF2FB11D5D968C91928D9F5F9F73928F49
:100B900090E008958FEF9FEF0895FC01918D828D75
:100BA000981731F0828DE80FF11D858D90E0089542
:100BB0008FEF9FEF0895FC01918D228D892F90E09A
:100BC000805C9F4F821B91098F739927089585E15F
:100BD00095E00E94DB0521E0892B09F420E0822FBB
:100BE000089580E090E0892B29F00E94E7058111AB
:100BF0000C9400000895FC01A48DA80FB92FB11D1D
:100C0000A35ABF4F2C91848D90E001968F73992742
:100C1000848FA689B7892C93A089B1898C91837020
:100C200080648C93938D848D981306C00288F38919
:100C3000E02D80818F7D80830895EF92FF920F9346
:100C40001F93CF93DF93EC0181E0888F9B8D8C8D78
:100C500098131AC0E889F989808185FF15C09FB76C
:100C6000F894EE89FF896083E889F989808183702F
:100C7000806480839FBF81E090E0DF91CF911F91DE
:100C80000F91FF90EF900895F62E0B8D10E00F5FFF
:100C90001F4F0F731127E02E8C8D8E110CC00FB6D5
:100CA00007FCFACFE889F989808185FFF5CFCE016D
:100CB0000E94FB05F1CFEB8DEC0FFD2FF11DE35AE8
:100CC000FF4FF0829FB7F8940B8FEA89FB898081F0
:100CD0008062CFCFCF93DF93EC01888D8823B9F06A
:100CE000AA89BB89E889F9898C9185FD03C0808137
:100CF00086FD0DC00FB607FCF7CF8C9185FFF2CFB4
:100D0000808185FFEDCFCE010E94FB05E9CFDF9109
:100D1000CF910895BC016E5F7F4FDC01ED91FC9196
:100D20000190F081E02D40E0099591E0811190E083
:100D3000892F089508958EBD00000DB407FEFDCFE4
:100D40008EB50895DF92EF92FF920F931F93CF938A
:100D5000DF937C01062FD42E152F80E590E00E94B2
:100D6000730260E0F70186850E94CB0282E10E9457
:100D70009B06CD2DD12F0C0F1D2F111DC017D10794
:100D800021F089910E949B06F9CF61E0F7018685E9
:100D9000DF91CF911F910F91FF90EF90DF900C9416
:100DA000CB021F93CF93DF93EC01162F80E590E0E9
:100DB0000E94730260E08E850E94CB02812F8068C2
:100DC0000E949B0680E00E949B06182F61E08E85A2
:100DD0000E94CB02812FDF91CF911F9108950F9335
:100DE0001F93CF93DF93EC01062F142F80E590E043
:100DF0000E94730260E08E850E94CB02802F0E94C9
:100E00009B06812F0E949B0661E08E85DF91CF912A
:100E10001F910F910C94CB02CF92DF92EF92FF9231
:100E20000F931F93CF93DF93EC016B01F42E890195
:100E300040E062E00E94EF0644E06AE0CE010E94DA
:100E4000EF0640E864E1CE010E94EF06A6016F2D97
:100E5000CE010E94A20643E062E0CE010E94EF06AE
:100E60000E9494036B017C0129E5C20ED11CE11C98
:100E7000F11C6AE0CE010E94D10682FF1BC040E057
:100E800062E0CE010E94EF0664E4CE010E94D1062A
:100E9000F801808362E4CE010E94D106F8018183CB
:100EA00080E0DF91CF911F910F91FF90EF90DF9045
:100EB000CF9008950E9494036C157D058E059F05C3
:100EC000C0F283E0EECF2F923F924F925F926F92EB
:100ED0007F928F929F92AF92CF92DF92EF92FF928A
:100EE0000F931F93CF93DF9300D0CDB7DEB74C01A4
:100EF0002B01D42E390180E0E114F10411F0F70147
:100F000080813C2C329490EF3922380E40E062E030
:100F1000C4010E94EF064FE768E0C4010E94EF069B
:100F200040E864E1C4010E94EF06A2016D2DC401F6
:100F30000E94A206432D6AE1C4010E94EF064CE024
:100F400062E0C4010E94EF066AE1C4010E94D1067A
:100F5000482F40686AE1C4010E94EF060E94940392
:100F60001B012C01F4E22F0E311C411C511C68E0C6
:100F7000C4010E94D106982F907309F0B7C080FF7A
:100F800015C083E00F900F90DF91CF911F910F91CB
:100F9000FF90EF90DF90CF90AF909F908F907F90D9
:100FA0006F905F904F903F902F9008950E94940310
:100FB0006215730584059505D0F2E3CF61147104C1
:100FC00009F469C00115110509F465C064E1C401A3
:100FD0000E94D106382EF8018081831508F480C064
:100FE00030823320E1F180E590E00E94730260E0FE
:100FF000F40186850E94CB023A9482E90E949B0606
:10100000CC20B1F08FEF90E09C0102C0220F331F83
:10101000CA94E2F7690182E90E949B069C2D909593
:10102000F301208192238C21982B9083CC24C394AC
:1010300023014C0C511CC31440F482E90E949B060E
:10104000F20181932F01C394F6CF80E00E949B06AA
:10105000F201808361E0F40186850E94CB0268E1A1
:10106000C4010E94D1068770E114F10411F0F70168
:10107000808323FC37C061147104B1F1011511059F
:1010800099F1AA2089F1F8014081413031F484308E
:1010900029F58FEF77CF80E0ECCF4230F8F0811167
:1010A0001DC042509E012F5F3F4FB301C4010E94FB
:1010B0000C07811167CFF8019081690E711CF30153
:1010C000329720819981291309C0F1E06F1A7108C4
:1010D000F30120819A81291709F454CF87E052CF78
:1010E00084E050CF82E04ECF80E04CCF6CE0C40172
:1010F0000E94D106282E837109F460CF81E042CF8F
:101100008F929F92AF92CF92DF92EF92FF920F93C6
:101110001F93CF93DF9300D000D0CDB7DEB74C0143
:1011200080E589831A829E012D5F3F4F42E0BE0118
:101130006F5F7F4FC4010E940C07D82E811116C02B
:10114000A12CC12CF12CE12C10E000E030E020E0DB
:1011500044E0BE016F5F7F4FC4010E94630783308C
:1011600029F0D82E811102C0DD24D3948D2D0F904B
:101170000F900F900F90DF91CF911F910F91FF90E3
:10118000EF90DF90CF90AF909F908F9008950F9346
:101190001F93CF93DF938C01D62FC42F0E94D106CB
:1011A000C0954C2F48236D2FC801DF91CF911F911F
:1011B0000F910C94EF0648E060E187E796E00C940D
:1011C000C7088F929F92AF92CF92EF92FF920F93A8
:1011D0001F93CF93DF9300D000D01F92CDB7DEB71F
:1011E0004C0182E08D8340E064E2C4010E94EF067E
:1011F00040E066E2C4010E94EF0646E268E4C401F2
:101200000E94EF0686E28B838D818230B0F140E848
:101210006CE1C4010E94C70887E08C83A12CC12C1B
:10122000CE0104967C018E010B5F1F4F9E012F5F44
:101230003F4F41E0BE016D5F7F4FC4010E946307D5
:10124000982F811117C08D818230B9F48C81811162
:1012500014C081E00F900F900F900F900F90DF91CE
:10126000CF911F910F91FF90EF90CF90AF909F90F3
:101270008F90089581E0923069F380E0EBCF2F9258
:101280003F924F925F926F927F928F929F92AF9216
:10129000BF92CF92DF92EF92FF920F931F93CF9363
:1012A000DF93CDB7DEB72D970FB6F894DEBF0FBE34
:1012B000CDBF16E0413508F045C1342E4B013C014D
:1012C00040E86CE10E94C70883E98983332029F054
:1012D00081E0F4019081953008F480E02224239489
:1012E000B12C9B2D990F990F990FD32CD91AD7FC9C
:1012F000D12C32E0882319F098E89B8333E021E079
:101300009D2D977009F420E09D2D959595959595C7
:10131000290FC9F094E0811193E0291708F4922F66
:10132000EB2DF0E03196E80DF91D232F4191A1E05E
:10133000B0E0AC0FBD1FA20FB11D4C932F5F422F29
:10134000431B491798F3882311F0F8E0DF0E8FE173
:101350008D150CF082C090E79A838B819C81892740
:101360009D8189279E8189278F839E01285F3F4F1A
:1013700047E0BE016F5F7F4FC3010E940C07182F2B
:101380008111E0C01A86E3E0EB87DC86CE01079688
:101390002C0199E09D87CA844C2D4295407F4C0DCD
:1013A0006AE1C3010E94EF06A12CCE010A967C01DE
:1013B0008E01055F1F4F92014D85BE016F5F7F4F0C
:1013C000C3010E946307182F823009F065C06CE1E9
:1013D000C3010E94D10685FDB5C08F7109F480E27A
:1013E000282F30E04D2DDD0C550B421753070CF024
:1013F0009DC0D82EE82FE595E595E595EF5F982FF0
:10140000977081E009F480E0E80F81E090E08C0FB4
:101410009D1F8E0F911DFC0121503109277033272C
:1014200081E090E002C0880F991F2A95E2F79C01A5
:101430008081822B80838BCF85E98983332031F0B3
:1014400081E0F4019081983008F04BCF80E049CFE3
:1014500087E9898326E0B22EF9CF9D2D97709A8770
:101460008D2D8595859585958E5F282F2295207FDA
:10147000290F2A8321E0911101C020E0280F2D8738
:1014800044244394512C4C0E5D1E480E511CE9E03F
:10149000E81BEB87DC867FCF811154C080E2D82E19
:1014A0009C8590320CF457CF8B81883809F040C06E
:1014B00083E093E0EB2DF0E03196E80DF91D980FF5
:1014C000A1E0B0E0AC0FBD1FA80FB11D2C9121937E
:1014D0008F5F8913F5CFBB84E3E0BE124DC08A85D0
:1014E00081114AC09E012D5F3F4F41E0B201C3010F
:1014F0000E940C07182F811125C09B81F201818168
:1015000098133CC09C818281981338C0808182FFEF
:1015100012C02394F2E02F1609F48ECF83E0281630
:1015200009F496CF91E0291609F4CECE15E00AC051
:1015300082E094E0BFCFF4018387822D880F820D73
:101540008F5F8083812F2D960FB6F894DEBF0FBE7C
:10155000CDBFDF91CF911F910F91FF90EF90DF9062
:10156000CF90BF90AF909F908F907F906F905F9043
:101570004F903F902F90089511E0E4CF17E0E2CF15
:1015800020916B04260F3327331F21323105ECF4F1
:101590002091B404FC0190E080E0243069F082E006
:1015A0000895A0916B042191AC01455B5B4FA40FA2
:1015B000B52FB11D2C930196861798F380916B047B
:1015C000680F60936B0480E0089581E008951092A5
:1015D000B40481E08093B30410928E0461E082E150
:1015E0000E94CB0261E083E10E94CB02E9EBF0E0D4
:1015F00080818E7F808380818D7F808388E480934B
:10160000B80085E48093BC000895CF93DF9391E008
:1016100090934A048823B9F0C091B800D091BA00E1
:101620008091BC008A7B8093BC0060E082E10E94D4
:10163000CB0260E083E10E94CB020E94E70AD093D4
:10164000BA00C093B800DF91CF9108950895E0915A
:10165000E3048091E204E81730F4F0E0E65DFB4F2C
:10166000808190E008958FEF9FEF08959091E304BB
:101670008091E2042FEF3FEF981748F4E92FF0E054
:10168000E65DFB4F208130E09F5F9093E304C9014A
:1016900008958091E2049091E304891B990B0895C9
:1016A000CF92DF92EF92FF920F931F93CF93DF932E
:1016B0007C01CB018A012091BA04222389F0EB013D
:1016C0006B01C40ED51ECC15DD0569F06991D701FB
:1016D000ED91FC910190F081E02DC7010995F3CFC8
:1016E000642F0E94C00AC801DF91CF911F910F9112
:1016F000FF90EF90DF90CF900895CF93DF931F92EC
:10170000CDB7DEB769832091BA042223F9F0209186
:10171000E004203258F021E030E0FC0133832283E2
:1017200090E080E00F90DF91CF9108958091E104E7
:10173000E82FF0E0E554FB4F998190838F5F809311
:10174000E1048093E00481E090E0ECCF61E0CE0121
:1017500001960E94C00AF7CFCF92DF92EF92FF92DC
:101760000F931F93CF93DF93FC01C48121E020935B
:10177000BA04C093DB041092E1041092E004838564
:10178000682B82EB95E00E947D0BD091E004D13272
:1017900008F092C00E943D036B017C018091B4046B
:1017A000811165C082E08093B40481E08093B3042A
:1017B0008FEF8093B2041092B104D093B004ABEBDE
:1017C000B4E0E0E9F4E080E0D81385C010928F0423
:1017D00080918F04CC0FC82BC0938F0480918E040E
:1017E000813009F07CC010928E040E943D036B0191
:1017F0007C0180918F048093BB008091B60490910E
:10180000B704A091B804B091B904892B8A2B8B2B13
:1018100099F00E943D030091B6041091B704209105
:10182000B8043091B9046C197D098E099F09061717
:10183000170728073907E0F18091BC0083FDD9CF55
:1018400085EC8093BC000E943D036B017C0180917C
:10185000B404823009F445C08091B2048F3F61F135
:101860008091B204803241F18091B20425C0809110
:10187000B6049091B704A091B804B091B904892B33
:101880008A2B8B2B09F48ACF0E943D030091B6046A
:101890001091B7042091B8043091B9046C197D09F6
:1018A0008E099F09061717072807390708F076CF12
:1018B0008091B5040E94050B1092E1041092E0049F
:1018C0001092BA04DF91CF911F910F91FF90EF908A
:1018D000DF90CF9008959D9191938F5F75CF85EEA6
:1018E000B0CF8091B6049091B704A091B804B091A4
:1018F000B904892B8A2B8B2B09F4A9CF0E943D03B5
:101900000091B6041091B7042091B8043091B90445
:101910006C197D098E099F090617170728073907D3
:1019200008F095CFC5CF90E080E00895CF93C82F01
:1019300062E370E080E090E00E9462038C2F0E94DE
:101940009F02892B61F48C2F0E949F02892B51F4F6
:101950006AE070E080E090E00E946203F4CF80E0F3
:10196000CF91089581E0FCCF90930B0580930A05F9
:10197000109209051092190110921801109211018C
:101980001092100110923901109238011092310119
:101990001092300110922901109228011092210119
:1019A0001092200110920101109200011092090181
:1019B00010920801892B81F41092080510920705F6
:1019C00010920605109205051092FE041092FD0477
:1019D000109204051092030508950F931F93CF935F
:1019E0008C01C62F0E94AC0B6C2F6460C8010E9452
:1019F000AC0B6C2F6B7FC8010E94AC0B83EC90E0AA
:101A00000197F1F7CF911F910F9108950F931F93B5
:101A1000CF93DF938C01D62FC42F607F642B0E945D
:101A2000ED0C80E1D89FB00111246C2BC801DF912F
:101A3000CF911F910F910C94ED0C40E061E087E88D
:101A400096E00E94060D8BE39FE10197F1F7089560
:101A5000CF93DF93CDB7DEB728970FB6F894DEBFEC
:101A60000FBECDBF98E0E2E8F1E0DE0111960190F3
:101A70000D929A95E1F790918F06961710F46FEFFB
:101A8000690F262F30E0220F331F41E050E04C0F4A
:101A90005D1F240F351FF9016081680F606840E009
:101AA00087E896E028960FB6F894DEBF0FBECDBF4C
:101AB000DF91CF910C94060DCF93DF93EC010E9440
:101AC0001D0D60E086E00E94280D69E770E087E860
:101AD00096E00E94590568EE73E080E090E00E9475
:101AE0006203CE01DF91CF910C94B40CCF93DF93BE
:101AF000EC010E941D0D60E080E00E94280D68E668
:101B000070E087E896E00E94590568EB7BE080E092
:101B100090E00E946203CE01DF91CF910C94B40C4F
:101B200041E00E94060D81E090E008950F931F931D
:101B3000CF93DF938C0140E060E487E896E00E9459
:101B4000060DE801085F1F4F699187E896E00E9443
:101B5000900D0C171D07C1F7DF91CF911F910F91C9
:101B600008958F929F92AF92BF92CF92DF92EF92A1
:101B7000FF92CF936C0182E591E00E94960D0E9446
:101B800094034B015C0161E080E00E94280D6FE846
:101B900070E087E896E00E9459050D2C000CEE08D5
:101BA000FF08C0E00E949403681979098A099B091B
:101BB0006C157D058E059F05E8F461E08C2F0E9471
:101BC000280D60E087E896E00E94900D6AEF70E0D3
:101BD00080E090E00E946203CF5FC03119F761E0BE
:101BE00080E00E94280D6EE770E087E896E00E9492
:101BF0005905D7CFCF91FF90EF90DF90CF90BF9056
:101C0000AF909F908F900895FB0101900020E9F71D
:101C10003197AF01461B570BDC01ED91FC9102801F
:101C2000F381E02D0994CF93DF93BC0185E195E02A
:101C30000E945905EC016EEC71E085E195E00E948F
:101C4000040E8C0F9D1FDF91CF9108958F929F926C
:101C5000AF92BF92CF92DF92EF92FF92CF93DF933A
:101C6000CDB7DEB7A1970FB6F894DEBF0FBECDBFDC
:101C70006C01990FEE08FF08F7FE40C041E06DE2ED
:101C800087E896E00E94060D22273327A9012C1928
:101C90003D094E095F0919A2CE0181967C019AE0A7
:101CA000892E912CA12CB12CCA01B901A501940156
:101CB0000E946825605DF70162937F01211531055F
:101CC0004105510589F790E080E0309729F0BF0188
:101CD00087E896E00E94040E0196A1960FB6F8944C
:101CE000DEBF0FBECDBFDF91CF91FF90EF90DF90B1
:101CF000CF90BF90AF909F908F900895A7019601CD
:101D000019A2CE0181967C018AE0882E912CA12C0B
:101D1000B12CCA01B901A50194010E946825605D3A
:101D2000F70162937F01211531054105510589F7BE
:101D300090E080E0309789F2BF0187E896E00E944A
:101D4000040ECBCF4F925F926F927F928F929F92B1
:101D5000AF92BF92CF92DF92EF92FF920F931F93B9
:101D6000CF93DF93EC01F62E49015A01AE81BF817A
:101D7000FD0101900020E9F731978F010A1B1B0B31
:101D80000E9494034A805B806C807D806419750991
:101D900086099709681579058A059B05A8F16801E8
:101DA00080E1C80ED11C0E9494036A837B838C83DC
:101DB0009D836F2D80E00E94280DF12CE12C8881FD
:101DC00099818E0D9F1DB6010E94542541E060E26D
:101DD0008017910734F4EE81FF81E80FF91F41E08D
:101DE000608187E896E00E94060D8FEFE81AF80AF6
:101DF00080E1E816F10419F7888199810196B6010E
:101E00000E94542599838883DF91CF911F910F9170
:101E1000FF90EF90DF90CF90BF90AF909F908F900A
:101E20007F906F905F904F900895CF93DF93EC0178
:101E30008091090581110FC00E941D0D60E081E0B5
:101E40000E94280D6FEA70E087E896E00E9459052D
:101E500081E08093090526E930E040E050E061E050
:101E600070E088E091E0219711F480E091E00E9419
:101E7000A20E0E943005882399F00E941D0D60EA91
:101E800070E087E896E00E9459056CED75E080E00F
:101E900090E00E946203F0E0E0E0DF91CF910994CE
:101EA000DF91CF910895FC0124813581232B39F4F2
:101EB00021E0FB018081882349F020E007C0808178
:101EC00091810E94AE2721E0892BB9F7822F0895D6
:101ED000FC0180819181009711F00C94862460E0D0
:101EE00070E0CB010895CF93DF93EC018091090559
:101EF000811120C00E941D0D60E080E00E94280D2D
:101F0000D0930405C09303056EEB70E087E896E07C
:101F10000E9459058CED95E00E94680F6A3273406B
:101F2000810591057CF480EA9FE00E94B10D81E07B
:101F3000809309050E941D0D85E190E0DF91CF910E
:101F40000C94B40C80E49FE1F0CF0F931F93CF93D8
:101F5000DF938C01EB01FC01808191810097E1F01E
:101F60006881798161157105A9F0428153812C81C5
:101F70003D814217530770F00E94B7278C819D81E5
:101F8000F801958384831D821C82DF91CF911F917C
:101F90000F9108950E945F2688819981F8019183AD
:101FA00080838A819B81938382838C819D819583A9
:101FB0008483198218821B821A82E5CFCF93DF9324
:101FC000EC0188819981009711F00E945F261982A7
:101FD00018821D821C821B821A82DF91CF91089584
:101FE000FC0180819181009711F00C945F26089587
:101FF0000F931F93CF93DF93EC0188819981009712
:1020000059F02A813B812617370730F081E0DF91B4
:10201000CF911F910F9108958B016F5F7F4F0E94A9
:10202000E826009759F0998388831B830A832C81C3
:102030003D81232B59F7FC011082E8CF80E0E7CFE8
:102040000F931F93CF93DF938C010E94B4240097CA
:10205000F1F0C091C205D091C305C80FD91FBE01D0
:102060008EEB95E00E94F80F882391F02091BE0539
:102070003091BF058091C2059091C305B801820FD0
:10208000931F0E94AD24D093C305C093C20581E085
:10209000DF91CF911F910F910895EF92FF920F93CF
:1020A0001F93CF93DF936115710541F480E0DF91B9
:1020B000CF911F910F91FF90EF9008954115510519
:1020C000B1F07B01EC010C811D81040F151FB801DB
:1020D0000E94F80F882351F3288139818C819D81DA
:1020E000B701820F931F0E94B7271D830C8381E0E5
:1020F000DECFFC0144815581608171818EEB95E0DA
:102100000C944D10CF93DF9300D0CDB7DEB7698329
:102110001A8241E050E0BE016F5F7F4F0E944D1078
:102120000F900F90DF91CF910895EF92FF920F9350
:102130001F93CF93DF93EC017B018A01BA010E94C8
:10214000F80F81110BC0CE010E94DE0FCE01DF918E
:10215000CF911F910F91FF90EF9008951D830C83F5
:10216000B701888199810E94B727F0CFFB010190C8
:102170000020E9F73197AF01461B570B0C949510DF
:102180000F931F93CF93DF93CDB7DEB762970FB650
:10219000F894DEBF0FBECDBF8C01CB01F8011182D8
:1021A000108213821282158214824AE0BE016F5F90
:1021B0007F4F0E94BD24BE016F5F7F4FC8010E9408
:1021C000B61062960FB6F894DEBF0FBECDBFDF919A
:1021D000CF911F910F910895CF93DF93EC01FB01F5
:1021E0008617970749F0608171816115710541F08B
:1021F000448155810E949510CE01DF91CF910895C1
:102200000E94DE0FF9CFFC0111821082138212822C
:1022100015821482FB0101900020E9F73197AF018C
:10222000461B570B0C94951085ED8093BC00809154
:10223000B6049091B704A091B804B091B904079680
:10224000A11DB11D23E0B695A795979587952A9571
:10225000D1F72091BC0024FD03C01092B40408956E
:102260004091B6045091B7046091B8047091B904DC
:10227000452B462B472B69F30097A105B10541F08B
:102280002AE22A95F1F700C00197A109B109E1CF2F
:102290008091B5040C94050B1F920F920FB60F920C
:1022A00011242F933F938F939F93AF93BF9380916C
:1022B0000D0590910E05A0910F05B091100530917C
:1022C0000C0523E0230F2D3758F50196A11DB11DF4
:1022D00020930C0580930D0590930E05A0930F0598
:1022E000B09310058091110590911205A0911305EE
:1022F000B09114050196A11DB11D80931105909315
:102300001205A0931305B0931405BF91AF919F914F
:102310008F913F912F910F900FBE0F901F901895A6
:1023200026E8230F0296A11DB11DD2CF1F920F9256
:102330000FB60F9211242F933F934F935F936F9398
:102340007F938F939F93AF93BF93EF93FF9385E119
:1023500095E00E94FB05FF91EF91BF91AF919F9196
:102360008F917F916F915F914F913F912F910F903E
:102370000FBE0F901F9018951F920F920FB60F92DD
:1023800011242F938F939F93EF93FF93E091250553
:10239000F09126058081E0912B05F0912C0582FDBE
:1023A0001BC0908180912E058F5F8F7320912F0528
:1023B000821741F0E0912E05F0E0EB5EFA4F958F29
:1023C00080932E05FF91EF919F918F912F910F9008
:1023D0000FBE0F901F9018958081F4CF1F920F921F
:1023E0000FB60F9211242F933F934F935F936F93E8
:1023F0007F938F939F93AF93BF93EF93FF938091BE
:10240000B900887F803609F44AC0F0F5883209F4B3
:10241000A7C018F5803109F49BC0B8F4882309F4EB
:10242000F9C0883009F494C0FF91EF91BF91AF914A
:102430009F918F917F916F915F914F913F912F91DC
:102440000F900FBE0F901F901895883109F488C027
:10245000803251F78093B20414C0803409F49DC0D7
:1024600040F48033B9F38833F9F68093B20485ECF5
:10247000B0C0803509F485C0883509F496C0883429
:1024800099F60E941411D0CF883909F48CC038F520
:10249000883729F050F4883611F0803729F683E028
:1024A0008093B40410928D0457C0883809F47BC01F
:1024B000803919F0803809F0B7CF80918D048032CF
:1024C00008F071C0E0918D0481E08E0F80938D043F
:1024D0008091BB00F0E0E359FB4F80833DC0803B1F
:1024E00039F0E0F4803A09F479C0883A09F09CCFD9
:1024F00084E08093B40410926C0410926B04E09119
:10250000DE04F091DF04099580916B0481110FC006
:1025100081E080936B0410924B0409C0803C09F465
:10252000A6CF883C09F4A3CF883B09F07DCFE0918A
:102530006C0481E08E0F80936C04F0E0E55BFB4F50
:1025400080818093BB0090916C0480916B0429C0C2
:1025500080918F048093BB0085EC8093BC0064CF96
:102560009091B1048091B004981758F5E091B104AE
:1025700081E08E0F8093B104F0E0E057FB4F808143
:10258000E9CFE091B10481E08E0F8093B104809196
:10259000BB00F0E0E057FB4F80839091B104809145
:1025A000B0049817C8F285E8D8CFE091B10481E073
:1025B0008E0F8093B1048091BB00F0E0E057FB4F99
:1025C00080838091B30481115CCF81E080938E047D
:1025D00084EA8093BC001092B40426CF85EC8093EB
:1025E000BC001092B40480918D04803230F4E091EC
:1025F0008D04F0E0E359FB4F108260918D0470E090
:10260000E091DC04F091DD048DE694E009951092F0
:102610008D040ACF1092B20434CF10921805109294
:10262000170588EE93E0A0E0B0E080931905909341
:102630001A05A0931B05B0931C052EE831E03093DA
:1026400016052093150525EC30E0309322052093E4
:10265000210524EC30E0309324052093230520EC61
:1026600030E0309326052093250521EC30E03093AF
:1026700028052093270522EC30E030932A0520938B
:10268000290526EC30E030932C0520932B05109281
:102690002E0510922F0510923005109231051092E0
:1026A000B5051092B4058093B6059093B705A09335
:1026B000B805B093B90580EA91E09093B305809393
:1026C000B20510928A061092890686EC91E09093EA
:1026D00088068093870687E280938B0680E180934B
:1026E000900682E080939106109292068CEB91E026
:1026F00090937806809377068AE08093850689E038
:10270000809386068AEA809363068BEB8093640647
:102710008CEC809365068DED8093660661ED71E02B
:1027200087E696E00E94031181E180936D0682E2C4
:1027300080936E0683E380936F0684E48093700633
:102740006AED71E081E796E00E9403111092F605B0
:102750001092FA051092F9051092FB0582EB91E0B8
:102760009093F5058093F405E0E1F6E01082148281
:1027700013821582369686E0EC34F807B9F788E6BE
:1027800091E0909357068093560684E691E09093EB
:1027900059068093580684E080935A0680935B061E
:1027A0008CE691E090935506809354068AE090E081
:1027B00090935D0680935C0684EF91E090935F06B2
:1027C00080935E0610926206109261061092500687
:1027D0001092510610925206109253061092600603
:1027E00060ED71E08EEE95E00E94031160EE71E005
:1027F00088EE95E00E94031160ED71E082EE95E0B5
:102800000E9403116FE072E08CED95E00E940311CD
:1028100060ED71E086ED95E00E94031160ED71E0DE
:1028200080ED95E00E94031160ED71E08AEC95E087
:102830000E94031160ED71E084EC95E00E940311A9
:1028400060ED71E08EEB95E00C940311CF93DF9374
:10285000CDB7DEB76D970FB6F894DEBF0FBECDBF14
:10286000789484B5826084BD84B5816084BD85B56B
:10287000826085BD85B5816085BD80916E00816077
:1028800080936E001092810080918100826080931D
:10289000810080918100816080938100809180001F
:1028A0008160809380008091B10084608093B1004A
:1028B0008091B00081608093B00080917A00846044
:1028C00080937A0080917A00826080937A00809170
:1028D0007A00816080937A0080917A00806880938A
:1028E0007A001092C100E0912505F091260582E062
:1028F0008083E0912105F09122051082E09123056B
:10290000F091240580E1808310922D05E091290546
:10291000F0912A0586E08083E0912705F091280553
:10292000808180618083E0912705F0912805808176
:1029300088608083E0912705F09128058081806878
:102940008083E0912705F091280580818F7D808329
:102950001092E3041092E2041092E1041092E00459
:102960000E94E70A88E495E09093DF048093DE04F8
:1029700089E495E09093DD048093DC0410928C064A
:1029800080919106823018F098E090938C068093A5
:102990008F0662E370E080E090E00E946203609145
:1029A000920687E896E00E94AC0B68EE73E080E048
:1029B00090E00E94620360E387E896E00E94ED0CDD
:1029C0000BE416E4C8010197F1F760E387E896E0AD
:1029D0000E94ED0CC8010197F1F760E387E896E0EB
:1029E0000E94ED0C83E592E00197F1F760E287E841
:1029F00096E00E94ED0C60918C06606240E087E8F2
:102A000096E00E94060D84E080938D0640E06CE025
:102A100087E896E00E94060D0E941D0D82E08093DB
:102A20008E0640E066E087E896E00E94060D40E0F2
:102A300062E087E896E00E94060D8BE39FE1019734
:102A4000F1F788E08093920660E087E896E00E94C4
:102A5000AC0B0E941D0D1FB7F8948091E404811106
:102A600027C0EDEBF3E08491E1EDF3E09491E82FE2
:102A7000F0E0EE0FFF1FEB56FC4FA591B491EC91E7
:102A8000E92321F461E08AE00E94CB0261E08AE060
:102A90000E94FD028CB580618CBD8CB580648CBDBC
:102AA00061E08DE00E94FD0261E08BE00E94FD028A
:102AB0008091E4048F5F8093E4041FBF61E0809104
:102AC00085060E94FD0261E0809185060E94CB028E
:102AD000809186068F3F09F4AAC060E00E94FD0243
:102AE000809186060E949F02892B09F0A0C061E0B8
:102AF000809186060E94FD0260E0809186060E9419
:102B0000CB0283E090E00197F1F761E080918606C7
:102B10000E94CB0262E370E080E090E00E946203DA
:102B200040E064E287E796E00E94EF0640E066E25C
:102B300087E796E00E94EF0646E268E487E796E0C2
:102B40000E94EF0640E864E587E796E00E94EF0602
:102B500049EA66E587E796E00E94EF0643E068E50C
:102B600087E796E00E94EF0648EE6AE587E796E081
:102B70000E94EF0640E46AE287E796E00E94EF06D3
:102B80004DE362E287E796E00E94EF0668E287E79E
:102B900096E00E94D106982F9370933039F0482F19
:102BA000436068E287E796E00E94EF0662E08FE00C
:102BB0000E94FD0262E080E10E94FD0282E390E05B
:102BC00090935D0680935C068FEC90E00E94130E5C
:102BD0008E010F5F1F4F52E0252E312CCC24C39461
:102BE000D12CE0910A05F0910B05E931F10510F0C7
:102BF0000C943224E250FA4E0C94A9252E16F616A7
:102C00004B179B18CE17F11A521B8119671A0B1A12
:102C1000391A7318E41BFF1B871DCF1E141F1320C6
:102C20003521FF2105220B2229212F21CE234FE020
:102C300062E087E796E00E94EF0613E062E370E04F
:102C400080E090E00E94620362E087E796E00E94E5
:102C5000D10684FF65CF115089F762CF1092E60448
:102C60001092E5048091090581110FC00E941D0D8D
:102C700060E083E00E94280D60E171E087E896E063
:102C80000E94590581E0809309052CE231E040E083
:102C900050E061E070E080E191E00E94A20E0E94AD
:102CA0003005813389F481E090E00E94B40C80E02B
:102CB00090E0892B09F495CF0E94E705882309F459
:102CC00090CF0E94000087CF823389F761E270E0E5
:102CD00080E090E00E9462039E012F5F3F4F590108
:102CE000F12CE12CC7010E940725F50181935F01BA
:102CF000FFEFEF1AFF0A27E1E216F10499F7898145
:102D00008336F9F00E941D0D60E082E00E94280DDC
:102D100064E071E087E896E00E94590561E082E096
:102D20000E94280D67EF70E087E896E00E94590541
:102D300060ED77E080E090E00E9462031092090568
:102D4000B6CF8A819B819093E8048093E7048C81BD
:102D50009D819093F4048093F3048E819F819093DE
:102D600049018093480168857985CE0148960E9483
:102D7000C010BE01685E7F4F88EE95E00E94A50FEF
:102D8000CE0148960E94F00F6A857B85CE01489659
:102D90000E94C010BE01685E7F4F8CED95E00E94DE
:102DA000A50FCE0148960E94F00F8C859D859093CB
:102DB0005B0180935A01BE01625F7F4FCE0148964E
:102DC0000E940311BE01685E7F4F80ED95E00E9476
:102DD000A50FCE0148960E94F00F80EE90E00E9471
:102DE000130E8DE090E00E94B40C61CF1092E604C7
:102DF0001092E5048091090581110FC00E941D0DFC
:102E000060E081E00E94280D6BE171E087E896E0C8
:102E10000E94590581E0809309052CE231E040E0F1
:102E200050E061E070E088E191E00E94A20E0E9413
:102E30003005823469F461E270E080E090E00E9445
:102E400062038091E5049091E6040E94B40C2FCFB8
:102E5000813379F461E270E080E090E00E946203E7
:102E60001092E8041092E70482E090E00E94B40C13
:102E70001ECF823309F01BCF61E270E080E090E06A
:102E80000E946203D092E804C092E70482E090E0DE
:102E90000E94B40C0CCFD092E604C092E50480915D
:102EA000090581110FC00E941D0D60E082E00E94A3
:102EB000280D6AE271E087E896E00E94590581E0FA
:102EC000809309050E943005F82E32E483130CC06C
:102ED00061E270E080E090E00E9462038091E5048E
:102EE0009091E6040E94B40C8091E7049091E8046C
:102EF0000097A1F0019709F0DACE2CE231E040E032
:102F000050E061E070E080E291E00E94A20E91E367
:102F1000F91689F0E2E3FE12CACE1FC02CE231E0BE
:102F200040E050E061E070E088E291E00E94A20E93
:102F300041E3F4120FC061E270E080E090E00E9493
:102F400062031092F4041092F30483E090E00E9474
:102F5000B40CADCE52E3F5120FC061E270E080E038
:102F600090E00E946203D092F404C092F30483E0E4
:102F700090E00E94B40C9BCE83E3F81298CE61E2FD
:102F800070E080E090E00E9462033092F4042092AE
:102F9000F30484E090E00E94B40C89CE3092E60401
:102FA0002092E50480910905811115C060ED71E062
:102FB0008AEC95E00E94B6100E941D0D60E081E051
:102FC0000E94280D69E471E087E896E00E945905A7
:102FD00081E0809309050E943005F82E80ED8F0D69
:102FE0008A3048F56F2D8AEC95E00E94821061E0EE
:102FF00080E00E94280D63EE71E087E896E00E9471
:10300000040E61E080E00E94280D6AEC75E087E81C
:1030100096E00E944B0532E4F31249CE61E270E083
:1030200080E090E00E9462038091E5049091E604C4
:103030000E94B40C3CCEF4E4FF1211C060ED71E0CC
:103040008AEC95E00E94B61061E080E00E94280DB5
:1030500068E371E087E896E00E94590528CE23E2F4
:10306000F212D9CF61E270E080E090E00E9462034A
:1030700060ED71E08AEC95E00E94530F882329F0FF
:1030800084E090E00E94760D12CE6AEC75E080ED4F
:1030900095E00E94EC1064EF71E0C8010E940311FA
:1030A0004091D4055091D5056091D0057091D1051E
:1030B000C8010E944D10811103C0C8010E94DE0F9B
:1030C000B80185E195E00E944B056EEC71E085E169
:1030D00095E00E94040EC8010E94F00F8BE090E082
:1030E0000E94B40CE4CD80910905811119C00E94A1
:1030F0001D0D60E082E00E94280D68E571E087E820
:1031000096E00E94590561E080E00E94280D60ED84
:1031100075E087E896E00E944B0581E08093090501
:1031200068EE73E080E090E00E94620383E090E04C
:103130000E94B40CBCCD3092E6042092E50480914C
:10314000090581111BC0E090E704F090E8040E949B
:103150001D0D60E080E00E94280D65E771E0E1143C
:10316000F10429F0EA94EF2831F465E671E087E88C
:1031700096E00E94590581E0809309058091E7045B
:103180009091E8040097D1F42CE231E040E050E067
:1031900061E070E088E391E00E94A20E0E94300599
:1031A0009FEC980F9430A8F0823409F080CD809184
:1031B000E5049091E6040E94B40C79CD019771F773
:1031C0002CE231E040E050E061E070E080E391E02B
:1031D000E3CF2091E7043091E804833309F453C02E
:1031E000843309F477C0823391F4D0924901C092BC
:1031F00048012115310591F562E072E088EE95E015
:103200000E94B6108DE090E00E94B40C50CD109258
:103210004901109248012115310559F460EE71E021
:1032200088EE95E00E94B6108DE090E00E94B40C0C
:103230003ECD2130310509F03ACD6FE072E08CEDE2
:1032400095E00E94B6108CE291E090935B01809330
:103250005A0185E090E00E94B40C29CD213031055F
:1032600009F025CD65E072E08CED95E00E94B61086
:1032700084E893E090935B0180935A0185E090E0AD
:103280000E94B40C14CD30924901209248012115BE
:10329000310559F46AE072E088EE95E00E94B610BC
:1032A0008DE090E00E94B40C02CD2130310509F090
:1032B000FECC6EE072E08CED95E00E94B61088E0E6
:1032C00097E090935B0180935A0185E090E00E9423
:1032D000B40CEDCC83E090E09093490180934801D9
:1032E0002115310529F487E090E00E94B40CDFCC71
:1032F0002130310509F0DBCC88E090E00E94B40C6D
:10330000D6CC83E090E09093E6048093E50480912E
:103310000905811115C060ED71E082EE95E00E9413
:10332000B6100E941D0D60E080E00E94280D68EA42
:1033300071E087E896E00E94590581E080930905D5
:103340000E943005F82E80ED8F0D8A3048F56F2DE4
:1033500082EE95E00E94821061E080E00E94280DDC
:1033600067E971E087E896E00E94590561E080E036
:103370000E94280D62EE75E087E896E00E944B05FA
:1033800092E4F91294CC61E270E080E090E00E9457
:1033900062038091E5049091E6040E94B40C87CC0E
:1033A00054E4F51217C061E270E080E090E00E9402
:1033B000620360ED71E082EE95E00E94B61061E07C
:1033C00080E00E94280D66E871E087E896E00E94A0
:1033D00059056DCC83E2F812D3CF61E270E080E052
:1033E00090E00E94620360ED71E082EE95E00E9441
:1033F000530F882329F087E090E00E94760D57CC88
:1034000062EE75E088EE95E00E94EC1089E090E0B5
:103410000E94B40C4CCC8091090581111FC00E9400
:103420001D0D60E081E00E94280D6EEB71E087E8E1
:1034300096E00E94590561E080E00E94280D68EE48
:1034400075E087E896E00E944B0569EB71E087E83C
:1034500096E00E94590581E08093090568EE73E0CB
:1034600080E090E00E9462038DE090E00E94B40C46
:103470001ECC8091090581111FC00E941D0D60E0C6
:1034800082E00E94280D62ED71E087E896E00E94DC
:10349000590561E080E00E94280D6CED75E087E839
:1034A00096E00E944B056DEC71E087E896E00E9483
:1034B000590581E08093090568EE73E080E090E0B3
:1034C0000E94620385E090E00E94B40CF0CB83E0A0
:1034D00090E09093E6048093E504809109058111C2
:1034E00015C060ED71E086ED95E00E94B6100E9477
:1034F0001D0D60E082E00E94280D61E072E087E827
:1035000096E00E94590581E0809309050E943005EC
:10351000F82E80ED8F0D8A3048F56F2D86ED95E001
:103520000E94821061E080E00E94280D60EF71E04F
:1035300087E896E00E94590561E080E00E94280D2E
:1035400066ED75E087E896E00E944B0522E4F212F2
:10355000AECB61E270E080E090E00E946203809177
:10356000E5049091E6040E94B40CA1CBE4E4FE12C1
:1035700017C061E270E080E090E00E94620360EDBD
:1035800071E086ED95E00E94B61061E080E00E9457
:10359000280D6FED71E087E896E00E94590587CB12
:1035A000F3E2FF12D3CF61E270E080E090E00E948E
:1035B000620360ED71E086ED95E00E94530F882371
:1035C00029F088E090E00E94760D71CB66ED75E001
:1035D0008CED95E00E94EC108AE090E00E94B40C23
:1035E00066CB88E090E09093E6048093E5048091B8
:1035F000090581110FC00E941D0D61E080E00E944D
:10360000280D6EE072E087E896E00E94590581E09F
:103610008093090560E080E00E94280D2CE231E0F3
:1036200040E050E070E060E080E491E00E94A20E93
:103630000E943005813359F461E270E080E090E04F
:103640000E94620386E090E00E94B40C30CB82338B
:10365000C9F461E270E080E090E00E9462038CEDCA
:1036600095E00E94680F22E030E040E050E00E94C8
:103670008A2530935B0120935A018CE090E00E94F0
:10368000B40C15CB823409F012CB61E270E080E01B
:1036900090E00E9462038091E5049091E6040E940C
:1036A000B40C05CB85E090E09093E6048093E504AC
:1036B00080910905811115C060ED71E084EC95E001
:1036C0000E94B6100E941D0D60E081E00E94280D4E
:1036D00060E472E087E896E00E94590581E08093FB
:1036E00009050E943005F82E80ED8F0D8A3048F5CF
:1036F0006F2D84EC95E00E94821061E080E00E94D2
:10370000280D6FE272E087E896E00E94590561E0BB
:1037100080E00E94280D64EC75E087E896E00E9446
:103720004B0552E4F512C3CA61E270E080E090E01C
:103730000E9462038091E5049091E6040E94B40C1B
:10374000B6CA34E4F31211C060ED71E084EC95E088
:103750000E94B61061E080E00E94280D6EE172E0E8
:1037600087E896E00E945905A2CA43E2F412D9CF35
:1037700061E270E080E090E00E94620360ED71E041
:1037800084EC95E00E94530F882329F086E090E0B6
:103790000E94760D8CCA84EC95E00E94680F7093AD
:1037A0005B0160935A016D5E7D4F85E195E00E945B
:1037B000040E6EEC71E085E195E00E94040E8CE051
:1037C00090E00E94B40C73CA80910905811146CE25
:1037D0000E941D0D60E081E00E94280D6FE472E000
:1037E00087E896E00E94590561E080E00E94280D7C
:1037F00080915A0190915B010E94260E2CCE8091FF
:10380000090581118EC00E941D0D67E070E08EEBEE
:1038100095E00E94F80F8111F0C08EEB95E00E94B8
:10382000DE0F8091E7049091E804009709F4F4C05A
:10383000019709F4F7C0C8010E947910C8010E94DD
:10384000F00F83EA92E00E9420108091F30490919F
:10385000F4048130910509F4EEC008F4E6C0029743
:1038600009F4ECC0C8010E947910C8010E94F00F51
:1038700089E992E00E9420108091480190914901CD
:103880008130910509F4E3C008F4DBC08230910572
:1038900009F4E0C0039709F4E0C0C8010E94791060
:1038A000C8010E94F00F8091E7049091E80400970E
:1038B00009F0D6C08EE892E00E94201088EE95E0D4
:1038C0000E94791089E892E00E9420108091F30410
:1038D0009091F404029741F48EE792E00E94201048
:1038E00080ED95E00E9479108EE592E00E94201014
:1038F0008091BE059091BF05909351018093500136
:1039000010924B0110924A0161E080E00E94280D64
:103910006CEC72E087E896E00E94590581E08093A4
:1039200009052CE231E040E050E070E060E08AE41C
:1039300091E00E94A20E0E943005813309F0D9C0A7
:1039400061E270E080E090E00E94620383E6898398
:103950008091E7049091E8049B838A838091F3042B
:103960009091F4049D838C8380914801909149014A
:103970009F838E8388EE95E00E94680F7987688721
:103980008CED95E00E94680F7B876A8780915A01D1
:1039900090915B019D878C87E090D405F090D505D0
:1039A000E114F10409F085C01E86FE0131965F0125
:1039B000F12CE12CF50191905F01C7010E940725D0
:1039C000981621F0692DC7010E940F25FFEFEF1A0D
:1039D000FF0A27E1E216F10469F786EB92E00E9404
:1039E000130E8091E7049091E804009709F079C0E4
:1039F0008EE090E00E94B40C5AC987E090E090936A
:103A0000C3058093C2056EEA72E08091BE05909175
:103A1000BF050E94AD2405CF67E272E0C8010E9495
:103A2000031109CF6CEF72E0F9CF61E372E0C801D6
:103A30000E94031117CF67E173E0F9CF6CE373E0E5
:103A4000F6CF67E372E0C8010E94031126CF6BE353
:103A500072E0F9CF62E472E0F6CF6FE472E0F3CF88
:103A6000019709F041CF83E792E00E9420108CED8E
:103A700095E00E9479108EE692E00E94201082E686
:103A800092E00E9420104AE0B80180915A01909182
:103A90005B010E94BD24F80101900020E9F73197F5
:103AA000AF01401B510BB8018EEB95E00E944D1009
:103AB0001BCF89E0E816F10418F049E0E42EF12C60
:103AC0006091D0057091D105A701CE010E960E949C
:103AD000BE27EEE0F0E0EC0FFD1FEE0DFF1D1082A3
:103AE00064CF019709F0E3C882E190E00E94B40C32
:103AF000DEC8823409F0DBC861E270E080E090E06B
:103B00000E94620390E080E00E94B40CD0C88091D3
:103B10000905811115C060ED71E08AEC95E00E9405
:103B2000B6100E941D0D60E082E00E94280D6BEF30
:103B300072E087E896E00E94590581E080930905CC
:103B40000E943005F82E8091F3049091F4048130A6
:103B5000910509F4D7C008F461C0029709F0A7C81D
:103B600080ED8F0D8A3008F088C06F2D8AEC95E0CB
:103B70000E94821061E080E00E94280D6AEE72E0EF
:103B800087E896E00E94590561E080E00E94280DD8
:103B90006AEC75E087E896E00E944B058FE090E0C4
:103BA0000E94960C81116CC087E796E00E94E108A4
:103BB0008823E1F087E796E00E948A068823B1F027
:103BC00061E270E080E090E00E94620360ED71E0ED
:103BD0008AEC95E00E94B6108EE090E00E945C0DA9
:103BE00087E796E00E9480080E94DB0880E190E071
:103BF0000E94960C882309F45AC861E270E080E0C4
:103C000090E00E94620360ED71E08AEC95E00E9412
:103C1000B6108EE090E00E945C0D49C88FE090E005
:103C20000E94960C882321F08FE090E00E94B40C53
:103C300080E190E00E94960C811102C0FF2021F0EB
:103C40008EE090E00E945C0D87E796E00E94E1081C
:103C5000882309F42CC887E796E00E948A06882307
:103C600009F425C88EE090E00E945C0D87E796E09D
:103C70000E9480080E94DB081AC831E4F31220C0B9
:103C80002091CE053091CF058091D4059091D50536
:103C900028173907E1F48091CA059091CB0560910E
:103CA000D0057091D105009709F4EBC56115710538
:103CB00059F4232B09F4F3C5FC01808190E0ECC595
:103CC00043E2F416E9F26ACF0E94AE27E5C560ED43
:103CD00071E08AEC95E00E94B6100E941D0D60E034
:103CE00082E00E94280D6DED72E087E896E00E9468
:103CF000590568EE73E080E090E00E9462038EE078
:103D000090E0D5C587E796E00E94E108882331F16D
:103D100087E796E00E948A06882301F18091790660
:103D20000E9424028F3F980779F04AE0489F900153
:103D3000499F300D11246AED71E0C9018959994FED
:103D40000E94530F811116C08EE090E00E945C0D1E
:103D500087E796E00E9480080E94DB0880E190E0FF
:103D60000E94960C882389F08EE090E00E945C0D02
:103D70000C94571661E270E080E090E00E946203CC
:103D80008FE090E00E94B40CE3CF8FE090E00E94BF
:103D9000960C8111E9CFF110E7CF0C945716809162
:103DA000090581111CC00E941D0D60E081E00E9488
:103DB000280D65E173E087E896E00E94590588EEDA
:103DC00095E00E94680F60357105810591054CF101
:103DD00080E49FE10E94B10D81E0809309050E947B
:103DE0001D0D60E082E00E94280D68E073E087E826
:103DF00096E00E94590568EE73E080E090E00E9432
:103E000062030E9494036093EF047093F004809324
:103E1000F1049093F20480E190E00E94B40C0C94C1
:103E2000571680EA9FE0D6CF8091090581110FC017
:103E30000E941D0D60E082E00E94280D66E273E0A2
:103E400087E896E00E94590581E08093090588EE95
:103E500095E00E94680F4B010E9494034090EF048C
:103E60005090F0046090F1047090F20464197509A8
:103E70008609970928EE33E040E050E00E9468256B
:103E8000821A930A97FC3CC02CE382169104D4F169
:103E9000C4016CE370E00E9454259F938F937F933D
:103EA0006F9347E552E05F934F931F9281E18F93A9
:103EB0001F930F930E94CD270FB6F894DEBF0FBE5D
:103EC000CDBF61E080E00E94280DB80187E896E050
:103ED0000E94040EF80101900020E9F731975F017C
:103EE000A01AB10A90E1A916B104D4F464E273E017
:103EF00087E896E00E945905EFEFAE1ABE0AF2CFAE
:103F0000912C812C9F928F9227E632E03F932F9342
:103F10001F9281E18F931F930F930E94CD27CCCFE7
:103F2000892831F486E190E00E94B40C0C94571675
:103F30008091F3049091F4048230910589F50E94F8
:103F4000FC0334EFE32E35E0F32EF701848D843447
:103F5000C1F4878D90A10297A1F41092EA04109207
:103F6000E9040E9494036093EB047093EC04809343
:103F7000ED049093EE0481E190E00E94B40C0C9467
:103F8000571680E10E949F02892B39F3F6E0EF0E6D
:103F9000F11C20E336E02E153F05B9F60C945716B8
:103FA000009739F480E10E949F02892BB1F20C94B2
:103FB0005716019711F00C94571687E796E00E9468
:103FC000E108882311F40C94571687E796E00E94C5
:103FD0008A06F82E882311F40C94571680917906DE
:103FE0000E9424028F3F980779F04AE0489F900191
:103FF000499F300D112461ED71E0C9018959994F34
:104000000E94530F811105C080E190E00E945C0D79
:10401000F12C87E796E00E9480080E94DB08F110EF
:104020009CCF0C94571688EE95E00E94680F4B01C8
:104030000E9494034090EF045090F0046090F104CB
:104040007090F204641975098609970928EE33E027
:1040500040E050E00E946825821A930A181419045F
:1040600034F086E190E00E94B40C0C9457168091D5
:104070000905811109C00E941D0D82E591E00E9491
:10408000960D81E0809309054CE384169104C4F1F8
:10409000C4016CE370E00E9454259F938F937F933B
:1040A0006F9385E792E09F938F931F9281E18F93A7
:1040B0001F930F930E94CD270FB6F894DEBF0FBE5B
:1040C000CDBF60E080E00E94280DB80187E896E04F
:1040D0000E94040EF80101900020E9F731977F015A
:1040E000E01AF10AF0E1EF16F104C4F463E373E0BF
:1040F00087E896E00E9459052FEFE21AF20AF2CF04
:104100009F928F9246E852E05F934F931F9281E116
:104110008F931F930F930E94CD27CECF8091F304EE
:104120009091F4048230910521F50E94FC03E4EFA4
:10413000F5E0848D843431F4878D90A10197029746
:1041400008F448C0369640E356E04E175F0789F7FB
:1041500080E10E949F02892BE9F18091F304909104
:10416000F4040197B9F180E190E00E94B40C0C9442
:104170005716009769F3019781F787E796E00E9449
:10418000E108882351F387E796E00E948A06882396
:1041900021F3809179060E9424028F3F980789F0CD
:1041A0004AE0489F9001499F300D112461ED71E074
:1041B000C9018959994F0E94530FFF24F39481112B
:1041C00001C0F12C87E796E00E9480080E94DB087E
:1041D000FF2019F20E9494038090EB049090EC046D
:1041E000A090ED04B090EE04681979098A099B0942
:1041F000643F71408105910510F40C9457160E949C
:1042000094036093EB047093EC048093ED0490931B
:10421000EE04E090E904F090EA0461E08E2D0E9443
:10422000280D60E087E896E00E94900DFFEFEF1AFE
:10423000FF0AF092EA04E092E90421E1E216F104B7
:1042400014F40C94571687E190E00E94B40C0C947F
:10425000571681E090E00E94150F0C94571690E0DD
:1042600080E00E94150F0C9457168091090581116A
:104270000FC00E941D0D60E081E00E94280D65E3E3
:1042800073E087E896E00E94590581E08093090574
:104290000E943005B82E8091F3049091F4040097A9
:1042A00009F446C0019711F00C94571687E796E081
:1042B0000E94E108882379F187E796E00E948A0648
:1042C000882349F1809179060E9424028F3F980744
:1042D00009F481C04AE0489F9001499F300D1124A4
:1042E000C9018959994F7C016AED71E00E94530F11
:1042F000882309F45FC061E270E080E090E00E94F2
:10430000620383E190E00E94B40C87E796E00E948C
:1043100080080E94DB088FE090E00E94960C8823C2
:1043200009F45EC082E190E00E945C0D0C94571687
:104330008FE090E00E94960C811103C031E3B3122C
:104340000AC061E270E080E090E00E94620383E1D5
:1043500090E00E94B40C80E190E00E94960C8111E4
:1043600003C042E3B4120AC061E270E080E090E072
:104370000E94620384E190E00E94B40C87E796E01B
:104380000E94E108882311F40C94571687E796E001
:104390000E948A06882311F40C94571682E190E05B
:1043A0000E945C0D87E796E00E9480080E94DB086F
:1043B0000C94571661ED71E0C7010E94530F8823DA
:1043C00009F4A3CF61E270E080E090E00E94620314
:1043D00084E190E098CF82E190E00E945C0D95CF5F
:1043E00091E3B91609F49ECF80E190E00E94960C0B
:1043F000811198CFE2E3BE120C94571693CF81E05F
:1044000090E00E94730F0C94571682E090E00E9497
:10441000730F0C94571680910905811176C00E9484
:104420001D0D8CE591E00E94960D80910305909101
:10443000040522E0F22E8130910509F0F12CF09272
:1044400001051092020522E030E08230910511F062
:1044500030E020E0309300052093FF0460E08130DD
:10446000910519F0029749F461E080E00E94280D5F
:1044700060E087E896E00E94900D60E08F2D0E943A
:10448000280D64E573E087E896E00E945905809165
:10449000010590910205079690930205809301050E
:1044A00061E08091FF040E94280D6CE473E087E8CE
:1044B00096E00E9459058091FF04909100050796AF
:1044C000909300058093FF048091FD049091FE0479
:1044D000892B71F40E9494036093F9047093FA0499
:1044E0008093FB049093FC04D092FE04C092FD04E0
:1044F0000E9494036093F5047093F6048093F7048C
:104500009093F80481E0809309050E9494038090C1
:10451000F5049090F604A090F704B090F8046819A0
:1045200079098A099B09683E734081059105E8F085
:10453000E0900705F09008050E9494036093F5044D
:104540007093F6048093F7049093F8048091030528
:10455000909104058130910509F05DC02FEFE21ABA
:10456000F20AF0920805E092070560E080910105EB
:104570000E94280D80910705909108050E94260E43
:1045800068E473E087E896E00E94590561E0809155
:10459000FF040E94280D80910505909106050E9458
:1045A000260E64E473E087E896E00E9459050E94B5
:1045B0003005F82E0E9494034B015C018CED95E0D0
:1045C0000E94680F2B013C018091F9049091FA043C
:1045D000A091FB04B091FC04A5019401281B390BA8
:1045E0004A0B5B0BCA01B90128EE33E040E050E012
:1045F0000E9468252415350546055705C8F061E277
:1046000070E080E090E00E94620388E190E00E9408
:10461000B40C0C945716029709F0A7CF80910505AA
:1046200090910605019690930605809305059DCF10
:1046300080915A0190915B01209107053091080506
:1046400028173907E4F6209105053091060528174B
:104650003907ACF68091F3049091F404009709F4C3
:1046600061C0019711F00C94571687E796E00E94FD
:10467000E108882311F40C94571687E796E00E940E
:104680008A06882311F40C945716809179060E94AB
:1046900024028F3F980709F440C04AE0489F9001E8
:1046A000499F300D1124A9014959594F7A016AEDEA
:1046B00071E0CA010E94530F882331F080910305F5
:1046C00090910405019779F461ED71E0C7010E94B2
:1046D000530F811117C087E796E00E9480080E945F
:1046E000DB080C945716D0920405C092030561E2D2
:1046F00070E080E090E00E94620385E190E00E941B
:10470000B40CE9CF8091030590910405029719F349
:104710003092040520920305EACF85E190E00E94E3
:104720005C0DD9CF51E4F51210C080910305909132
:104730000405019709F49CC0D0920405C0920305BA
:1047400085E190E00E94B40C09C081E3F81669F39A
:104750008FE090E00E94960C8111E7CF92E4F9126D
:1047600012C08091030590910405029711F40C94F6
:104770005716309204052092030585E190E00E94CF
:10478000B40C0C945716E2E3FE1659F380E190E066
:104790000E94960C8111E5CF0C9457168091090563
:1047A000811131C00E941D0DE0900705F0900805B1
:1047B00080910505909106058E159F05ECF1E81690
:1047C000F9060CF44AC060E081E00E94280D66E81A
:1047D00073E087E896E00E94590561E080E00E945E
:1047E000280D61E773E087E896E00E945905C7014C
:1047F0000E94260E6BE673E087E896E00E9459055A
:1048000081E0809309050E943005882311F40C94FF
:1048100057160E941D0D6CE573E087E896E00E9434
:1048200059056CED75E080E090E00E946203F0E0D5
:10483000E0E009950C945716AA24A394B12C60E0EB
:1048400080E00E94280D66E773E087E896E00E940A
:104850005905C5010E94260EC0CF7C0182E0A82E1A
:10486000B12CEDCF90E080E00E94B40C0C94571670
:10487000F2E4FF1609F47DCF22E3F21609F479CFB2
:1048800085CF6115710559F0232B49F0FB0180811B
:1048900090E0919581959109892B09F018CA61E200
:1048A00070E080E090E00E9462038FE090E00E9460
:1048B000B40C7AC98EEB95E00E94F00F84EC95E081
:1048C0000E94F00F8AEC95E00E94F00F80ED95E0D9
:1048D0000E94F00F86ED95E00E94F00F8CED95E0C0
:1048E0000E94F00F82EE95E00E94F00F88EE95E0B6
:1048F0000E94F00F8EEE95E00E94F00F81E796E0A7
:104900000E94F00F87E696E00C94F00F1F93FC01D5
:1049100099278827BC01E89411911032E9F31930E6
:1049200010F01E30C8F31B3251F01D3249F4689468
:1049300006C00E94C824610F711D811D911D119137
:1049400010531A30B0F33EF49095809570956195B0
:104950007F4F8F4F9F4F1F910895FB01DC01059002
:104960000D920020E1F70895FC0105900020E9F781
:10497000809590958E0F9F1F0895BB274A3031F484
:10498000992322F4BDE2909581959F4F0C94DE24EB
:10499000592F482F372F262F660F771F881F991FF3
:1049A000660F771F881F991F620F731F841F951F43
:1049B000660F771F881F991F0895BB27FB01552796
:1049C000AA27880F991FAA1FA41710F0A41B83956C
:1049D0005051B9F7A05DAA3308F0A95DA1930097E3
:1049E00079F7B111B1931192CB010C94F724DC014A
:1049F000FC01672F71917723E1F7329704C07C9116
:104A00006D9370836291AE17BF07C8F30895F9994B
:104A1000FECF92BD81BDF89A992780B50895262FC3
:104A2000F999FECF1FBA92BD81BD20BD0FB6F89493
:104A3000FA9AF99A0FBE019608952F923F924F92DB
:104A40005F926F927F928F929F92AF92BF92CF921E
:104A5000DF92EF92FF920F931F93CF93DF93CDB727
:104A6000DEB7CA1BDB0B0FB6F894DEBF0FBECDBF9F
:104A700009942A88398848885F846E847D848C8470
:104A80009B84AA84B984C884DF80EE80FD800C8179
:104A90001B81AA81B981CE0FD11D0FB6F894DEBF5C
:104AA0000FBECDBFED01089597FB072E16F40094BD
:104AB00007D077FD09D00E94AF2507FC05D03EF452
:104AC000909581959F4F0895709561957F4F0895BA
:104AD000A1E21A2EAA1BBB1BFD010DC0AA1FBB1F02
:104AE000EE1FFF1FA217B307E407F50720F0A21B74
:104AF000B30BE40BF50B661F771F881F991F1A94E1
:104B000069F760957095809590959B01AC01BD010A
:104B1000CF010895052E97FB1EF400940E94A12555
:104B200057FD07D00E94682507FC03D04EF40C9473
:104B3000A12550954095309521953F4F4F4F5F4FA0
:104B4000089590958095709561957F4F8F4F9F4FF9
:104B50000895EE0FFF1F0590F491E02D0994AA1B14
:104B6000BB1B51E107C0AA1FBB1FA617B70710F058
:104B7000A61BB70B881F991F5A95A9F7809590958A
:104B8000BC01CD0108950F931F93CF93DF93823023
:104B9000910510F482E090E0E0919506F091960680
:104BA00030E020E0B0E0A0E0309799F42115310525
:104BB00009F44AC0281B390B24303105D8F58A8105
:104BC0009B816115710589F1FB0193838283FE014D
:104BD00011C0408151810281138148175907E0F0CB
:104BE0004817590799F4109761F012960C93129791
:104BF00013961C933296CF01DF91CF911F910F91A5
:104C000008950093950610939606F4CF211531056B
:104C100051F04217530738F0A901DB019A01BD0199
:104C2000DF01F801C1CFEF01F9CF90939606809391
:104C30009506CDCFFE01E20FF31F81939193225091
:104C4000310939832883D7CF209193063091940678
:104C5000232B41F420917E0130917F013093940603
:104C60002093930620917C0130917D01211531051F
:104C700041F42DB73EB74091800150918101241B32
:104C8000350BE0919306F0919406E217F307A0F438
:104C90002E1B3F0B2817390778F0AC014E5F5F4F92
:104CA0002417350748F04E0F5F1F5093940640932A
:104CB0009306819391939FCFF0E0E0E09CCFCF9358
:104CC000DF930097E9F0FC01329713821282A091E2
:104CD0009506B0919606ED0130E020E01097A1F422
:104CE00020813181820F931F209193063091940689
:104CF0002817390709F061C0F0939406E0939306F2
:104D0000DF91CF910895EA01CE17DF07E8F54A81D8
:104D10005B819E0141155105B1F7E901FB83EA83EF
:104D200049915991C40FD51FEC17FD0761F480819B
:104D300091810296840F951FE9019983888382816E
:104D400093819B838A83F0E0E0E012968D919C91A1
:104D500013970097B9F52D913C911197CD010296CB
:104D6000820F931F209193063091940628173907DC
:104D700039F6309751F51092960610929506B09339
:104D80009406A0939306BCCFD383C2834081518104
:104D9000840F951FC817D90761F44E5F5F4F888154
:104DA0009981480F591F518340838A819B81938346
:104DB00082832115310509F0B0CFF0939606E09378
:104DC00095069ECFFD01DC01C0CF13821282D7CFA2
:104DD000B0E0A0E0EEEEF6E20C941F258C01009707
:104DE00051F4CB010E94C3258C01C801CDB7DEB7B9
:104DF000E0E10C943B25FC01E60FF71F9C012250DB
:104E00003109E217F30708F49DC0D901CD91DC9177
:104E10001197C617D70798F0C530D10530F3CE01EA
:104E200004978617970708F3C61BD70B2297C193E1
:104E3000D1936D937C93CF010E945F26D6CF5B0107
:104E4000AC1ABD0A4C018C0E9D1EA0919506B09126
:104E50009606512C412CF12CE12C109731F58091C4
:104E60009306909194068815990509F05CC0461642
:104E7000570608F058C080917C0190917D01009701
:104E800041F48DB79EB74091800150918101841B00
:104E9000950BE817F90708F055C0F0939406E093D6
:104EA0009306F90171836083A0CF8D919C91119736
:104EB00012966C90129713967C901397A815B905CB
:104EC00059F56C0142E0C40ED11CCA14DB0420F178
:104ED000AC014A195B09DA011296159780F06282DB
:104EE000738251834083D9016D937C93E114F10463
:104EF00071F0D7011396FC93EE93129776CF22961A
:104F00008C0F9D1FF90191838083F301EFCFF09304
:104F10009606E093950669CF4816590608F42C01C9
:104F20007D01D3019ACFCB010E94C3257C0100975C
:104F300049F0AE01B8010E94A527C8010E945F2672
:104F4000870153CF10E000E050CFFB01DC0102C02D
:104F500001900D9241505040D8F70895FB01DC01BB
:104F60008D91019080190110D9F3990B0895FB01DF
:104F7000DC0101900D920020E1F70895FB01DC01B6
:104F80004150504048F001900D920020C9F701C0F7
:104F90001D9241505040E0F70895AEE0B0E0E3EDDF
:104FA000F7E20C942B250D891E898F89988D26E0B8
:104FB0002C831A83098397FF02C080E090E8019751
:104FC0009E838D83AE01455E5F4F698D7A8DCE01E4
:104FD00001960E94FD274D815E8157FD0AC02F81F9
:104FE0003885421753070CF49A01020F131FF8017A
:104FF00010822E96E4E00C944725ABE0B0E0E3E0AD
:10500000F8E20C941D257C013B018A01FC0117820A
:105010001682838181FFC8C1CE0101965C01F70130
:105020009381F30193FD859193FF81913F01882343
:1050300009F453C1853239F493FD859193FF819131
:105040003F01853229F4B70190E00E94ED29E7CFB6
:10505000912C212C312CFFE1F31538F08B3211F11A
:1050600090F4803209F1833229F137FC3CC020ED05
:10507000280F2A3050F536FE20C08AE0989E200D79
:105080001124922E06C08D3291F0803371F768940E
:1050900030F8F30193FD859193FF81913F018111D8
:1050A000DACF21C0689431F8689432F8F2CF68946E
:1050B00033F8EFCF689434F8ECCFEAE02E9E200D61
:1050C0001124222E689435F8E4CF8E3229F436FC70
:1050D00004C1689436F8DDCF8C3619F4689437F83B
:1050E000D8CF8836B1F2982F9F7D95549330E0F059
:1050F0008336A1F18337C1F1833509F063C02801FC
:10510000F2E04F0E511CF801C080D180692D70E093
:1051100036FC02C06FEF7FEFC6010E94D7294C0119
:10512000689437F882010AC00C5F1F4FFFE3F983D0
:1051300088248394912C6501E89437F833FE2DC0C0
:10514000522C8114910471F5552009F468CFB701F0
:1051500080E290E00E94ED295A94F6CFF801808118
:1051600089830E5F1F4FE4CF2801F2E04F0E511CE0
:10517000F801C080D180692D70E036FC02C06FEF6D
:105180007FEFC6010E94E2294C018201D5CFB70111
:1051900080E290E00E94ED292A942814190409F075
:1051A000B0F7CECFF60137FC859137FE81916F01C4
:1051B000B70190E00E94ED2951105A94F1E08F1A46
:1051C0009108BFCF843619F0893609F077C0F8010D
:1051D00037FE6BC060817181828193810C5F1F4FAC
:1051E000F32DFF763F2E97FF09C09095809570951F
:1051F00061957F4F8F4F9F4F689437F82AE030E0DA
:10520000A5010E941D2AC82ECA188C2C432C36FEDC
:105210000CC0E89440F8C91440F434FE05C032FCD8
:1052200003C0F32DFE7E4F2E892C44FE95C0FE0157
:10523000EC0DF11D8081803309F087C0242D297E7B
:10524000422E842D8870582E43FC95C040FE8FC09E
:105250009C2C821418F42C0C922C981844FE91C0AB
:10526000B70180E390E00E94ED2942FE09C088E783
:1052700090E041FE02C088E590E0B7010E94ED2970
:10528000C91408F48AC0CA94D12C9FEFC91AD90A4C
:10529000CA0CDB1CF60182916F01B70190E00E94FD
:1052A000ED29AC14BD04B1F74FCF60817181072E99
:1052B000000C880B990B0E5F1F4F92CFD32CE894F4
:1052C000D4F82AE030E0853739F1232D297FD22E1A
:1052D0008F3601F148F48835A9F0F701868197816E
:1052E0002B96E2E10C943925803749F08837A9F7ED
:1052F000D4FE02C06894D2F820E130E00DC068947A
:10530000D4F8F6CF34FE03C0822F8660D82E20E179
:1053100032E002C028E030E0F801D7FE0FC0608123
:105320007181828193810C5F1F4FA5010E941D2A0C
:10533000C82ECA183D2CE89437F867CF6081718178
:1053400090E080E00E5F1F4FF0CF42FC02C08394DC
:1053500078CF8394839475CF842D867809F471CFA8
:10536000F6CFB70180E290E00E94ED298394821489
:10537000C0F3512C73CF522C5818821408F46ECFFE
:10538000F8CF842D867809F47BCF8BE241FE80E252
:1053900047FC8DE2B70190E071CFB70180E390E068
:1053A0000E94ED299A946CCF8FEF9FEF99CFFC016B
:1053B0000590615070400110D8F7809590958E0F40
:1053C0009F1F0895FC016150704001900110D8F7B3
:1053D000809590958E0F9F1F08950F931F93CF93E5
:1053E000DF93182F092FEB018B8181FD09C01FEF7F
:1053F0000FEF812F902FDF91CF911F910F91089583
:1054000082FF14C02E813F818C819D81281739072E
:105410003CF4E881F981CF01019699838883108358
:105420008E819F8101969F838E83E3CFE885F985E6
:10543000812F0995892BA1F3DACFFA01AA27283009
:1054400051F1203181F1E8946F936E7F6E5F7F4F51
:105450008F4F9F4FAF4FB1E03ED0B4E03CD0670FCD
:10546000781F891F9A1FA11D680F791F8A1F911D20
:10547000A11D6A0F711D811D911DA11D20D009F470
:1054800068943F912AE0269F11243019305D3193B2
:10549000DEF6CF010895462F4770405D4193B3E09B
:1054A0000FD0C9F7F6CF462F4F70405D4A3318F042
:1054B000495D31FD4052419302D0A9F7EACFB4E0F3
:1054C000A6959795879577956795BA95C9F70097AB
:1054D0006105710508959B01AC010A2E069457954C
:1054E000479537952795BA95C9F7620F731F841FA3
:1054F000951FA01D089511E0C9EFD1E004C0FE0181
:105500000E94A9252196CA3FD107C9F7F894FFCF79
:105510000000000000009502000000000000AD0245
:10552000000000000000C602000000000000E702CA
:1055300000000000000006030000000000001E0341
:10554000000000000000420300000000000097037C
:10555000000000000000EA0301000000000000005D
:10556000D0011F1F1F1F1F1F1F1F2C011C1E1F1FCD
:105570001F1E1C000607080E0203040531323341CA
:1055800034353642373839432A30234400009706F1
:1055900080000000400014005400000000001D06C0
:1055A0007D05AA056A06DB05B905CD0500000000EA
:1055B0007D0B500B930C260B490B360B270B000071
:1055C00000003903F902C802000000003F09E108A9
:1055D0008A0600000000900D7D05930C4A050D0A17
:1055E000005665726D656C686F0056657264650083
:1055F00035300020202020202020202020202020A6
:105600002020200053454E48412053414C56413AFA
:105610002000393000313830300032363000333637
:105620003030004C494D2E20504F4E544F53205394
:10563000414C564F3A20005361626F746167656D4B
:1056400000426F74616F00435142005061647261A7
:105650006F0043616D706F2041626572746F00501E
:105660006572736F6E2E0054656D706F3A202564FD
:105670006D696E2564730054656D706F3A20256402
:105680007365672E0044455341524D2E2025646DAD
:10569000696E2564730044455341524D2E202564A4
:1056A0007365672E002020202041544143414E5411
:1056B00045532056454E434552414D210020202060
:1056C00020444546454E534F5245532056454E4380
:1056D0004552414D210020283129204E6F766F2000
:1056E0004A6F676F202D2028322920556C74696D10
:1056F0006F204A6F676F0020283129205361626F45
:10570000746167656D202D2028322920446F6D69F2
:105710006E6163616F002028312920426F74616FD0
:10572000202D202832292043617274616F002028C7
:10573000312920426F74616F202D202832292043A7
:10574000617274616F202D202833292053656E68A3
:10575000610020283129204351423A2031306D69BF
:105760006E2E202D202832292050616472616F3AFC
:105770002033306D696E2E202D202833292043617F
:105780006D706F2041626572746F3A2036306D69BA
:105790006E2E202D2028342920506572736F6E6183
:1057A0006C697A6164610020283129204351423AB2
:1057B000203530732E202D2028322920506164722C
:1057C000616F3A20316D3330732E202D202833291C
:1057D0002043616D706F2041626572746F3A2034AE
:1057E0006D3230732E202D2028342920506572739D
:1057F0006F6E616C697A6164610020446573656AEB
:105800006120706572736F6E616C697A6172206F6E
:10581000206D61782E20646520706F6E746F733F09
:10582000202850414452414F203D202854656D703E
:0A5830006F204C696D2E2F32290005
:00000001FF
