:020000040000FA
:100000000C94D7010C94FF010C94FF010C94FF0198
:100010000C94FF010C94FF010C94FF010C94FF0160
:100020000C94FF010C94FF010C94FF010C94FF0150
:100030000C94FF010C94FF010C94FF010C94FF0140
:100040000C94B1100C94FF010C9421110C94FB1032
:100050000C94FF010C94FF010C94FF010C94FF0120
:100060000C9453110C94FF01446967697465207501
:100070006D2076616C6F7221004552524F00202036
:100080002020202020202020202020202020002090
:100090002020202020202020202020202020200080
:1000A0005245494E494349414E444F2E2E2E00465B
:1000B000494E414C204445204A4F474F2100444F70
:1000C0004D494E414E444F2041204152454100533D
:1000D000697374656D6120696E69636961646F003D
:1000E00042656D2D56696E646F21004573636F6CB8
:1000F0006861206F206D6F646F004D6F646F2064C6
:10010000652061726D617200202020202020202057
:10011000202020202020202000446566696E612078
:10012000612073656E68610053656E68612020739D
:10013000616C7661004C696D69746520646520743A
:10014000656D706F0054656D706F2061706F732006
:1001500061726D617200202020202020202020204C
:1001600020202020202000202020202020202020AF
:10017000202020202020200054656D706F206170A9
:100180006F732061726D6172007365672E00546534
:100190006D706F206578706C6F73616F0073656749
:1001A0002E0054656D706F206C696D697465002058
:1001B000202020202020202020202020202020005F
:1001C000202020202020202020202020202020202F
:1001D0000054656D706F206C696D6974650028311D
:1001E0002953696D202D202832294E616F0020206F
:1001F000202020202020202020202020202000201F
:10020000202020202020202020202020202020000E
:100210004465662E206D61782E207074732E004D1B
:1002200061782E20646520706F6E746F73002020DB
:100230002000202D20506F6E746F733A200073657C
:10024000672E00202D2054656D706F3A2000202D00
:100250002053656E68613A20007365672E00202D7B
:100260002054656D706F3A2000202D204475722E49
:100270003A2000202D2041726D61723A2000204A00
:100280006F676F3A2000312D496E69636961722092
:10029000422D536169720053454E484120455252E8
:1002A0004144410020202020202020202020202008
:1002B000202020200041524D45204120424F4D42F8
:1002C0004100424F4D42412041524D414441004185
:1002D000524D414E444F2020424F4D42410020009C
:1002E000424F4D42412041524D4144410020004483
:1002F0004F4D494E4520412041524541210020208B
:1003000020002020200045512E20323A2000455167
:100310002E20313A20005245494E494349414E442E
:100320004F2E2E2E00205054532E00434F4D2000B0
:1003300056454E43452041204551554950452000E2
:1003400021212120454D50415445202121210000EB
:10035000000000240027002A0000000000250028DB
:10036000002B0000000000230026002900040404E4
:10037000040404040402020202020203030303034E
:10038000030102040810204080010204081020012B
:10039000020408102000000008000201000003040D
:1003A000070000000000000000007212B7221124B4
:1003B0001FBECFEFD8E0DEBFCDBF26E0AAE2B4E09B
:1003C00001C01D92A739B207E1F714E0A0E0B1E047
:1003D000E0E8F1E502C005900D92AA32B107D9F725
:1003E00011E0C6EDD1E004C02197FE010E94F02388
:1003F000C53DD107C9F70E948B130C94B3280C9408
:100400000000CF93DF936AE776E0E3E6F6E0DF01F2
:100410009B0190E0AD014356564048175907BCF484
:10042000E90159919E014D915417A1F38D59994FAE
:100430008E179F0779F0DB013D91BD013196218533
:100440003217B1F38FEF9FEFDF91CF91089590E0D6
:1004500080E0FACF81E090E0F7CF96E0899FD0016D
:100460001124AC50BA4F90967C936E935F9791E0B5
:1004700091969C939197E0916106F091620690911C
:100480006006992339F0309751F0811108C08091AE
:1004900010060994309719F05C968C91FACF089564
:1004A0008CBD9DBD0895833081F028F4813099F092
:1004B0008230A9F008958730A9F08830C9F08430DF
:1004C000B1F4809180008F7D03C0809180008F7790
:1004D00080938000089584B58F7784BD089584B596
:1004E0008F7DFBCF8091B0008F778093B00008950F
:1004F0008091B0008F7DF9CFCF93DF93282F30E02C
:10050000F901EB56FC4F8491F901EF57FC4FD49160
:10051000F901E359FC4FC491CC23A1F081110E9451
:100520005302EC2FF0E0EE0FFF1FED59FC4FA591A9
:10053000B491EC91ED2381E090E009F480E0DF914B
:10054000CF91089580E090E0FACF862F0C947C0242
:100550001F93CF93DF93282F30E0F901EB56FC4F28
:100560008491F901EF57FC4FD491F901E359FC4F05
:10057000C491CC23A9F0162F81110E945302EC2FB5
:10058000F0E0EE0FFF1FE75AFC4FA591B4918FB733
:10059000F894EC91111108C0D095DE23DC938FBF45
:1005A000DF91CF911F910895DE2BF8CF862F642F16
:1005B0000C94A802CF93DF9390E0FC01EF57FC4F1F
:1005C000249183599C4FFC0184918823C9F090E0C9
:1005D000880F991FFC01E15BFC4FA591B491FC01D0
:1005E000E75AFC4FC591D49161110DC09FB7F894A3
:1005F0008C91209582238C938881282328839FBF08
:10060000DF91CF910895623051F49FB7F8943C91F7
:10061000822F809583238C93E8812E2BEFCF8FB789
:10062000F894EC912E2B2C938FBFEACF862F642F5A
:100630000C94DA023FB7F89480911105909112055D
:10064000A0911305B091140526B5A89B05C02F3FB6
:1006500019F00196A11DB11D3FBFBA2FA92F982FE8
:100660008827BC01CD01620F711D811D911D42E0E3
:10067000660F771F881F991F4A95D1F708958F92AB
:100680009F92AF92BF92CF92DF92EF92FF924B0177
:100690005C010E941A036B017C010E941A036C1911
:1006A0007D098E099F09683E734081059105A8F375
:1006B00021E0821A9108A108B10888EEC80E83E0F3
:1006C000D81EE11CF11C81149104A104B10429F786
:1006D000FF90EF90DF90CF90BF90AF909F908F9062
:1006E00008952FB7F89460910D0570910E058091D3
:1006F0000F05909110052FBF08950F931F93CF936F
:10070000DF93C82FD62F86E0C89FF0011124EC504C
:10071000FA4F11A2878D90A181309105F1F058F028
:1007200082309105F1F1039709F440C0DF91CF9138
:100730001F910F9108956623C9F361E070E08C2F3B
:100740000E942D020E94710360934C0670934D0627
:1007500080934E0690934F06E9CF0E94710300915B
:100760004C0610914D0620914E0630914F06AB017C
:10077000BC01401B510B620B730B80915E06909184
:100780005F06B0E0A0E084179507A607B70748F416
:1007900062E070E08C2FDF91CF911F910F910C944C
:1007A0002D0263E070E0D111C1CFF4CF70E060E0C2
:1007B000F1CF6F927F928F929F92AF92BF92CF9222
:1007C000DF92EF92FF920F931F93CF93DF930E94DC
:1007D00071030091500610915106209152063091FC
:1007E0005306AB01BC01401B510B620B730B809194
:1007F0005C0690915D06B0E0A0E010E084179507DC
:10080000A607B70708F0F7C0C0E080915A06C817DE
:1008100060F4E0915606F0915706EC0FF11D62E08E
:1008200080810E94DA02CF5FF0CF712C812C912C55
:100830005401839480915B06781608F05FC0072D01
:1008400010E0E0915806F0915906E00FF11F61E0C9
:1008500080810E94DA02E0915806F0915906E00F7B
:10086000F11F60E080810E94A802D501C401072C1D
:1008700004C0880F991FAA1FBB1F0A94D2F76C01EE
:100880007C01E094F094612C80915A066816F8F48B
:10089000C62DD0E0E0915606F0915706EC0FFD1FF3
:1008A00080810E947C022496CC0FDD1FCC50DA4F51
:1008B000892B41F4888199818C299D29998388838A
:1008C0006394E2CF888199818E219F21F7CFE091B7
:1008D0005806F0915906E00FF11F61E080810E94F7
:1008E000A8028091580690915906080F191F60E0E0
:1008F000F80180810E94DA0273949CCFC4EFD5E0A6
:10090000FE018FEF9FEF278D30A1232B21F4148E52
:10091000968F858F11A2369626E0E033F20799F77D
:10092000F12C96E0D92E80915A06F81608F050C0A6
:10093000E12C0F2D10E0000F111F04501A4F2091D1
:100940005B06E21608F042C0F801608171810E2C4E
:1009500002C0769567950A94E2F7F29E9001112401
:100960002E0D311DE4EFF5E080E0458D568D241706
:10097000350709F450C08F5F36968A30B1F760FFB3
:1009800023C0E4EFF5E090E080E0448D411117C012
:10099000E0915406F0915506E20FF31F4081D89E76
:1009A000F001D99EF00D1124EC50FA4F448F368F90
:1009B000258F10A2178E61E00E947D0305C001966D
:1009C00036968A30910509F7E394B9CFF394ABCF0B
:1009D00010E089A18111182F2696F6E0C033DF07B9
:1009E000C1F70E9471036093500670935106809383
:1009F000520690935306812FDF91CF911F910F9153
:100A0000FF90EF90DF90CF90BF90AF909F908F902E
:100A10007F906F9008956170CFCF81E080936006E2
:100A20000E94D903882369F080911506882349F034
:100A30008091130690911406019719F48091100685
:100A400008951092600680E0089508950895DB01EE
:100A500014964D915C9115976D917C91DC01ED910F
:100A6000FC910280F381E02D0994EF92FF920F93A5
:100A70001F93CF93DF938C017B01D0E0C0E0F7019F
:100A8000EC0FFD1F6491662361F0D801ED91FC919C
:100A90000190F081E02DC8010995892B11F0219674
:100AA000EECFCE01DF91CF911F910F91FF90EF908C
:100AB0000895AF92BF92CF92DF92EF92FF920F9381
:100AC0001F93CF93DF936C017B018B01040F151FE4
:100AD000EB015E01AE18BF08C017D10759F069914C
:100AE000D601ED91FC910190F081E02DC6010995B0
:100AF000892B79F7C501DF91CF911F910F91FF905D
:100B0000EF90DF90CF90BF90AF900895FC01538D90
:100B1000448D252F30E0842F90E0821B930B5417D7
:100B200010F0CF96089501970895FC01918D828D64
:100B3000981761F0A28DAE0FBF2FB11D5D968C91FD
:100B4000928D9F5F9F73928F90E008958FEF9FEF3C
:100B50000895FC01918D828D981731F0828DE80FF8
:100B6000F11D858D90E008958FEF9FEF0895FC01B2
:100B7000918D228D892F90E0805C9F4F821B91097F
:100B80008F739927089585E195E00E94B70521E0CC
:100B9000892B09F420E0822F089580E090E0892BD2
:100BA00029F00E94C30581110C9400000895FC01F6
:100BB000A48DA80FB92FB11DA35ABF4F2C91848DBE
:100BC00090E001968F739927848FA689B7892C931B
:100BD000A089B1898C91837080648C93938D848D6E
:100BE000981306C00288F389E02D80818F7D808371
:100BF0000895EF92FF920F931F93CF93DF93EC0131
:100C000081E0888F9B8D8C8D98131AC0E889F989B3
:100C1000808185FF15C09FB7F894EE89FF896083B6
:100C2000E889F98980818370806480839FBF81E037
:100C300090E0DF91CF911F910F91FF90EF90089579
:100C4000F62E0B8D10E00F5F1F4F0F731127E02E54
:100C50008C8D8E110CC00FB607FCFACFE889F9898C
:100C6000808185FFF5CFCE010E94D705F1CFEB8DB6
:100C7000EC0FFD2FF11DE35AFF4FF0829FB7F89460
:100C80000B8FEA89FB8980818062CFCFCF93DF937E
:100C9000EC01888D8823B9F0AA89BB89E889F98994
:100CA0008C9185FD03C0808186FD0DC00FB607FCC9
:100CB000F7CF8C9185FFF2CF808185FFEDCFCE01FC
:100CC0000E94D705E9CFDF91CF910895BC016E5FF7
:100CD0007F4FDC01ED91FC910190F081E02D40E02F
:100CE000099591E0811190E0892F089508958EBDB6
:100CF00000000DB407FEFDCF8EB50895DF92EF9290
:100D0000FF920F931F93CF93DF937C01062FD42E76
:100D1000152F80E590E00E94500260E0F701868583
:100D20000E94A80282E10E947706CD2DD12F0C0FE0
:100D30001D2F111DC017D10721F089910E94770640
:100D4000F9CF61E0F7018685DF91CF911F910F9177
:100D5000FF90EF90DF900C94A8021F93CF93DF9346
:100D6000EC01162F80E590E00E94500260E08E8535
:100D70000E94A802812F80680E94770680E00E946E
:100D80007706182F61E08E850E94A802812FDF91DF
:100D9000CF911F9108950F931F93CF93DF93EC0191
:100DA000062F142F80E590E00E94500260E08E85AF
:100DB0000E94A802802F0E947706812F0E9477064A
:100DC00061E08E85DF91CF911F910F910C94A80265
:100DD000CF92DF92EF92FF920F931F93CF93DF9307
:100DE000EC016B01F42E890140E062E00E94CB0629
:100DF00044E06AE0CE010E94CB0640E864E1CE0107
:100E00000E94CB06A6016F2DCE010E947E0643E014
:100E100062E0CE010E94CB060E9471036B017C014F
:100E200029E5C20ED11CE11CF11C6AE0CE010E9432
:100E3000AD0682FF1BC040E062E0CE010E94CB06FF
:100E400064E4CE010E94AD06F801808362E4CE0125
:100E50000E94AD06F801818380E0DF91CF911F9160
:100E60000F91FF90EF90DF90CF9008950E94710353
:100E70006C157D058E059F05C0F283E0EECF2F92A5
:100E80003F924F925F926F927F928F929F92AF921A
:100E9000CF92DF92EF92FF920F931F93CF93DF9346
:100EA00000D0CDB7DEB74C012B01D42E390180E044
:100EB000E114F10411F0F70180813C2C329490EFA1
:100EC0003922380E40E062E0C4010E94CB064FE7B1
:100ED00068E0C4010E94CB0640E864E1C4010E94BE
:100EE000CB06A2016D2DC4010E947E06432D6AE14E
:100EF000C4010E94CB064CE062E0C4010E94CB0614
:100F00006AE1C4010E94AD06482F40686AE1C4014D
:100F10000E94CB060E9471031B012C01F4E22F0EEC
:100F2000311C411C511C68E0C4010E94AD06982F81
:100F3000907309F0B7C080FF15C083E00F900F9049
:100F4000DF91CF911F910F91FF90EF90DF90CF90A5
:100F5000AF909F908F907F906F905F904F903F9059
:100F60002F9008950E9471036215730584059505FD
:100F7000D0F2E3CF6114710409F469C001151105C1
:100F800009F465C064E1C4010E94AD06382EF80181
:100F90008081831508F480C030823320E1F180E540
:100FA00090E00E94500260E0F40186850E94A80251
:100FB0003A9482E90E947706CC20B1F08FEF90E05E
:100FC0009C0102C0220F331FCA94E2F7690182E933
:100FD0000E9477069C2D9095F301208192238C210D
:100FE000982B9083CC24C39423014C0C511CC31424
:100FF00040F482E90E947706F20181932F01C394A5
:10100000F6CF80E00E947706F201808361E0F40170
:1010100086850E94A80268E1C4010E94AD0687701F
:10102000E114F10411F0F701808323FC37C061144F
:101030007104B1F10115110599F1AA2089F1F801A6
:101040004081413031F4843029F58FEF77CF80E053
:10105000ECCF4230F8F081111DC042509E012F5F4D
:101060003F4FB301C4010E94E806811167CFF80128
:101070009081690E711CF3013297208199812913A7
:1010800009C0F1E06F1A7108F30120819A812917D4
:1010900009F454CF87E052CF84E050CF82E04ECFA6
:1010A00080E04CCF6CE0C4010E94AD06282E837115
:1010B00009F460CF81E042CF8F929F92AF92CF929E
:1010C000DF92EF92FF920F931F93CF93DF9300D0A5
:1010D00000D0CDB7DEB74C0180E589831A829E012E
:1010E0002D5F3F4F42E0BE016F5F7F4FC4010E9402
:1010F000E806D82E811116C0A12CC12CF12CE12CB0
:1011000010E000E030E020E044E0BE016F5F7F4F80
:10111000C4010E943F07833029F0D82E811102C0FC
:10112000DD24D3948D2D0F900F900F900F90DF91B1
:10113000CF911F910F91FF90EF90DF90CF90AF90E4
:101140009F908F9008950F931F93CF93DF938C01FF
:10115000D62FC42F0E94AD06C0954C2F48236D2F6B
:10116000C801DF91CF911F910F910C94CB0648E0FD
:1011700060E187E796E00C94A3088F929F92AF926C
:10118000CF92EF92FF920F931F93CF93DF9300D0F4
:1011900000D01F92CDB7DEB74C0182E08D8340E0D6
:1011A00064E2C4010E94CB0640E066E2C4010E94F2
:1011B000CB0646E268E4C4010E94CB0686E28B833C
:1011C0008D818230B0F140E86CE1C4010E94A30837
:1011D00087E08C83A12CC12CCE0104967C018E016A
:1011E0000B5F1F4F9E012F5F3F4F41E0BE016D5FC0
:1011F0007F4FC4010E943F07982F811117C08D8136
:101200008230B9F48C81811114C081E00F900F906D
:101210000F900F900F90DF91CF911F910F91FF9042
:10122000EF90CF90AF909F908F90089581E0923093
:1012300069F380E0EBCF2F923F924F925F926F92D3
:101240007F928F929F92AF92BF92CF92DF92EF9256
:10125000FF920F931F93CF93DF93CDB7DEB72D97F8
:101260000FB6F894DEBF0FBECDBF16E0413508F0D3
:1012700045C1342E4B013C0140E86CE10E94A308BB
:1012800083E98983332029F081E0F401908195304E
:1012900008F480E022242394B12C9B2D990F990F00
:1012A000990FD32CD91AD7FCD12C32E0882319F00E
:1012B00098E89B8333E021E09D2D977009F420E0AE
:1012C0009D2D959595959595290FC9F094E08111DF
:1012D00093E0291708F4922FEB2DF0E03196E80DFA
:1012E000F91D232F4191A1E0B0E0AC0FBD1FA20F6B
:1012F000B11D4C932F5F422F431B491798F388234E
:1013000011F0F8E0DF0E8FE18D150CF082C090E750
:101310009A838B819C8189279D8189279E8189273A
:101320008F839E01285F3F4F47E0BE016F5F7F4F75
:10133000C3010E94E806182F8111E0C01A86E3E07D
:10134000EB87DC86CE0107962C0199E09D87CA8445
:101350004C2D4295407F4C0D6AE1C3010E94CB06A3
:10136000A12CCE010A967C018E01055F1F4F9201D0
:101370004D85BE016F5F7F4FC3010E943F07182F4D
:10138000823009F065C06CE1C3010E94AD0685FDA5
:10139000B5C08F7109F480E2282F30E04D2DDD0CAF
:1013A000550B421753070CF09DC0D82EE82FE5953A
:1013B000E595E595EF5F982F977081E009F480E05F
:1013C000E80F81E090E08C0F9D1F8E0F911DFC01B6
:1013D000215031092770332781E090E002C0880F47
:1013E000991F2A95E2F79C018081822B80838BCF05
:1013F00085E98983332031F081E0F40190819830D0
:1014000008F04BCF80E049CF87E9898326E0B22EF0
:10141000F9CF9D2D97709A878D2D8595859585950A
:101420008E5F282F2295207F290F2A8321E091119A
:1014300001C020E0280F2D8744244394512C4C0EEA
:101440005D1E480E511CE9E0E81BEB87DC867FCF70
:10145000811154C080E2D82E9C8590320CF457CF75
:101460008B81883809F040C083E093E0EB2DF0E0F9
:101470003196E80DF91D980FA1E0B0E0AC0FBD1F4B
:10148000A80FB11D2C9121938F5F8913F5CFBB84D9
:10149000E3E0BE124DC08A8581114AC09E012D5FD6
:1014A0003F4F41E0B201C3010E94E806182F8111AD
:1014B00025C09B81F201818198133CC09C8182816F
:1014C000981338C0808182FF12C02394F2E02F1657
:1014D00009F48ECF83E0281609F496CF91E02916FF
:1014E00009F4CECE15E00AC082E094E0BFCFF4014B
:1014F0008387822D880F820D8F5F8083812F2D96A9
:101500000FB6F894DEBF0FBECDBFDF91CF911F9114
:101510000F91FF90EF90DF90CF90BF90AF909F9092
:101520008F907F906F905F904F903F902F90089595
:1015300011E0E4CF17E0E2CF089520916B04260F6D
:101540003327331F21323105ECF42091B404FC0120
:1015500090E080E0243069F082E00895A0916B046F
:101560002191AC01455B5B4FA40FB52FB11D2C93AE
:101570000196861798F380916B04680F60936B0453
:1015800080E0089581E008951092B40481E0809392
:10159000B30410928E0461E082E10E94A80261E02F
:1015A00083E10E94A802E9EBF0E080818E7F8083D6
:1015B00080818D7F808388E48093B80085E4809368
:1015C000BC000895CF93DF9391E090934A04882361
:1015D000B9F0C091B800D091BA008091BC008A7B6C
:1015E0008093BC0060E082E10E94A80260E083E199
:1015F0000E94A8020E94C40AD093BA00C093B80007
:10160000DF91CF9108950895E091E3048091E20481
:10161000E81730F4F0E0E65DFB4F808190E008953C
:101620008FEF9FEF08959091E3048091E2042FEFF4
:101630003FEF981748F4E92FF0E0E65DFB4F20817B
:1016400030E09F5F9093E304C90108958091E20424
:101650009091E304891B990B0895CF92DF92EF924A
:10166000FF920F931F93CF93DF937C01CB018A01ED
:101670002091BA04222389F0EB016B01C40ED51E20
:10168000CC15DD0569F06991D701ED91FC910190D0
:10169000F081E02DC7010995F3CF642F0E949D0AC8
:1016A000C801DF91CF911F910F91FF90EF90DF90D4
:1016B000CF900895CF93DF931F92CDB7DEB76983A4
:1016C0002091BA042223F9F02091E004203258F04E
:1016D00021E030E0FC013383228390E080E00F9032
:1016E000DF91CF9108958091E104E82FF0E0E55477
:1016F000FB4F998190838F5F8093E1048093E00496
:1017000081E090E0ECCF61E0CE0101960E949D0A5D
:10171000F7CFCF92DF92EF92FF920F931F93CF9369
:10172000DF93FC01C48121E02093BA04C093DB0461
:101730001092E1041092E0048385682B82EB95E01F
:101740000E945A0BD091E004D13208F092C00E945E
:101750001A036B017C018091B404811165C082E0A1
:101760008093B40481E08093B3048FEF8093B2043C
:101770001092B104D093B004ABEBB4E0E0E9F4E034
:1017800080E0D81385C010928F0480918F04CC0F15
:10179000C82BC0938F0480918E04813009F07CC0E7
:1017A00010928E040E941A036B017C0180918F04B9
:1017B0008093BB008091B6049091B704A091B804C7
:1017C000B091B904892B8A2B8B2B99F00E941A03B4
:1017D0000091B6041091B7042091B8043091B90477
:1017E0006C197D098E099F09061717072807390705
:1017F000E0F18091BC0083FDD9CF85EC8093BC00E3
:101800000E941A036B017C018091B404823009F4B8
:1018100045C08091B2048F3F61F18091B204803263
:1018200041F18091B20425C08091B6049091B70433
:10183000A091B804B091B904892B8A2B8B2B09F4A1
:101840008ACF0E941A030091B6041091B704209128
:10185000B8043091B9046C197D098E099F090617E7
:1018600017072807390708F076CF8091B5040E9442
:10187000E20A1092E1041092E0041092BA04DF919F
:10188000CF911F910F91FF90EF90DF90CF9008952F
:101890009D9191938F5F75CF85EEB0CF8091B60407
:1018A0009091B704A091B804B091B904892B8A2B08
:1018B0008B2B09F4A9CF0E941A030091B604109152
:1018C000B7042091B8043091B9046C197D098E09D0
:1018D0009F09061717072807390708F095CFC5CFC6
:1018E00090E080E00895CF93C82F62E370E080E03D
:1018F00090E00E943F038C2F0E947C02892B61F4B0
:101900008C2F0E947C02892B51F46AE070E080E009
:1019100090E00E943F03F4CF80E0CF91089581E0F2
:10192000FCCF90930B0580930A0510920905109245
:1019300019011092180110921101109210011092C9
:101940003901109238011092310110923001109239
:101950002901109228011092210110922001109269
:101960000101109200011092090110920801892BC7
:1019700081F4109208051092070510920605109246
:1019800005051092FE041092FD04109204051092B9
:10199000030508950F931F93CF938C01C62F0E94C8
:1019A000890B6C2F6460C8010E94890B6C2F6B7FC0
:1019B000C8010E94890B83EC90E00197F1F7CF9169
:1019C0001F910F9108950F931F93CF93DF938C0175
:1019D000D62FC42F607F642B0E94CA0C80E1D89F51
:1019E000B00111246C2BC801DF91CF911F910F9191
:1019F0000C94CA0C40E061E087E896E00E94E30C9A
:101A00008BE39FE10197F1F70895CF93DF93CDB773
:101A1000DEB728970FB6F894DEBF0FBECDBF98E0B3
:101A2000E2E8F1E0DE01119601900D929A95E1F75E
:101A300090918F06961710F46FEF690F262F30E004
:101A4000220F331F41E050E04C0F5D1F240F351F64
:101A5000F9016081680F606840E087E896E02896A9
:101A60000FB6F894DEBF0FBECDBFDF91CF910C94BF
:101A7000E30CCF93DF93EC010E94FA0C60E086E068
:101A80000E94050D69E770E087E896E00E94350541
:101A900068EE73E080E090E00E943F03CE01DF91AA
:101AA000CF910C94910CCF93DF93EC010E94FA0C30
:101AB00060E080E00E94050D68E670E087E896E04F
:101AC0000E94350568EB7BE080E090E00E943F03D8
:101AD000CE01DF91CF910C94910C41E00E94E30C78
:101AE00081E090E008950F931F93CF93DF938C01D3
:101AF00040E060E487E896E00E94E30CE801085FBC
:101B00001F4F699187E896E00E946D0D0C171D0725
:101B1000C1F7DF91CF911F910F9108958F929F92FE
:101B2000AF92BF92CF92DF92EF92FF92CF936C0170
:101B300082E591E00E94730D0E9471034B015C01EC
:101B400061E080E00E94050D6FE870E087E896E0B4
:101B50000E9435050D2C000CEE08FF08C0E00E9425
:101B60007103681979098A099B096C157D058E0531
:101B70009F05E8F461E08C2F0E94050D60E087E886
:101B800096E00E946D0D6AEF70E080E090E00E94A8
:101B90003F03CF5FC03119F761E080E00E94050D7F
:101BA0006EE770E087E896E00E943505D7CFCF91C9
:101BB000FF90EF90DF90CF90BF90AF909F908F906D
:101BC0000895FB0101900020E9F73197AF01461B12
:101BD000570BDC01ED91FC910280F381E02D09941B
:101BE0008F929F92AF92BF92CF92DF92EF92FF922D
:101BF000CF93DF93CDB7DEB7A1970FB6F894DEBFD2
:101C00000FBECDBF6C01990FEE08FF08F7FE40C074
:101C100041E06DE287E896E00E94E30C222733273B
:101C2000A9012C193D094E095F0919A2CE0181961F
:101C30007C019AE0892E912CA12CB12CCA01B9010A
:101C4000A50194010E94AF23605DF70162937F01BB
:101C5000211531054105510589F790E080E0309765
:101C600029F0BF0187E896E00E94E10D0196A19658
:101C70000FB6F894DEBF0FBECDBFDF91CF91FF90BE
:101C8000EF90DF90CF90BF90AF909F908F9008958E
:101C9000A701960119A2CE0181967C018AE0882EC7
:101CA000912CA12CB12CCA01B901A50194010E946B
:101CB000AF23605DF70162937F0121153105410576
:101CC000510589F790E080E0309789F2BF0187E8FD
:101CD00096E00E94E10DCBCF4F925F926F927F9280
:101CE0008F929F92AF92BF92CF92DF92EF92FF922C
:101CF0000F931F93CF93DF93EC01F62E49015A0106
:101D0000AE81BF81FD0101900020E9F731978F017D
:101D10000A1B1B0B0E9471034A805B806C807D80D4
:101D20006419750986099709681579058A059B055F
:101D3000A8F1680180E1C80ED11C0E9471036A837A
:101D40007B838C839D836F2D80E00E94050DF12C99
:101D5000E12C888199818E0D9F1DB6010E949B23E5
:101D600041E060E28017910734F4EE81FF81E80FD3
:101D7000F91F41E0608187E896E00E94E30C8FEF55
:101D8000E81AF80A80E1E816F10419F788819981C8
:101D90000196B6010E949B2399838883DF91CF919E
:101DA0001F910F91FF90EF90DF90CF90BF90AF9079
:101DB0009F908F907F906F905F904F900895CF93FA
:101DC000DF93EC018091090581110FC00E94FA0C8C
:101DD00060E081E00E94050D6FEA70E087E896E020
:101DE0000E94350581E08093090526E930E040E056
:101DF00050E061E070E088E091E0219711F480E02C
:101E000091E00E946C0E0E940D05882399F00E94BB
:101E1000FA0C60EA70E087E896E00E9435056CED08
:101E200075E080E090E00E943F03F0E0E0E0DF91A9
:101E3000CF910994DF91CF910895FC0124813581E0
:101E4000232B39F421E0FB018081882349F020E035
:101E500007C0808191810E94F52521E0892BB9F787
:101E6000822F0895FC0180819181009711F00C94DC
:101E7000E32260E070E0CB010895CF93DF93EC01A3
:101E800080910905811120C00E94FA0C60E080E079
:101E90000E94050DD0930405C09303056EEB70E01E
:101EA00087E896E00E9435058CED95E00E94320FA0
:101EB0006A327340810591057CF480EA9FE00E94BC
:101EC0008E0D81E0809309050E94FA0C85E190E077
:101ED000DF91CF910C94910C80E49FE1F0CF0F93B0
:101EE0001F93CF93DF93EC0188819981009759F07C
:101EF0002A813B812617370730F081E0DF91CF91AF
:101F00001F910F9108958B016F5F7F4F0E942F25C6
:101F1000009759F0998388831B830A832C813D8124
:101F2000232B59F7FC011082E8CF80E0E7CF0F9315
:101F30001F93CF93DF938C010E9411230097F1F040
:101F4000C091C205D091C305C80FD91FBE018EEB49
:101F500095E00E946F0F882391F02091BE0530918B
:101F6000BF058091C2059091C305B801820F931FF0
:101F70000E940A23D093C305C093C20581E0DF917C
:101F8000CF911F910F910895EF92FF920F931F939E
:101F9000CF93DF936115710541F480E0DF91CF911C
:101FA0001F910F91FF90EF90089541155105B1F0E9
:101FB0007B01EC010C811D81040F151FB8010E94EB
:101FC0006F0F882351F3288139818C819D81B7015E
:101FD000820F931F0E94FE251D830C8381E0DECFBC
:101FE000FC0144815581608171818EEB95E00C94F8
:101FF000C40FCF93DF9300D0CDB7DEB769831A82C9
:1020000041E050E0BE016F5F7F4F0E94C40F0F9010
:102010000F90DF91CF910895CF93DF93EC018881EA
:102020009981009711F00E94A624198218821D82BE
:102030001C821B821A82DF91CF910895EF92FF924A
:102040000F931F93CF93DF93EC017B018A01BA01B9
:102050000E946F0F81110BC0CE010E940C10CE01A7
:10206000DF91CF911F910F91FF90EF9008951D8305
:102070000C83B701888199810E94FE25F0CFFB0176
:1020800001900020E9F73197AF01461B570B0C94E4
:102090001E10CF93DF93EC01FB018617970749F0E1
:1020A000608171816115710541F0448155810E9403
:1020B0001E10CE01DF91CF9108950E940C10F9CF30
:1020C000FC01118210821382128215821482FB019C
:1020D00001900020E9F73197AF01461B570B0C9494
:1020E0001E10FC0180819181009711F00C94A624B0
:1020F000089585ED8093BC008091B6049091B7045B
:10210000A091B804B091B9040796A11DB11D23E0B8
:10211000B695A795979587952A95D1F72091BC00FC
:1021200024FD03C01092B40408954091B604509168
:10213000B7046091B8047091B904452B462B472B26
:1021400069F30097A105B10541F02AE22A95F1F75C
:1021500000C00197A109B109E1CF8091B5040C94A9
:10216000E20A1F920F920FB60F9211242F933F9302
:102170008F939F93AF93BF9380910D0590910E0520
:10218000A0910F05B091100530910C0523E0230FAD
:102190002D3758F50196A11DB11D20930C05809394
:1021A0000D0590930E05A0930F05B0931005809137
:1021B000110590911205A0911305B0911405019697
:1021C000A11DB11D8093110590931205A0931305D5
:1021D000B0931405BF91AF919F918F913F912F9133
:1021E0000F900FBE0F901F90189526E8230F0296B0
:1021F000A11DB11DD2CF1F920F920FB60F921124C5
:102200002F933F934F935F936F937F938F939F93FE
:10221000AF93BF93EF93FF9385E195E00E94D705BD
:10222000FF91EF91BF91AF919F918F917F916F91AE
:102230005F914F913F912F910F900FBE0F901F9084
:1022400018951F920F920FB60F9211242F938F9310
:102250009F93EF93FF93E0912505F09126058081F0
:10226000E0912B05F0912C0582FD1BC0908180919F
:102270002E058F5F8F7320912F05821741F0E0911B
:102280002E05F0E0EB5EFA4F958F80932E05FF91BF
:10229000EF919F918F912F910F900FBE0F901F90F4
:1022A00018958081F4CF1F920F920FB60F921124D0
:1022B0002F933F934F935F936F937F938F939F934E
:1022C000AF93BF93EF93FF938091B900887F8036DF
:1022D00009F44AC0F0F5883209F4A7C018F5803136
:1022E00009F49BC0B8F4882309F4F9C0883009F4D4
:1022F00094C0FF91EF91BF91AF919F918F917F918A
:102300006F915F914F913F912F910F900FBE0F9062
:102310001F901895883109F488C0803251F7809356
:10232000B20414C0803409F49DC040F48033B9F382
:102330008833F9F68093B20485ECB0C0803509F497
:1023400085C0883509F496C0883499F60E947910C2
:10235000D0CF883909F48CC038F5883729F050F48B
:10236000883611F0803729F683E08093B404109208
:102370008D0457C0883809F47BC0803919F0803843
:1023800009F0B7CF80918D04803208F071C0E091E0
:102390008D0481E08E0F80938D048091BB00F0E06E
:1023A000E359FB4F80833DC0803B39F0E0F4803A35
:1023B00009F479C0883A09F09CCF84E08093B40492
:1023C00010926C0410926B04E091DE04F091DF0433
:1023D000099580916B0481110FC081E080936B049B
:1023E00010924B0409C0803C09F4A6CF883C09F444
:1023F000A3CF883B09F07DCFE0916C0481E08E0F84
:1024000080936C04F0E0E55BFB4F80818093BB0020
:1024100090916C0480916B0429C080918F0480930B
:10242000BB0085EC8093BC0064CF9091B104809197
:10243000B004981758F5E091B10481E08E0F8093B5
:10244000B104F0E0E057FB4F8081E9CFE091B104A7
:1024500081E08E0F8093B1048091BB00F0E0E057E3
:10246000FB4F80839091B1048091B0049817C8F21B
:1024700085E8D8CFE091B10481E08E0F8093B1045C
:102480008091BB00F0E0E057FB4F80838091B30464
:1024900081115CCF81E080938E0484EA8093BC003C
:1024A0001092B40426CF85EC8093BC001092B40443
:1024B00080918D04803230F4E0918D04F0E0E35996
:1024C000FB4F108260918D0470E0E091DC04F0918C
:1024D000DD048DE694E0099510928D040ACF1092E8
:1024E000B20434CF109218051092170588EE93E0CD
:1024F000A0E0B0E08093190590931A05A0931B0506
:10250000B0931C052EE831E0309316052093150595
:1025100025EC30E0309322052093210524EC30E0B7
:10252000309324052093230520EC30E030932605DA
:102530002093250521EC30E03093280520932705D2
:1025400022EC30E030932A052093290526EC30E078
:1025500030932C0520932B0510922E0510922F05F9
:1025600010923005109231051092B5051092B40505
:102570008093B6059093B705A093B805B093B905BD
:1025800080EA91E09093B3058093B20510928A0699
:102590001092890686EC91E09093880680938706D6
:1025A00087E280938B0680E18093900682E080939F
:1025B0009106109292068CEB91E0909378068093AE
:1025C00077068AE08093850689E0809386068AEA0A
:1025D000809363068BEB809364068CEC8093650696
:1025E0008DED809366066EEC71E087E696E00E94C2
:1025F000601081E180936D0682E280936E0683E332
:1026000080936F0684E48093700667ED71E081E744
:1026100096E00E9460101092F6051092FA05109252
:10262000F9051092FB0582EB91E09093F5058093FC
:10263000F405E0E1F6E010821482138215823696EA
:1026400086E0EC34F807B9F788E691E090935706F6
:102650008093560684E691E090935906809358063D
:1026600084E080935A0680935B068CE691E0909319
:102670005506809354068AE090E090935D0680931F
:102680005C0684EF91E090935F0680935E06109263
:102690006206109261061092500610925106109236
:1026A0005206109253061092600662EE71E08EEEB2
:1026B00095E00E9460106DED71E088EE95E00E945B
:1026C000601062EE71E082EE95E00E9460106FE0B3
:1026D00072E08CED95E00E94601062EE71E086ED94
:1026E00095E00E94601062EE71E080ED95E00E943E
:1026F000601062EE71E08AEC95E00E94601062EE7C
:1027000071E084EC95E00E94601062EE71E08EEB67
:1027100095E00C946010CF93DF93CDB7DEB761974F
:102720000FB6F894DEBF0FBECDBF789484B582603B
:1027300084BD84B5816084BD85B5826085BD85B565
:10274000816085BD80916E00816080936E001092E3
:10275000810080918100826080938100809181005E
:1027600081608093810080918000816080938000EF
:102770008091B10084608093B1008091B00081604D
:102780008093B00080917A00846080937A00809179
:102790007A00826080937A0080917A0081608093D1
:1027A0007A0080917A00806880937A001092C1004C
:1027B000E0912505F091260582E08083E0912105D6
:1027C000F09122051082E0912305F091240580E12B
:1027D000808310922D05E0912905F0912A0586E06D
:1027E0008083E0912705F0912805808180618083B6
:1027F000E0912705F0912805808188608083E09131
:102800002705F0912805808180688083E091270565
:10281000F091280580818F7D80831092E3041092CF
:10282000E2041092E1041092E0040E94C40A85E2DE
:1028300095E09093DF048093DE0486E295E0909328
:10284000DD048093DC0410928C0680919106823026
:1028500018F098E090938C0680938F0662E370E006
:1028600080E090E00E943F036091920687E896E046
:102870000E94890B68EE73E080E090E00E943F03C5
:1028800060E387E896E00E94CA0C0BE416E4C801F6
:102890000197F1F760E387E896E00E94CA0CC8014F
:1028A0000197F1F760E387E896E00E94CA0C83E5A0
:1028B00092E00197F1F760E287E896E00E94CA0C87
:1028C00060918C06606240E087E896E00E94E30C2D
:1028D00084E080938D0640E06CE087E896E00E94FB
:1028E000E30C0E94FA0C82E080938E0640E066E0E2
:1028F00087E896E00E94E30C40E062E087E896E01B
:102900000E94E30C8BE39FE10197F1F788E080934D
:10291000920660E087E896E00E94890B0E94FA0C1C
:102920001FB7F8948091E404811127C0E7E7F3E032
:102930008491EBE8F3E09491E82FF0E0EE0FFF1FB5
:10294000E15BFC4FA591B491EC91E92321F461E0A6
:102950008AE00E94A80261E08AE00E94DA028CB557
:1029600080618CBD8CB580648CBD61E08DE00E947F
:10297000DA0261E08BE00E94DA028091E4048F5F6A
:102980008093E4041FBF61E0809185060E94DA0213
:1029900061E0809185060E94A802809186068F3FA3
:1029A00009F4B2C060E00E94DA02809186060E94BB
:1029B0007C02892B09F0A8C061E0809186060E9404
:1029C000DA0260E0809186060E94A80283E090E02F
:1029D0000197F1F761E0809186060E94A80262E308
:1029E00070E080E090E00E943F0340E064E287E70F
:1029F00096E00E94CB0640E066E287E796E00E9400
:102A0000CB0646E268E487E796E00E94CB0640E802
:102A100064E587E796E00E94CB0649EA66E587E72A
:102A200096E00E94CB0643E068E587E796E00E94C7
:102A3000CB0648EE6AE587E796E00E94CB0640E4C5
:102A40006AE287E796E00E94CB064DE362E287E701
:102A500096E00E94CB0668E287E796E00E94AD060A
:102A6000982F9370933039F0482F436068E287E7DE
:102A700096E00E94CB0662E08FE00E94DA0262E0FC
:102A800080E10E94DA0282E390E090935D068093F9
:102A90005C066FEC70E085E195E00E94350560EE24
:102AA00071E085E195E00E94E10D8E010F5F1F4FFF
:102AB000CC24C394D12C52E0252E312CE0910A0570
:102AC000F0910B05E931F10510F00C948F22E559D6
:102AD000FA4E0C94F0239B15D11526167617A916DD
:102AE000CC192D1A5C184219E61814194E17BF1A82
:102AF000DA1AFF1B2D1D711D701E921F5C206220B3
:102B00006820861F8C1F2B224FE062E087E796E04B
:102B10000E94CB0613E062E370E080E090E00E9448
:102B20003F0362E087E796E00E94AD0684FF5DCF39
:102B3000115089F75ACF1092E6041092E504809163
:102B4000090581110FC00E94FA0C60E083E00E9429
:102B5000050D60EE70E087E896E00E94350581E0A3
:102B6000809309052CE231E040E050E061E070E044
:102B700080E191E00E946C0E0E940D05813321F4EA
:102B800081E090E00E94910C80E090E0892B09F4B4
:102B900095CF0E94C305882309F490CF0E940000BE
:102BA0008DCF1092E6041092E50480910905811101
:102BB0000FC00E94FA0C60E081E00E94050D6BEEF0
:102BC00070E087E896E00E94350581E08093090572
:102BD0002CE231E040E050E061E070E088E191E01B
:102BE0000E946C0E0E940D05823469F461E270E06F
:102BF00080E090E00E943F038091E5049091E6041C
:102C00000E94910CC1CF813379F461E270E080E0E1
:102C100090E00E943F031092E8041092E70482E0E3
:102C200090E00E94910CB0CF823309F0ADCF61E209
:102C300070E080E090E00E943F03D092E804C092F0
:102C4000E70482E090E00E94910C9ECFD092E604CF
:102C5000C092E5048091090581110FC00E94FA0C11
:102C600060E082E00E94050D6AEF70E087E896E080
:102C70000E94350581E0809309050E940D05F82E1C
:102C800022E482130CC061E270E080E090E00E94D8
:102C90003F038091E5049091E6040E94910C80919D
:102CA000E7049091E8040097A1F0019709F06CCF38
:102CB0002CE231E040E050E061E070E080E291E041
:102CC0000E946C0E81E3F81689F092E3F9125CCF52
:102CD0001FC02CE231E040E050E061E070E088E2AB
:102CE00091E00E946C0E31E3F3120FC061E270E0DC
:102CF00080E090E00E943F031092F4041092F304ED
:102D000083E090E00E94910C3FCF42E3F4120FC0A9
:102D100061E270E080E090E00E943F03D092F40412
:102D2000C092F30483E090E00E94910C2DCF53E316
:102D3000F5122ACF61E270E080E090E00E943F034C
:102D40003092F4042092F30484E090E00E94910C0D
:102D50001BCF3092E6042092E50480910905811191
:102D600015C062EE71E08AEC95E00E943F100E946F
:102D7000FA0C60E081E00E94050D69E171E087E8EE
:102D800096E00E94350581E0809309050E940D05BB
:102D9000F82E80ED8F0D8A3048F56F2D8AEC95E086
:102DA0000E94F90F61E080E00E94050D63EE71E082
:102DB00087E896E00E94E10D61E080E00E94050D49
:102DC0006AEC75E087E896E00E94270522E4F2129B
:102DD000DBCE61E270E080E090E00E943F038091F2
:102DE000E5049091E6040E94910CCECEE4E4FE123C
:102DF00011C062EE71E08AEC95E00E943F1061E044
:102E000080E00E94050D68E071E087E896E00E948E
:102E10003505BACEF3E2FF12D9CF61E270E080E06F
:102E200090E00E943F0362EE71E08AEC95E00E9420
:102E30001D0F882329F084E090E00E94530DA4CE5A
:102E40006AEC75E080ED95E00E94491064EF71E056
:102E5000C8010E9460104091D4055091D505609141
:102E6000D0057091D105C8010E94C40F811103C023
:102E7000C8010E940C10B80185E195E00E94270569
:102E800060EE71E085E195E00E94E10DC8010E94CD
:102E900071108BE090E00E94910C76CE8091090534
:102EA000811119C00E94FA0C60E082E00E94050DB9
:102EB00068E271E087E896E00E94350561E080E015
:102EC0000E94050D60ED75E087E896E00E942705F9
:102ED00081E08093090568EE73E080E090E00E9455
:102EE0003F0383E090E00E94910C4ECE3092E604C6
:102EF0002092E5048091090581111BC0E090E70450
:102F0000F090E8040E94FA0C60E080E00E94050D59
:102F100065E471E0E114F10429F0EA94EF2831F45A
:102F200065E371E087E896E00E94350581E08093D3
:102F300009058091E7049091E8040097D1F42CE210
:102F400031E040E050E061E070E088E391E00E9411
:102F50006C0E0E940D059FEC980F9430A8F08234FF
:102F600009F012CE8091E5049091E6040E94910C44
:102F70000BCE019771F72CE231E040E050E061E0C8
:102F800070E080E391E0E3CF2091E7043091E80422
:102F9000833309F453C0843309F477C0823391F446
:102FA000D0924901C09248012115310591F562E0A6
:102FB00072E088EE95E00E943F108DE090E00E9464
:102FC000910CE2CD10924901109248012115310572
:102FD00059F46DED71E088EE95E00E943F108DE0B0
:102FE00090E00E94910CD0CD2130310509F0CCCD7C
:102FF0006FE072E08CED95E00E943F108CE291E072
:1030000090935B0180935A0185E090E00E94910CBF
:10301000BBCD2130310509F0B7CD65E072E08CED14
:1030200095E00E943F1084E893E090935B018093C9
:103030005A0185E090E00E94910CA6CD30924901A2
:10304000209248012115310559F46AE072E088EEBA
:1030500095E00E943F108DE090E00E94910C94CD8D
:103060002130310509F090CD6EE072E08CED95E0F5
:103070000E943F1088E097E090935B0180935A0193
:1030800085E090E00E94910C7FCD83E090E09093EA
:103090004901809348012115310529F487E090E02A
:1030A0000E94910C71CD2130310509F06DCD88E081
:1030B00090E00E94910C68CD83E090E09093E6044C
:1030C0008093E50480910905811115C062EE71E0DD
:1030D00082EE95E00E943F100E94FA0C60E080E0D2
:1030E0000E94050D68E771E087E896E00E943505CB
:1030F00081E0809309050E940D05F82E80ED8F0D6B
:103100008A3048F56F2D82EE95E00E94F90F61E05C
:1031100080E00E94050D67E671E087E896E00E9476
:10312000350561E080E00E94050D62EE75E087E8FC
:1031300096E00E94270582E4F81226CD61E270E055
:1031400080E090E00E943F038091E5049091E604C6
:103150000E94910C19CD44E4F41217C061E270E0B2
:1031600080E090E00E943F0362EE71E082EE95E025
:103170000E943F1061E080E00E94050D66E571E06D
:1031800087E896E00E943505FFCC53E2F512D3CFD5
:1031900061E270E080E090E00E943F0362EE71E047
:1031A00082EE95E00E941D0F882329F087E090E0D1
:1031B0000E94530DE9CC62EE75E088EE95E00E9426
:1031C000491089E090E00E94910CDECC80910905C5
:1031D00081111FC00E94FA0C60E081E00E94050D81
:1031E0006EE871E087E896E00E94350561E080E0D6
:1031F0000E94050D68EE75E087E896E00E942705BD
:1032000069E871E087E896E00E94350581E08093E7
:10321000090568EE73E080E090E00E943F038DE0D6
:1032200090E00E94910CB0CC8091090581111FC0E3
:103230000E94FA0C60E082E00E94050D62EA71E0F3
:1032400087E896E00E94350561E080E00E94050D68
:103250006CED75E087E896E00E9427056DE971E066
:1032600087E896E00E94350581E08093090568EEC5
:1032700073E080E090E00E943F0385E090E00E94D0
:10328000910C82CC83E090E09093E6048093E50477
:1032900080910905811115C062EE71E086ED95E01F
:1032A0000E943F100E94FA0C60E082E00E94050D2F
:1032B00061ED71E087E896E00E94350581E080933A
:1032C00009050E940D05F82E80ED8F0D8A3048F516
:1032D0006F2D86ED95E00E94F90F61E080E00E947D
:1032E000050D60EC71E087E896E00E94350561E02D
:1032F00080E00E94050D66ED75E087E896E00E948B
:103300002705F2E4FF1240CC61E270E080E090E03B
:103310000E943F038091E5049091E6040E94910C85
:1033200033CC94E4F91217C061E270E080E090E0E1
:103330000E943F0362EE71E086ED95E00E943F102F
:1033400061E080E00E94050D6FEA71E087E896E099
:103350000E94350519CCE3E2FE12D3CF61E270E0A2
:1033600080E090E00E943F0362EE71E086ED95E020
:103370000E941D0F882329F088E090E00E94530DE1
:1033800003CC66ED75E08CED95E00E9449108AE073
:1033900090E00E94910CF8CB28E030E03093E604F6
:1033A0002093E5048091090581110FC00E94FA0C59
:1033B00061E080E00E94050D6EED71E087E896E027
:1033C0000E94350581E08093090560E080E00E945D
:1033D000050D2CE231E040E050E070E060E080E478
:1033E00091E00E946C0E0E940D05813359F461E258
:1033F00070E080E090E00E943F0386E090E00E9451
:10340000910CC2CB8233C9F461E270E080E090E0BD
:103410000E943F038CED95E00E94320F22E030E0E5
:1034200040E050E00E94D12330935B0120935A0189
:103430008CE090E00E94910CA7CB823409F0A4CBE1
:1034400061E270E080E090E00E943F038091E5043B
:103450009091E6040E94910C97CB45E050E0509388
:10346000E6044093E50480910905811115C062EEE0
:1034700071E084EC95E00E943F100E94FA0C60E03D
:1034800081E00E94050D60E172E087E896E00E940D
:10349000350581E0809309050E940D05F82E80ED29
:1034A0008F0D8A3048F56F2D84EC95E00E94F90F5E
:1034B00061E080E00E94050D6FEF71E087E896E023
:1034C0000E94350561E080E00E94050D64EC75E026
:1034D00087E896E00E94270592E4F91255CB61E255
:1034E00070E080E090E00E943F038091E5049091BD
:1034F000E6040E94910C48CB54E4F51211C062EE30
:1035000071E084EC95E00E943F1061E080E00E9451
:10351000050D6EEE71E087E896E00E94350534CB2C
:1035200083E2F812D9CF61E270E080E090E00E947F
:103530003F0362EE71E084EC95E00E941D0F88234A
:1035400029F086E090E00E94530D1ECB84EC95E0BC
:103550000E94320F70935B0160935A016D5E7D4F44
:1035600085E195E00E94E10D60EE71E085E195E076
:103570000E94E10D8CE090E00E94910C05CB8091BF
:103580000905811146CE0E94FA0C60E081E00E949C
:10359000050D6FE172E087E896E00E94350561E075
:1035A00080E00E94050D80915A0190915B010E947C
:1035B000F00D2CCE8091090581118EC00E94FA0C6D
:1035C00067E070E08EEB95E00E946F0F8111A5C05F
:1035D0008EEB95E00E940C108091E7049091E80436
:1035E000009709F4A9C0019709F4ACC0C8010E9472
:1035F000F00FC8010E94711083E792E00E94970FBC
:103600008091F3049091F4048130910509F4A3C0F2
:1036100008F49BC0029709F4A1C0C8010E94F00FF2
:10362000C8010E94711089E692E00E94970F809174
:103630004801909149018130910509F498C008F43E
:1036400090C08230910509F495C0039709F495C0A4
:10365000C8010E94F00FC8010E9471108091E70418
:103660009091E804009709F08BC08EE592E00E94EB
:10367000970F88EE95E00E94F00F89E592E00E9496
:10368000970F8091F3049091F404029741F48EE433
:1036900092E00E94970F80ED95E00E94F00F8EE27D
:1036A00092E00E94970F8091BE059091BF05909384
:1036B00051018093500110924B0110924A0161E038
:1036C00080E00E94050D66E872E087E896E00E94BF
:1036D000350581E0809309052CE231E040E050E0BF
:1036E00070E060E08AE491E00E946C0E0E940D059B
:1036F000813309F076C061E270E080E090E00E94E2
:103700003F038091E7049091E804009709F061C0BD
:103710008EE090E00E94910C37CA87E090E0909391
:10372000C3058093C2056EE772E08091BE0590915B
:10373000BF050E940A2350CF67E272E0C8010E94D1
:10374000601054CF6CEF72E0F9CF61E372E0C80112
:103750000E94601062CF67E173E0F9CF6CE373E021
:10376000F6CF67E372E0C8010E94601071CF6BE38F
:1037700072E0F9CF62E472E0F6CF6FE472E0F3CF6B
:10378000019709F08CCF83E492E00E94970F8CEDB3
:1037900095E00E94F00F8EE392E00E94970F82E383
:1037A00092E00E94970F4AE0B80180915A019091EF
:1037B0005B010E941A23F80101900020E9F731977C
:1037C000AF01401B510BB8018EEB95E00E94C40F76
:1037D00066CF019709F0D8C982E190E00E94910C70
:1037E000D3C9823409F0D0C961E270E080E090E092
:1037F0000E943F0390E080E00E94910CC5C9809137
:10380000090581110FC00E94FA0C60E082E00E945D
:10381000050D65EB72E087E896E00E94350581E0D2
:10382000809309050E940D05F82E8091F304909174
:10383000F4048130910509F4C5C008F455C002971D
:1038400009F0A2C980ED8F0D8A3008F07CC06F2D81
:103850008AEC95E00E94F90F61E080E00E94050D7E
:1038600064EA72E087E896E00E94350561E080E056
:103870000E94050D6AEC75E087E896E00E94270536
:103880008FE090E00E94730C811160C087E796E0A2
:103890000E94BD088823B1F087E796E00E94660683
:1038A000882381F061E270E080E090E00E943F03B5
:1038B0008EE090E00E94390D87E796E00E945C0858
:1038C0000E94B70880E190E00E94730C882309F4FD
:1038D0005BC961E270E080E090E00E943F038EE00F
:1038E00090E00E94390D50C98FE090E00E94730C67
:1038F000882321F08FE090E00E94910C80E190E01D
:103900000E94730C811102C0FF2021F08EE090E034
:103910000E94390D87E796E00E94BD08882309F4CC
:1039200033C987E796E00E946606882309F42CC90C
:103930008EE090E00E94390D87E796E00E945C08D7
:103940000E94B70821C9E1E4FE1220C02091CE05F3
:103950003091CF058091D4059091D505281739076E
:10396000E1F48091CA059091CB056091D0057091EA
:10397000D105009709F4E2C56115710559F4232BAF
:1039800009F4EAC5FC01808190E0E3C5F3E2FF168B
:10399000E9F276CF0E94F525DCC50E94FA0C60E0C2
:1039A00082E00E94050D67E972E087E896E00E94D8
:1039B000350568EE73E080E090E00E943F038EE002
:1039C00090E0D2C587E796E00E94BD08882331F1D8
:1039D00087E796E00E946606882301F180917906C8
:1039E0000E9401028F3F980779F04AE0489F9001BA
:1039F000499F300D112467ED71E0C9018959994F34
:103A00000E941D0F811115C08EE090E00E94390DBB
:103A100087E796E00E945C080E94B70880E190E08A
:103A20000E94730C882381F08EE090E00E94390D93
:103A3000ABC861E270E080E090E00E943F038FE05D
:103A400090E00E94910CE4CF8FE090E00E94730C14
:103A50008111EACFF110E8CF97C880910905811153
:103A60001CC00E94FA0C60E081E00E94050D6FEC22
:103A700072E087E896E00E94350588EE95E00E94A6
:103A8000320F603571058105910544F180E49FE1B5
:103A90000E948E0D81E0809309050E94FA0C60E07F
:103AA00082E00E94050D62EC72E087E896E00E94D9
:103AB000350568EE73E080E090E00E943F030E94CD
:103AC00071036093EF047093F0048093F10490937A
:103AD000F20480E190E00E94910C56C880EA9FE0D9
:103AE000D7CF8091090581110FC00E94FA0C60E0C8
:103AF00082E00E94050D60EE72E087E896E00E9489
:103B0000350581E08093090588EE95E00E94320F2B
:103B10004B010E9471034090EF045090F0046090BC
:103B2000F1047090F204641975098609970928EE6A
:103B300033E040E050E00E94AF23821A930A97FCE2
:103B40003CC02CE382169104D4F1C4016CE370E014
:103B50000E949B239F938F937F936F9347E552E03F
:103B60005F934F931F9281E18F931F930F930E9456
:103B700005260FB6F894DEBF0FBECDBF61E080E032
:103B80000E94050DB80187E896E00E94E10DF8015A
:103B900001900020E9F731975F01A01AB10A90E186
:103BA000A916B104D4F46EED72E087E896E00E94A5
:103BB0003505EFEFAE1ABE0AF2CF912C812C9F9201
:103BC0008F9227E632E03F932F931F9281E18F93EC
:103BD0001F930F930E940526CCCF892831F486E1EC
:103BE00090E00E94910C0C94C4158091F304909184
:103BF000F4048230910589F50E94D90334EFE32E55
:103C000035E0F32EF701848D8434C1F4878D90A1C3
:103C10000297A1F41092EA041092E9040E94710341
:103C20006093EB047093EC048093ED049093EE04A6
:103C300081E190E00E94910C0C94C41580E10E94F7
:103C40007C02892B39F3F6E0EF0EF11C20E3E2163B
:103C500026E0F206B9F60C94C415009739F480E119
:103C60000E947C02892BB1F20C94C415019711F0CB
:103C70000C94C41587E796E00E94BD08882311F4D0
:103C80000C94C41587E796E00E946606F82E8823F8
:103C900011F40C94C415809179060E9401028F3FA3
:103CA000980779F04AE0489F9001499F300D112410
:103CB0006EEC71E0C9018959994F0E941D0F811165
:103CC00005C080E190E00E94390DF12C87E796E075
:103CD0000E945C080E94B708F1109CCF0C94C41598
:103CE00088EE95E00E94320F4B010E9471034090D4
:103CF000EF045090F0046090F1047090F2046419A5
:103D000075098609970928EE33E040E050E00E94EB
:103D1000AF23821A930A1814190434F086E190E054
:103D20000E94910C0C94C41580910905811109C061
:103D30000E94FA0C82E591E00E94730D81E080936D
:103D400009054CE384169104C4F1C4016CE370E0EE
:103D50000E949B239F938F937F936F9385E792E0BD
:103D60009F938F931F9281E18F931F930F930E94D4
:103D700005260FB6F894DEBF0FBECDBF60E080E031
:103D80000E94050DB80187E896E00E94E10DF80158
:103D900001900020E9F731977F01E01AF10AF0E184
:103DA000EF16F104C4F46DEE72E087E896E00E942D
:103DB00035052FEFE21AF20AF2CF9F928F9246E872
:103DC00052E05F934F931F9281E18F931F930F9364
:103DD0000E940526CECF8091F3049091F4048230A6
:103DE000910521F50E94D903E4EFF5E0848D843438
:103DF00031F4878D90A10197029708F448C0369658
:103E000040E356E04E175F0789F780E10E947C028D
:103E1000892BE9F18091F3049091F4040197B9F1B1
:103E200080E190E00E94910C0C94C415009769F316
:103E3000019781F787E796E00E94BD08882351F338
:103E400087E796E00E946606882321F38091790631
:103E50000E9401028F3F980789F04AE0489F900135
:103E6000499F300D11246EEC71E0C9018959994FB9
:103E70000E941D0FFF24F394811101C0F12C87E7EC
:103E800096E00E945C080E94B708FF2019F20E9489
:103E900071038090EB049090EC04A090ED04B0903E
:103EA000EE04681979098A099B09643F714081050C
:103EB000910510F40C94C4150E9471036093EB04F7
:103EC0007093EC048093ED049093EE04E090E90489
:103ED000F090EA0461E08E2D0E94050D60E087E815
:103EE00096E00E946D0DFFEFEF1AFF0AF092EA04D0
:103EF000E092E90421E1E216F10414F40C94C415F3
:103F000087E190E00E94910C0C94C41581E090E050
:103F10000E94DF0E0C94C41590E080E00E94DF0E3A
:103F20000C94C4158091090581110FC00E94FA0CF0
:103F300060E081E00E94050D6FEE72E087E896E098
:103F40000E94350581E0809309050E940D05B82E79
:103F50008091F3049091F404009709F446C001970E
:103F600011F00C94C41587E796E00E94BD088823E1
:103F700079F187E796E00E946606882349F18091EF
:103F800079060E9401028F3F980709F481C04AE038
:103F9000489F9001499F300D1124C9018959994FBB
:103FA0007C0167ED71E00E941D0F882309F45FC05A
:103FB00061E270E080E090E00E943F0383E190E0E6
:103FC0000E94910C87E796E00E945C080E94B70867
:103FD0008FE090E00E94730C882309F45EC082E1B8
:103FE00090E00E94390D0C94C4158FE090E00E947F
:103FF000730C811103C031E3B3120AC061E270E0B7
:1040000080E090E00E943F0383E190E00E94910CE9
:1040100080E190E00E94730C811103C042E3B4126E
:104020000AC061E270E080E090E00E943F0384E11A
:1040300090E00E94910C87E796E00E94BD088823DB
:1040400011F40C94C41587E796E00E946606882355
:1040500011F40C94C41582E190E00E94390D87E7B9
:1040600096E00E945C080E94B7080C94C4156EECA0
:1040700071E0C7010E941D0F882309F4A3CF61E2FC
:1040800070E080E090E00E943F0384E190E098CFF0
:1040900082E190E00E94390D95CF91E3B91609F4C1
:1040A0009ECF80E190E00E94730C811198CFE2E3F3
:1040B000BE120C94C41593CF81E090E00E943D0F96
:1040C0000C94C41582E090E00E943D0F0C94C4153E
:1040D00080910905811176C00E94FA0C8CE591E06F
:1040E0000E94730D809103059091040522E0F22E49
:1040F0008130910509F0F12CF09201051092020532
:1041000022E030E08230910511F030E020E0309381
:1041100000052093FF0460E08130910519F00297BB
:1041200049F461E080E00E94050D60E087E896E0D8
:104130000E946D0D60E08F2D0E94050D6EE073E012
:1041400087E896E00E94350580910105909102056F
:104150000796909302058093010561E08091FF042A
:104160000E94050D66E073E087E896E00E94350541
:104170008091FF049091000507969093000580932D
:10418000FF048091FD049091FE04892B71F40E943C
:1041900071036093F9047093FA048093FB04909385
:1041A000FC04D092FE04C092FD040E94710360934F
:1041B000F5047093F6048093F7049093F80481E07B
:1041C000809309050E9471038090F5049090F60495
:1041D000A090F704B090F804681979098A099B093E
:1041E000683E734081059105E8F0E0900705F09086
:1041F00008050E9471036093F5047093F6048093A0
:10420000F7049093F80480910305909104058130A0
:10421000910509F05DC02FEFE21AF20AF09208054D
:10422000E092070560E0809101050E94050D8091F4
:104230000705909108050E94F00D62E073E087E8A1
:1042400096E00E94350561E08091FF040E94050D13
:1042500080910505909106050E94F00D6EEF72E0C9
:1042600087E896E00E9435050E940D05F82E0E9411
:1042700071034B015C018CED95E00E94320F2B0124
:104280003C018091F9049091FA04A091FB04B09153
:10429000FC04A5019401281B390B4A0B5B0BCA01D6
:1042A000B90128EE33E040E050E00E94AF2324152E
:1042B000350546055705C8F061E270E080E090E002
:1042C0000E943F0388E190E00E94910C0C94C41579
:1042D000029709F0A7CF80910505909106050196F8
:1042E00090930605809305059DCF80915A0190918A
:1042F0005B01209107053091080528173907E4F67E
:10430000209105053091060528173907ACF68091F4
:10431000F3049091F404009709F461C0019711F03F
:104320000C94C41587E796E00E94BD08882311F419
:104330000C94C41587E796E00E946606882311F462
:104340000C94C415809179060E9401028F3F980752
:1043500009F440C04AE0489F9001499F300D112464
:10436000A9014959594F7A0167ED71E0CA010E94CC
:104370001D0F882331F0809103059091040501976A
:1043800079F46EEC71E0C7010E941D0F811117C016
:1043900087E796E00E945C080E94B7080C94C41559
:1043A000D0920405C092030561E270E080E090E0E5
:1043B0000E943F0385E190E00E94910CE9CF80913B
:1043C000030590910405029719F330920405209299
:1043D0000305EACF85E190E00E94390DD9CF51E481
:1043E000F51210C08091030590910405019709F41E
:1043F0009CC0D0920405C092030585E190E00E9424
:10440000910C09C081E3F81669F38FE090E00E94F7
:10441000730C8111E7CF92E4F91212C08091030569
:1044200090910405029711F40C94C4153092040580
:104430002092030585E190E00E94910C0C94C41534
:10444000E2E3FE1659F380E190E00E94730C8111C3
:10445000E5CF0C94C41580910905811131C00E94EB
:10446000FA0CE0900705F090080580910505909101
:1044700006058E159F05ECF1E816F9060CF44AC006
:1044800060E081E00E94050D60E473E087E896E05B
:104490000E94350561E080E00E94050D6BE273E04B
:1044A00087E896E00E943505C7010E94F00D65E29D
:1044B00073E087E896E00E94350581E08093090566
:1044C0000E940D05882311F40C94C4150E94FA0C67
:1044D00066E173E087E896E00E9435056CED75E0D3
:1044E00080E090E00E943F03F0E0E0E009950C944A
:1044F000C415AA24A394B12C60E080E00E94050DAD
:1045000060E373E087E896E00E943505C5010E94EC
:10451000F00DC0CF7C0182E0A82EB12CEDCF90E051
:1045200080E00E94910C0C94C415F2E4FF1609F48B
:104530007DCF22E3F21609F479CF85CF611571059D
:1045400059F0232B49F0FB01808190E091958195F2
:104550009109892B09F021CA61E270E080E090E0C6
:104560000E943F038FE090E00E94910C8FC98EEB78
:1045700095E00E94711084EC95E00E9471108AEC25
:1045800095E00E94711080ED95E00E94711086ED1B
:1045900095E00E9471108CED95E00E94711082EE02
:1045A00095E00E94711088EE95E00E9471108EEEE9
:1045B00095E00E94711081E796E00E94711087E6F5
:1045C00096E00C9471101F93FC0199278827BC0179
:1045D000E89411911032E9F3193010F01E30C8F34D
:1045E0001B3251F01D3249F4689406C00E94252305
:1045F000610F711D811D911D119110531A30B0F37F
:104600003EF490958095709561957F4F8F4F9F4FA9
:104610001F910895FB01DC0105900D920020E1F748
:104620000895FC0105900020E9F7809590958E0F84
:104630009F1F0895BB274A3031F4992322F4BDE22D
:10464000909581959F4F0C943B23592F482F372FDE
:10465000262F660F771F881F991F660F771F881FE9
:10466000991F620F731F841F951F660F771F881F86
:10467000991F0895BB27FB015527AA27880F991F6B
:10468000AA1FA41710F0A41B83955051B9F7A05D81
:10469000AA3308F0A95DA193009779F7B111B193FE
:1046A0001192CB010C945423DC01FC01672F719112
:1046B0007723E1F7329704C07C916D937083629108
:1046C000AE17BF07C8F308952F923F924F925F92A3
:1046D0006F927F928F929F92AF92BF92CF92DF9212
:1046E000EF92FF920F931F93CF93DF93CDB7DEB777
:1046F000CA1BDB0B0FB6F894DEBF0FBECDBF09940B
:104700002A88398848885F846E847D848C849B8461
:10471000AA84B984C884DF80EE80FD800C811B816F
:10472000AA81B981CE0FD11D0FB6F894DEBF0FBE9E
:10473000CDBFED01089597FB072E16F4009407D026
:1047400077FD09D00E94F62307FC05D03EF4909532
:1047500081959F4F0895709561957F4F0895A1E2CF
:104760001A2EAA1BBB1BFD010DC0AA1FBB1FEE1FEB
:10477000FF1FA217B307E407F50720F0A21BB30B36
:10478000E40BF50B661F771F881F991F1A9469F7B2
:1047900060957095809590959B01AC01BD01CF010E
:1047A0000895052E97FB1EF400940E94E82357FD00
:1047B00007D00E94AF2307FC03D04EF40C94E823EB
:1047C00050954095309521953F4F4F4F5F4F08953D
:1047D00090958095709561957F4F8F4F9F4F08956D
:1047E000EE0FFF1F0590F491E02D0994AA1BBB1B4F
:1047F00051E107C0AA1FBB1FA617B70710F0A61BE1
:10480000B70B881F991F5A95A9F780959095BC0101
:10481000CD0108950F931F93CF93DF9382309105BD
:1048200010F482E090E0E0919506F091960630E079
:1048300020E0B0E0A0E0309799F42115310509F4AB
:104840004AC0281B390B24303105D8F58A819B8159
:104850006115710589F1FB0193838283FE0111C00B
:10486000408151810281138148175907E0F04817B0
:10487000590799F4109761F012960C9312971396BA
:104880001C933296CF01DF91CF911F910F91089524
:104890000093950610939606F4CF2115310551F03B
:1048A0004217530738F0A901DB019A01BD01DF016E
:1048B000F801C1CFEF01F9CF90939606809395064A
:1048C000CDCFFE01E20FF31F819391932250310966
:1048D00039832883D7CF2091930630919406232BD8
:1048E00041F420917E0130917F0130939406209312
:1048F000930620917C0130917D012115310541F411
:104900002DB73EB74091800150918101241B350B9A
:10491000E0919306F0919406E217F307A0F42E1BA2
:104920003F0B2817390778F0AC014E5F5F4F241713
:10493000350748F04E0F5F1F50939406409393063F
:10494000819391939FCFF0E0E0E09CCFCF93DF93F2
:104950000097E9F0FC01329713821282A09195062C
:10496000B0919606ED0130E020E01097A1F420818F
:104970003181820F931F209193063091940628175E
:10498000390709F061C0F0939406E0939306DF9134
:10499000CF910895EA01CE17DF07E8F54A815B81E0
:1049A0009E0141155105B1F7E901FB83EA83499165
:1049B0005991C40FD51FEC17FD0761F480819181D7
:1049C0000296840F951FE9019983888382819381E0
:1049D0009B838A83F0E0E0E012968D919C9113977F
:1049E0000097B9F52D913C911197CD010296820F58
:1049F000931F20919306309194062817390739F6B2
:104A0000309751F51092960610929506B093940641
:104A1000A0939306BCCFD383C28340815181840F7E
:104A2000951FC817D90761F44E5F5F4F8881998140
:104A3000480F591F518340838A819B8193838283CE
:104A40002115310509F0B0CFF0939606E093950655
:104A50009ECFFD01DC01C0CF13821282D7CFB0E020
:104A6000A0E0E5E3F5E20C9466238C01009751F495
:104A7000CB010E940A248C01C801CDB7DEB7E0E16A
:104A80000C948223FC01E60FF71F9C012250310990
:104A9000E217F30708F49DC0D901CD91DC9111977D
:104AA000C617D70798F0C530D10530F3CE0104976B
:104AB0008617970708F3C61BD70B2297C193D1938C
:104AC0006D937C93CF010E94A624D6CF5B01AC1AD4
:104AD000BD0A4C018C0E9D1EA0919506B0919606C4
:104AE000512C412CF12CE12C109731F5809193063B
:104AF000909194068815990509F05CC046165706F2
:104B000008F058C080917C0190917D01009741F49C
:104B10008DB79EB74091800150918101841B950B08
:104B2000E817F90708F055C0F0939406E093930650
:104B3000F90171836083A0CF8D919C91119712969A
:104B40006C90129713967C901397A815B90559F598
:104B50006C0142E0C40ED11CCA14DB0420F1AC018C
:104B60004A195B09DA011296159780F06282738206
:104B700051834083D9016D937C93E114F10471F06A
:104B8000D7011396FC93EE93129776CF22968C0F53
:104B90009D1FF90191838083F301EFCFF093960677
:104BA000E093950669CF4816590608F42C017D015B
:104BB000D3019ACFCB010E940A247C01009749F0CF
:104BC000AE01B8010E94EC25C8010E94A62487010D
:104BD00053CF10E000E050CFFB01DC0102C0019098
:104BE0000D9241505040D8F70895FB01DC018D91A2
:104BF000019080190110D9F3990B0895FB01DC0194
:104C000001900D920020E1F70895AEE0B0E0EBE0F6
:104C1000F6E20C9472230D891E898F89988D26E007
:104C20002C831A83098397FF02C080E090E80197E4
:104C30009E838D83AE01455E5F4F698D7A8DCE0177
:104C400001960E9435264D815E8157FD0AC02F8155
:104C50003885421753070CF49A01020F131FF8010D
:104C600010822E96E4E00C948E23ABE0B0E0EBE3F0
:104C7000F6E20C9464237C013B018A01FC0117825B
:104C80001682838181FFC8C1CE0101965C01F701C4
:104C90009381F30193FD859193FF81913F018823D7
:104CA00009F453C1853239F493FD859193FF8191C5
:104CB0003F01853229F4B70190E00E942528E7CF13
:104CC000912C212C312CFFE1F31538F08B3211F1AE
:104CD00090F4803209F1833229F137FC3CC020ED99
:104CE000280F2A3050F536FE20C08AE0989E200D0D
:104CF0001124922E06C08D3291F0803371F76894A2
:104D000030F8F30193FD859193FF81913F0181116B
:104D1000DACF21C0689431F8689432F8F2CF689401
:104D200033F8EFCF689434F8ECCFEAE02E9E200DF4
:104D30001124222E689435F8E4CF8E3229F436FC03
:104D400004C1689436F8DDCF8C3619F4689437F8CE
:104D5000D8CF8836B1F2982F9F7D95549330E0F0EC
:104D60008336A1F18337C1F1833509F063C028018F
:104D7000F2E04F0E511CF801C080D180692D70E027
:104D800036FC02C06FEF7FEFC6010E940F284C0176
:104D9000689437F882010AC00C5F1F4FFFE3F98364
:104DA00088248394912C6501E89437F833FE2DC054
:104DB000522C8114910471F5552009F468CFB70184
:104DC00080E290E00E9425285A94F6CFF801808175
:104DD00089830E5F1F4FE4CF2801F2E04F0E511C74
:104DE000F801C080D180692D70E036FC02C06FEF01
:104DF0007FEFC6010E941A284C018201D5CFB7016E
:104E000080E290E00E9425282A942814190409F0D1
:104E1000B0F7CECFF60137FC859137FE81916F0157
:104E2000B70190E00E94252851105A94F1E08F1AA2
:104E30009108BFCF843619F0893609F077C0F801A0
:104E400037FE6BC060817181828193810C5F1F4F3F
:104E5000F32DFF763F2E97FF09C0909580957095B2
:104E600061957F4F8F4F9F4F689437F82AE030E06D
:104E7000A5010E945528C82ECA188C2C432C36FE3A
:104E80000CC0E89440F8C91440F434FE05C032FC6C
:104E900003C0F32DFE7E4F2E892C44FE95C0FE01EB
:104EA000EC0DF11D8081803309F087C0242D297E0F
:104EB000422E842D8870582E43FC95C040FE8FC032
:104EC0009C2C821418F42C0C922C981844FE91C03F
:104ED000B70180E390E00E94252842FE09C088E7E0
:104EE00090E041FE02C088E590E0B7010E942528CD
:104EF000C91408F48AC0CA94D12C9FEFC91AD90AE0
:104F0000CA0CDB1CF60182916F01B70190E00E9490
:104F10002528AC14BD04B1F74FCF60817181072EF5
:104F2000000C880B990B0E5F1F4F92CFD32CE89487
:104F3000D4F82AE030E0853739F1232D297FD22EAD
:104F40008F3601F148F48835A9F0F7018681978101
:104F50002B96E2E10C948023803749F08837A9F73B
:104F6000D4FE02C06894D2F820E130E00DC068940D
:104F7000D4F8F6CF34FE03C0822F8660D82E20E10D
:104F800032E002C028E030E0F801D7FE0FC06081B7
:104F90007181828193810C5F1F4FA5010E9455286A
:104FA000C82ECA183D2CE89437F867CF608171810C
:104FB00090E080E00E5F1F4FF0CF42FC02C0839470
:104FC00078CF8394839475CF842D867809F471CF3C
:104FD000F6CFB70180E290E00E94252883948214E6
:104FE000C0F3512C73CF522C5818821408F46ECF92
:104FF000F8CF842D867809F47BCF8BE241FE80E2E6
:1050000047FC8DE2B70190E071CFB70180E390E0FB
:105010000E9425289A946CCF8FEF9FEF99CFFC01C7
:105020000590615070400110D8F7809590958E0FD3
:105030009F1F0895FC016150704001900110D8F746
:10504000809590958E0F9F1F08950F931F93CF9378
:10505000DF93182F092FEB018B8181FD09C01FEF12
:105060000FEF812F902FDF91CF911F910F91089516
:1050700082FF14C02E813F818C819D8128173907C2
:105080003CF4E881F981CF010196998388831083EC
:105090008E819F8101969F838E83E3CFE885F9857A
:1050A000812F0995892BA1F3DACFFA01AA2728309D
:1050B00051F1203181F1E8946F936E7F6E5F7F4FE5
:1050C0008F4F9F4FAF4FB1E03ED0B4E03CD0670F61
:1050D000781F891F9A1FA11D680F791F8A1F911DB4
:1050E000A11D6A0F711D811D911DA11D20D009F404
:1050F00068943F912AE0269F11243019305D319346
:10510000DEF6CF010895462F4770405D4193B3E02E
:105110000FD0C9F7F6CF462F4F70405D4A3318F0D5
:10512000495D31FD4052419302D0A9F7EACFB4E086
:10513000A6959795879577956795BA95C9F700973E
:105140006105710508959B01AC010A2E06945795DF
:10515000479537952795BA95C9F7620F731F841F36
:10516000951FA01D089511E0C6EDD1E004C0FE0119
:105170000E94F0232196C73DD107C9F7F894FFCFCD
:105180000000000000009502000000000000AD02D9
:10519000000000000000C602000000000000E7025E
:1051A00000000000000006030000000000001E03D5
:1051B0000000000000004203000000000000970310
:1051C000000000000000EA030100000000000000F1
:1051D000E2011F1F1F1F1F1F1F1F2C011C1E1F1F4F
:1051E0001F1E1C000607080E02030405313233415E
:1051F00034353642373839432A3023440000970685
:105200008000000040001400540000000000F90578
:10521000590586054606B7059505A9050000000055
:105220005A0B2D0B700C030B260B130B040B0000F9
:1052300000001603D602A502000000001B09BD08ED
:105240006606000000006D0D5905700C9C0A56653D
:10525000726D656C686F005665726465003530006C
:105260000D0A002020202020202020202020202087
:105270002020200053454E48412053414C56413A8E
:1052800020003930003138303000323630003336CB
:105290003030004C494D2E20504F4E544F53205328
:1052A000414C564F3A20005361626F746167656DDF
:1052B00000426F74616F004351420050616472613B
:1052C0006F0043616D706F2041626572746F0050B2
:1052D0006572736F6E2E0054656D706F3A20256491
:1052E0006D696E2564730054656D706F3A20256496
:1052F0007365672E0044455341524D2E2025646D41
:10530000696E2564730044455341524D2E20256437
:105310007365672E002020202041544143414E54A4
:1053200045532056454E434552414D2100202020F3
:1053300020444546454E534F5245532056454E4313
:105340004552414D210020283129204E6F766F2093
:105350004A6F676F202D2028322920556C74696DA3
:105360006F204A6F676F0020283129205361626FD8
:10537000746167656D202D2028322920446F6D6986
:105380006E6163616F002028312920426F74616F64
:10539000202D202832292043617274616F0020285B
:1053A000312920426F74616F202D2028322920433B
:1053B000617274616F202D202833292053656E6837
:1053C000610020283129204351423A2031306D6953
:1053D0006E2E202D202832292050616472616F3A90
:1053E0002033306D696E2E202D2028332920436113
:1053F0006D706F2041626572746F3A2036306D694E
:105400006E2E202D2028342920506572736F6E6116
:105410006C697A6164610020283129204351423A45
:10542000203530732E202D202832292050616472BF
:10543000616F3A20316D3330732E202D20283329AF
:105440002043616D706F2041626572746F3A203441
:105450006D3230732E202D20283429205065727330
:105460006F6E616C697A6164610020446573656A7E
:105470006120706572736F6E616C697A6172206F02
:10548000206D61782E20646520706F6E746F733F9D
:10549000202850414452414F203D202854656D70D2
:0A54A0006F204C696D2E2F32290099
:107E0000112484B714BE81FFF0D085E080938100F7
:107E100082E08093C00088E18093C10086E0809377
:107E2000C20080E18093C4008EE0C9D0259A86E02C
:107E300020E33CEF91E0309385002093840096BBD3
:107E4000B09BFECF1D9AA8958150A9F7CC24DD24C4
:107E500088248394B5E0AB2EA1E19A2EF3E0BF2EE7
:107E6000A2D0813461F49FD0082FAFD0023811F036
:107E7000013811F484E001C083E08DD089C08234E0
:107E800011F484E103C0853419F485E0A6D080C0E4
:107E9000853579F488D0E82EFF2485D0082F10E0AE
:107EA000102F00270E291F29000F111F8ED06801E7
:107EB0006FC0863521F484E090D080E0DECF843638
:107EC00009F040C070D06FD0082F6DD080E0C81688
:107ED00080E7D80618F4F601B7BEE895C0E0D1E017
:107EE00062D089930C17E1F7F0E0CF16F0E7DF06D8
:107EF00018F0F601B7BEE89568D007B600FCFDCFD4
:107F0000A601A0E0B1E02C9130E011968C91119780
:107F100090E0982F8827822B932B1296FA010C0160
:107F200087BEE89511244E5F5F4FF1E0A038BF0790
:107F300051F7F601A7BEE89507B600FCFDCF97BE46
:107F4000E89526C08437B1F42ED02DD0F82E2BD052
:107F50003CD0F601EF2C8F010F5F1F4F84911BD097
:107F6000EA94F801C1F70894C11CD11CFA94CF0C13
:107F7000D11C0EC0853739F428D08EE10CD085E9AC
:107F80000AD08FE07ACF813511F488E018D01DD067
:107F900080E101D065CF982F8091C00085FFFCCF94
:107FA0009093C60008958091C00087FFFCCF809118
:107FB000C00084FD01C0A8958091C6000895E0E648
:107FC000F0E098E1908380830895EDDF803219F02E
:107FD00088E0F5DFFFCF84E1DECF1F93182FE3DFCA
:107FE0001150E9F7F2DF1F91089580E0E8DFEE27F6
:047FF000FF270994CA
:027FFE00040479
:00000001FF
