:020000040000FA
:100000000C9463000C948B000C948B000C948B006C
:100010000C948B000C948B000C948B000C948B0034
:100020000C948B000C948B000C948B000C948B0024
:100030000C948B000C948B000C948B000C948B0014
:100040000C94C30C0C948B000C94330D0C940D0D7C
:100050000C948B000C948B000C948B000C948B00F4
:100060000C94650D0C948B00000000002400270008
:100070002A0000000000250028002B0000000000DE
:1000800023002600290004040404040404040202DA
:100090000202020203030303030301020408102007
:1000A0004080010204081020010204081020000012
:1000B0000008000201000003040700000000000027
:1000C0000000840E171711241FBECFEFD8E0DEBF4B
:1000D000CDBF27E0ACEBB4E001C01D92AB30B2075E
:1000E000E1F714E0A0E0B1E0E2EBF4E302C0059038
:1000F0000D92AC3BB107D9F710E0C2E6D0E004C0E6
:100100002197FE010E944018C136D107C9F70E940D
:100110009D0F0C944C1A0C940000DC0114962D9148
:100120003C911597232B41F0ED91FC9181E090815A
:10013000992319F080E0089581E0089596E0899F61
:10014000D0011124A859B94F90967C936E935F9774
:1001500091E091969C939197E091D506F091D60607
:100160009091D406992339F0309751F0811108C04D
:10017000809184060994309719F05C968C91FACF9F
:1001800008958CBD9DBD0895833081F028F48130A1
:1001900099F08230A9F008958730A9F08830C9F02D
:1001A0008430B1F4809180008F7D03C08091800005
:1001B0008F7780938000089584B58F7784BD0895EC
:1001C00084B58F7DFBCF8091B0008F778093B00096
:1001D00008958091B0008F7DF9CFCF93DF93282FC2
:1001E00030E0F901E255FF4F8491F901E656FF4FE7
:1001F000D491F901EA57FF4FC491CC23A1F08111AA
:100200000E94C400EC2FF0E0EE0FFF1FE458FF4FF8
:10021000A591B491EC91ED2381E090E009F480E0A8
:10022000DF91CF91089580E090E0FACF862F0C9473
:10023000ED001F93CF93DF93282F30E0F901E255B3
:10024000FF4F8491F901E656FF4FD491F901EA5727
:10025000FF4FC491CC23A9F0162F81110E94C40036
:10026000EC2FF0E0EE0FFF1FEE58FF4FA591B49179
:100270008FB7F894EC91111108C0D095DE23DC9370
:100280008FBFDF91CF911F910895DE2BF8CF862F7E
:10029000642F0C941901CF93DF9390E0FC01E65694
:1002A000FF4F24918A579F4FFC0184918823C9F006
:1002B00090E0880F991FFC01E859FF4FA591B49178
:1002C000FC01EE58FF4FC591D49161110DC09FB74D
:1002D000F8948C91209582238C93888128232883FD
:1002E0009FBFDF91CF910895623051F49FB7F8948A
:1002F0003C91822F809583238C93E8812E2BEFCF26
:100300008FB7F894EC912E2B2C938FBFEACF862FCA
:10031000642F0C944B013FB7F89480918505909120
:100320008605A0918705B091880526B5A89B05C0D4
:100330002F3F19F00196A11DB11D3FBFBA2FA92F64
:10034000982F8827BC01CD01620F711D811D911D61
:1003500042E0660F771F881F991F4A95D1F70895CD
:100360008F929F92AF92BF92CF92DF92EF92FF92C5
:100370004B015C010E948B016B017C010E948B018F
:100380006C197D098E099F09683E734081059105AE
:10039000A8F321E0821A9108A108B10888EEC80EDE
:1003A00083E0D81EE11CF11C81149104A104B10466
:1003B00029F7FF90EF90DF90CF90BF90AF909F9084
:1003C0008F9008952FB7F894609181057091820500
:1003D00080918305909184052FBF08950F931F93FB
:1003E000CF93DF93C82FD62F86E0C89FF00111244A
:1003F000E859F94F11A2878D90A181309105F1F054
:1004000058F082309105F1F1039709F440C0DF9173
:10041000CF911F910F9108956623C9F361E070E0B9
:100420008C2F0E949E000E94E2016093C006709390
:10043000C1068093C2069093C306E9CF0E94E201F1
:100440000091C0061091C1062091C2063091C306EA
:10045000AB01BC01401B510B620B730B8091D206A8
:100460009091D306B0E0A0E084179507A607B707E0
:1004700048F462E070E08C2FDF91CF911F910F91D3
:100480000C949E0063E070E0D111C1CFF4CF70E016
:1004900060E0F1CF6F927F928F929F92AF92BF9266
:1004A000CF92DF92EF92FF920F931F93CF93DF9340
:1004B00081E08093D4060E94E2010091C40610916D
:1004C000C5062091C6063091C706AB01BC01401B92
:1004D000510B620B730B8091D0069091D106B0E066
:1004E000A0E084179507A607B70708F014C1C0E07D
:1004F0008091CE06C81760F4E091CA06F091CB0651
:10050000EC0FF11D62E080810E944B01CF5FF0CFC4
:10051000712C812C912C540183948091CF067816F4
:1005200008F05FC0072D10E0E091CC06F091CD06F9
:10053000E00FF11F61E080810E944B01E091CC0649
:10054000F091CD06E00FF11F60E080810E9419015B
:10055000D501C401072C04C0880F991FAA1FBB1F17
:100560000A94D2F76C017C01E094F094612C8091A4
:10057000CE066816F8F4C62DD0E0E091CA06F091D8
:10058000CB06EC0FFD1F80810E94ED002496CC0F5E
:10059000DD1FC859D94F892B41F4888199818C2955
:1005A0009D29998388836394E2CF888199818E21E4
:1005B0009F21F7CFE091CC06F091CD06E00FF11F1F
:1005C00061E080810E9419018091CC069091CD0656
:1005D000080F191F60E0F80180810E944B0173949D
:1005E0009CCFC8E6D6E0FE018FEF9FEF278D30A1AC
:1005F000232B21F4148E968F858F11A2369626E038
:10060000E43AF20799F7F12C96E0D92E8091CE06C4
:10061000F81608F050C0E12C0F2D10E0000F111F4C
:100620000059194F2091CF06E21608F042C0F80198
:10063000608171810E2C02C0769567950A94E2F76D
:10064000F29E900111242E0D311DE8E6F6E080E0C7
:10065000458D568D2417350709F461C08F5F369696
:100660008A30B1F760FF23C0E8E6F6E090E080E072
:10067000448D411117C0E091C806F091C906E20F00
:10068000F31F4081D89EF001D99EF00D1124E85946
:10069000F94F448F368F258F10A2178E61E00E948C
:1006A000EE0105C0019636968A30910509F7E3946C
:1006B000B9CFF394ABCF10E089A18111182F269602
:1006C000F6E0C43ADF07C1F70E94E2016093C40676
:1006D0007093C5068093C6069093C7061123D9F080
:1006E000809189068823B9F08091870690918806C9
:1006F000019789F480918406DF91CF911F910F912A
:10070000FF90EF90DF90CF90BF90AF909F908F9031
:100710007F906F9008951092D40680E0EDCF6170C5
:10072000BECF08950895DB0114964D915C91159705
:100730006D917C91DC01ED91FC910280F381E02DC3
:100740000994AF92BF92CF92DF92EF92FF920F93F4
:100750001F93CF93DF936C017B018B01040F151F57
:10076000EB015E01AE18BF08C017D10759F06991BF
:10077000D601ED91FC910190F081E02DC601099523
:10078000892B79F7C501DF91CF911F910F91FF90D0
:10079000EF90DF90CF90BF90AF900895FC01538D04
:1007A000448D252F30E0842F90E0821B930B54174B
:1007B00010F0CF96089501970895FC01918D828DD8
:1007C000981761F0A28DAE0FBF2FB11D5D968C9171
:1007D000928D9F5F9F73928F90E008958FEF9FEFB0
:1007E0000895FC01918D828D981731F0828DE80F6C
:1007F000F11D858D90E008958FEF9FEF0895FC0126
:10080000918D228D892F90E0805C9F4F821B9109F2
:100810008F739927089589E895E00E94FF0321E0EE
:10082000892B09F420E0822F089580E090E0892B45
:1008300029F00E940B0481110C9400000895FC0122
:10084000A48DA80FB92FB11DA35ABF4F2C91848D31
:1008500090E001968F739927848FA689B7892C938E
:10086000A089B1898C91837080648C93938D848DE1
:10087000981306C00288F389E02D80818F7D8083E4
:100880000895EF92FF920F931F93CF93DF93EC01A4
:1008900081E0888F9B8D8C8D98131AC0E889F98927
:1008A000808185FF15C09FB7F894EE89FF8960832A
:1008B000E889F98980818370806480839FBF81E0AB
:1008C00090E0DF91CF911F910F91FF90EF900895ED
:1008D000F62E0B8D10E00F5F1F4F0F731127E02EC8
:1008E0008C8D8E110CC00FB607FCFACFE889F98900
:1008F000808185FFF5CFCE010E941F04F1CFEB8DE3
:10090000EC0FFD2FF11DE35AFF4FF0829FB7F894D3
:100910000B8FEA89FB8980818062CFCFCF93DF93F1
:10092000EC01888D8823B9F0AA89BB89E889F98907
:100930008C9185FD03C0808186FD0DC00FB607FC3C
:10094000F7CF8C9185FFF2CF808185FFEDCFCE016F
:100950000E941F04E9CFDF91CF910895BC016E5F23
:100960007F4FDC01ED91FC910190F081E02D40E0A2
:10097000099591E0811190E0892F089508958EBD29
:1009800000000DB407FEFDCF8EB50895DF92EF9203
:10099000FF920F931F93CF93DF937C01062FD42EEA
:1009A000152F80E590E00E94C10060E0F701868588
:1009B0000E94190182E10E94BF04CD2DD12F0C0F9E
:1009C0001D2F111DC017D10721F089910E94BF046E
:1009D000F9CF61E0F7018685DF91CF911F910F91EB
:1009E000FF90EF90DF900C9419011F93CF93DF934A
:1009F000EC01162F80E590E00E94C10060E08E853A
:100A00000E941901812F80680E94BF0480E00E942B
:100A1000BF04182F61E08E850E941901812FDF919C
:100A2000CF911F9108950F931F93CF93DF93EC0104
:100A3000062F142F80E590E00E94C10060E08E85B3
:100A40000E941901802F0E94BF04812F0E94BF04C1
:100A500061E08E85DF91CF911F910F910C94190168
:100A6000CF92DF92EF92FF920F931F93CF93DF937A
:100A7000EC016B01F42E890140E062E00E94130555
:100A800044E06AE0CE010E94130540E864E1CE0133
:100A90000E941305A6016F2DCE010E94C60443E0FB
:100AA00062E0CE010E9413050E94E2016B017C010D
:100AB00029E5C20ED11CE11CF11C6AE0CE010E94A6
:100AC000F50482FF1BC040E062E0CE010E941305E6
:100AD00064E4CE010E94F504F801808362E4CE0153
:100AE0000E94F504F801818380E0DF91CF911F918E
:100AF0000F91FF90EF90DF90CF9008950E94E20158
:100B00006C157D058E059F05C0F283E0EECF2F9218
:100B10003F924F925F926F927F928F929F92AF928D
:100B2000CF92DF92EF92FF920F931F93CF93DF93B9
:100B300000D0CDB7DEB74C012B01D42E390180E0B7
:100B4000E114F10411F0F70180813C2C329490EF14
:100B50003922380E40E062E0C4010E9413054FE7DD
:100B600068E0C4010E94130540E864E1C4010E94EA
:100B70001305A2016D2DC4010E94C604432D6AE134
:100B8000C4010E9413054CE062E0C4010E941305F9
:100B90006AE1C4010E94F504482F40686AE1C4017B
:100BA0000E9413050E94E2011B012C01F4E22F0EAA
:100BB000311C411C511C68E0C4010E94F504982FAF
:100BC000907309F0B7C080FF15C083E00F900F90BD
:100BD000DF91CF911F910F91FF90EF90DF90CF9019
:100BE000AF909F908F907F906F905F904F903F90CD
:100BF0002F9008950E94E201621573058405950502
:100C0000D0F2E3CF6114710409F469C00115110534
:100C100009F465C064E1C4010E94F504382EF801AE
:100C20008081831508F480C030823320E1F180E5B3
:100C300090E00E94C10060E0F40186850E941901E5
:100C40003A9482E90E94BF04CC20B1F08FEF90E08B
:100C50009C0102C0220F331FCA94E2F7690182E9A6
:100C60000E94BF049C2D9095F301208192238C213A
:100C7000982B9083CC24C39423014C0C511CC31497
:100C800040F482E90E94BF04F20181932F01C394D2
:100C9000F6CF80E00E94BF04F201808361E0F4019E
:100CA00086850E94190168E1C4010E94F5048770DD
:100CB000E114F10411F0F701808323FC37C06114C3
:100CC0007104B1F10115110599F1AA2089F1F8011A
:100CD0004081413031F4843029F58FEF77CF80E0C7
:100CE000ECCF4230F8F081111DC042509E012F5FC1
:100CF0003F4FB301C4010E943005811167CFF80155
:100D00009081690E711CF30132972081998129131A
:100D100009C0F1E06F1A7108F30120819A81291747
:100D200009F454CF87E052CF84E050CF82E04ECF19
:100D300080E04CCF6CE0C4010E94F504282E837142
:100D400009F460CF81E042CF8F929F92AF92CF9211
:100D5000EF92FF920F931F93CF93DF9300D000D0B9
:100D60001F92CDB7DEB74C0182E08D8340E064E294
:100D7000C4010E94130540E066E2C4010E9413050D
:100D800046E268E4C4010E94130586E28B838D81EC
:100D90008230D8F16CE1C4010E94F504482F4F77EE
:100DA0006CE1C4010E94130587E08C83A12CC12C47
:100DB000CE0104967C018E010B5F1F4F9E012F5FB9
:100DC0003F4F41E0BE016D5F7F4FC4010E94870528
:100DD000982F811117C08D818230B9F48C818111D7
:100DE00014C081E00F900F900F900F900F90DF9143
:100DF000CF911F910F91FF90EF90CF90AF909F9068
:100E00008F90089581E0923069F380E0EBCF2F92CC
:100E10003F924F925F926F927F928F929F92AF928A
:100E2000BF92CF92DF92EF92FF920F931F93CF93D7
:100E3000DF93CDB7DEB72D970FB6F894DEBF0FBEA8
:100E4000CDBF16E0413508F04AC1342E3B014C01BC
:100E50006CE10E94F504482F4F776CE1C4010E94B9
:100E6000130583E98983332029F081E0F301908120
:100E7000953008F480E022242394B12C9B2D990F07
:100E8000990F990FD32CD91AD7FCD12C32E0882393
:100E900019F098E89B8333E021E09D2D977009F4C9
:100EA00020E09D2D959595959595290FC9F094E095
:100EB000811193E0291708F4922FEB2DF0E0319681
:100EC000E60DF71D232F4191A1E0B0E0AC0FBD1F4F
:100ED000A20FB11D4C932F5F422F431B491798F36C
:100EE000882311F0F8E0DF0E8FE18D150CF082C041
:100EF00090E79A838B819C8189279D8189279E8198
:100F000089278F839E01285F3F4F47E0BE016F5FB7
:100F10007F4FC4010E943005182F8111E0C01A864E
:100F2000E3E0EB87DC86CE0107962C0199E09D87F4
:100F3000CA844C2D4295407F4C0D6AE1C4010E9449
:100F40001305A12CCE010A967C018E01055F1F4F6F
:100F500092014D85BE016F5F7F4FC4010E948705DE
:100F6000182F823009F065C06CE1C4010E94F504BD
:100F700085FDB5C08F7109F480E2282F30E04D2D3A
:100F8000DD0C550B421753070CF09DC0D82EE82FEF
:100F9000E595E595E595EF5F982F977081E009F469
:100FA00080E0E80F81E090E08C0F9D1F8E0F911D77
:100FB000FC01215031092770332781E090E002C005
:100FC000880F991F2A95E2F79C018081822B8083EC
:100FD0008BCF85E98983332031F081E0F301908163
:100FE000983008F04BCF80E049CF87E9898326E02D
:100FF000B22EF9CF9D2D97709A878D2D8595859569
:1010000085958E5F282F2295207F290F2A8321E046
:10101000911101C020E0280F2D8744244394512CC6
:101020004C0E5D1E480E511CE9E0E81BEB87DC8688
:101030007FCF811154C080E2D82E9C8590320CF471
:1010400057CF8B81883809F040C083E093E0EB2DC7
:10105000F0E03196E60DF71D980FA1E0B0E0AC0F7F
:10106000BD1FA80FB11D2C9121938F5F8913F5CF60
:10107000BB84E3E0BE124DC08A8581114AC09E0147
:101080002D5F3F4F41E0B201C4010E943005182F8F
:10109000811125C09B81F201818198133CC09C8104
:1010A0008281981338C0808182FF12C02394F2E0BD
:1010B0002F1609F48ECF83E0281609F496CF91E01D
:1010C000291609F4CECE15E00AC082E094E0BFCF25
:1010D000F3018387822D880F820D8F5F8083812F9C
:1010E0002D960FB6F894DEBF0FBECDBFDF91CF9126
:1010F0001F910F91FF90EF90DF90CF90BF90AF9036
:101100009F908F907F906F905F904F903F902F9027
:10111000089511E0E4CF17E0E2CF08952091FD0497
:10112000260F3327331F21323105ECF42091460579
:10113000FC0190E080E0243069F082E00895A09105
:10114000FD042191AC0143525B4FA40FB52FB11D9B
:101150002C930196861798F38091FD04680F609395
:10116000FD0480E0089581E008951092460581E035
:10117000809345051092200561E082E10E941901EB
:1011800061E083E10E941901E9EBF0E080818E7F4C
:10119000808380818D7F808388E48093B80085E49C
:1011A0008093BC000895CF93DF9391E09093DC048B
:1011B0008823B9F0C091B800D091BA008091BC00EA
:1011C0008A7B8093BC0060E082E10E94190160E0AC
:1011D00083E10E9419010E94B508D093BA00C09320
:1011E000B800DF91CF9108950895E0917505809141
:1011F0007405E81730F4F0E0E454FB4F808190E090
:1012000008958FEF9FEF0895909175058091740573
:101210002FEF3FEF981748F4E92FF0E0E454FB4F2D
:10122000208130E09F5F90937505C90108958091FA
:10123000740590917505891B990B0895CF92DF92E3
:10124000EF92FF920F931F93CF93DF937C01CB011B
:101250008A0120914C05222389F0EB016B01C40E19
:10126000D51ECC15DD0569F06991D701ED91FC9192
:101270000190F081E02DC7010995F3CF642F0E9402
:101280008E08C801DF91CF911F910F91FF90EF90D1
:10129000DF90CF900895CF93DF931F92CDB7DEB745
:1012A000698320914C052223F9F0209172052032A8
:1012B00058F021E030E0FC013383228390E080E0AD
:1012C0000F90DF91CF91089580917305E82FF0E0A2
:1012D000E35BFA4F998190838F5F809373058093CE
:1012E000720581E090E0ECCF61E0CE0101960E94B2
:1012F0008E08F7CFCF92DF92EF92FF920F931F935A
:10130000CF93DF93FC01C48121E020934C05C0936F
:101310006D0510927305109272058385682B86E225
:1013200096E00E944B09D0917205D13208F092C02C
:101330000E948B016B017C0180914605811165C083
:1013400082E08093460581E0809345058FEF80938E
:10135000440510924305D0934205ADE4B5E0E2E2C6
:10136000F5E080E0D81385C0109221058091210519
:10137000CC0FC82BC093210580912005813009F046
:101380007CC0109220050E948B016B017C01809132
:1013900021058093BB008091480590914905A0915B
:1013A0004A05B0914B05892B8A2B8B2B99F00E9413
:1013B0008B01009148051091490520914A05309113
:1013C0004B056C197D098E099F0906171707280719
:1013D0003907E0F18091BC0083FDD9CF85EC809383
:1013E000BC000E948B016B017C018091460582301C
:1013F00009F445C0809144058F3F61F18091440517
:10140000803241F18091440525C08091480590913A
:101410004905A0914A05B0914B05892B8A2B8B2B4E
:1014200009F48ACF0E948B0100914805109149056B
:1014300020914A0530914B056C197D098E099F0951
:10144000061717072807390708F076CF8091470558
:101450000E94D308109273051092720510924C05E9
:10146000DF91CF911F910F91FF90EF90DF90CF9080
:1014700008959D9191938F5F75CF85EEB0CF809148
:10148000480590914905A0914A05B0914B05892BDB
:101490008A2B8B2B09F4A9CF0E948B010091480560
:1014A0001091490520914A0530914B056C197D0931
:1014B0008E099F09061717072807390708F095CFE7
:1014C000C5CF90E080E0089590937F0580937E05DE
:1014D00010927D05109209011092080110920101ED
:1014E00010920001109229011092280110922101FE
:1014F00010922001109219011092180110921101FE
:101500001092100108950F931F93CF938C01C62F53
:101510000E947A096C2F6460C8010E947A096C2FBE
:101520006B7FC8010E947A0983EC90E00197F1F784
:10153000CF911F910F9108950F931F93CF93DF9336
:101540008C01D62FC42F607F642B0E94830A80E118
:10155000D89FB00111246C2BC801DF91CF911F914E
:101560000F910C94830ACF93DF93CDB7DEB7289702
:101570000FB6F894DEBF0FBECDBF98E0E2E6F1E013
:10158000DE01119601900D929A95E1F79091030773
:10159000981710F48FEF890F90E0880F991F21E0C2
:1015A00030E02C0F3D1F820F931FFC0160816068AB
:1015B00040E08BEF96E028960FB6F894DEBF0FBEA2
:1015C000CDBFDF91CF910C949C0A41E00E949C0A10
:1015D00081E090E0089540E061E08BEF96E00E94AA
:1015E0009C0A8BE39FE10197F1F708958F929F92F8
:1015F000AF92BF92CF92DF92EF92FF920F931F9321
:10160000CF93DF93EC01F62EAE81BF81FD010190F7
:101610000020E9F731978F010A1B1B0B0E94E201A2
:101620008A809B80AC80BD80681979098A099B09F2
:101630006C32714081059105A0F1680180E1C80E0E
:10164000D11C0E94E2016A837B838C839D838F2D52
:101650000E94B30AF12CE12C888199818E0D9F1D87
:10166000B6010E94EB1741E060E28017910734F465
:10167000EE81FF81E80FF91F41E060818BEF96E07A
:101680000E949C0A2FEFE21AF20A80E1E816F104A8
:1016900019F7888199810196B6010E94EB17998309
:1016A0008883DF91CF911F910F91FF90EF90DF9092
:1016B000CF90BF90AF909F908F900895FB010190C5
:1016C0000020E9F73197AF01461B570BDC01ED9184
:1016D000FC910280F381E02D0994BC018BEF96E030
:1016E0000C945E0BCF93DF93EC010E94EB0A80E039
:1016F0000E94B30A8EEA91E00E946D0B68EB7BE0DA
:1017000080E090E00E94B001CE01DF91CF910C9477
:10171000640A0F931F93CF93DF93EC018881998123
:10172000009759F02A813B812617370730F081E076
:10173000DF91CF911F910F9108958B016F5F7F4FC4
:101740000E947F19009759F0998388831B830A832D
:101750002C813D81232B59F7FC011082E8CF80E0DA
:10176000E7CFEF92FF920F931F93CF93DF93611513
:10177000710541F480E0DF91CF911F910F91FF90AF
:10178000EF90089541155105B1F07B01EC010C81FA
:101790001D81040F151FB8010E94890B882351F386
:1017A000288139818C819D81B701820F931F0E940E
:1017B000451A1D830C8381E0DECFFC0144815581F5
:1017C0006081718182E396E00C94B10BCF93DF933B
:1017D00000D0CDB7DEB769831A8241E050E0BE0188
:1017E0006F5F7F4F0E94B10B0F900F90DF91CF91F1
:1017F0000895CF93DF93EC0188819981009711F0D0
:101800000E94F618198218821D821C821B821A827D
:10181000DF91CF910895CF93DF93EC0144E050E046
:101820006FEB71E00E94B10B811103C0CE010E94E9
:10183000F90BCE01DF91CF910895CF93DF93EC01A7
:10184000FB0144815581608171810E94B10B81113E
:1018500003C0CE010E94F90BCE01DF91CF91089514
:10186000EF92FF920F931F93CF93DF93EC017B01D5
:101870008A01BA010E94890B81110BC0CE010E941E
:10188000F90BCE01DF91CF911F910F91FF90EF9057
:1018900008951D830C83B701888199810E94451AA0
:1018A000F0CFFB0101900020E9F73197AF01461B13
:1018B000570B0C94300CCF93DF93EC01FB01861790
:1018C000970749F0608171816115710541F044818C
:1018D00055810E94300CCE01DF91CF9108950E9476
:1018E000F90BF9CFFC01118210821382128215824A
:1018F0001482FB0101900020E9F73197AF01461BEC
:10190000570B0C94300CFC0180819181009711F0F1
:101910000C94F618089585ED8093BC0080914805DD
:1019200090914905A0914A05B0914B050796A11DDC
:10193000B11D23E0B695A795979587952A95D1F780
:101940002091BC0024FD03C01092460508954091EB
:1019500048055091490560914A0570914B05452B0A
:10196000462B472B69F30097A105B10541F02AE208
:101970002A95F1F700C00197A109B109E1CF809143
:1019800047050C94D3081F920F920FB60F921124A3
:101990002F933F938F939F93AF93BF938091810534
:1019A00090918205A0918305B091840530918005C6
:1019B00023E0230F2D3758F50196A11DB11D20936B
:1019C00080058093810590938205A0938305B09351
:1019D00084058091850590918605A0918705B09139
:1019E00088050196A11DB11D8093850590938605FC
:1019F000A0938705B0938805BF91AF919F918F9178
:101A00003F912F910F900FBE0F901F90189526E8D1
:101A1000230F0296A11DB11DD2CF1F920F920FB6B8
:101A20000F9211242F933F934F935F936F937F9364
:101A30008F939F93AF93BF93EF93FF9389E895E0C4
:101A40000E941F04FF91EF91BF91AF919F918F91E1
:101A50007F916F915F914F913F912F910F900FBEAA
:101A60000F901F9018951F920F920FB60F9211248E
:101A70002F938F939F93EF93FF93E0919905F091AC
:101A80009A058081E0919F05F091A00582FD1BC021
:101A900090818091A2058F5F8F732091A30582179B
:101AA00041F0E091A205F0E0E757FA4F958F80935F
:101AB000A205FF91EF919F918F912F910F900FBEF3
:101AC0000F901F9018958081F4CF1F920F920FB640
:101AD0000F9211242F933F934F935F936F937F93B4
:101AE0008F939F93AF93BF93EF93FF938091B90030
:101AF000887F803609F44AC0F0F5883209F4A7C01F
:101B000018F5803109F49BC0B8F4882309F4F9C0B2
:101B1000883009F494C0FF91EF91BF91AF919F91EC
:101B20008F917F916F915F914F913F912F910F9086
:101B30000FBE0F901F901895883109F488C080322D
:101B400051F78093440514C0803409F49DC040F4DB
:101B50008033B9F38833F9F68093440585ECB0C03F
:101B6000803509F485C0883509F496C0883499F623
:101B70000E948B0CD0CF883909F48CC038F5883797
:101B800029F050F4883611F0803729F683E08093ED
:101B9000460510921F0557C0883809F47BC080396C
:101BA00019F0803809F0B7CF80911F05803208F016
:101BB00071C0E0911F0581E08E0F80931F05809119
:101BC000BB00F0E0E150FB4F80833DC0803B39F02B
:101BD000E0F4803A09F479C0883A09F09CCF84E0B7
:101BE000809346051092FE041092FD04E09170056A
:101BF000F091710509958091FD0481110FC081E07C
:101C00008093FD041092DD0409C0803C09F4A6CF46
:101C1000883C09F4A3CF883B09F07DCFE091FE0416
:101C200081E08E0F8093FE04F0E0E352FB4F808151
:101C30008093BB009091FE048091FD0429C08091A7
:101C400021058093BB0085EC8093BC0064CF90910C
:101C5000430580914205981758F5E091430581E0CE
:101C60008E0F80934305F0E0EE5DFA4F8081E9CF5F
:101C7000E091430581E08E0F809343058091BB0086
:101C8000F0E0EE5DFA4F808390914305809142052C
:101C90009817C8F285E8D8CFE091430581E08E0F10
:101CA000809343058091BB00F0E0EE5DFA4F8083A6
:101CB0008091450581115CCF81E08093200584EA05
:101CC0008093BC001092460526CF85EC8093BC0023
:101CD0001092460580911F05803230F4E0911F0577
:101CE000F0E0E150FB4F108260911F0570E0E09141
:101CF0006E05F0916F058FEF94E0099510921F0526
:101D00000ACF1092440534CF10928C0510928B05A7
:101D100088EE93E0A0E0B0E080938D0590938E056F
:101D2000A0938F05B09390052EE631E030938A059D
:101D30002093890525EC30E0309396052093950596
:101D400024EC30E0309398052093970520EC30E0A8
:101D500030939A052093990521EC30E030939C054F
:101D600020939B0522EC30E030939E0520939D0547
:101D700026EC30E03093A00520939F051092A20539
:101D80001092A3051092A4051092A50510922906A1
:101D90001092280680932A0690932B06A0932C0677
:101DA000B0932D0680E891E0909327068093260655
:101DB0001092FE061092FD0686EA91E09093FC06D2
:101DC0008093FB0687E28093FF0680E180930407FF
:101DD00082E080930507109206078CE991E09093CA
:101DE000EC068093EB068AE08093F90689E0809305
:101DF000FA068AEA8093D7068BEB8093D8068CECA0
:101E00008093D9068DED8093DA0664EC71E08BED5A
:101E100096E00E94720C81E18093E10682E2809359
:101E2000E20683E38093E30684E48093E4066DECAA
:101E300071E085EE96E00E94720C10926A06109294
:101E40006E0610926D0610926F0682E991E09093F3
:101E5000690680936806E4E8F6E010821482138233
:101E60001582369686E0E03CF807B9F788E491E001
:101E70009093CB068093CA0684E491E09093CD06BC
:101E80008093CC0684E08093CE068093CF068CE4CA
:101E900091E09093C9068093C8068AE090E0909301
:101EA000D1068093D00684EF91E09093D30680937F
:101EB000D2061092D6061092D5061092C406109241
:101EC000C5061092C6061092C7061092D40669EE97
:101ED00071E082E696E00E94720C63ED71E08CE5A1
:101EE00096E00E94720C69EE71E086E596E00E9431
:101EF000720C6DE772E080E596E00E94720C69EE6C
:101F000071E08AE496E00E94720C69EE71E084E46C
:101F100096E00E94720C69EE71E08EE396E00E94FA
:101F2000720C69EE71E088E396E00E94720C69EE33
:101F300071E082E396E00C94720CCF93DF93CDB7FF
:101F4000DEB7A7970FB6F894DEBF0FBECDBF78946B
:101F500084B5826084BD84B5816084BD85B58260AE
:101F600085BD85B5816085BD80916E00816080935F
:101F70006E001092810080918100826080938100C8
:101F800080918100816080938100809180008160D8
:101F9000809380008091B10084608093B100809133
:101FA000B00081608093B00080917A00846080935B
:101FB0007A0080917A00826080937A0080917A0022
:101FC000816080937A0080917A00806880937A00A3
:101FD0001092C100E0919905F0919A0582E080830A
:101FE000E0919505F09196051082E0919705F091AA
:101FF000980580E180831092A105E0919D05F09104
:102000009E0586E08083E0919B05F0919C05808190
:1020100080618083E0919B05F0919C0580818860C0
:102020008083E0919B05F0919C058081806880838E
:10203000E0919B05F0919C0580818F7D80831092BB
:1020400075051092740510927305109272050E9426
:10205000B50881E993E0909371058093700582E95A
:1020600093E090936F0580936E0510920007809126
:102070000507823018F098E09093000780930307DB
:1020800062E370E080E090E00E94B001609106079A
:102090008BEF96E00E947A0968EE73E080E090E0B2
:1020A0000E94B00160E38BEF96E00E94830A0BE48C
:1020B00016E4C8010197F1F760E38BEF96E00E9408
:1020C000830AC8010197F1F760E38BEF96E00E9465
:1020D000830A83E592E00197F1F760E28BEF96E0E7
:1020E0000E94830A60910007606240E08BEF96E0F7
:1020F0000E949C0A84E08093010740E06CE08BEF33
:1021000096E00E949C0A0E94EB0A82E080930207FC
:1021100040E066E08BEF96E00E949C0A40E062E0BF
:102120008BEF96E00E949C0A8BE39FE10197F1F709
:1021300088E08093060760E08BEF96E00E947A09C2
:102140000E94EB0A1FB7F89480917605811127C091
:10215000E0E9F0E08491E4EAF0E09491E82FF0E027
:10216000EE0FFF1FE859FF4FA591B491EC91E923C1
:1021700021F461E08AE00E94190161E08AE00E9496
:102180004B018CB580618CBD8CB580648CBD61E0E9
:102190008DE00E944B0161E08BE00E944B01809139
:1021A00076058F5F809376051FBF61E08091F90609
:1021B0000E944B0161E08091F9060E941901809113
:1021C000FA068F3F09F4A8C060E00E944B0180919D
:1021D000FA060E94ED00892B09F09EC061E0809113
:1021E000FA060E944B0160E08091FA060E941901F4
:1021F00083E090E00197F1F761E08091FA060E9498
:10220000190162E370E080E090E00E94B00140E0DC
:1022100064E28BEE96E00E94130540E066E28BEEEE
:1022200096E00E94130546E268E48BEE96E00E9479
:10223000130540E864E58BEE96E00E94130549EA39
:1022400066E58BEE96E00E94130543E068E58BEEB1
:1022500096E00E94130548EE6AE58BEE96E00E9438
:10226000130540E46AE28BEE96E00E9413054DE30D
:1022700062E28BEE96E00E94130568E28BEE96E038
:102280000E94F504982F9370933039F0482F4360E3
:1022900068E28BEE96E00E94130562E08FE00E94F8
:1022A0004B0162E080E10E944B0166ED71E089E83C
:1022B00095E00E945E0B67EE71E089E895E00E9470
:1022C0005E0B2AE0422E512C612C712C02E010E0B2
:1022D000EE24E394F12C9CE2292E33243394E091F4
:1022E0007E05F0917F05E131F10508F09DC5E558C7
:1022F000FE4E0C944018A311C711FA11F2125E128F
:10230000C6140615A3136D1405143814D2127315D0
:10231000141714171417CD154FE062E08BEE96E0FA
:102320000E94130513E062E370E080E090E00E94F9
:10233000B00162E08BEE96E00E94F50484FF67CF67
:10234000115089F764CF109278051092770580912B
:102350007D0581110CC00E94EB0A80E00E94B30A47
:102360008AEE91E00E946D0B81E080937D0561E033
:1023700070E080E091E00E94F60A0E944A028133F8
:1023800009F060C081E090E00E94640A5BC0109296
:1023900078051092770580917D0581110CC00E940F
:1023A000EB0A80E00E94B30A85EF91E00E946D0B7A
:1023B00081E080937D0561E070E088E091E00E941B
:1023C000F60A0E944A02823429F48091770590919E
:1023D0007805DACF813339F410927C0510927B05B1
:1023E00082E090E0D1CF823369F5F0927C05E092F3
:1023F0007B05F6CFF0927805E092770580917D0518
:1024000081110CC00E94EB0A80E00E94B30A85E0B3
:1024100092E00E946D0B81E080937D050E944A024C
:10242000D82E82E4D81206C0809177059091780565
:102430000E94640A80917B0590917C05009779F059
:10244000019779F180E090E0892B09F448CF0E9450
:102450000B04882309F43ACF0E94000037CF61E0D3
:1024600070E088E191E00E94F60A91E3D91207C07A
:1024700010927A051092790583E090E085CFE2E32F
:10248000DE1205C0F0927A05E0927905F5CFF3E30C
:10249000DF12D8CF10937A050093790584E090E09D
:1024A00073CF61E070E080E191E00E94F60A81E381
:1024B000D816F1F292E3D912C5CFE4CF1093780584
:1024C0000093770580917D05811112C069EE71E05E
:1024D0008EE396E00E94510C0E94EB0A80E00E947D
:1024E000B30A84E192E00E946D0B81E080937D0548
:1024F0000E944A02D82E80ED8D0D8A30C8F46D2DD1
:102500008EE396E00E94E60B81E00E94B30A84E22B
:1025100092E00E946D0B81E00E94B30A6EE376E0C8
:102520008BEF96E00E94930382E4D8128BCF4DCFBD
:10253000E4E469EE71E08EE396E0DE1609F446C14C
:10254000F3E2DF12F1CF8EE396E00E948D00882344
:1025500029F084E090E00E94720B74CF6EE376E085
:1025600084E496E00E945B0C65E372E0CE01019684
:102570000E94720C64E476E0CE0101960E941D0C6C
:10258000BC0189E895E00E94930367EE71E089E859
:1025900095E00E945E0BCE0101960E94830C8BE0B9
:1025A00090E0F2CE80917D05811115C00E94EB0A6A
:1025B00080E00E94B30A83E492E00E946D0B81E008
:1025C0000E94B30A64E476E08BEF96E00E949303E6
:1025D00081E080937D0568EE73E080E090E00E94EA
:1025E000B0014ACF109378050093770580917D055F
:1025F000811118C0C0907B05D0907C050E94EB0A29
:1026000080E00E94B30A8FE492E0C114D10429F063
:10261000CA94CD2821F480E692E00E946D0B81E0FF
:1026200080937D0580917B0590917C05009781F4D6
:1026300061E070E088E291E00E94F60A0E944A029E
:102640009FEC980F943058F0823409F0FBCEBDCE49
:102650000197A1F761E070E080E291E0EDCF209179
:102660007B0530917C05833309F440C0843309F441
:1026700057C0823381F4F0923901E092380121157C
:10268000310519F560E772E08CE596E00E94510C87
:1026900080E190E079CE109239011092380163ED1B
:1026A00071E02115310581F32130310509F0CACEE1
:1026B0006DE772E080E596E00E94510C30923B019C
:1026C00020923A018CE090E05FCE2130310509F094
:1026D000B9CE63E772E080E596E00E94510CE4E831
:1026E000F3E0F0933B01E0933A01ECCF1093390112
:1026F0000093380168E772E02115310529F2213095
:10270000310509F09FCE6CE772E080E596E00E940B
:10271000510C88E097E090933B0180933A01D2CF2F
:1027200083E090E0909339018093380187E090E056
:102730002115310509F428CE88E090E021303105DB
:1027400009F080CE21CE83E090E0909378058093CD
:10275000770580917D05811112C069EE71E086E5F3
:1027600096E00E94510C0E94EB0A80E00E94B30A9E
:102770008FE492E00E946D0B81E080937D050E94C2
:102780004A02D82E80ED8D0D8A30C8F46D2D86E575
:1027900096E00E94E60B81E00E94B30A84E292E098
:1027A0000E946D0B81E00E94B30A66E576E08BEF34
:1027B00096E00E949303F2E4DF1244CE06CE94E446
:1027C000D9120EC069EE71E086E596E00E94510CC8
:1027D00081E00E94B30A84E292E00E946D0B32CE47
:1027E000E3E2DE12E8CF86E596E00E948D008823C2
:1027F00019F087E090E0AFCE66E576E08CE596E0F4
:102800000E945B0C89E090E0BFCD80917D05811135
:1028100028C00E94EB0A80E00E94B30A81E892E09F
:102820000E946D0B81E00E94B30A1A8219821C82F9
:102830001B821E821D826CE576E0CE0101960E940D
:102840005B0CCE0101960E940B0CBC018BEF96E055
:102850000E949303CE0101960E94830C81E0809335
:102860007D0568EE73E080E090E00E94B00110CF3B
:1028700080917D05811128C00E94EB0A80E00E94B2
:10288000B30A80E992E00E946D0B81E00E94B30AD6
:102890001A8219821C821B821E821D8260E576E0EC
:1028A000CE0101960E945B0CCE0101960E940B0C9A
:1028B000BC018BEF96E00E949303CE0101960E942B
:1028C000830C81E080937D0568EE73E080E090E00A
:1028D0000E94B00185E090E057CD83E090E09093B6
:1028E00078058093770580917D05811112C069EE8E
:1028F00071E08AE496E00E94510C0E94EB0A80E0AD
:102900000E94B30A80E992E00E946D0B81E08093FF
:102910007D050E944A02D82E80ED8D0D8A30C8F4C4
:102920006D2D8AE496E00E94E60B81E00E94B30AD6
:1029300084E292E00E946D0B81E00E94B30A6AE497
:1029400076E08BEF96E00E949303E2E4DE127ACD0C
:102950003CCD84E4D81205C069EE71E08AE496E0CB
:1029600035CF93E2D912F1CF8AE496E00E948D0030
:10297000882319F088E090E0EECD6AE476E080E507
:1029800096E00E945B0C8AE090E0FECC88E090E04C
:10299000909378058093770580917D0581110CC017
:1029A0000E94EB0A81E00E94B30A8DE992E00E9446
:1029B0006D0B81E080937D0580E00E94B30A70E09A
:1029C00060E080E391E00E94F60A0E944A028133AF
:1029D00019F486E090E0D8CC823309F035CE8091AE
:1029E000500690915106009769F00E94431722E02B
:1029F00030E040E050E00E94211830933B012093EA
:102A00003A0160CE60E070E0CB01F1CFE5E0F0E0AC
:102A1000F0937805E093770580917D05811112C0D0
:102A200069EE71E088E396E00E94510C0E94EB0A87
:102A300080E00E94B30A8DEA92E00E946D0B81E073
:102A400080937D050E944A02D82E80ED8D0D8A303C
:102A5000C8F46D2D88E396E00E94E60B81E00E94A9
:102A6000B30A84E292E00E946D0B81E00E94B30AF7
:102A700068E376E08BEF96E00E94930392E4D9122C
:102A8000E1CCA3CCF4E4DF1205C069EE71E088E389
:102A900096E09CCE83E2D812F1CF88E396E00E94C4
:102AA0008D00882319F086E090E055CD809138069E
:102AB00090913906009799F00E94431770933B015B
:102AC00060933A0164547D4F89E895E00E945E0B63
:102AD00067EE71E089E895E00E945E0BF3CD60E05F
:102AE00070E0CB01EBCF80917D058111BACE0E94C1
:102AF000EB0A80E00E94B30A80ED92E00E946D0B29
:102B000081E00E94B30A80903A0190903B01092C29
:102B1000000CAA08BB08B7FE2AC041E06DE28BEFAB
:102B200096E00E949C0A22273327A9012819390917
:102B30004A095B0919A2FE01B1966F01CA01B901E8
:102B4000A30192010E94FF17605DF60162936F017D
:102B5000211531054105510589F7C114D10409F446
:102B60007DCEB6018BEF96E00E945E0B77CEA5017D
:102B7000940119A2CE0181966C01CA01B901A30189
:102B800092010E94FF17605DF60162936F012115AB
:102B900031054105510589F7E0CF80917D0581110F
:102BA000C4C00E94EB0AC0907B05D0907C05C11484
:102BB000D10409F4C8C0F1E0CF16D10409F4CAC0A9
:102BC00069EE72E0CE0182960E94720CBE016F5FC8
:102BD0007F4FCE0182960E941D0CBC0182E396E0DD
:102BE0000E945B0CCE0182960E94830CCE0101965E
:102BF0000E94830CA0907905B0907A0581E0A81618
:102C0000B10409F4B1C008F4A8C0E2E0AE16B10402
:102C100009F4ADC067EF72E0CE0182960E94720C9B
:102C2000BE016F5F7F4FCE0182960E941D0C0E94F5
:102C3000DD0BCE0182960E94830CCE0101960E948C
:102C4000830C80913801909139018130910509F40C
:102C500098C008F48FC08230910509F495C003979D
:102C600009F495C06AE173E0CE0182960E94720C6D
:102C7000BE016F5F7F4FCE0182960E941D0C0E94A5
:102C8000DD0BCE0182960E94830CCE0101960E943C
:102C9000830CC114D10409F07DC064E273E0CE015D
:102CA00001960E94720C6CE576E0CE0101960E94BE
:102CB0001D0C0E940B0C0E94DD0BCE0101960E94A0
:102CC000830CF2E0AF16B10491F46FE273E0CE0131
:102CD00001960E94720C64E476E0CE0101960E9497
:102CE0001D0C0E94DD0BCE0101960E94830C43E077
:102CF00050E061E372E082E396E00E94B10B8091C4
:102D000032069091330690934301809342011092D2
:102D10003D0110923C0181E00E94B30A86E493E0F9
:102D20000E946D0B81E080937D0570E060E08CE394
:102D300091E00E94F60A0E944A02813309F071C0B4
:102D400081E190E021CB6FED72E0CE0101960E940F
:102D5000720C36CF6DE873E0F8CF61EF72E0CE0110
:102D600001960E94720C56CF68EA73E0F8CF6DECC2
:102D700073E0F5CF62E073E0CE0101960E94720C21
:102D800071CF66E073E0F8CF6DE073E0F5CF6AE1F4
:102D900074E0F2CFCA94CD2809F0A9CF64E273E0C1
:102DA000CE0101960E94720C60E576E0CE0101969C
:102DB0000E941D0C0E940B0C0E94DD0BCE0101969F
:102DC0000E94830C80913A0190913B011BA21AA2B0
:102DD0001DA21CA21FA21EA24AE0BE016F5F7F4F70
:102DE0000E946A17BE016F5F7F4FCE0182960E94DC
:102DF000510C6AE373E0CE0101960E94720CBE0191
:102E00006E5D7F4FCE0101960E941D0C0E94DD0B6E
:102E1000CE0101960E94830CCE0182960E94830C03
:102E200066CF823409F00ECB90E080E0ADCA82E339
:102E300096E00E94830C88E396E00E94830C8EE368
:102E400096E00E94830C84E496E00E94830C8AE45E
:102E500096E00E94830C80E596E00E94830C86E554
:102E600096E00E94830C8CE596E00E94830C82E63B
:102E700096E00E94830C85EE96E00E94830C8BED19
:102E800096E00C94830C1F93FC0199278827BC01C2
:102E9000E89411911032E9F3193010F01E30C8F3A4
:102EA0001B3251F01D3249F4689406C00E94751718
:102EB000610F711D811D911D119110531A30B0F3D6
:102EC0003EF490958095709561957F4F8F4F9F4F01
:102ED0001F910895BB274A3031F4992322F4BDE2B3
:102EE000909581959F4F0C948B17592F482F372F12
:102EF000262F660F771F881F991F660F771F881F61
:102F0000991F620F731F841F951F660F771F881FFD
:102F1000991F0895BB27FB015527AA27880F991FE2
:102F2000AA1FA41710F0A41B83955051B9F7A05DF8
:102F3000AA3308F0A95DA193009779F7B111B19375
:102F40001192CB010C94A417DC01FC01672F719145
:102F50007723E1F7329704C07C916D93708362917F
:102F6000AE17BF07C8F308952F923F924F925F921A
:102F70006F927F928F929F92AF92BF92CF92DF9289
:102F8000EF92FF920F931F93CF93DF93CDB7DEB7EE
:102F9000CA1BDB0B0FB6F894DEBF0FBECDBF099482
:102FA0002A88398848885F846E847D848C849B84D9
:102FB000AA84B984C884DF80EE80FD800C811B81E7
:102FC000AA81B981CE0FD11D0FB6F894DEBF0FBE16
:102FD000CDBFED01089597FB072E16F4009407D09E
:102FE00077FD09D00E94461807FC05D03EF4909565
:102FF00081959F4F0895709561957F4F0895A1E247
:103000001A2EAA1BBB1BFD010DC0AA1FBB1FEE1F62
:10301000FF1FA217B307E407F50720F0A21BB30BAD
:10302000E40BF50B661F771F881F991F1A9469F729
:1030300060957095809590959B01AC01BD01CF0185
:103040000895052E97FB1EF400940E94381857FD32
:1030500007D00E94FF1707FC03D04EF40C943818D9
:1030600050954095309521953F4F4F4F5F4F0895B4
:1030700090958095709561957F4F8F4F9F4F0895E4
:10308000EE0FFF1F0590F491E02D0994AA1BBB1BC6
:1030900051E107C0AA1FBB1FA617B70710F0A61B58
:1030A000B70B881F991F5A95A9F780959095BC0179
:1030B000CD0108950F931F93CF93DF938230910535
:1030C00010F482E090E0E0910907F0910A0730E007
:1030D00020E0B0E0A0E0309799F42115310509F423
:1030E0004AC0281B390B24303105D8F58A819B81D1
:1030F0006115710589F1FB0193838283FE0111C083
:10310000408151810281138148175907E0F0481727
:10311000590799F4109761F012960C931297139631
:103120001C933296CF01DF91CF911F910F9108959B
:103130000093090710930A07F4CF2115310551F0C8
:103140004217530738F0A901DB019A01BD01DF01E5
:10315000F801C1CFEF01F9CF90930A0780930907D7
:10316000CDCFFE01E20FF31F8193919322503109DD
:1031700039832883D7CF2091070730910807232B65
:1031800041F420915E0130915F0130930807209354
:10319000070720915C0130915D012115310541F453
:1031A0002DB73EB74091600150916101241B350B52
:1031B000E0910707F0910807E217F307A0F42E1B30
:1031C0003F0B2817390778F0AC014E5F5F4F24178B
:1031D000350748F04E0F5F1F5093080740930707CD
:1031E000819391939FCFF0E0E0E09CCFCF93DF936A
:1031F0000097E9F0FC01329713821282A09109072F
:10320000B0910A07ED0130E020E01097A1F4208191
:103210003181820F931F20910707309108072817EB
:10322000390709F061C0F0930807E0930707DF91C1
:10323000CF910895EA01CE17DF07E8F54A815B8157
:103240009E0141155105B1F7E901FB83EA834991DC
:103250005991C40FD51FEC17FD0761F4808191814E
:103260000296840F951FE901998388838281938157
:103270009B838A83F0E0E0E012968D919C911397F6
:103280000097B9F52D913C911197CD010296820FCF
:10329000931F20910707309108072817390739F63F
:1032A000309751F510920A0710920907B09308075A
:1032B000A0930707BCCFD383C28340815181840F81
:1032C000951FC817D90761F44E5F5F4F88819981B8
:1032D000480F591F518340838A819B819383828346
:1032E0002115310509F0B0CFF0930A07E0930907E3
:1032F0009ECFFD01DC01C0CF13821282D7CFB0E098
:10330000A0E0E5E8F9E10C94B6178C01009751F4C0
:10331000CB010E945A188C01C801CDB7DEB7E0E19D
:103320000C94D217FC01E60FF71F9C0122503109C3
:10333000E217F30708F49DC0D901CD91DC911197F4
:10334000C617D70798F0C530D10530F3CE010497E2
:103350008617970708F3C61BD70B2297C193D19303
:103360006D937C93CF010E94F618D6CF5B01AC1A07
:10337000BD0A4C018C0E9D1EA0910907B0910A0751
:10338000512C412CF12CE12C109731F5809107073D
:10339000909108078815990509F05CC046165706F4
:1033A00008F058C080915C0190915D01009741F454
:1033B0008DB79EB74091600150916101841B950BC0
:1033C000E817F90708F055C0F0930807E0930707DE
:1033D000F90171836083A0CF8D919C911197129612
:1033E0006C90129713967C901397A815B90559F510
:1033F0006C0142E0C40ED11CCA14DB0420F1AC0104
:103400004A195B09DA011296159780F0628273827D
:1034100051834083D9016D937C93E114F10471F0E1
:10342000D7011396FC93EE93129776CF22968C0FCA
:103430009D1FF90191838083F301EFCFF0930A0779
:10344000E093090769CF4816590608F42C017D015D
:10345000D3019ACFCB010E945A187C01009749F002
:10346000AE01B8010E943C1AC8010E94F6188701FB
:1034700053CF10E000E050CFFB01DC0102C001900F
:103480000D9241505040D8F70895FB01DC010190A6
:103490000D920020E1F7089510E0C2E6D0E004C0EC
:1034A000FE010E9440182196C336D107C9F7F8944F
:1034B000FFCF0000000000005703000000000000E4
:1034C00078030000000000009703000000000000E7
:1034D000AF03000000000000D30300000000000064
:1034E00028040000000000007B0401002C01000003
:1034F00000000000E9010607080E0203040531324E
:10350000334134353642373839432A3023440000BA
:103510000B07800000004000140054000000000071
:103520004104A103CE038E04FF03DD03F103000079
:1035300000004B091E09610AF40817090409F5087F
:103540000000000087014701160100000000070786
:10355000A406AE0400000000E50AA103610A8D087C
:1035600044696769746520756D2076616C6F72219E
:10357000007365672E005665726D656C686F005646
:10358000657264650035300053697374656D612040
:10359000696E69636961646F000D0A0042656D2D93
:1035A00056696E646F21004573636F6C6861206FAC
:1035B000206D6F646F3A004D6F646F206465206109
:1035C000726D61723A00446566696E6120612073B4
:1035D000656E68613A0020202020202020202020D5
:1035E0002020202020200053454E48412053414CAC
:1035F00056413A200053656E68612073616C7661B4
:103600000054656D706F2061706F732061726D6121
:1036100072004C696D6974652064652074656D7015
:103620006F003930003138303000323630003336F8
:1036300030300054656D706F206578706C6F736109
:103640006F0054656D706F206C696D69746500283A
:10365000312953696D202D202832294E616F004495
:1036600065662E206D61782E207074732E004C4993
:103670004D2E20504F4E544F532053414C564F3AED
:1036800020004D61782E20646520706F6E746F731A
:10369000005361626F746167656D00204A6F676FE8
:1036A0003A2000426F74616F00202D2041726D61DD
:1036B000723A20004351420050616472616F0043CE
:1036C000616D706F2041626572746F00202D20441F
:1036D00075722E3A2000202D2054656D706F3A20AF
:1036E00000202D2053656E68613A2000202D205067
:1036F0006F6E746F733A2000312D496E6963696192
:103700007220422D536169720020283129204E6FAA
:10371000766F204A6F676F202D2028322920556C44
:1037200074696D6F204A6F676F002028312920531C
:1037300061626F746167656D202D202832292044F5
:103740006F6D696E6163616F002028312920426FBF
:1037500074616F202D202832292043617274616FBB
:10376000002028312920426F74616F202D202832DB
:10377000292043617274616F202D20283329205342
:10378000656E68610020283129204351423A20317A
:10379000306D696E2E202D202832292050616472F0
:1037A000616F3A2033306D696E2E202D2028332929
:1037B0002043616D706F2041626572746F3A2036EC
:1037C000306D696E2E202D202834292050657273AB
:1037D0006F6E616C697A6164610020283129204331
:1037E00051423A203530732E202D20283229205086
:1037F000616472616F3A20316D3330732E202D2059
:103800002833292043616D706F2041626572746FA7
:103810003A20346D3230732E202D20283429205048
:103820006572736F6E616C697A61646100204465D2
:1038300073656A6120706572736F6E616C697A611D
:1038400072206F206D61782E20646520706F6E7419
:103850006F733F202850414452414F203D2028544F
:0E386000656D706F204C696D2E2F32290000AF
:107E0000112484B714BE81FFF0D085E080938100F7
:107E100082E08093C00088E18093C10086E0809377
:107E2000C20080E18093C4008EE0C9D0259A86E02C
:107E300020E33CEF91E0309385002093840096BBD3
:107E4000B09BFECF1D9AA8958150A9F7CC24DD24C4
:107E500088248394B5E0AB2EA1E19A2EF3E0BF2EE7
:107E6000A2D0813461F49FD0082FAFD0023811F036
:107E7000013811F484E001C083E08DD089C08234E0
:107E800011F484E103C0853419F485E0A6D080C0E4
:107E9000853579F488D0E82EFF2485D0082F10E0AE
:107EA000102F00270E291F29000F111F8ED06801E7
:107EB0006FC0863521F484E090D080E0DECF843638
:107EC00009F040C070D06FD0082F6DD080E0C81688
:107ED00080E7D80618F4F601B7BEE895C0E0D1E017
:107EE00062D089930C17E1F7F0E0CF16F0E7DF06D8
:107EF00018F0F601B7BEE89568D007B600FCFDCFD4
:107F0000A601A0E0B1E02C9130E011968C91119780
:107F100090E0982F8827822B932B1296FA010C0160
:107F200087BEE89511244E5F5F4FF1E0A038BF0790
:107F300051F7F601A7BEE89507B600FCFDCF97BE46
:107F4000E89526C08437B1F42ED02DD0F82E2BD052
:107F50003CD0F601EF2C8F010F5F1F4F84911BD097
:107F6000EA94F801C1F70894C11CD11CFA94CF0C13
:107F7000D11C0EC0853739F428D08EE10CD085E9AC
:107F80000AD08FE07ACF813511F488E018D01DD067
:107F900080E101D065CF982F8091C00085FFFCCF94
:107FA0009093C60008958091C00087FFFCCF809118
:107FB000C00084FD01C0A8958091C6000895E0E648
:107FC000F0E098E1908380830895EDDF803219F02E
:107FD00088E0F5DFFFCF84E1DECF1F93182FE3DFCA
:107FE0001150E9F7F2DF1F91089580E0E8DFEE27F6
:047FF000FF270994CA
:027FFE00040479
:00000001FF
