:020000040000FA
:100000000C9463000C948B000C948B000C948B006C
:100010000C948B000C948B000C948B000C948B0034
:100020000C948B000C948B000C948B000C948B0024
:100030000C948B000C948B000C948B000C948B0014
:100040000C94CD0C0C948B000C943D0D0C94170D5E
:100050000C948B000C948B000C948B000C948B00F4
:100060000C946F0D0C948B000000000024002700FE
:100070002A0000000000250028002B0000000000DE
:1000800023002600290004040404040404040202DA
:100090000202020203030303030301020408102007
:1000A0004080010204081020010204081020000012
:1000B0000008000201000003040700000000000027
:1000C00000008E0E991611241FBECFEFD8E0DEBFC0
:1000D000CDBF26E0AEE9B4E001C01D92A73EB20755
:1000E000E1F714E0A0E0B1E0EEEAF3E302C005902E
:1000F0000D92AE39B107D9F710E0C2E6D0E004C0E6
:100100002197FE010E94BE17C136D107C9F70E9490
:10011000A10F0C94CA190C940000DC0114962D91C7
:100120003C911597232B41F0ED91FC9181E090815A
:10013000992319F080E0089581E0089596E0899F61
:10014000D0011124AC5BB94F90967C936E935F976E
:1001500091E091969C939197E091B106F091B2064F
:100160009091B006992339F0309751F0811108C071
:10017000809160060994309719F05C968C91FACFC3
:1001800008958CBD9DBD0895833081F028F48130A1
:1001900099F08230A9F008958730A9F08830C9F02D
:1001A0008430B1F4809180008F7D03C08091800005
:1001B0008F7780938000089584B58F7784BD0895EC
:1001C00084B58F7DFBCF8091B0008F778093B00096
:1001D00008958091B0008F7DF9CFCF93DF93282FC2
:1001E00030E0F901E255FF4F8491F901E656FF4FE7
:1001F000D491F901EA57FF4FC491CC23A1F08111AA
:100200000E94C400EC2FF0E0EE0FFF1FE458FF4FF8
:10021000A591B491EC91ED2381E090E009F480E0A8
:10022000DF91CF91089580E090E0FACF862F0C9473
:10023000ED001F93CF93DF93282F30E0F901E255B3
:10024000FF4F8491F901E656FF4FD491F901EA5727
:10025000FF4FC491CC23A9F0162F81110E94C40036
:10026000EC2FF0E0EE0FFF1FEE58FF4FA591B49179
:100270008FB7F894EC91111108C0D095DE23DC9370
:100280008FBFDF91CF911F910895DE2BF8CF862F7E
:10029000642F0C941901CF93DF9390E0FC01E65694
:1002A000FF4F24918A579F4FFC0184918823C9F006
:1002B00090E0880F991FFC01E859FF4FA591B49178
:1002C000FC01EE58FF4FC591D49161110DC09FB74D
:1002D000F8948C91209582238C93888128232883FD
:1002E0009FBFDF91CF910895623051F49FB7F8948A
:1002F0003C91822F809583238C93E8812E2BEFCF26
:100300008FB7F894EC912E2B2C938FBFEACF862FCA
:10031000642F0C944B013FB7F8948091670590913E
:100320006805A0916905B0916A0526B5A89B05C02E
:100330002F3F19F00196A11DB11D3FBFBA2FA92F64
:10034000982F8827BC01CD01620F711D811D911D61
:1003500042E0660F771F881F991F4A95D1F70895CD
:100360008F929F92AF92BF92CF92DF92EF92FF92C5
:100370004B015C010E948B016B017C010E948B018F
:100380006C197D098E099F09683E734081059105AE
:10039000A8F321E0821A9108A108B10888EEC80EDE
:1003A00083E0D81EE11CF11C81149104A104B10466
:1003B00029F7FF90EF90DF90CF90BF90AF909F9084
:1003C0008F9008952FB7F89460916305709164053C
:1003D00080916505909166052FBF08950F931F9337
:1003E000CF93DF93C82FD62F86E0C89FF00111244A
:1003F000EC5BF94F11A2878D90A181309105F1F04E
:1004000058F082309105F1F1039709F440C0DF9173
:10041000CF911F910F9108956623C9F361E070E0B9
:100420008C2F0E949E000E94E20160939C067093B4
:100430009D0680939E0690939F06E9CF0E94E2015D
:1004400000919C0610919D0620919E0630919F067A
:10045000AB01BC01401B510B620B730B8091AE06CC
:100460009091AF06B0E0A0E084179507A607B70704
:1004700048F462E070E08C2FDF91CF911F910F91D3
:100480000C949E0063E070E0D111C1CFF4CF70E016
:1004900060E0F1CF6F927F928F929F92AF92BF9266
:1004A000CF92DF92EF92FF920F931F93CF93DF9340
:1004B00081E08093B0060E94E2010091A0061091B5
:1004C000A1062091A2063091A306AB01BC01401BFE
:1004D000510B620B730B8091AC069091AD06B0E0AE
:1004E000A0E084179507A607B70708F014C1C0E07D
:1004F0008091AA06C81760F4E091A606F091A706BD
:10050000EC0FF11D62E080810E944B01CF5FF0CFC4
:10051000712C812C912C540183948091AB06781618
:1005200008F05FC0072D10E0E091A806F091A90641
:10053000E00FF11F61E080810E944B01E091A8066D
:10054000F091A906E00FF11F60E080810E9419017F
:10055000D501C401072C04C0880F991FAA1FBB1F17
:100560000A94D2F76C017C01E094F094612C8091A4
:10057000AA066816F8F4C62DD0E0E091A606F09120
:10058000A706EC0FFD1F80810E94ED002496CC0F82
:10059000DD1FCC5BD94F892B41F4888199818C294F
:1005A0009D29998388836394E2CF888199818E21E4
:1005B0009F21F7CFE091A806F091A906E00FF11F67
:1005C00061E080810E9419018091A8069091A9069E
:1005D000080F191F60E0F80180810E944B0173949D
:1005E0009CCFC4E4D6E0FE018FEF9FEF278D30A1B2
:1005F000232B21F4148E968F858F11A2369626E038
:10060000E038F20799F7F12C96E0D92E8091AA06EE
:10061000F81608F050C0E12C0F2D10E0000F111F4C
:10062000045B194F2091AB06E21608F042C0F801B6
:10063000608171810E2C02C0769567950A94E2F76D
:10064000F29E900111242E0D311DE4E4F6E080E0CD
:10065000458D568D2417350709F461C08F5F369696
:100660008A30B1F760FF23C0E4E4F6E090E080E078
:10067000448D411117C0E091A406F091A506E20F48
:10068000F31F4081D89EF001D99EF00D1124EC5B40
:10069000F94F448F368F258F10A2178E61E00E948C
:1006A000EE0105C0019636968A30910509F7E3946C
:1006B000B9CFF394ABCF10E089A18111182F269602
:1006C000F6E0C038DF07C1F70E94E2016093A006A0
:1006D0007093A1068093A2069093A3061123D9F0EC
:1006E000809165068823B9F0809163069091640635
:1006F000019789F480916006DF91CF911F910F914E
:10070000FF90EF90DF90CF90BF90AF909F908F9031
:100710007F906F9008951092B00680E0EDCF6170E9
:10072000BECF08950895DB0114964D915C91159705
:100730006D917C91DC01ED91FC910280F381E02DC3
:100740000994AF92BF92CF92DF92EF92FF920F93F4
:100750001F93CF93DF936C017B018B01040F151F57
:10076000EB015E01AE18BF08C017D10759F06991BF
:10077000D601ED91FC910190F081E02DC601099523
:10078000892B79F7C501DF91CF911F910F91FF90D0
:10079000EF90DF90CF90BF90AF900895FC01538D04
:1007A000448D252F30E0842F90E0821B930B54174B
:1007B00010F0CF96089501970895FC01918D828DD8
:1007C000981761F0A28DAE0FBF2FB11D5D968C9171
:1007D000928D9F5F9F73928F90E008958FEF9FEFB0
:1007E0000895FC01918D828D981731F0828DE80F6C
:1007F000F11D858D90E008958FEF9FEF0895FC0126
:10080000918D228D892F90E0805C9F4F821B9109F2
:100810008F73992708958BE695E00E94FF0321E0EE
:10082000892B09F420E0822F089580E090E0892B45
:1008300029F00E940B0481110C9400000895FC0122
:10084000A48DA80FB92FB11DA35ABF4F2C91848D31
:1008500090E001968F739927848FA689B7892C938E
:10086000A089B1898C91837080648C93938D848DE1
:10087000981306C00288F389E02D80818F7D8083E4
:100880000895EF92FF920F931F93CF93DF93EC01A4
:1008900081E0888F9B8D8C8D98131AC0E889F98927
:1008A000808185FF15C09FB7F894EE89FF8960832A
:1008B000E889F98980818370806480839FBF81E0AB
:1008C00090E0DF91CF911F910F91FF90EF900895ED
:1008D000F62E0B8D10E00F5F1F4F0F731127E02EC8
:1008E0008C8D8E110CC00FB607FCFACFE889F98900
:1008F000808185FFF5CFCE010E941F04F1CFEB8DE3
:10090000EC0FFD2FF11DE35AFF4FF0829FB7F894D3
:100910000B8FEA89FB8980818062CFCFCF93DF93F1
:10092000EC01888D8823B9F0AA89BB89E889F98907
:100930008C9185FD03C0808186FD0DC00FB607FC3C
:10094000F7CF8C9185FFF2CF808185FFEDCFCE016F
:100950000E941F04E9CFDF91CF910895BC016E5F23
:100960007F4FDC01ED91FC910190F081E02D40E0A2
:10097000099591E0811190E0892F089508958EBD29
:1009800000000DB407FEFDCF8EB50895DF92EF9203
:10099000FF920F931F93CF93DF937C01062FD42EEA
:1009A000152F80E590E00E94C10060E0F701868588
:1009B0000E94190182E10E94BF04CD2DD12F0C0F9E
:1009C0001D2F111DC017D10721F089910E94BF046E
:1009D000F9CF61E0F7018685DF91CF911F910F91EB
:1009E000FF90EF90DF900C9419011F93CF93DF934A
:1009F000EC01162F80E590E00E94C10060E08E853A
:100A00000E941901812F80680E94BF0480E00E942B
:100A1000BF04182F61E08E850E941901812FDF919C
:100A2000CF911F9108950F931F93CF93DF93EC0104
:100A3000062F142F80E590E00E94C10060E08E85B3
:100A40000E941901802F0E94BF04812F0E94BF04C1
:100A500061E08E85DF91CF911F910F910C94190168
:100A6000CF92DF92EF92FF920F931F93CF93DF937A
:100A7000EC016B01F42E890140E062E00E94130555
:100A800044E06AE0CE010E94130540E864E1CE0133
:100A90000E941305A6016F2DCE010E94C60443E0FB
:100AA00062E0CE010E9413050E94E2016B017C010D
:100AB00029E5C20ED11CE11CF11C6AE0CE010E94A6
:100AC000F50482FF1BC040E062E0CE010E941305E6
:100AD00064E4CE010E94F504F801808362E4CE0153
:100AE0000E94F504F801818380E0DF91CF911F918E
:100AF0000F91FF90EF90DF90CF9008950E94E20158
:100B00006C157D058E059F05C0F283E0EECF2F9218
:100B10003F924F925F926F927F928F929F92AF928D
:100B2000CF92DF92EF92FF920F931F93CF93DF93B9
:100B300000D0CDB7DEB74C012B01D42E390180E0B7
:100B4000E114F10411F0F70180813C2C329490EF14
:100B50003922380E40E062E0C4010E9413054FE7DD
:100B600068E0C4010E94130540E864E1C4010E94EA
:100B70001305A2016D2DC4010E94C604432D6AE134
:100B8000C4010E9413054CE062E0C4010E941305F9
:100B90006AE1C4010E94F504482F40686AE1C4017B
:100BA0000E9413050E94E2011B012C01F4E22F0EAA
:100BB000311C411C511C68E0C4010E94F504982FAF
:100BC000907309F0B7C080FF15C083E00F900F90BD
:100BD000DF91CF911F910F91FF90EF90DF90CF9019
:100BE000AF909F908F907F906F905F904F903F90CD
:100BF0002F9008950E94E201621573058405950502
:100C0000D0F2E3CF6114710409F469C00115110534
:100C100009F465C064E1C4010E94F504382EF801AE
:100C20008081831508F480C030823320E1F180E5B3
:100C300090E00E94C10060E0F40186850E941901E5
:100C40003A9482E90E94BF04CC20B1F08FEF90E08B
:100C50009C0102C0220F331FCA94E2F7690182E9A6
:100C60000E94BF049C2D9095F301208192238C213A
:100C7000982B9083CC24C39423014C0C511CC31497
:100C800040F482E90E94BF04F20181932F01C394D2
:100C9000F6CF80E00E94BF04F201808361E0F4019E
:100CA00086850E94190168E1C4010E94F5048770DD
:100CB000E114F10411F0F701808323FC37C06114C3
:100CC0007104B1F10115110599F1AA2089F1F8011A
:100CD0004081413031F4843029F58FEF77CF80E0C7
:100CE000ECCF4230F8F081111DC042509E012F5FC1
:100CF0003F4FB301C4010E943005811167CFF80155
:100D00009081690E711CF30132972081998129131A
:100D100009C0F1E06F1A7108F30120819A81291747
:100D200009F454CF87E052CF84E050CF82E04ECF19
:100D300080E04CCF6CE0C4010E94F504282E837142
:100D400009F460CF81E042CF8F929F92AF92CF9211
:100D5000EF92FF920F931F93CF93DF9300D000D0B9
:100D60001F92CDB7DEB74C0182E08D8340E064E294
:100D7000C4010E94130540E066E2C4010E9413050D
:100D800046E268E4C4010E94130586E28B838D81EC
:100D90008230D8F16CE1C4010E94F504482F4F77EE
:100DA0006CE1C4010E94130587E08C83A12CC12C47
:100DB000CE0104967C018E010B5F1F4F9E012F5FB9
:100DC0003F4F41E0BE016D5F7F4FC4010E94870528
:100DD000982F811117C08D818230B9F48C818111D7
:100DE00014C081E00F900F900F900F900F90DF9143
:100DF000CF911F910F91FF90EF90CF90AF909F9068
:100E00008F90089581E0923069F380E0EBCF2F92CC
:100E10003F924F925F926F927F928F929F92AF928A
:100E2000BF92CF92DF92EF92FF920F931F93CF93D7
:100E3000DF93CDB7DEB72D970FB6F894DEBF0FBEA8
:100E4000CDBF16E0413508F04AC1342E3B014C01BC
:100E50006CE10E94F504482F4F776CE1C4010E94B9
:100E6000130583E98983332029F081E0F301908120
:100E7000953008F480E022242394B12C9B2D990F07
:100E8000990F990FD32CD91AD7FCD12C32E0882393
:100E900019F098E89B8333E021E09D2D977009F4C9
:100EA00020E09D2D959595959595290FC9F094E095
:100EB000811193E0291708F4922FEB2DF0E0319681
:100EC000E60DF71D232F4191A1E0B0E0AC0FBD1F4F
:100ED000A20FB11D4C932F5F422F431B491798F36C
:100EE000882311F0F8E0DF0E8FE18D150CF082C041
:100EF00090E79A838B819C8189279D8189279E8198
:100F000089278F839E01285F3F4F47E0BE016F5FB7
:100F10007F4FC4010E943005182F8111E0C01A864E
:100F2000E3E0EB87DC86CE0107962C0199E09D87F4
:100F3000CA844C2D4295407F4C0D6AE1C4010E9449
:100F40001305A12CCE010A967C018E01055F1F4F6F
:100F500092014D85BE016F5F7F4FC4010E948705DE
:100F6000182F823009F065C06CE1C4010E94F504BD
:100F700085FDB5C08F7109F480E2282F30E04D2D3A
:100F8000DD0C550B421753070CF09DC0D82EE82FEF
:100F9000E595E595E595EF5F982F977081E009F469
:100FA00080E0E80F81E090E08C0F9D1F8E0F911D77
:100FB000FC01215031092770332781E090E002C005
:100FC000880F991F2A95E2F79C018081822B8083EC
:100FD0008BCF85E98983332031F081E0F301908163
:100FE000983008F04BCF80E049CF87E9898326E02D
:100FF000B22EF9CF9D2D97709A878D2D8595859569
:1010000085958E5F282F2295207F290F2A8321E046
:10101000911101C020E0280F2D8744244394512CC6
:101020004C0E5D1E480E511CE9E0E81BEB87DC8688
:101030007FCF811154C080E2D82E9C8590320CF471
:1010400057CF8B81883809F040C083E093E0EB2DC7
:10105000F0E03196E60DF71D980FA1E0B0E0AC0F7F
:10106000BD1FA80FB11D2C9121938F5F8913F5CF60
:10107000BB84E3E0BE124DC08A8581114AC09E0147
:101080002D5F3F4F41E0B201C4010E943005182F8F
:10109000811125C09B81F201818198133CC09C8104
:1010A0008281981338C0808182FF12C02394F2E0BD
:1010B0002F1609F48ECF83E0281609F496CF91E01D
:1010C000291609F4CECE15E00AC082E094E0BFCF25
:1010D000F3018387822D880F820D8F5F8083812F9C
:1010E0002D960FB6F894DEBF0FBECDBFDF91CF9126
:1010F0001F910F91FF90EF90DF90CF90BF90AF9036
:101100009F908F907F906F905F904F903F902F9027
:10111000089511E0E4CF17E0E2CF08952091DF04B5
:10112000260F3327331F21323105ECF42091280597
:10113000FC0190E080E0243069F082E00895A09105
:10114000DF042191AC0141545B4FA40FB52FB11DB9
:101150002C930196861798F38091DF04680F6093B3
:10116000DF0480E0089581E008951092280581E071
:10117000809327051092020561E082E10E94190127
:1011800061E083E10E941901E9EBF0E080818E7F4C
:10119000808380818D7F808388E48093B80085E49C
:1011A0008093BC000895CF93DF9391E09093BE04A9
:1011B0008823B9F0C091B800D091BA008091BC00EA
:1011C0008A7B8093BC0060E082E10E94190160E0AC
:1011D00083E10E9419010E94B508D093BA00C09320
:1011E000B800DF91CF9108950895E091570580915F
:1011F0005605E81730F4F0E0E256FB4F808190E0AE
:1012000008958FEF9FEF08959091570580915605AF
:101210002FEF3FEF981748F4E92FF0E0E256FB4F2D
:10122000208130E09F5F90935705C9010895809118
:10123000560590915705891B990B0895CF92DF921F
:10124000EF92FF920F931F93CF93DF937C01CB011B
:101250008A0120912E05222389F0EB016B01C40E37
:10126000D51ECC15DD0569F06991D701ED91FC9192
:101270000190F081E02DC7010995F3CF642F0E9402
:101280008E08C801DF91CF911F910F91FF90EF90D1
:10129000DF90CF900895CF93DF931F92CDB7DEB745
:1012A000698320912E052223F9F0209154052032E4
:1012B00058F021E030E0FC013383228390E080E0AD
:1012C0000F90DF91CF91089580915505E82FF0E0C0
:1012D000E15DFA4F998190838F5F809355058093EC
:1012E000540581E090E0ECCF61E0CE0101960E94D0
:1012F0008E08F7CFCF92DF92EF92FF920F931F935A
:10130000CF93DF93FC01C48121E020932E05C0938D
:101310004F0510925505109254058385682B88E07F
:1013200096E00E944B09D0915405D13208F092C04A
:101330000E948B016B017C0180912805811165C0A1
:1013400082E08093280581E0809327058FEF8093CA
:10135000260510922505D0932405AFE2B5E0E4E020
:10136000F5E080E0D81385C0109203058091030555
:10137000CC0FC82BC093030580910205813009F082
:101380007CC0109202050E948B016B017C01809150
:1013900003058093BB0080912A0590912B05A091B5
:1013A0002C05B0912D05892B8A2B8B2B99F00E944F
:1013B0008B0100912A0510912B0520912C0530916D
:1013C0002D056C197D098E099F0906171707280737
:1013D0003907E0F18091BC0083FDD9CF85EC809383
:1013E000BC000E948B016B017C018091280582303A
:1013F00009F445C0809126058F3F61F18091260553
:10140000803241F18091260525C080912A05909176
:101410002B05A0912C05B0912D05892B8A2B8B2BA8
:1014200009F48ACF0E948B0100912A0510912B05A7
:1014300020912C0530912D056C197D098E099F098D
:10144000061717072807390708F076CF8091290576
:101450000E94D308109255051092540510922E0543
:10146000DF91CF911F910F91FF90EF90DF90CF9080
:1014700008959D9191938F5F75CF85EEB0CF809148
:101480002A0590912B05A0912C05B0912D05892B53
:101490008A2B8B2B09F4A9CF0E948B0100912A057E
:1014A00010912B0520912C0530912D056C197D098B
:1014B0008E099F09061717072807390708F095CFE7
:1014C000C5CF90E080E0089590936105809360051A
:1014D00010925F051092090110920801109201010B
:1014E00010920001109229011092280110922101FE
:1014F00010922001109219011092180110921101FE
:101500001092100108950F931F93CF938C01C62F53
:101510000E947A096C2F6460C8010E947A096C2FBE
:101520006B7FC8010E947A0983EC90E00197F1F784
:10153000CF911F910F9108950F931F93CF93DF9336
:101540008C01D62FC42F607F642B0E94830A80E118
:10155000D89FB00111246C2BC801DF91CF911F914E
:101560000F910C94830ACF93DF93CDB7DEB7289702
:101570000FB6F894DEBF0FBECDBF98E0EAE5F1E00C
:10158000DE01119601900D929A95E1F79091DF0698
:10159000981710F48FEF890F90E0880F991F21E0C2
:1015A00030E02C0F3D1F820F931FFC0160816068AB
:1015B00040E087ED96E028960FB6F894DEBF0FBEA8
:1015C000CDBFDF91CF910C949C0A41E00E949C0A10
:1015D00081E090E0089540E061E087ED96E00E94B0
:1015E0009C0A8BE39FE10197F1F708958F929F92F8
:1015F000AF92BF92CF92DF92EF92FF920F931F9321
:10160000CF93DF93EC01F62EAE81BF81FD010190F7
:101610000020E9F731978F010A1B1B0B0E94E201A2
:101620008A809B80AC80BD80681979098A099B09F2
:101630006C32714081059105A0F1680180E1C80E0E
:10164000D11C0E94E2016A837B838C839D838F2D52
:101650000E94B30AF12CE12C888199818E0D9F1D87
:10166000B6010E94691741E060E28017910734F4E7
:10167000EE81FF81E80FF91F41E0608187ED96E080
:101680000E949C0A2FEFE21AF20A80E1E816F104A8
:1016900019F7888199810196B6010E94691799838B
:1016A0008883DF91CF911F910F91FF90EF90DF9092
:1016B000CF90BF90AF909F908F900895FB010190C5
:1016C0000020E9F73197AF01461B570BDC01ED9184
:1016D000FC910280F381E02D0994CF93DF93BC014C
:1016E0008BE695E00E949303EC0166EA71E08BE6DD
:1016F00095E00E945E0B8C0F9D1FDF91CF910895A6
:10170000BC0187ED96E00C945E0BCF93DF93EC0168
:101710000E94EB0A80E00E94B30A89EA91E00E94ED
:10172000800B68EB7BE080E090E00E94B001CE018E
:10173000DF91CF910C94640A0F931F93CF93DF93A3
:10174000EC0188819981009759F02A813B81261705
:10175000370730F081E0DF91CF911F910F9108950D
:101760008B016F5F7F4F0E94FD18009759F099839E
:1017700088831B830A832C813D81232B59F7FC012D
:101780001082E8CF80E0E7CFEF92FF920F931F9394
:10179000CF93DF936115710541F480E0DF91CF9124
:1017A0001F910F91FF90EF90089541155105B1F0F1
:1017B0007B01EC010C811D81040F151FB8010E94F3
:1017C0009C0B882351F3288139818C819D81B7013D
:1017D000820F931F0E94C3191D830C8381E0DECF0B
:1017E000CF93DF9300D0CDB7DEB769831A8241E093
:1017F00050E0BE016F5F7F4F0E94C40B0F900F90AF
:10180000DF91CF910895CF93DF93EC018881998187
:10181000009711F00E947418198218821D821C8290
:101820001B821A82DF91CF910895CF93DF93EC0151
:1018300044E050E06AEB71E00E94C40B811103C0E8
:10184000CE010E94030CCE01DF91CF910895CF937A
:10185000DF93EC01FB0144815581608171810E941D
:10186000C40B811103C0CE010E94030CCE01DF9195
:10187000CF910895EF92FF920F931F93CF93DF9331
:10188000EC017B018A01BA010E949C0B81110BC003
:10189000CE010E94030CCE01DF91CF911F910F91D9
:1018A000FF90EF9008951D830C83B7018881998183
:1018B0000E94C319F0CFFB0101900020E9F7319796
:1018C000AF01461B570B0C943A0CCF93DF93EC01FE
:1018D000FB018617970749F06081718161157105D9
:1018E00041F0448155810E943A0CCE01DF91CF91A5
:1018F00008950E94030CF9CFFC011182108213821B
:10190000128215821482FB0101900020E9F73197C1
:10191000AF01461B570B0C943A0CFC01808191815E
:10192000009711F00C947418089585ED8093BC0015
:1019300080912A0590912B05A0912C05B0912D0541
:101940000796A11DB11D23E0B695A795979587959C
:101950002A95D1F72091BC0024FD03C010922805E0
:10196000089540912A0550912B0560912C057091A6
:101970002D05452B462B472B69F30097A105B10593
:1019800041F02AE22A95F1F700C00197A109B109B7
:10199000E1CF809129050C94D3081F920F920FB6C6
:1019A0000F9211242F933F938F939F93AF93BF93E5
:1019B0008091630590916405A0916505B0916605DD
:1019C0003091620523E0230F2D3758F50196A11DB4
:1019D000B11D209362058093630590936405A093E5
:1019E0006505B09366058091670590916805A091A3
:1019F0006905B0916A050196A11DB11D8093670527
:101A000090936805A0936905B0936A05BF91AF9163
:101A10009F918F913F912F910F900FBE0F901F902C
:101A2000189526E8230F0296A11DB11DD2CF1F9253
:101A30000F920FB60F9211242F933F934F935F9302
:101A40006F937F938F939F93AF93BF93EF93FF9386
:101A50008BE695E00E941F04FF91EF91BF91AF913B
:101A60009F918F917F916F915F914F913F912F91B6
:101A70000F900FBE0F901F9018951F920F920FB6E8
:101A80000F9211242F938F939F93EF93FF93E091E5
:101A90007B05F0917C058081E0918105F0918205C4
:101AA00082FD1BC09081809184058F5F8F73209190
:101AB0008505821741F0E0918405F0E0E559FA4F81
:101AC000958F80938405FF91EF919F918F912F9136
:101AD0000F900FBE0F901F9018958081F4CF1F922A
:101AE0000F920FB60F9211242F933F934F935F9352
:101AF0006F937F938F939F93AF93BF93EF93FF93D6
:101B00008091B900887F803609F44AC0F0F58832A8
:101B100009F4A7C018F5803109F49BC0B8F48823F4
:101B200009F4F9C0883009F494C0FF91EF91BF9196
:101B3000AF919F918F917F916F915F914F913F9165
:101B40002F910F900FBE0F901F901895883109F4B8
:101B500088C0803251F78093260514C0803409F480
:101B60009DC040F48033B9F38833F9F6809326059D
:101B700085ECB0C0803509F485C0883509F496C07D
:101B8000883499F60E94950CD0CF883909F48CC01E
:101B900038F5883729F050F4883611F0803729F667
:101BA00083E0809328051092010557C0883809F416
:101BB0007BC0803919F0803809F0B7CF80910105DA
:101BC000803208F071C0E091010581E08E0F8093B2
:101BD00001058091BB00F0E0EF51FB4F80833DC0D9
:101BE000803B39F0E0F4803A09F479C0883A09F092
:101BF0009CCF84E0809328051092E0041092DF04CB
:101C0000E0915205F091530509958091DF0481110F
:101C10000FC081E08093DF041092BF0409C0803CB4
:101C200009F4A6CF883C09F4A3CF883B09F07DCF07
:101C3000E091E00481E08E0F8093E004F0E0E15455
:101C4000FB4F80818093BB009091E0048091DF0482
:101C500029C0809103058093BB0085EC8093BC0074
:101C600064CF9091250580912405981758F5E0914F
:101C7000250581E08E0F80932505F0E0EC5FFA4F9B
:101C80008081E9CFE091250581E08E0F80932505C5
:101C90008091BB00F0E0EC5FFA4F808390912505C6
:101CA000809124059817C8F285E8D8CFE0912505E2
:101CB00081E08E0F809325058091BB00F0E0EC5F02
:101CC000FA4F80838091270581115CCF81E080935A
:101CD000020584EA8093BC001092280526CF85EC8B
:101CE0008093BC001092280580910105803230F469
:101CF000E0910105F0E0EF51FB4F1082609101058A
:101D000070E0E0915005F091510581EE94E0099565
:101D1000109201050ACF1092260534CF10926E055D
:101D200010926D0588EE93E0A0E0B0E080936F051F
:101D300090937005A0937105B093720526E631E08B
:101D400030936C0520936B0525EC30E030937805DB
:101D50002093770524EC30E030937A0520937905C1
:101D600020EC30E030937C0520937B0521EC30E0C3
:101D700030937E0520937D0522EC30E03093800582
:101D800020937F0526EC30E0309382052093810577
:101D90001092840510928505109286051092870591
:101DA00010920B0610920A0680930C0690930D0673
:101DB000A0930E06B0930F0688E791E09093090672
:101DC000809308061092DA061092D9068EE991E007
:101DD0009093D8068093D70687E28093DB0680E154
:101DE0008093E00682E08093E1061092E20684E9A7
:101DF00091E09093C8068093C7068AE08093D50649
:101E000089E08093D6068AEA8093B3068BEB8093B1
:101E1000B4068CEC8093B5068DED8093B6066FEB1F
:101E200071E087EB96E00E947C0C81E18093BD0617
:101E300082E28093BE0683E38093BF0684E48093AE
:101E4000C00668EC71E081EC96E00E947C0C109278
:101E5000460610924A061092490610924B068AE8EE
:101E600091E09093450680934406E0E6F6E0108208
:101E7000148213821582369686E0EC39F807B9F79A
:101E800080E491E09093A7068093A6068CE391E00E
:101E90009093A9068093A80684E08093AA06809375
:101EA000AB0684E491E09093A5068093A4068AE0B3
:101EB00090E09093AD068093AC0684EF91E0909310
:101EC000AF068093AE061092B2061092B106109241
:101ED000A0061092A1061092A2061092A3061092DC
:101EE000B00668EA71E08EE396E00E947C0C6EEC2E
:101EF00071E088E396E00E947C0C68EA71E082E37E
:101F000096E00E947C0C65E772E08CE296E00E940D
:101F10007C0C68EA71E086E296E00E947C0C68EA3C
:101F200071E080E296E00E947C0C68EA71E08AE150
:101F300096E00E947C0C68EA71E084E196E00C94E3
:101F40007C0CCF93DF93CDB7DEB7A7970FB6F8948D
:101F5000DEBF0FBECDBF789484B5826084BD84B5EA
:101F6000816084BD85B5826085BD85B5816085BD94
:101F700080916E00816080936E001092810080914C
:101F800081008260809381008091810081608093D4
:101F90008100809180008160809380008091B100F9
:101FA00084608093B1008091B00081608093B00024
:101FB00080917A00846080937A0080917A008260B8
:101FC00080937A0080917A00816080937A0080917A
:101FD0007A00806880937A001092C100E0917B05BE
:101FE000F0917C0582E08083E0917705F09178059F
:101FF0001082E0917905F0917A0580E1808310925A
:102000008305E0917F05F091800586E08083E09173
:102010007D05F0917E05808180618083E0917D0562
:10202000F0917E05808188608083E0917D05F0914C
:102030007E05808180688083E0917D05F0917E053A
:1020400080818F7D808310925705109256051092E3
:102050005505109254050E94B50881E993E09093CC
:1020600053058093520582E993E090935105809344
:1020700050051092DC068091E106823018F098E05D
:102080009093DC068093DF0662E370E080E090E0EE
:102090000E94B0016091E20687ED96E00E947A0905
:1020A00068EE73E080E090E00E94B00160E387EDAD
:1020B00096E00E94830A0BE416E4C8010197F1F749
:1020C00060E387ED96E00E94830AC8010197F1F76B
:1020D00060E387ED96E00E94830A83E592E0019732
:1020E000F1F760E287ED96E00E94830A6091DC06DA
:1020F000606240E087ED96E00E949C0A84E0809355
:10210000DD0640E06CE087ED96E00E949C0A0E94AC
:10211000EB0A82E08093DE0640E066E087ED96E021
:102120000E949C0A40E062E087ED96E00E949C0AD3
:102130008BE39FE10197F1F788E08093E20660E08E
:1021400087ED96E00E947A090E94EB0A1FB7F89487
:1021500080915805811127C0E0E9F0E08491E4EA1C
:10216000F0E09491E82FF0E0EE0FFF1FE859FF4FE9
:10217000A591B491EC91E92321F461E08AE00E94F9
:10218000190161E08AE00E944B018CB580618CBD31
:102190008CB580648CBD61E08DE00E944B0161E0F4
:1021A0008BE00E944B01809158058F5F809358050A
:1021B0001FBF61E08091D5060E944B0161E08091D4
:1021C000D5060E9419018091D6068F3F09F4A7C059
:1021D00060E00E944B018091D6060E94ED00892BA1
:1021E00009F09DC061E08091D6060E944B0160E03D
:1021F0008091D6060E94190183E090E00197F1F7E3
:1022000061E08091D6060E94190162E370E080E0EF
:1022100090E00E94B00140E064E287EC96E00E940A
:10222000130540E066E287EC96E00E94130546E263
:1022300068E487EC96E00E94130540E864E587ECCB
:1022400096E00E94130549EA66E587EC96E00E9455
:10225000130543E068E587EC96E00E94130548EE1D
:102260006AE587EC96E00E94130540E46AE287EC99
:1022700096E00E9413054DE362E287EC96E00E942F
:10228000130568E287EC96E00E94F504982F93709E
:10229000933039F0482F436068E287EC96E00E9463
:1022A000130562E08FE00E944B0162E080E10E9432
:1022B0004B0161ED71E08BE695E00E945E0B66EAF2
:1022C00071E08BE695E00E945E0B2AE0822E912C55
:1022D000A12CB12C83E0682E712C02E010E0EE24DA
:1022E000E394F12CE0916005F0916105E131F10595
:1022F00008F01CC5E258FE4E0C94BE17A611CA1178
:10230000FD11EC126112B414F41493135D14F31361
:102310002814CC126115961696169616BB154FE02A
:1023200062E087EC96E00E94130513E062E370E040
:1023300080E090E00E94B00162E087EC96E00E94AD
:10234000F50484FF68CF115089F765CF10925A05C4
:102350001092590580915F0581110CC00E94EB0A13
:1023600080E00E94B30A82EE91E00E94800B81E03F
:1023700080935F0561E070E080E091E00E94F60AE2
:102380000E944A02813309F060C081E090E00E941F
:10239000640A5BC010925A051092590580915F053E
:1023A00081110CC00E94EB0A80E00E94B30A8DEEFE
:1023B00091E00E94800B81E080935F0561E070E016
:1023C00088E091E00E94F60A0E944A02823429F4D1
:1023D0008091590590915A05DACF813339F41092E2
:1023E0005E0510925D0582E090E0D1CF823369F501
:1023F000F0925E05E0925D05F6CFF0925A05E0920C
:10240000590580915F0581110CC00E94EB0A80E0A4
:102410000E94B30A8DEF91E00E94800B81E08093CF
:102420005F050E944A02D82E82E4D81206C080912D
:10243000590590915A050E94640A80915D0590911A
:102440005E05009779F0019779F180E090E0892BA3
:1024500009F448CF0E940B04882309F43BCF0E9463
:10246000000038CF61E070E088E191E00E94F60A58
:1024700091E3D91207C010925C0510925B0583E0CE
:1024800090E085CFE2E3DE1205C0F0925C05E092B9
:102490005B05F5CFF3E3DF12D8CF10935C05009313
:1024A0005B0584E090E073CF61E070E080E191E053
:1024B0000E94F60A81E3D816F1F292E3D912C5CF51
:1024C000E4CF10935A050093590580915F0581115F
:1024D00012C068EA71E08AE196E00E945B0C0E94FB
:1024E000EB0A80E00E94B30A8CE092E00E94800B2D
:1024F00081E080935F050E944A02D82E80ED8D0D09
:102500008A30C8F46D2D8AE196E00E94F00B81E0DC
:102510000E94B30A8CE192E00E94800B81E00E944D
:10252000B30A6AE176E087ED96E00E94930382E4C5
:10253000D8128BCF4DCFE4E468EA71E08AE196E0EF
:10254000DE1609F431C1F3E2DF12F1CF8AE196E041
:102550000E948D00882329F084E090E00E94850B82
:1025600074CF6AE176E080E296E00E94650C6DE24D
:1025700072E0CE0101960E947C0C60E276E0CE0112
:1025800001960E94270C0E946D0BCE0101960E94BD
:102590008D0C8BE090E0FBCE80915F05811115C022
:1025A0000E94EB0A80E00E94B30A8BE392E00E9453
:1025B000800B81E00E94B30A60E276E087ED96E04E
:1025C0000E94930381E080935F0568EE73E080E0F2
:1025D00090E00E94B00153CF10935A050093590523
:1025E00080915F05811118C0C0905D05D0905E0597
:1025F0000E94EB0A80E00E94B30A87E492E0C114D3
:10260000D10429F0CA94CD2821F488E592E00E94F3
:10261000800B81E080935F0580915D0590915E0560
:10262000009781F461E070E088E291E00E94F60A90
:102630000E944A029FEC980F943058F0823409F0BF
:1026400004CFC6CE0197A1F761E070E080E291E08F
:10265000EDCF20915D0530915E058333F1F1843338
:1026600009F450C0823371F4F0923901E0923801DC
:102670002115310511F568E672E088E396E00E94C5
:102680005B0C18C010923901109238016EEC71E0A9
:102690002115310591F32130310561F465E772E0D0
:1026A0008CE296E00E945B0C8CE291E090933B01FF
:1026B00080933A018CE090E06ACE21303105D1F769
:1026C0006BE672E08CE296E00E945B0CE4E8F3E0DB
:1026D000F0933B01E0933A01EDCF10933901009361
:1026E000380160E772E02115310539F221303105FA
:1026F00009F764E772E08CE296E00E945B0C88E0E8
:1027000097E0D4CF709239016092380187E090E071
:102710002115310509F43BCE88E090E021303105E8
:1027200009F093CE34CE70925A056092590580918B
:102730005F05811112C068EA71E082E396E00E94B1
:102740005B0C0E94EB0A80E00E94B30A87E492E0EF
:102750000E94800B81E080935F050E944A02D82E80
:1027600080ED8D0D8A30C8F46D2D82E396E00E94D5
:10277000F00B81E00E94B30A8CE192E00E94800B92
:1027800081E00E94B30A62E376E087ED96E00E9462
:102790009303F2E4DF1259CE1BCE94E4D9120EC09B
:1027A00068EA71E082E396E00E945B0C81E00E949F
:1027B000B30A8CE192E00E94800B47CEE3E2DE1286
:1027C000E8CF82E396E00E948D00882319F087E02D
:1027D00090E0C4CE62E376E088E396E00E94650C68
:1027E00089E090E0D4CD80915F05811128C00E94DE
:1027F000EB0A80E00E94B30A89E792E00E94800B16
:1028000081E00E94B30A1A8219821C821B821E82F6
:102810001D8268E376E0CE0101960E94650CCE0130
:1028200001960E94150CBC0187ED96E00E9493036F
:10283000CE0101960E948D0C81E080935F0568EEC9
:1028400073E080E090E00E94B00180E190E09FCDD5
:1028500080915F05811128C00E94EB0A80E00E94F0
:10286000B30A88E892E00E94800B81E00E94B30ADC
:102870001A8219821C821B821E821D826CE276E003
:10288000CE0101960E94650CCE0101960E94150CA6
:10289000BC0187ED96E00E949303CE0101960E9451
:1028A0008D0C81E080935F0568EE73E080E090E03E
:1028B0000E94B00185E090E06ACD70925A05609266
:1028C000590580915F05811112C068EA71E086E2C6
:1028D00096E00E945B0C0E94EB0A80E00E94B30A23
:1028E00088E892E00E94800B81E080935F050E945F
:1028F0004A02D82E80ED8D0D8A30C8F46D2D86E207
:1029000096E00E94F00B81E00E94B30A8CE192E015
:102910000E94800B81E00E94B30A66E276E087EDB8
:1029200096E00E949303E2E4DE128FCD51CD84E461
:10293000D81205C068EA71E086E296E035CF93E2EE
:10294000D912F1CF86E296E00E948D00882319F01B
:1029500088E090E003CE66E276E08CE296E00E94AA
:10296000650C8AE090E013CD88E090E090935A05E2
:102970008093590580915F0581110CC00E94EB0A7C
:1029800081E00E94B30A85E992E00E94800B81E019
:1029900080935F0580E00E94B30A70E060E080E30E
:1029A00091E00E94F60A0E944A02813319F486E0FF
:1029B00090E0EDCC823309F041CE80912C069091CD
:1029C0002D06009769F00E94C11622E030E040E039
:1029D00050E00E949F1730933B0120933A0135CF7E
:1029E00060E070E0CB01F1CFE5E0F0E0F0935A0554
:1029F000E093590580915F05811112C068EA71E08A
:102A000084E196E00E945B0C0E94EB0A80E00E9449
:102A1000B30A85EA92E00E94800B81E080935F0513
:102A20000E944A02D82E80ED8D0D8A30C8F46D2D9B
:102A300084E196E00E94F00B81E00E94B30A8CE1F1
:102A400092E00E94800B81E00E94B30A64E176E08C
:102A500087ED96E00E94930392E4D912F6CCB8CCAD
:102A6000F4E4DF1205C068EA71E084E196E09CCEF0
:102A700083E2D812F1CF84E196E00E948D00882392
:102A800019F086E090E06ACD8091140690911506C9
:102A9000009799F00E94C11670933B0160933A0130
:102AA0006C547D4F8BE695E00E945E0B66EA71E008
:102AB0008BE695E00E945E0BFDCD60E070E0CB01FF
:102AC000EBCF80915F058111BACE0E94EB0A80E0C6
:102AD0000E94B30A88EC92E00E94800B81E00E9481
:102AE000B30A20903A0130903B01032C000C4408BB
:102AF000550857FE2AC041E06DE287ED96E00E943E
:102B00009C0A22273327A9012219330944095509B0
:102B100019A2FE01B1966F01CA01B901A501940184
:102B20000E947D17605DF60162936F0121153105EA
:102B30004105510589F7C114D10409F47DCEB601D0
:102B400087ED96E00E945E0B77CEA201910119A25B
:102B5000CE0181966C01CA01B901A50194010E94C0
:102B60007D17605DF60162936F0121153105410506
:102B7000510589F7E0CF80915F05811166CC809186
:102B80005D0590915E05009709F468C0019709F40E
:102B90006CC0CE0101960E946D0BCE0101960E9481
:102BA0008D0C80915B0590915C058130910509F455
:102BB00066C008F45DC0029709F464C0CE010196B6
:102BC0000E946D0BCE0101960E948D0C8091380100
:102BD000909139018130910509F45EC008F455C027
:102BE0008230910509F45BC0039709F45BC0CE0104
:102BF00001960E946D0BCE0101960E948D0C809172
:102C00005D0590915E05892B09F04FC06DE073E082
:102C1000CE0101960E947C0C68E376E0CE0101961D
:102C20000E94270C0E946D0BCE0101960E948D0C14
:102C30006AE173E0CE0101960E947C0C60E276E0CE
:102C4000CE0101960E94270C0E946D0BCE010196C9
:102C50000E948D0C81E080935F05F7CB67ED72E0F9
:102C6000CE0101960E947C0C94CF60E773E0F8CF10
:102C700061EE72E0CE0101960E947C0C9FCF6BE862
:102C800073E0F8CF60EB73E0F5CF67EE72E0CE0152
:102C900001960E947C0CABCF6BEE72E0F8CF62EF36
:102CA00072E0F5CF6FEF72E0F2CF62E273E0CE0137
:102CB00001960E947C0C6CE276E0CE0101960E94A7
:102CC000270C0E946D0BCE0101960E948D0C809105
:102CD0003A0190913B011BA21AA21DA21CA21FA2A5
:102CE0001EA24AE0BE016F5F7F4F0E94E816BE0140
:102CF0006F5F7F4FCE0182960E945B0C6FE273E0A4
:102D0000CE0101960E947C0CBE016E5D7F4FCE010C
:102D100001960E94270C0E946D0BCE0101960E9425
:102D20008D0CCE0182960E948D0C94CF90E080E0B5
:102D30002ECB84E196E00E948D0C8AE196E00E9401
:102D40008D0C80E296E00E948D0C86E296E00E9457
:102D50008D0C8CE296E00E948D0C82E396E00E943E
:102D60008D0C88E396E00E948D0C8EE396E00E9425
:102D70008D0C81EC96E00E948D0C87EB96E00C9414
:102D80008D0C1F93FC0199278827BC01E8941191B1
:102D90001032E9F3193010F01E30C8F31B3251F035
:102DA0001D3249F4689406C00E94F316610F711D2C
:102DB000811D911D119110531A30B0F33EF490957E
:102DC0008095709561957F4F8F4F9F4F1F9108950C
:102DD000BB274A3031F4992322F4BDE290958195C6
:102DE0009F4F0C940917592F482F372F262F660F06
:102DF000771F881F991F660F771F881F991F620F03
:102E0000731F841F951F660F771F881F991F0895D2
:102E1000BB27FB015527AA27880F991FAA1FA417B4
:102E200010F0A41B83955051B9F7A05DAA3308F0A8
:102E3000A95DA193009779F7B111B1931192CB01DC
:102E40000C942217DC01FC01672F71917723E1F7C5
:102E5000329704C07C916D9370836291AE17BF0767
:102E6000C8F308952F923F924F925F926F927F9294
:102E70008F929F92AF92BF92CF92DF92EF92FF928A
:102E80000F931F93CF93DF93CDB7DEB7CA1BDB0B36
:102E90000FB6F894DEBF0FBECDBF09942A883988DB
:102EA00048885F846E847D848C849B84AA84B984E2
:102EB000C884DF80EE80FD800C811B81AA81B981EE
:102EC000CE0FD11D0FB6F894DEBF0FBECDBFED0102
:102ED000089597FB072E16F4009407D077FD09D0CC
:102EE0000E94C41707FC05D03EF4909581959F4F32
:102EF0000895709561957F4F0895A1E21A2EAA1B3F
:102F0000BB1BFD010DC0AA1FBB1FEE1FFF1FA21799
:102F1000B307E407F50720F0A21BB30BE40BF50B96
:102F2000661F771F881F991F1A9469F7609570951F
:102F3000809590959B01AC01BD01CF010895052EB0
:102F400097FB1EF400940E94B61757FD07D00E940D
:102F50007D1707FC03D04EF40C94B617509540959E
:102F6000309521953F4F4F4F5F4F08959095809535
:102F7000709561957F4F8F4F9F4F0895EE0FFF1F04
:102F80000590F491E02D0994AA1BBB1B51E107C0E9
:102F9000AA1FBB1FA617B70710F0A61BB70B881FE9
:102FA000991F5A95A9F780959095BC01CD01089578
:102FB0000F931F93CF93DF938230910510F482E03B
:102FC00090E0E091E506F091E60630E020E0B0E028
:102FD000A0E0309799F42115310509F44AC0281B67
:102FE000390B24303105D8F58A819B816115710533
:102FF00089F1FB0193838283FE0111C040815181DD
:103000000281138148175907E0F04817590799F4CE
:10301000109761F012960C93129713961C933296A8
:10302000CF01DF91CF911F910F9108950093E50695
:103030001093E606F4CF2115310551F042175307DE
:1030400038F0A901DB019A01BD01DF01F801C1CF10
:10305000EF01F9CF9093E6068093E506CDCFFE0110
:10306000E20FF31F81939193225031093983288312
:10307000D7CF2091E3063091E406232B41F4209131
:103080005601309157013093E4062093E3062091D6
:103090005401309155012115310541F42DB73EB74A
:1030A0004091580150915901241B350BE091E306E2
:1030B000F091E406E217F307A0F42E1B3F0B28174C
:1030C000390778F0AC014E5F5F4F2417350748F0A1
:1030D0004E0F5F1F5093E4064093E3068193919354
:1030E0009FCFF0E0E0E09CCFCF93DF930097E9F033
:1030F000FC01329713821282A091E506B091E60698
:10310000ED0130E020E01097A1F420813181820FA1
:10311000931F2091E3063091E4062817390709F040
:1031200061C0F093E406E093E306DF91CF91089548
:10313000EA01CE17DF07E8F54A815B819E01411560
:103140005105B1F7E901FB83EA8349915991C40F15
:10315000D51FEC17FD0761F4808191810296840FE1
:10316000951FE90199838883828193819B838A8358
:10317000F0E0E0E012968D919C9113970097B9F5DD
:103180002D913C911197CD010296820F931F2091B2
:10319000E3063091E4062817390739F6309751F5E0
:1031A0001092E6061092E506B093E406A093E306BB
:1031B000BCCFD383C28340815181840F951FC81730
:1031C000D90761F44E5F5F4F88819981480F591F7D
:1031D000518340838A819B819383828321153105AA
:1031E00009F0B0CFF093E606E093E5069ECFFD012F
:1031F000DC01C0CF13821282D7CFB0E0A0E0E3E0C1
:10320000F9E10C9434178C01009751F4CB010E9422
:10321000D8178C01C801CDB7DEB7E0E10C94501788
:10322000FC01E60FF71F9C0122503109E217F3075A
:1032300008F49DC0D901CD91DC911197C617D7072D
:1032400098F0C530D10530F3CE0104978617970763
:1032500008F3C61BD70B2297C193D1936D937C9330
:10326000CF010E947418D6CF5B01AC1ABD0A4C0185
:103270008C0E9D1EA091E506B091E606512C412CC6
:10328000F12CE12C109731F58091E3069091E40642
:103290008815990509F05CC04616570608F058C015
:1032A0008091540190915501009741F48DB79EB7DC
:1032B0004091580150915901841B950BE817F9076B
:1032C00008F055C0F093E406E093E306F90171833A
:1032D0006083A0CF8D919C91119712966C9012975C
:1032E00013967C901397A815B90559F56C0142E027
:1032F000C40ED11CCA14DB0420F1AC014A195B09CD
:10330000DA011296159780F06282738251834083AE
:10331000D9016D937C93E114F10471F0D7011396F8
:10332000FC93EE93129776CF22968C0F9D1FF90196
:1033300091838083F301EFCFF093E606E093E506F7
:1033400069CF4816590608F42C017D01D3019ACFA4
:10335000CB010E94D8177C01009749F0AE01B8015B
:103360000E94BA19C8010E947418870153CF10E057
:1033700000E050CFFB01DC0102C001900D924150F2
:103380005040D8F70895FB01DC0101900D92002018
:10339000E1F7089510E0C2E6D0E004C0FE010E940B
:1033A000BE172196C336D107C9F7F894FFCF0000A6
:1033B000000000003A030000000000005B03000072
:1033C000000000007A0300000000000092030000EB
:1033D00000000000B6030000000000000B04000025
:1033E000000000005E0401002C010607080E020325
:1033F00004053132334134353642373839432A30C7
:1034000023440000E7068000000040001400540040
:10341000000000004104A103CE038E04FF03DD037E
:10342000F103000000004B091E09610AF4081709A6
:103430000409F5080000000087014701160100009B
:1034400000000707A406AE0400000000E50AA1037F
:10345000610A8D080D0A0044696769746520756DFD
:103460002076616C6F7221007365672E005665725D
:103470006D656C686F005665726465003530005389
:10348000697374656D6120696E69636961646F0059
:1034900042656D2D56696E646F21004573636F6CD4
:1034A0006861206F206D6F646F3A004D6F646F200C
:1034B00064652061726D61723A00446566696E618F
:1034C00020612073656E68613A0020202020202052
:1034D000202020202020202020200053454E48413D
:1034E0002053414C56413A200053656E6861207369
:1034F000616C76610054656D706F2061706F732030
:1035000061726D6172004C696D697465206465203B
:1035100074656D706F0039300031383030003236EC
:103520003000333630300054656D706F2065787030
:103530006C6F73616F0054656D706F206C696D699D
:1035400074650028312953696D202D202832294EB9
:10355000616F004465662E206D61782E2070747353
:103560002E004C494D2E20504F4E544F5320534166
:103570004C564F3A20004D61782E20646520706FC4
:103580006E746F73005361626F746167656D0042A2
:103590006F74616F004351420050414452414F00EB
:1035A00043414D504F2041424552544F00504552E7
:1035B000534F4E414C495A4144410054656D706F20
:1035C000204578702E3A200053656E68613A2000DD
:1035D00054656D706F204C696D2E3A20004D6178F6
:1035E000205074732E3A200020283129204E6F7607
:1035F0006F204A6F676F202D2028322920556C7468
:10360000696D6F204A6F676F002028312920536150
:10361000626F746167656D202D2028322920446F08
:103620006D696E6163616F002028312920426F74DB
:10363000616F202D202832292043617274616F0050
:103640002028312920426F74616F202D20283229D3
:103650002043617274616F202D2028332920536527
:103660006E68610020283129204351423A203130D0
:103670006D696E2E202D20283229205061647261E0
:103680006F3A2033306D696E2E202D20283329208B
:1036900043616D706F2041626572746F3A203630FD
:1036A0006D696E2E202D2028342920506572736F8D
:1036B0006E616C697A616461002028312920435170
:1036C000423A203530732E202D2028322920506197
:1036D0006472616F3A20316D3330732E202D2028B3
:1036E00033292043616D706F2041626572746F3AB7
:1036F00020346D3230732E202D202834292050653F
:1037000072736F6E616C697A6164610020446573E5
:10371000656A6120706572736F6E616C697A61723F
:10372000206F206D61782E20646520706F6E746F3D
:10373000733F202850414452414F203D202854657A
:0C3740006D706F204C696D2E2F32290037
:107E0000112484B714BE81FFF0D085E080938100F7
:107E100082E08093C00088E18093C10086E0809377
:107E2000C20080E18093C4008EE0C9D0259A86E02C
:107E300020E33CEF91E0309385002093840096BBD3
:107E4000B09BFECF1D9AA8958150A9F7CC24DD24C4
:107E500088248394B5E0AB2EA1E19A2EF3E0BF2EE7
:107E6000A2D0813461F49FD0082FAFD0023811F036
:107E7000013811F484E001C083E08DD089C08234E0
:107E800011F484E103C0853419F485E0A6D080C0E4
:107E9000853579F488D0E82EFF2485D0082F10E0AE
:107EA000102F00270E291F29000F111F8ED06801E7
:107EB0006FC0863521F484E090D080E0DECF843638
:107EC00009F040C070D06FD0082F6DD080E0C81688
:107ED00080E7D80618F4F601B7BEE895C0E0D1E017
:107EE00062D089930C17E1F7F0E0CF16F0E7DF06D8
:107EF00018F0F601B7BEE89568D007B600FCFDCFD4
:107F0000A601A0E0B1E02C9130E011968C91119780
:107F100090E0982F8827822B932B1296FA010C0160
:107F200087BEE89511244E5F5F4FF1E0A038BF0790
:107F300051F7F601A7BEE89507B600FCFDCF97BE46
:107F4000E89526C08437B1F42ED02DD0F82E2BD052
:107F50003CD0F601EF2C8F010F5F1F4F84911BD097
:107F6000EA94F801C1F70894C11CD11CFA94CF0C13
:107F7000D11C0EC0853739F428D08EE10CD085E9AC
:107F80000AD08FE07ACF813511F488E018D01DD067
:107F900080E101D065CF982F8091C00085FFFCCF94
:107FA0009093C60008958091C00087FFFCCF809118
:107FB000C00084FD01C0A8958091C6000895E0E648
:107FC000F0E098E1908380830895EDDF803219F02E
:107FD00088E0F5DFFFCF84E1DECF1F93182FE3DFCA
:107FE0001150E9F7F2DF1F91089580E0E8DFEE27F6
:047FF000FF270994CA
:027FFE00040479
:00000001FF
