:100000000C9422030C944A030C944A030C944A0364
:100010000C944A030C944A030C944A030C944A032C
:100020000C944A030C944A030C944A030C944A031C
:100030000C944A030C944A030C944A030C944A030C
:100040000C9439160C944A030C94A9160C9483163C
:100050000C944A030C944A030C944A030C944A03EC
:100060000C94DB160C944A03446967697465207527
:100070006D2076616C6F7221004552524F00202036
:100080002020202020202020202020202020002090
:100090002020202020202020202020202020200080
:1000A00023004A6F676F2073616C766F206E61204A
:1000B000454550524F4D2100566F6C74617200439C
:1000C0006F6E6669726D613F00496E696369617246
:1000D00000436F6E6669726D613F00732E00546558
:1000E0006D706F3A2000436F6E6669726D613F00FC
:1000F00041726D61723A2000436F6E6669726D6184
:100100003F004A6F676F3A2000436F6E6669726DF9
:10011000613F00566F6C74617200436F6E66697266
:100120006D613F00496E696369617200436F6E667D
:1001300069726D613F00732E004C696D2E3A20008C
:10014000436F6E6669726D613F0053656E68613A18
:100150002000436F6E6669726D613F0041726D6190
:10016000723A2000436F6E6669726D613F004A6F9C
:10017000676F3A2000436F6E6669726D613F004E93
:10018000616F00436F6E6669726D613F0053696D08
:1001900000436F6E6669726D613F007074732E006C
:1001A0004C696D2E3A2000436F6E6669726D613F37
:1001B00000732E0054656D706F3A2000436F6E66B9
:1001C00069726D613F0041726D61723A2000436F48
:1001D0006E6669726D613F004A6F676F3A20004337
:1001E0006F6E6669726D613F005245494E494349E1
:1001F000414E444F2E2E2E0046494E414C20444540
:10020000204A4F474F2100444F4D494E414E444FE5
:10021000204120415245410053697374656D61204E
:10022000696E69636961646F00556C74696D6F20F4
:100230006A6F676F2063617272656761646F210026
:1002400020202000202D20506F6E746F733A200004
:100250007365672E00202D2054656D706F3A200065
:10026000202D2053656E68613A20007365672E006B
:10027000202D2054656D706F3A2000202D2044758C
:10028000722E3A2000202D2041726D61723A2000BA
:10029000204A6F676F3A200053414C564F20414926
:1002A0004E444121004E454E48554D204A4F474F40
:1002B00000556C74696D6F204A6F676F0042656D01
:1002C0002D56696E646F21004E6F766F204A6F67FE
:1002D0006F0042656D2D56696E646F2100566F6C1C
:1002E000746172004573636F6C6861206F206D6F7D
:1002F000646F3A00446F6D696E6163616F004573AE
:10030000636F6C6861206F206D6F646F3A0053619A
:10031000626F746167656D004573636F6C6861201F
:100320006F206D6F646F3A00566F6C746172004D90
:100330006F646F2064652061726D61723A00436181
:100340007274616F004D6F646F2064652061726D1F
:1003500061723A00426F74616F004D6F646F206488
:10036000652061726D61723A0053656E6861004D7F
:100370006F646F2064652061726D61723A002020A5
:100380002020202020202020202020202020004469
:100390006566696E6120612073656E68613A00531D
:1003A000656E68612073616C76613A00566F6C749B
:1003B0006172004475726163616F3A0050657273D7
:1003C0006F6E616C697A2E004475726163616F3A79
:1003D000004D696C73696D3A2036306D2E004D69A1
:1003E0006C73696D3A20323630732E004475726139
:1003F00063616F3A0050616472616F3A2033306D0F
:100400002E0050616472616F3A203930732E0044BF
:1004100075726163616F3A004351423A2031306D29
:100420002E004351423A203530732E0044757261DC
:1004300063616F3A002020202020202020202020EF
:1004400020202020200020202020202020202020CC
:10045000202020202020004465662E2074656D70C9
:100460006F206578702E3A007365672E0054656DB5
:10047000706F206578706C6F73616F3A0073656799
:100480002E0054656D706F206C696D6974653A005B
:10049000202020202020202020202020202020205C
:1004A000002020202020202020202020202020206C
:1004B00020004465662E2054656D706F206C696D58
:1004C0002E3A004E616F00506572732E206D617878
:1004D0002E207074732E0053696D00506572732E58
:1004E000206D61782E207074732E00202020202033
:1004F000202020202020202020202000202020201C
:10050000202020202020202020202020004465665C
:100510002E206D61782E207074732E3A004D617814
:100520002E20646520706F6E746F733A0053454ED1
:1005300048412045525241444100202020202020A3
:10054000202020202020202020200041524D452026
:100550004120424F4D424100424F4D4241204152C5
:100560004D4144410041524D414E444F2020424FA5
:100570004D4241002000424F4D42412041524D41E9
:100580004441002000444F4D494E452041204152F6
:1005900045412100202020002020200045512E2010
:1005A000323A200045512E20313A20005245494E22
:1005B000494349414E444F2E2E2E00205054532E75
:1005C00000434F4D200056454E43452041204551A4
:1005D00055495045200021212120454D5041544589
:1005E000202121210000000000240027002A000013
:1005F000000000250028002B00000000002300263A
:100600000029000404040404040404020202020297
:1006100002030303030303010204081020408001C6
:100620000204081020010204081020000000080045
:1006300002010000030407000000000000000000A9
:10064000FA17A32A11241FBECFEFD8E0DEBFCDBF1B
:1006500025E0AEEAB2E001C01D92AF31B207E1F78A
:1006600012E0A0E0B1E0E6E7F4E602C005900D92EA
:10067000AE3AB107D9F713E0C1E2D3E004C0219745
:10068000FE010E945C2DC032D107C9F70E941319E8
:100690000C942E320C940000CF93DF9362E075E04F
:1006A000EBEEF4E0DF019B0190E0AD014B5E5440C6
:1006B00048175907BCF4E90159919E014D9154170F
:1006C000A1F385519B4F8E179F0779F0DB013D9178
:1006D000BD01319621853217B1F38FEF9FEFDF9186
:1006E000CF91089590E080E0FACF81E090E0F7CFDD
:1006F00096E0899FD0011124A458BB4F90967C931B
:100700006E935F9791E091969C939197E091E904A5
:10071000F091EA049091E804992339F0309751F070
:10072000811108C0809198040994309719F05C9663
:100730008C91FACF08958CBD9DBD0895833081F0D2
:1007400028F4813099F08230A9F008958730A9F01B
:100750008830C9F08430B1F4809180008F7D03C06F
:10076000809180008F7780938000089584B58F7783
:1007700084BD089584B58F7DFBCF8091B0008F77C5
:100780008093B00008958091B0008F7DF9CFCF9312
:10079000DF93282F30E0F901E55DF94F8491F901ED
:1007A000E95EF94FD491F901ED5FF94FC491CC2383
:1007B000A1F081110E949E03EC2FF0E0EE0FFF1FCD
:1007C000E750FA4FA591B491EC91ED2381E090E0D0
:1007D00009F480E0DF91CF91089580E090E0FACFB6
:1007E000862F0C94C7031F93CF93DF93282F30E0FD
:1007F000F901E55DF94F8491F901E95EF94FD49172
:10080000F901ED5FF94FC491CC23A9F0162F8111A6
:100810000E949E03EC2FF0E0EE0FFF1FE151FA4F14
:10082000A591B4918FB7F894EC91111108C0D095AF
:10083000DE23DC938FBFDF91CF911F910895DE2BD4
:10084000F8CF862F642F0C94F303CF93DF9390E0BF
:10085000FC01E95EF94F24918D5F994FFC01849171
:100860008823C9F090E0880F991FFC01EB51FA4FE3
:10087000A591B491FC01E151FA4FC591D491611158
:100880000DC09FB7F8948C91209582238C9388811A
:10089000282328839FBFDF91CF910895623051F4C0
:1008A0009FB7F8943C91822F809583238C93E881A5
:1008B0002E2BEFCF8FB7F894EC912E2B2C938FBF6C
:1008C000EACF862F642F0C9425043FB7F8948091CB
:1008D000990390919A03A0919B03B0919C0326B534
:1008E000A89B05C02F3F19F00196A11DB11D3FBF68
:1008F000BA2FA92F982F8827BC01CD01620F711D37
:10090000811D911D42E0660F771F881F991F4A9530
:10091000D1F708958F929F92AF92BF92CF92DF92BC
:10092000EF92FF924B015C010E9465046B017C0118
:100930000E9465046C197D098E099F09683E734009
:1009400081059105A8F321E0821A9108A108B10858
:1009500088EEC80E83E0D81EE11CF11C81149104BE
:10096000A104B10429F7FF90EF90DF90CF90BF90E2
:10097000AF909F908F9008952FB7F8946091950352
:100980007091960380919703909198032FBF0895DB
:100990000F931F93CF93DF93C82FD62F86E0C89F66
:1009A000F0011124E458FB4F11A2878D90A18130F2
:1009B0009105F1F058F082309105F1F1039709F4B7
:1009C00040C0DF91CF911F910F9108956623C9F325
:1009D00061E070E08C2F0E9478030E94BC04609359
:1009E000D4047093D5048093D6049093D704E9CFB0
:1009F0000E94BC040091D4041091D5042091D60427
:100A00003091D704AB01BC01401B510B620B730B3F
:100A10008091E6049091E704B0E0A0E08417950788
:100A2000A607B70748F462E070E08C2FDF91CF9102
:100A30001F910F910C94780363E070E0D111C1CF46
:100A4000F4CF70E060E0F1CF6F927F928F929F922F
:100A5000AF92BF92CF92DF92EF92FF920F931F93CC
:100A6000CF93DF930E94BC040091D8041091D90465
:100A70002091DA043091DB04AB01BC01401B510B27
:100A8000620B730B8091E4049091E504B0E0A0E068
:100A900010E084179507A607B70708F0F7C0C0E075
:100AA0008091E204C81760F4E091DE04F091DF0465
:100AB000EC0FF11D62E080810E942504CF5FF0CF32
:100AC000712C812C912C540183948091E30478162D
:100AD00008F05FC0072D10E0E091E004F091E10420
:100AE000E00FF11F61E080810E942504E091E004A5
:100AF000F091E104E00FF11F60E080810E94F303B8
:100B0000D501C401072C04C0880F991FAA1FBB1F61
:100B10000A94D2F76C017C01E094F094612C8091EE
:100B2000E2046816F8F4C62DD0E0E091DE04F091FE
:100B3000DF04EC0FFD1F80810E94C7032496CC0FB9
:100B4000DD1FC458DB4F892B41F4888199818C29A2
:100B50009D29998388836394E2CF888199818E212E
:100B60009F21F7CFE091E004F091E104E00FF11F45
:100B700061E080810E94F3038091E0049091E104A0
:100B8000080F191F60E0F80180810E94250473940A
:100B90009CCFCCE7D4E0FE018FEF9FEF278D30A1F3
:100BA000232B21F4148E968F858F11A2369624E084
:100BB000E83BF20799F7F12C96E0D92E8091E204F8
:100BC000F81608F050C0E12C0F2D10E0000F111F97
:100BD0000C571B4F2091E304E21608F042C0F801C5
:100BE000608171810E2C02C0769567950A94E2F7B8
:100BF000F29E900111242E0D311DECE7F4E080E00F
:100C0000458D568D2417350709F450C08F5F3696F1
:100C10008A30B1F760FF23C0ECE7F4E090E080E0B9
:100C2000448D411117C0E091DC04F091DD04E20F26
:100C3000F31F4081D89EF001D99EF00D1124E45895
:100C4000FB4F448F368F258F10A2178E61E00E94D4
:100C5000C80405C0019636968A30910509F7E394D9
:100C6000B9CFF394ABCF10E089A18111182F26964C
:100C7000F4E0C83BDF07C1F70E94BC046093D804CE
:100C80007093D9048093DA049093DB04812FDF9171
:100C9000CF911F910F91FF90EF90DF90CF90BF9079
:100CA000AF909F908F907F906F9008956170CFCF9D
:100CB00081E08093E8040E942405882369F08091F4
:100CC0009D04882349F080919B0490919C04019796
:100CD00019F48091980408951092E80480E0089532
:100CE000089508950895DB0114964D915C91159730
:100CF0006D917C91DC01ED91FC910280F381E02DFE
:100D00000994EF92FF920F931F93CF93DF938C017F
:100D10007B01D0E0C0E0F701EC0FFD1F649166237A
:100D200061F0D801ED91FC910190F081E02DC801B6
:100D30000995892B11F02196EECFCE01DF91CF914D
:100D40001F910F91FF90EF900895AF92BF92CF92B5
:100D5000DF92EF92FF920F931F93CF93DF936C017B
:100D60007B018B01040F151FEB015E01AE18BF085C
:100D7000C017D10759F06991D601ED91FC9101900E
:100D8000F081E02DC6010995892B79F7C501DF9126
:100D9000CF911F910F91FF90EF90DF90CF90BF9078
:100DA000AF900895FC01538D448D252F30E0842FA2
:100DB00090E0821B930B541710F0CF960895019783
:100DC0000895FC01918D828D981761F0A28DAE0F70
:100DD000BF2FB11D5D968C91928D9F5F9F73928FF7
:100DE00090E008958FEF9FEF0895FC01918D828D23
:100DF000981731F0828DE80FF11D858D90E00895F0
:100E00008FEF9FEF0895FC01918D228D892F90E047
:100E1000805C9F4F821B91098F73992708958DE9FC
:100E200093E00E94030721E0892B09F420E0822F40
:100E3000089580E090E0892B29F00E940F0781112E
:100E40000C9400000895FC01A48DA80FB92FB11DCA
:100E5000A35ABF4F2C91848D90E001968F739927F0
:100E6000848FA689B7892C93A089B1898C918370CE
:100E700080648C93938D848D981306C00288F389C7
:100E8000E02D80818F7D80830895EF92FF920F93F4
:100E90001F93CF93DF93EC0181E0888F9B8D8C8D26
:100EA00098131AC0E889F989808185FF15C09FB71A
:100EB000F894EE89FF896083E889F98980818370DD
:100EC000806480839FBF81E090E0DF91CF911F918C
:100ED0000F91FF90EF900895F62E0B8D10E00F5FAD
:100EE0001F4F0F731127E02E8C8D8E110CC00FB683
:100EF00007FCFACFE889F989808185FFF5CFCE011B
:100F00000E942307F1CFEB8DEC0FFD2FF11DE35A6B
:100F1000FF4FF0829FB7F8940B8FEA89FB8980819D
:100F20008062CFCFCF93DF93EC01888D8823B9F017
:100F3000AA89BB89E889F9898C9185FD03C08081E4
:100F400086FD0DC00FB607FCF7CF8C9185FFF2CF61
:100F5000808185FFEDCFCE010E942307E9CFDF918D
:100F6000CF910895BC016E5F7F4FDC01ED91FC9144
:100F70000190F081E02D40E0099591E0811190E031
:100F8000892F089508958EBD00000DB407FEFDCF92
:100F90008EB50895DF92EF92FF920F931F93CF9338
:100FA000DF937C01062FD42E152F80E590E00E9460
:100FB0009B0360E0F70186850E94F30382E10E94B3
:100FC000C307CD2DD12F0C0F1D2F111DC017D10719
:100FD00021F089910E94C307F9CF61E0F70186856E
:100FE000DF91CF911F910F91FF90EF90DF900C94C4
:100FF000F3031F93CF93DF93EC01162F80E590E06E
:101000000E949B0360E08E850E94F303812F80681D
:101010000E94C30780E00E94C307182F61E08E85FD
:101020000E94F303812FDF91CF911F9108950F93B9
:101030001F93CF93DF93EC01062F142F80E590E0F0
:101040000E949B0360E08E850E94F303802F0E9424
:10105000C307812F0E94C30761E08E85DF91CF9186
:101060001F910F910C94F303CF92DF92EF92FF92B6
:101070000F931F93CF93DF93EC016B01F42E890143
:1010800040E062E00E94170844E06AE0CE010E945E
:10109000170840E864E1CE010E941708A6016F2DF1
:1010A000CE010E94CA0743E062E0CE010E94170809
:1010B0000E94BC046B017C0129E5C20ED11CE11C1D
:1010C000F11C6AE0CE010E94F90782FF1BC040E0DC
:1010D00062E0CE010E94170864E4CE010E94F90785
:1010E000F801808362E4CE010E94F907F801818350
:1010F00080E0DF91CF911F910F91FF90EF90DF90F3
:10110000CF9008950E94BC046C157D058E059F0547
:10111000C0F283E0EECF2F923F924F925F926F9298
:101120007F928F929F92AF92CF92DF92EF92FF9237
:101130000F931F93CF93DF9300D0CDB7DEB74C0151
:101140002B01D42E390180E0E114F10411F0F701F4
:1011500080813C2C329490EF3922380E40E062E0DE
:10116000C4010E9417084FE768E0C4010E941708F5
:1011700040E864E1C4010E941708A2016D2DC4017A
:101180000E94CA07432D6AE1C4010E9417084CE07F
:1011900062E0C4010E9417086AE1C4010E94F907D5
:1011A000482F40686AE1C4010E9417080E94BC04ED
:1011B0001B012C01F4E22F0E311C411C511C68E074
:1011C000C4010E94F907982F907309F0B7C080FFFF
:1011D00015C083E00F900F90DF91CF911F910F9179
:1011E000FF90EF90DF90CF90AF909F908F907F9087
:1011F0006F905F904F903F902F9008950E94BC0495
:101200006215730584059505D0F2E3CF611471046E
:1012100009F469C00115110509F465C064E1C40150
:101220000E94F907382EF8018081831508F480C0E8
:1012300030823320E1F180E590E00E949B0360E082
:10124000F40186850E94F3033A9482E90E94C30761
:10125000CC20B1F08FEF90E09C0102C0220F331F31
:10126000CA94E2F7690182E90E94C3079C2D909518
:10127000F301208192238C21982B9083CC24C3945A
:1012800023014C0C511CC31440F482E90E94C30793
:10129000F20181932F01C394F6CF80E00E94C3072F
:1012A000F201808361E0F40186850E94F30368E126
:1012B000C4010E94F9078770E114F10411F0F701ED
:1012C000808323FC37C061147104B1F1011511054D
:1012D00099F1AA2089F1F8014081413031F484303C
:1012E00029F58FEF77CF80E0ECCF4230F8F0811115
:1012F0001DC042509E012F5F3F4FB301C4010E94A9
:101300003408811167CFF8019081690E711CF301D7
:10131000329720819981291309C0F1E06F1A710871
:10132000F30120819A81291709F454CF87E052CF25
:1013300084E050CF82E04ECF80E04CCF6CE0C4011F
:101340000E94F907282E837109F460CF81E042CF13
:101350008F929F92AF92CF92DF92EF92FF920F9374
:101360001F93CF93DF9300D000D0CDB7DEB74C01F1
:1013700080E589831A829E012D5F3F4F42E0BE01C6
:101380006F5F7F4FC4010E943408D82E811116C0B0
:10139000A12CC12CF12CE12C10E000E030E020E089
:1013A00044E0BE016F5F7F4FC4010E948B08833011
:1013B00029F0D82E811102C0DD24D3948D2D0F90F9
:1013C0000F900F900F90DF91CF911F910F91FF9091
:1013D000EF90DF90CF90AF909F908F9008950F93F4
:1013E0001F93CF93DF938C01D62FC42F0E94F90750
:1013F000C0954C2F48236D2FC801DF91CF911F91CD
:101400000F910C94170848E060E18FEF94E00C9482
:10141000EF098F929F92AF92CF92EF92FF920F932C
:101420001F93CF93DF9300D000D01F92CDB7DEB7CC
:101430004C0182E08D8340E064E2C4010E94170801
:1014400040E066E2C4010E94170846E268E4C40175
:101450000E94170886E28B838D818230B0F140E8CC
:101460006CE1C4010E94EF0987E08C83A12CC12CA0
:10147000CE0104967C018E010B5F1F4F9E012F5FF2
:101480003F4F41E0BE016D5F7F4FC4010E948B085A
:10149000982F811117C08D818230B9F48C81811110
:1014A00014C081E00F900F900F900F900F90DF917C
:1014B000CF911F910F91FF90EF90CF90AF909F90A1
:1014C0008F90089581E0923069F380E0EBCF2F9206
:1014D0003F924F925F926F927F928F929F92AF92C4
:1014E000BF92CF92DF92EF92FF920F931F93CF9311
:1014F000DF93CDB7DEB72D970FB6F894DEBF0FBEE2
:10150000CDBF16E0413508F045C1342E4B013C01FA
:1015100040E86CE10E94EF0983E98983332029F0D8
:1015200081E0F4019081953008F480E02224239436
:10153000B12C9B2D990F990F990FD32CD91AD7FC49
:10154000D12C32E0882319F098E89B8333E021E026
:101550009D2D977009F420E09D2D95959595959575
:10156000290FC9F094E0811193E0291708F4922F14
:10157000EB2DF0E03196E80DF91D232F4191A1E00C
:10158000B0E0AC0FBD1FA20FB11D4C932F5F422FD7
:10159000431B491798F3882311F0F8E0DF0E8FE121
:1015A0008D150CF082C090E79A838B819C818927EE
:1015B0009D8189279E8189278F839E01285F3F4FC8
:1015C00047E0BE016F5F7F4FC3010E943408182FB0
:1015D0008111E0C01A86E3E0EB87DC86CE01079636
:1015E0002C0199E09D87CA844C2D4295407F4C0D7B
:1015F0006AE1C3010E941708A12CCE010A967C0162
:101600008E01055F1F4F92014D85BE016F5F7F4FB9
:10161000C3010E948B08182F823009F065C06CE16D
:10162000C3010E94F90785FDB5C08F7109F480E2FE
:10163000282F30E04D2DDD0C550B421753070CF0D1
:101640009DC0D82EE82FE595E595E595EF5F982F9D
:10165000977081E009F480E0E80F81E090E08C0F62
:101660009D1F8E0F911DFC012150310927703327DA
:1016700081E090E002C0880F991F2A95E2F79C0153
:101680008081822B80838BCF85E98983332031F061
:1016900081E0F4019081983008F04BCF80E049CF91
:1016A00087E9898326E0B22EF9CF9D2D97709A871E
:1016B0008D2D8595859585958E5F282F2295207F88
:1016C000290F2A8321E0911101C020E0280F2D87E6
:1016D00044244394512C4C0E5D1E480E511CE9E0ED
:1016E000E81BEB87DC867FCF811154C080E2D82EC7
:1016F0009C8590320CF457CF8B81883809F040C01C
:1017000083E093E0EB2DF0E03196E80DF91D980FA2
:10171000A1E0B0E0AC0FBD1FA80FB11D2C9121932B
:101720008F5F8913F5CFBB84E3E0BE124DC08A857D
:1017300081114AC09E012D5F3F4F41E0B201C301BC
:101740000E943408182F811125C09B81F2018181EC
:1017500098133CC09C818281981338C0808182FF9D
:1017600012C02394F2E02F1609F48ECF83E02816DE
:1017700009F496CF91E0291609F4CECE15E00AC0FF
:1017800082E094E0BFCFF4018387822D880F820D21
:101790008F5F8083812F2D960FB6F894DEBF0FBE2A
:1017A000CDBFDF91CF911F910F91FF90EF90DF9010
:1017B000CF90BF90AF909F908F907F906F905F90F1
:1017C0004F903F902F90089511E0E4CF17E0E2CFC3
:1017D0002091F102260F3327331F21323105ECF41B
:1017E00020913A03FC0190E080E0243069F082E02F
:1017F0000895A091F1022191AC014F525D4FA40FC9
:10180000B52FB11D2C930196861798F38091F102A4
:10181000680F6093F10280E0089581E008951092CE
:101820003A0381E0809339031092140361E082E16E
:101830000E94F30361E083E10E94F303E9EBF0E02F
:1018400080818E7F808380818D7F808388E48093F8
:10185000B80085E48093BC000895CF93DF9391E0B6
:101860009093D0028823B9F0C091B800D091BA000B
:101870008091BC008A7B8093BC0060E082E10E9482
:10188000F30360E083E10E94F3030E940F0CD09306
:10189000BA00C093B800DF91CF9108950895E09108
:1018A000690380916803E81730F4F0E0E055FD4FDC
:1018B000808190E008958FEF9FEF089590916903E4
:1018C000809168032FEF3FEF981748F4E92FF0E07D
:1018D000E055FD4F208130E09F5F90936903C9017F
:1018E00008958091680390916903891B990B08956D
:1018F000CF92DF92EF92FF920F931F93CF93DF93DC
:101900007C01CB018A0120914003222389F0EB0165
:101910006B01C40ED51ECC15DD0569F06991D701A8
:10192000ED91FC910190F081E02DC7010995F3CF75
:10193000642F0E94E80BC801DF91CF911F910F9196
:10194000FF90EF90DF90CF900895CF93DF931F9299
:10195000CDB7DEB76983209140032223F9F02091AF
:101960006603203258F021E030E0FC01338322830B
:1019700090E080E00F90DF91CF9108958091670310
:10198000E82FF0E0EF5BFC4F998190838F5F8093AD
:1019900067038093660381E090E0ECCF61E0CE01C5
:1019A00001960E94E80BF7CFCF92DF92EF92FF9261
:1019B0000F931F93CF93DF93FC01C48121E0209309
:1019C0004003C093610310926703109266038385FE
:1019D000682B8AE394E00E94A50CD0916603D13273
:1019E00008F092C00E9465046B017C0180913A036B
:1019F000811165C082E080933A0381E080933903CE
:101A00008FEF8093380310923703D0933603A1E40D
:101A1000B3E0E6E1F3E080E0D81385C0109215034F
:101A200080911503CC0FC82BC0931503809114032C
:101A3000813009F07CC0109214030E9465046B0190
:101A40007C01809115038093BB0080913C039091B1
:101A50003D03A0913E03B0913F03892B8A2B8B2B32
:101A600099F00E94650400913C0310913D03209180
:101A70003E0330913F036C197D098E099F090617BB
:101A8000170728073907E0F18091BC0083FDD9CF03
:101A900085EC8093BC000E9465046B017C01809101
:101AA0003A03823009F445C0809138038F3F61F1D9
:101AB00080913803803241F18091380325C08091B4
:101AC0003C0390913D03A0913E03B0913F03892BCD
:101AD0008A2B8B2B09F48ACF0E94650400913C036A
:101AE00010913D0320913E0330913F036C197D0915
:101AF0008E099F09061717072807390708F076CFC0
:101B000080913B030E942D0C109267031092660394
:101B100010924003DF91CF911F910F91FF90EF90B2
:101B2000DF90CF9008959D9191938F5F75CF85EE53
:101B3000B0CF80913C0390913D03A0913E03B091C2
:101B40003F03892B8A2B8B2B09F4A9CF0E946504B4
:101B500000913C0310913D0320913E0330913F03DF
:101B60006C197D098E099F09061717072807390781
:101B700008F095CFC5CF90E080E0089582E090E036
:101B800090936C0380936B0383E090E090937C03CD
:101B900080937B0384E090E0909323018093220163
:101BA0000895CF93C82F62E370E080E090E00E9438
:101BB0008A048C2F0E94C703892B61F48C2F0E940A
:101BC000C703892B51F46AE070E080E090E00E9446
:101BD0008A04F4CF80E0CF91089581E0FCCF909308
:101BE0009303809392031092910310920301109239
:101BF000020110920B0110920A01892B81F41092BC
:101C0000900310928F0310928E0310928D03109206
:101C100086031092850310928C0310928B03089513
:101C20000F931F93CF938C01C62F0E94D40C6C2F5F
:101C30006460C8010E94D40C6C2F6B7FC8010E94A5
:101C4000D40C83EC90E00197F1F7CF911F910F91A5
:101C500008950F931F93CF93DF938C01D62FC42F3A
:101C6000607F642B0E94100E80E1D89FB001112488
:101C70006C2BC801DF91CF911F910F910C94100E26
:101C800040E061E08FE095E00E94290E8BE39FE148
:101C90000197F1F70895EF92FF921F93CF93DF938F
:101CA000182F7B01C0916D03D0916E0380910001CC
:101CB000909101018C179D0731F00E94400ED09346
:101CC0000101C0930001123471F41C161D062CF49E
:101CD0002197D0936E03C0936D03DF91CF911F9135
:101CE000FF90EF9008951134C1F7CE15DF05ACF7E2
:101CF0002196EFCFCF93DF93CDB7DEB728970FB6FE
:101D0000F894DEBF0FBECDBF98E0E4E5F1E0DE0160
:101D1000119601900D929A95E1F7909117059617FB
:101D200010F46FEF690F262F30E0220F331F41E0D0
:101D300050E04C0F5D1F240F351FF9016081680FC3
:101D4000606840E08FE095E028960FB6F894DEBF1B
:101D50000FBECDBFDF91CF910C94290E61E08DE0D5
:101D60000E947A0E60EA70E08FE095E00C948106A4
:101D7000CF93DF93EC010E94400E60E086E00E946A
:101D80007A0E69E770E08FE095E00E94810668EEC8
:101D900073E080E090E00E948A04CE01DF91CF9151
:101DA0000C94EF0DCF93DF93EC010E94400E60E0A6
:101DB00080E00E947A0E68E670E08FE095E00E9475
:101DC000810668EB7BE080E090E00E948A04CE010F
:101DD000DF91CF910C94EF0D41E00E94290E81E03C
:101DE00090E0089560E08FE00E947A0E61E08FE05D
:101DF00095E00C94EC0E61E08FE00E947A0E62E0B8
:101E00008FE095E00C94EC0E0E94FB0E0C94F20E09
:101E10000F931F93CF93DF938B0198E0899FB001BD
:101E20001124606440E08FE095E00E94290EE801F3
:101E3000085F1F4F69918FE095E00E94EC0EC0177C
:101E4000D107C1F7DF91CF911F910F9108958F9224
:101E50009F92AF92BF92CF92DF92EF92FF92CF9379
:101E60006C0164E271E080E00E94080F0E94BC04F3
:101E70004B015C0161E080E00E947A0E6FE870E047
:101E80008FE095E00E9481060D2C000CEE08FF0803
:101E9000C0E00E94BC04681979098A099B096C1585
:101EA0007D058E059F05E8F461E08C2F0E947A0E77
:101EB00060E08FE095E00E94EC0E6AEF70E080E059
:101EC00090E00E948A04CF5FC03119F761E080E0A2
:101ED0000E947A0E6EE770E08FE095E00E94810626
:101EE000D7CFCF91FF90EF90DF90CF90BF90AF9082
:101EF0009F908F900895CF92DF92EF92FF920F9371
:101F00001F93CF93DF93EC01AE81BF81FD01019060
:101F10000020E9F731978F010A1B1B0B0E94BC04BC
:101F2000CA80DB80EC80FD806C197D098E099F09D9
:101F30006639710581059105A8F1680180E1C80E37
:101F4000D11C0E94BC046A837B838C839D8361E0E7
:101F500080E00E947A0EF12CE12C888199818E0D0F
:101F60009F1DB6010E94262D41E060E28017910777
:101F700034F4EE81FF81E80FF91F41E060818FE0CA
:101F800095E00E94290E8FEFE81AF80A80E1E81622
:101F9000F10419F7888199810196B6010E94262DD6
:101FA00099838883DF91CF911F910F91FF90EF90DC
:101FB000DF90CF900895CF93DF93EC018091910350
:101FC00081110FC00E94400E60E081E00E947A0EF5
:101FD00068EF71E08FE095E00E94810681E08093D8
:101FE00091038AE091E0219711F482E091E00E9450
:101FF0007B0F0E945806882399F00E94400E69EEDC
:1020000071E08FE095E00E9481066CED75E080E064
:1020100090E00E948A04F0E0E0E0DF91CF91099423
:10202000DF91CF910895FB0101900020E9F73197EE
:10203000AF01461B570BDC01ED91FC910280F3814F
:10204000E02D0994CF93DF93BC018DE993E00E94CA
:102050008106EC0160EA71E08DE993E00E941310C3
:102060008C0F9D1FDF91CF9108958F929F92AF9219
:10207000BF92CF92DF92EF92FF92CF93DF93CDB7D3
:10208000DEB7A1970FB6F894DEBF0FBECDBF6C01CF
:10209000990FEE08FF08F7FE40C041E06DE28FE0C7
:1020A00095E00E94290E22273327A9012C193D090A
:1020B0004E095F0919A2CE0181967C019AE0892E12
:1020C000912CA12CB12CCA01B901A50194010E9447
:1020D0003A2D605DF70162937F01211531054105BD
:1020E000510589F790E080E0309729F0BF018FE03B
:1020F00095E00E9413100196A1960FB6F894DEBFEA
:102100000FBECDBFDF91CF91FF90EF90DF90CF90CA
:10211000BF90AF909F908F900895A701960119A24C
:10212000CE0181967C018AE0882E912CA12CB12CC5
:10213000CA01B901A50194010E943A2D605DF70121
:1021400062937F01211531054105510589F790E022
:1021500080E0309789F2BF018FE095E00E94131074
:10216000CBCFFC0124813581232B39F421E0FB0105
:102170008081882349F020E007C0808191810E94FE
:10218000612F21E0892BB9F7822F0895FC0180810E
:102190009181009711F00C94CF2A60E070E0CB01A0
:1021A0000895CF93DF93EC0180919103811120C0BA
:1021B0000E94400E60E080E00E947A0ED0938C0373
:1021C000C0938B0367E072E08FE095E00E94810688
:1021D00084E694E00E94C6106A327340810591053E
:1021E0007CF480EA9FE00E94270F81E080939103B6
:1021F0000E94400E85E190E0DF91CF910C94EF0DAD
:1022000080E49FE1F0CF0F931F93CF93DF938C0176
:10221000EB01FC01808191810097E1F06881798177
:1022200061157105A9F0428153812C813D814217CE
:10223000530770F00E946A2F8C819D81F80195836D
:1022400084831D821C82DF91CF911F910F9108958D
:102250000E94122E88819981F801918380838A815E
:102260009B81938382838C819D8195838483198252
:1022700018821B821A82E5CFCF93DF93EC0188810D
:102280009981009711F00E94122E198218821D82E6
:102290001C821B821A82DF91CF910895FC018081FC
:1022A0009181009711F00C94122E08950F931F93B3
:1022B000CF93DF93EC0188819981009759F02A81AF
:1022C0003B812617370730F081E0DF91CF911F91D6
:1022D0000F9108958B016F5F7F4F0E949B2E009797
:1022E00059F0998388831B830A832C813D81232B9A
:1022F00059F7FC011082E8CF80E0E7CF0F931F93DE
:10230000CF93DF938C010E94FD2A0097F1F0C091DA
:102310004A04D0914B04C80FD91FBE0186E494E053
:102320000E945611882391F0209146043091470471
:1023300080914A0490914B04B801820F931F0E9430
:10234000F62AD0934B04C0934A0481E0DF91CF91E9
:102350001F910F910895EF92FF920F931F93CF93C8
:10236000DF936115710541F480E0DF91CF911F91FA
:102370000F91FF90EF90089541155105B1F07B0149
:10238000EC010C811D81040F151FB8010E9456112C
:10239000882351F3288139818C819D81B701820F77
:1023A000931F0E946A2F1D830C8381E0DECFFC0106
:1023B000448155816081718186E494E00C94AB1175
:1023C000CF93DF9300D0CDB7DEB769831A8241E0A7
:1023D00050E0BE016F5F7F4F0E94AB110F900F90D6
:1023E000DF91CF910895EF92FF920F931F93CF93B8
:1023F000DF93EC017B018A01BA010E945611811121
:102400000BC0CE010E943C11CE01DF91CF911F91F4
:102410000F91FF90EF9008951D830C83B701888181
:1024200099810E946A2FF0CFFB0101900020E9F70B
:102430003197AF01461B570B0C94F3110F931F9369
:10244000CF93DF93CDB7DEB762970FB6F894DEBFB8
:102450000FBECDBF8C01CB01F80111821082138217
:102460001282158214824AE0BE016F5F7F4F0E9484
:10247000062BBE016F5F7F4FC8010E941412629647
:102480000FB6F894DEBF0FBECDBFDF91CF911F9185
:102490000F910895CF93DF93EC01FB018617970707
:1024A00049F0608171816115710541F04481558168
:1024B0000E94F311CE01DF91CF9108950E943C114B
:1024C000F9CFFC01118210821382128215821482CC
:1024D000FB0101900020E9F73197AF01461B570B34
:1024E0000C94F311CF93DF93EC0180917B039091D7
:1024F0007C038130910569F030F0029769F0CE01DC
:10250000DF91CF91089563EA71E0CE010E946112DC
:10251000F6CF69EA71E0F9CF60EB71E0F6CFCF93C7
:10252000DF93EC0180916B0390916C03009731F085
:10253000019751F0CE01DF91CF91089566EB71E0E4
:10254000CE010E946112F6CF6DEB71E0F9CF85EDFF
:102550008093BC0080913C0390913D03A0913E0389
:10256000B0913F030796A11DB11D23E0B695A79535
:10257000979587952A95D1F72091BC0024FD03C03B
:1025800010923A03089540913C0350913D036091AD
:102590003E0370913F03452B462B472B69F3009771
:1025A000A105B10541F02AE22A95F1F700C0019793
:1025B000A109B109E1CF80913B030C942D0CDF926E
:1025C000EF92FF920F931F93CF93DF93CDB7DEB7B8
:1025D00067970FB6F894DEBF0FBECDBF8091910311
:1025E00081111CC000916B0310916C030E94400E7E
:1025F000012B39F480917B0390917C03029709F0C1
:102600000EC185E090E090936E0380936D039093EC
:10261000AF028093AE0281E08093910380916B03BF
:1026200090916C03009709F4FDC0019709F0E2C096
:1026300080916D0390916E03059729F560E080E02D
:102640000E947A0E6FED71E08FE095E00E948106A6
:1026500061E080E00E947A0E68ED71E08FE095E025
:102660000E948106CE0101960E948F12BE016F5F0B
:102670007F4F8FE095E00E947306CE0101960E9485
:102680004E110E94FB0E80916D0390916E03049792
:1026900029F560E080E00E947A0E6EEC71E08FE038
:1026A00095E00E94810661E080E00E947A0E66EC6F
:1026B00071E08FE095E00E948106CE0101960E94B4
:1026C0007212BE016F5F7F4F8FE095E00E9473062C
:1026D000CE0101960E944E110E94040F80916D035D
:1026E00090916E03039711F560E080E00E947A0EEE
:1026F0006CEB71E08FE095E00E94810661E080E084
:102700000E947A0E64EB71E08FE095E00E948106F2
:1027100064E674E08FE095E00E94730661EB71E07F
:102720008FE095E00E9481060E94040F80916D0366
:1027300090916E03029711F560E080E00E947A0E9E
:1027400067EA71E08FE095E00E94810661E080E039
:102750000E947A0E60EA71E08FE095E00E948106A7
:1027600080912C0190912D010E9435106BE971E050
:102770008FE095E00E9481060E94040F80916D0316
:1027800090916E030197C1F460E080E00E947A0EA0
:1027900061E971E08FE095E00E94810661E080E0F0
:1027A0000E947A0E6DE871E08FE095E00E9481064C
:1027B0000E94040F0E94AE0E80916D0390916E03F3
:1027C000892BC1F460E080E00E947A0E63E871E03A
:1027D0008FE095E00E94810661E080E00E947A0E21
:1027E0006FE771E08FE095E00E9481060E94F20E93
:1027F0000E94AE0E0E945806182F6091AE02709192
:10280000AF020E944B0E133409F09AC161E270E0EE
:1028100080E090E00E948A0490E080E007C284E0BB
:1028200090E0F1CE80916D0390916E0320917B0337
:1028300030917C032230310509F0D2C0059729F58B
:1028400060E080E00E947A0E65E771E08FE095E03D
:102850000E94810661E080E00E947A0E6EE671E0DF
:102860008FE095E00E948106CE0101960E948F12B2
:10287000BE016F5F7F4F8FE095E00E947306CE012F
:1028800001960E944E110E94FB0E80916D03909163
:102890006E03049729F560E080E00E947A0E64E6FA
:1028A00071E08FE095E00E94810661E080E00E9487
:1028B0007A0E6CE571E08FE095E00E948106CE0112
:1028C00001960E947212BE016F5F7F4F8FE095E00C
:1028D0000E947306CE0101960E944E110E94040FC1
:1028E00080916D0390916E030397E1F460E080E0C6
:1028F0000E947A0E62E571E08FE095E00E94810609
:1029000061E080E00E947A0E6AE471E08FE095E079
:102910000E94810668E574E08FE095E00E947306EE
:102920000E94040F80916D0390916E03029711F540
:1029300060E080E00E947A0E60E471E08FE095E054
:102940000E94810661E080E00E947A0E69E371E0F6
:102950008FE095E00E94810660E774E08FE095E0EB
:102960000E94730666E371E08FE095E00E948106A5
:102970000E94040F80916D0390916E030197C1F442
:1029800060E080E00E947A0E6CE271E08FE095E0FA
:102990000E94810661E080E00E947A0E64E271E0AC
:1029A0008FE095E00E9481060E94040F0E94AE0E07
:1029B00080916D0390916E03892B09F01BCF60E02D
:1029C00080E00E947A0E6AE171E08FE095E00E945B
:1029D000810661E080E00E947A0E63E171E002CF3F
:1029E000049729F560E080E00E947A0E69E071E0CA
:1029F0008FE095E00E94810661E080E00E947A0EFF
:102A000062E071E08FE095E00E948106CE010196C0
:102A10000E948F12BE016F5F7F4F8FE095E00E9492
:102A20007306CE0101960E944E110E94FB0E80910A
:102A30006D0390916E03039729F560E080E00E949A
:102A40007A0E68EF70E08FE095E00E94810661E009
:102A500080E00E947A0E60EF70E08FE095E00E94C7
:102A60008106CE0101960E947212BE016F5F7F4FF8
:102A70008FE095E00E947306CE0101960E944E11F0
:102A80000E94040F80916D0390916E03029711F5DF
:102A900060E080E00E947A0E66EE70E08FE095E0E4
:102AA0000E94810661E080E00E947A0E6EED70E087
:102AB0008FE095E00E94810660E774E08FE095E08A
:102AC0000E9473066BED70E08FE095E00E94810636
:102AD0000E94040F80916D0390916E030197C1F4E1
:102AE00060E080E00E947A0E61ED70E08FE095E09A
:102AF0000E94810661E080E00E947A0E69EC70E03D
:102B00008FE095E00E9481060E94040F0E94AE0EA5
:102B100080916D0390916E03892B09F06BCE60E07C
:102B200080E00E947A0E6FEB70E08FE095E00E94EB
:102B3000810661E080E00E947A0E68EB70E052CE80
:102B4000133291F461E270E080E090E00E948A0428
:102B500080916D0390916E03823091059CF00197F6
:102B600090936E0380936D0367960FB6F894DEBF63
:102B70000FBECDBFDF91CF911F910F91FF90EF90CE
:102B8000DF9008958130910509F06FC083E6898355
:102B900080916B0390916C039B838A8380917B036C
:102BA00090917C039D838C838091220190912301DD
:102BB0009F838E8380E794E00E94C61079876887A0
:102BC00084E694E00E94C6107B876A8780912C017E
:102BD00090912D019D878C8700915C0410915D047C
:102BE0000115110531F51E86CE0101967C0110E01C
:102BF00000E0F701D1907F01C8010E944B2CD8164C
:102C000021F06D2DC8010E94532C0F5F1F4F07311B
:102C1000110579F782EA90E00E94221080916B03FF
:102C200090916C030097D9F48EE090E00E94EF0D34
:102C30009BCF0930110510F009E010E060915804B5
:102C400070915904A801CE010E960E94712FEEE0FA
:102C5000F0E0EC0FFD1FE00FF11F1082C5CF0197D0
:102C600009F082CF82E190E0E1CF892B09F07CCF9F
:102C7000D3CD1F920F920FB60F9211242F933F9333
:102C80008F939F93AF93BF938091950390919603F9
:102C9000A0919703B09198033091940323E0230F00
:102CA0002D3758F50196A11DB11D209394038093F3
:102CB000950390939603A0939703B0939803809104
:102CC000990390919A03A0919B03B0919C03019664
:102CD000A11DB11D8093990390939A03A0939B0328
:102CE000B0939C03BF91AF919F918F913F912F9192
:102CF0000F900FBE0F901F90189526E8230F029695
:102D0000A11DB11DD2CF1F920F920FB60F921124A9
:102D10002F933F934F935F936F937F938F939F93E3
:102D2000AF93BF93EF93FF938DE993E00E94230746
:102D3000FF91EF91BF91AF919F918F917F916F9193
:102D40005F914F913F912F910F900FBE0F901F9069
:102D500018951F920F920FB60F9211242F938F93F5
:102D60009F93EF93FF93E091AD03F091AE038081C9
:102D7000E091B303F091B40382FD1BC09081809178
:102D8000B6038F5F8F732091B703821741F0E091F4
:102D9000B603F0E0E356FC4F958F8093B603FF91A6
:102DA000EF919F918F912F910F900FBE0F901F90D9
:102DB00018958081F4CF1F920F920FB60F921124B5
:102DC0002F933F934F935F936F937F938F939F9333
:102DD000AF93BF93EF93FF938091B900887F8036C4
:102DE00009F44AC0F0F5883209F4A7C018F580311B
:102DF00009F49BC0B8F4882309F4F9C0883009F4B9
:102E000094C0FF91EF91BF91AF919F918F917F916E
:102E10006F915F914F913F912F910F900FBE0F9047
:102E20001F901895883109F488C0803251F780933B
:102E3000380314C0803409F49DC040F48033B9F3E2
:102E40008833F9F68093380385ECB0C0803509F4F7
:102E500085C0883509F496C0883499F60E94A71277
:102E6000D0CF883909F48CC038F5883729F050F470
:102E7000883611F0803729F683E080933A03109268
:102E8000130357C0883809F47BC0803919F08038A3
:102E900009F0B7CF80911303803208F071C0E09140
:102EA000130381E08E0F809313038091BB00F0E049
:102EB000ED50FD4F80833DC0803B39F0E0F4803A17
:102EC00009F479C0883A09F09CCF84E080933A03F2
:102ED0001092F2021092F102E0916403F091650306
:102EE00009958091F10281110FC081E08093F10278
:102EF0001092D10209C0803C09F4A6CF883C09F4A5
:102F0000A3CF883B09F07DCFE091F20281E08E0FE4
:102F10008093F202F0E0EF52FD4F80818093BB007E
:102F20009091F2028091F10229C080911503809363
:102F3000BB0085EC8093BC0064CF909137038091F7
:102F40003603981758F5E091370381E08E0F809390
:102F50003703F0E0EA5EFC4F8081E9CFE091370370
:102F600081E08E0F809337038091BB00F0E0EA5E32
:102F7000FC4F808390913703809136039817C8F2F5
:102F800085E8D8CFE091370381E08E0F8093370337
:102F90008091BB00F0E0EA5EFC4F808380913903B2
:102FA00081115CCF81E08093140384EA8093BC009C
:102FB00010923A0326CF85EC8093BC0010923A031E
:102FC00080911303803230F4E0911303F0E0ED5070
:102FD000FD4F10826091130370E0E0916203F09165
:102FE000630383EF92E00995109213030ACF1092C6
:102FF000380334CF1092A00310929F0388EE93E021
:10300000A0E0B0E08093A1039093A203A093A30358
:10301000B093A40320E631E030939E0320939D03F8
:1030200025EC30E03093AA032093A90324EC30E090
:103030003093AC032093AB0320EC30E03093AE032D
:103040002093AD0321EC30E03093B0032093AF0325
:1030500022EC30E03093B2032093B10326EC30E051
:103060003093B4032093B3031092B6031092B703C6
:103070001092B8031092B90310923D0410923C04D0
:1030800080933E0490933F04A0934004B093410486
:1030900082E791E090933B0480933A0410921205EA
:1030A0001092110588E991E09093100580930F0527
:1030B00087E28093130580E18093180582E0809376
:1030C000190510921A058EE891E0909300058093FF
:1030D000FF048AE080930D0589E080930E058AEA5B
:1030E0008093EB048BEB8093EC048CEC8093ED04E9
:1030F0008DED8093EE0464EC71E08FEE94E00E941D
:10310000611281E18093F50482E28093F60483E307
:103110008093F70484E48093F8046DEC71E089EF08
:1031200094E00E94611210927E0410928204109228
:1031300081041092830484E891E090937D0480934D
:103140007C04E8E9F4E0108214821382158236963A
:1031500084E0E43DF807B9F78AE391E09093DF0457
:103160008093DE0486E391E09093E1048093E00491
:1031700084E08093E2048093E3048EE391E09093F3
:10318000DD048093DC048AE090E09093E504809372
:10319000E40484EF91E09093E7048093E6041092B6
:1031A000EA041092E9041092D8041092D904109203
:1031B000DA041092DB041092E80462EA71E086E718
:1031C00094E00E94611263ED71E080E794E00E9458
:1031D000611262EA71E08AE694E00E9461126CE199
:1031E00072E084E694E00E94611262EA71E08EE58A
:1031F00094E00E94611262EA71E088E594E00E9426
:10320000611262EA71E082E594E00E94611262EA72
:1032100071E08CE494E00E94611262EA71E086E45D
:1032200094E00C946112CF93DF93CDB7DEB76D9726
:103230000FB6F894DEBF0FBECDBF789484B5826020
:1032400084BD84B5816084BD85B5826085BD85B54A
:10325000816085BD80916E00816080936E001092C8
:103260008100809181008260809381008091810043
:1032700081608093810080918000816080938000D4
:103280008091B10084608093B1008091B000816032
:103290008093B00080917A00846080937A0080915E
:1032A0007A00826080937A0080917A0081608093B6
:1032B0007A0080917A00806880937A001092C10031
:1032C000E091AD03F091AE0382E08083E091A90329
:1032D000F091AA031082E091AB03F091AC0380E17E
:1032E00080831092B503E091B103F091B20386E0C0
:1032F0008083E091AF03F091B0038081806180838F
:10330000E091AF03F091B003808188608083E09109
:10331000AF03F091B003808180688083E091AF03B8
:10332000F091B00380818F7D80830E94BE0D10924A
:1033300069031092680310926703109266030E945B
:103340000F0C80E796E0909365038093640381E718
:1033500096E090936303809362031092140580912A
:103360001905823018F098E09093140580931705A2
:1033700062E370E080E090E00E948A0460911A05A8
:103380008FE095E00E94D40C68EE73E080E090E05E
:103390000E948A0460E38FE095E00E94100E0BE427
:1033A00016E4C8010197F1F760E38FE095E00E9411
:1033B000100EC8010197F1F760E38FE095E00E94DD
:1033C000100E83E592E00197F1F760E28FE095E05F
:1033D0000E94100E60911405606240E08FE095E05D
:1033E0000E94290E84E08093150540E06CE08FE098
:1033F00095E00E94290E0E94400E82E080931605FF
:1034000040E066E08FE095E00E94290E40E062E037
:103410008FE095E00E94290E8BE39FE10197F1F781
:1034200088E080931A0560E08FE095E00E94D40C5C
:103430000E94400E1FB7F89480916A03811127C043
:10344000EDE0F6E08491E1E2F6E09491E82FF0E01F
:10345000EE0FFF1FEB51FA4FA591B491EC91E923C8
:1034600021F461E08AE00E94F30361E08AE00E94B7
:1034700025048CB580618CBD8CB580648CBD61E009
:103480008DE00E94250461E08BE00E94250480917C
:103490006A038F5F80936A031FBF61E080910D050F
:1034A0000E94250461E080910D050E94F303809144
:1034B0000E058F3F09F4B4C060E00E94250480919E
:1034C0000E050E94C703892B09F0AAC061E0809114
:1034D0000E050E94250460E080910E050E94F30312
:1034E00083E090E00197F1F761E080910E050E9482
:1034F000F30362E370E080E090E00E948A0440E021
:1035000064E28FEF94E00E94170840E066E28FEFDC
:1035100094E00E94170846E268E48FEF94E00E946E
:10352000170840E864E58FEF94E00E94170849EA25
:1035300066E58FEF94E00E94170843E068E58FEF9F
:1035400094E00E94170848EE6AE58FEF94E00E942D
:10355000170840E46AE28FEF94E00E9417084DE3F9
:1035600062E28FEF94E00E94170868E28FEF94E028
:103570000E94F907982F9370933039F0482F4360D9
:1035800068E28FEF94E00E94170862E08FE00E94EB
:10359000250462E080E10E94250482E390E090939C
:1035A000E5048093E4046AE171E081E00E94080F81
:1035B00062E171E082E00E94080F88E192E00E94DF
:1035C00022108E010F5F1F4F72E0272E312CCC246A
:1035D000C394D12CE0919203F0919303E931F1056A
:1035E00010F00C947B2AE950F54E0C945C2D271BAF
:1035F000D11C731D411F701E2E22CE22BC20A02183
:1036000044217221191F64238D239123DF24242553
:1036100023264627102816281C283A274027E02969
:103620004FE062E08FEF94E00E94170813E062E33E
:1036300070E080E090E00E948A0462E08FEF94E006
:103640000E94F90784FF5BCF115089F758CF109281
:10365000700310926F038091910381110BC00E943F
:10366000BE0DD0926E03C0926D030E94400E81E0A9
:103670008093910380916D0390916E038130910549
:1036800009F041C060E080E00E947A0E62ED72E0D5
:103690008FE095E00E94810661E080E00E947A0E52
:1036A00068EC72E08FE095E00E9481060E94FB0EBC
:1036B0000E94AE0E0E945806F82E61E070E00E9453
:1036C0004B0E23E2F21212C061E270E080E090E063
:1036D0000E948A0480916D0390916E03009761F1BE
:1036E000019721F481E090E00E94EF0D80E090E0EE
:1036F000892B09F46FCF0E940F07882309F46ACF42
:103700000E94000061CF892BA9F660E080E00E9452
:103710007A0E6DEB72E08FE095E00E94810661E029
:1037200080E00E947A0E61EB72E08FE095E00E94EB
:1037300081060E94F20EBCCFAE014F5F5F4F4A017F
:10374000B12CA12C7A01C5010E944B2CF40181936C
:103750004F01FFEFAF1ABF0A27E1A216B10499F794
:103760008981833609F10E94400E60E082E00E9468
:103770007A0E65EA72E08FE095E00E94810661E0D2
:1037800082E00E947A0E68E972E08FE095E00E9484
:10379000810660ED77E080E090E00E948A0490E08E
:1037A00080E00E94EF0DA2CF8A819B8190936C03F1
:1037B00080936B038C819D8190937C0380937B032A
:1037C0008E819F8190932301809322016885798562
:1037D000CE0148960E941E12BE01685E7F4F80E7B0
:1037E00094E00E940311CE0148960E944E116A8512
:1037F0007B85CE0148960E941E12BE01685E7F4FF7
:1038000084E694E00E940311CE0148960E944E1176
:103810008C859D8590932D0180932C01BE01625F64
:103820007F4FCE0148960E946112BE01685E7F4FB5
:1038300088E594E00E940311CE0148960E944E1143
:1038400089E292E00E94221067E070E086E494E052
:103850000E94561181115FC086E494E00E943C11E1
:10386000C7010E948F12C7010E94D711C7010E9491
:103870004E1185E892E00E947E11C7010E947212EB
:10388000C7010E94D711C7010E944E118BE792E039
:103890000E947E1180912201909123018130910537
:1038A00009F44EC008F446C08230910509F44BC0BB
:1038B000039709F44BC0C7010E94D711C7010E94AA
:1038C0004E1180916B0390916C03009709F041C0F9
:1038D00080E792E00E947E1180E794E00E94D71179
:1038E0008BE692E00E947E1180917B0390917C0395
:1038F000029741F480E692E00E947E1188E594E010
:103900000E94D71180E492E00E947E118DE090E049
:103910000E94EF0DEBCE87E090E090934B048093F4
:103920004A0460E972E080914604909147040E9445
:10393000F62A96CF66ED71E0C7010E946112BBCFF7
:103940006AED71E0F9CF61EE71E0F6CF68EE71E0FB
:10395000F3CF0197B9F685E592E00E947E1184E6E7
:1039600094E00E94D71180E592E00E947E1184E4E9
:1039700092E00E947E114AE0B70180912C01909163
:103980002D010E94062BF70101900020E9F73197E5
:10399000AF014E195F09B70186E494E00E94AB11B4
:1039A000B1CF1092700310926F0380919103811137
:1039B0000DC030926C0320926B0330926E03209204
:1039C0006D030E94400E81E08093910380916D030E
:1039D00090916E0360E08230910541F580E00E9495
:1039E0007A0E68E173E08FE095E00E94810661E065
:1039F00080E00E947A0E6EE073E08FE095E00E9416
:103A000081060E94FB0E0E94AE0E0E945806F82E00
:103A100062E070E00E944B0E33E4F31235C08091F7
:103A20006F03909170030E94EF0D60CE0197B1F487
:103A300080E00E947A0E6EEF72E08FE095E00E94C7
:103A4000810661E080E00E947A0E64EF72E08FE010
:103A500095E00E9481060E94040FD5CF80E00E946D
:103A60007A0E64EE72E08FE095E00E94810661E0DC
:103A700080E00E947A0E6DED72E08FE095E00E948A
:103A800081060E94F20EBFCF43E2F4122FCE61E214
:103A900070E080E090E00E948A0480916D03909134
:103AA0006E0381309105B1F08230910551F0892B80
:103AB00009F01CCE80916F03909170030E94EF0D6E
:103AC00015CE10926C0310926B0382E090E00E947E
:103AD000EF0D0CCE90936C0380936B0382E090E02B
:103AE0000E94EF0D03CED0927003C0926F038091BD
:103AF0009103811118C083E090E090937C03809340
:103B00007B030E94400E80916B0390916C03892B84
:103B100009F048C083E090E090936E0380936D03BA
:103B200081E0809391030E945806F82E80916B03E8
:103B300090916C0363E070E0892B11F062E070E01B
:103B40008F2D0E944B0E80916D0390916E0360E06B
:103B50008330910551F580E00E947A0E6FE673E0A4
:103B60008FE095E00E94810661E080E00E947A0E7D
:103B700069E673E08FE095E00E9481060E94FB0EEB
:103B80000E94AE0E53E4F51259C061E270E080E08D
:103B900090E00E948A0480916F03909170030E94CC
:103BA000EF0DA4CD82E090E0B7CF82309105C1F453
:103BB00080E00E947A0E6AE573E08FE095E00E9453
:103BC000810680916B0390916C03892B11F40E9404
:103BD000F20E61E080E00E947A0E64E573E0CACFE5
:103BE0000197B1F480E00E947A0E65E473E08FE003
:103BF00095E00E94810661E080E00E947A0E6EE30B
:103C000073E08FE095E00E9481060E94040FB8CF18
:103C100080E00E947A0E6FE273E08FE095E00E94F0
:103C2000810661E080E00E947A0E68E273E08FE036
:103C300095E00E9481060E94F20EA2CF83E2F81264
:103C400055CDE0906D03F0906E0391E0E916F1041C
:103C5000C1F184F4EF2809F049CD61E270E080E021
:103C600090E00E948A0480916F03909170030E94FB
:103C7000EF0D3CCDF2E0EF16F104A1F023E0E216E7
:103C8000F10409F033CD61E270E080E090E00E9441
:103C90008A0430927C0320927B0384E090E00E94AF
:103CA000EF0D24CD61E270E080E090E00E948A0494
:103CB00010927C0310927B0383E090E00E94EF0D52
:103CC00015CD61E270E080E090E00E948A04F092FD
:103CD0007C03E0927B0383E090E00E94EF0D06CD31
:103CE0003092700320926F0380919103811115C06F
:103CF00062EA71E082E594E00E9414120E94400E94
:103D000060E080E00E947A0E6FE873E08FE095E05B
:103D10000E94810681E0809391030E94580690EDF5
:103D2000980F9A30D0F4682F82E594E00E94E01159
:103D300061E080E00E947A0E60EF71E08FE095E034
:103D40000E94131061E080E00E947A0E62E574E048
:103D50008FE095E00E947306C9CC833431F562EAA6
:103D600071E082E594E00E94B110811111C062EA15
:103D700071E082E594E00E94141261E080E00E940C
:103D80007A0E6EE773E08FE095E00E948106AECC7C
:103D900061E270E080E090E00E948A0480916F030D
:103DA000909170030E94EF0DA1CC833209F09ECC5C
:103DB00061E270E080E090E00E948A0462EA71E0D3
:103DC00082E594E00E94B110882329F084E090E01D
:103DD0000E94D20E8BCC62E574E088E594E00E94EC
:103DE0004A1261E072E0C8010E94611240915C04D5
:103DF00050915D046091580470915904C8010E946B
:103E0000AB11811103C0C8010E943C11B8018DE9BA
:103E100093E00E94730660EA71E08DE993E00E94EE
:103E20001310C8010E944E118BE090E00E94EF0D2C
:103E30005DCC80919103811119C00E94400E60E019
:103E400080E00E947A0E6FE973E08FE095E00E94B7
:103E5000810661E080E00E947A0E68E574E08FE000
:103E600095E00E94730681E08093910364EC79E011
:103E700080E090E00E948A0483E090E00E94EF0DD1
:103E800035CC3092700320926F03809191038111A1
:103E90000FC084E090E090932301809322019093DF
:103EA0006E0380936D030E94400E81E08093910326
:103EB0000E945806F82E64E070E00E944B0E80913C
:103EC0006D0390916E038430910581F560E080E090
:103ED0000E947A0E6CE274E08FE095E00E94810609
:103EE00061E080E00E947A0E80916B0390916C03F8
:103EF00062E274E0892B11F068E174E08FE095E0F4
:103F00000E9481060E94FB0E0E94AE0E33E4F31263
:103F100079C061E270E080E090E00E948A048091C4
:103F20006F03909170030E94EF0DE0CB83309105F9
:103F3000F9F460E080E00E947A0E6FE074E08FE0B8
:103F400095E00E94810661E080E00E947A0E8091F7
:103F50006B0390916C0362E074E0892B11F065EFC4
:103F600073E08FE095E00E9481060E94040FCCCFA1
:103F700082309105C9F460E080E00E947A0E6CEE18
:103F800073E08FE095E00E94810661E080E00E948E
:103F90007A0E80916B0390916C036EED73E0892B28
:103FA00001F361ED73E0DDCF8130910589F460E0CC
:103FB00080E00E947A0E68EC73E08FE095E00E944A
:103FC000810661E080E00E947A0E6CEB73E0C9CF5D
:103FD000892B09F09BCF60E080E00E947A0E63EBB2
:103FE00073E08FE095E00E94810661E080E00E942E
:103FF0007A0E6CEA73E08FE095E00E9481060E94E1
:10400000F20E82CF43E2F41271CB80916D03909156
:104010006E038230910509F471C0C4F4009709F46D
:104020009EC0019709F062CB83E090E0909323015A
:104030008093220180916B0390916C03009709F0AB
:1040400086C087E090E00E94EF0D50CB8330910551
:1040500061F1049709F04ACB1092230110922201DA
:1040600080916B0390916C03009759F463ED71E0BC
:1040700080E794E00E9414128DE090E00E94EF0D22
:1040800035CB019709F032CB6CE172E084E694E025
:104090000E9414128CE291E090932D0180932C01E8
:1040A00085E090E00E94EF0D21CBD0922301C092D9
:1040B000220180916B0390916C03009759F46FE09B
:1040C00072E080E794E00E9414128DE090E00E947C
:1040D000EF0D0CCB019709F009CB62E172E084E6A9
:1040E00094E00E94141284E893E090932D01809351
:1040F0002C0185E090E00E94EF0DF8CA9093230117
:104100008093220180916B0390916C03009759F486
:1041100067E172E080E794E00E9414128DE090E085
:104120000E94EF0DE3CA019709F0E0CA6BE172E06B
:1041300084E694E00E94141288E097E090932D01A9
:1041400080932C0185E090E00E94EF0DCFCA01978B
:1041500009F0CCCA88E090E00E94EF0DC7CA61E286
:1041600070E080E090E00E948A0480916F0390915B
:1041700070030E94EF0DBACA83E090E09093700341
:1041800080936F0380919103811115C062EA71E001
:104190008AE694E00E9414120E94400E60E080E0E3
:1041A0000E947A0E67E574E08FE095E00E94810638
:1041B00081E0809391030E94580690ED980F9A3009
:1041C000D0F4682F8AE694E00E94E01161E080E07C
:1041D0000E947A0E66E474E08FE095E00E9481060A
:1041E00061E080E00E947A0E6AE674E08FE095E07C
:1041F0000E9473067BCA833431F562EA71E08AE675
:1042000094E00E94B110811111C062EA71E08AE667
:1042100094E00E94141261E080E00E947A0E65E34F
:1042200074E08FE095E00E94810660CA61E270E070
:1042300080E090E00E948A0480916F039091700367
:104240000E94EF0D53CA833209F050CA61E270E058
:1042500080E090E00E948A0462EA71E08AE694E0DD
:104260000E94B110882329F087E090E00E94D20ECE
:104270003DCA6AE674E080E794E00E944A1289E051
:1042800090E00E94EF0D32CA8091910381111FC00E
:104290000E94400E60E080E00E947A0E6DE674E0BD
:1042A0008FE095E00E94810661E080E00E947A0E36
:1042B00060E774E08FE095E00E94730668E674E0C2
:1042C0008FE095E00E94810681E08093910364EC89
:1042D00079E080E090E00E948A048DE090E00E9406
:1042E000EF0D04CA8091910381111FC00E94400EFE
:1042F00060E080E00E947A0E62E874E08FE095E072
:104300000E94810661E080E00E947A0E64E674E01B
:104310008FE095E00E9473066DE774E08FE095E012
:104320000E94810681E08093910364EC79E080E053
:1043300090E00E948A0485E090E00E94EF0DD6C9CB
:1043400083E090E09093700380936F0380919103DA
:10435000811115C062EA71E08EE594E00E941412AA
:104360000E94400E60E080E00E947A0E62EB74E0F2
:104370008FE095E00E94810681E0809391030E9486
:10438000580690ED980F9A30D0F4682F8EE594E09F
:104390000E94E01161E080E00E947A0E61EA74E020
:1043A0008FE095E00E94810661E080E00E947A0E35
:1043B0006EE574E08FE095E00E94730697C9833440
:1043C00061F561E270E080E090E00E948A0462EAB8
:1043D00071E08EE594E00E94B110811111C062EA93
:1043E00071E08EE594E00E94141261E080E00E948A
:1043F0007A0E60E974E08FE095E00E94810676C94C
:1044000061E270E080E090E00E948A0480916F0396
:10441000909170030E94EF0D69C9833209F066C95B
:1044200061E270E080E090E00E948A0462EA71E05C
:104430008EE594E00E94B110882329F088E090E096
:104440000E94D20E53C96EE574E084E694E00E94A7
:104450004A128AE090E00E94EF0D48C988E090E09F
:104460009093700380936F0380919103811109C031
:104470000E94400ED0926E03C0926D0381E0809343
:10448000910380916D0390916E0360E0019799F51F
:1044900080E00E947A0E6BED74E08FE095E00E9460
:1044A000810661E080E00E947A0E67ED74E08FE0A3
:1044B00095E00E94810661E08FE00E947A0E62E042
:1044C0008FE095E00E94EC0E0E945806F82E61E005
:1044D00070E00E944B0E53E4F5122AC061E270E0D6
:1044E00080E090E00E948A0480916F0390917003B5
:1044F0000E94EF0DFBC880E00E947A0E67EC74E02A
:104500008FE095E00E94810660E08FE00E947A0EC5
:1045100061E08FE095E00E94EC0E61E080E00E9497
:104520007A0E63EC74E08FE095E00E948106CCCFB8
:1045300083E2F812DBC880916D0390916E030097BF
:1045400071F0019709F0D2C861E270E080E090E07C
:104550000E948A0486E090E00E94EF0DC7C861E2E5
:1045600070E080E090E00E948A0484E694E00E947B
:10457000C6100E94522B20E030E040E05FE30E9432
:104580008D2B0E94982C0E94AF2C70932D0160936C
:104590002C018CE090E00E94EF0DA8C885E090E02F
:1045A0009093700380936F0380919103811115C0E4
:1045B00062EA71E08CE494E00E9414120E94400EC2
:1045C00060E080E00E947A0E6DE075E08FE095E09B
:1045D0000E94810681E0809391030E94580690ED2D
:1045E000980F9A30D0F4682F8CE494E00E94E01188
:1045F00061E080E00E947A0E6CEF74E08FE095E05D
:104600000E94810661E080E00E947A0E6CE474E012
:104610008FE095E00E94730669C8833431F562EA41
:1046200071E08CE494E00E94B110811111C062EA43
:1046300071E08CE494E00E94141261E080E00E943A
:104640007A0E6BEE74E08FE095E00E9481064EC812
:1046500061E270E080E090E00E948A0480916F0344
:10466000909170030E94EF0D41C8833209F03EC85B
:1046700061E270E080E090E00E948A0462EA71E00A
:104680008CE494E00E94B110882329F086E090E049
:104690000E94D20E2BC88CE494E00E94C610709346
:1046A0002D0160932C01605E7D4F8DE993E00E94A7
:1046B000131060EA71E08DE993E00E9413108CE022
:1046C00090E00E94EF0D12C880919103811119C0F2
:1046D0000E94400E60E080E00E947A0E6DE175E07D
:1046E0008FE095E00E94810661E080E00E947A0EF2
:1046F00080912C0190912D010E94351081E08093D2
:10470000910360ED77E080E090E00E948A048DE004
:1047100090E00E94EF0D0C94761B0E94DF120C9427
:10472000761B80919103811115C062EA71E082E5E8
:1047300094E00E9414120E94400E60E082E00E9409
:104740007A0E6BE475E08FE095E00E94810681E0CF
:10475000809391030E945806F82E80917B039091DC
:104760007C038130910509F4DDC008F464C0029730
:1047700011F00C94761B80ED8F0D8A3008F08DC0FF
:104780006F2D82E594E00E94E01161E080E00E94DC
:104790007A0E6AE375E08FE095E00E94810661E0A1
:1047A00080E00E947A0E62E574E08FE095E00E945E
:1047B00073068FE090E00E94D10D811171C08FEFE0
:1047C00094E00E94090A8823E1F08FEF94E00E94B0
:1047D000B2078823B1F061E270E080E090E00E94CF
:1047E0008A0462EA71E082E594E00E9414128EE08D
:1047F00090E00E94B80E8FEF94E00E94A8090E94FA
:10480000030A80E190E00E94D10D882311F40C94FA
:10481000761B61E270E080E090E00E948A0462EA28
:1048200071E082E594E00E9414128EE090E00E9414
:10483000B80E0C94761B8FE090E00E94D10D882377
:1048400021F08FE090E00E94EF0D80E190E00E9467
:10485000D10D811102C0FF2021F08EE090E00E9476
:10486000B80E8FEF94E00E94090A882311F40C948B
:10487000761B8FEF94E00E94B207882311F40C940A
:10488000761B8EE090E00E94B80E8FEF94E00E94BD
:10489000A8090E94030A0C94761B91E4F91220C027
:1048A000209156043091570480915C0490915D04EE
:1048B00028173907E1F480915204909153046091D4
:1048C000580470915904009709F424C661157105C4
:1048D00059F4232B09F42CC6FC01808190E025C6F5
:1048E000E3E2FE16E9F265CF0E94612F1EC662EA7E
:1048F00071E082E594E00E9414120E94400E60E094
:1049000082E00E947A0E6DE275E08FE095E00E94F1
:10491000810668EE73E080E090E00E948A048EE0F9
:1049200090E00EC68FEF94E00E94090A882331F1CF
:104930008FEF94E00E94B207882301F18091010576
:104940000E944C038F3F980779F04AE0489F9001FE
:10495000499F300D11246DEC71E0C90181519B4FCD
:104960000E94B110811116C08EE090E00E94B80E36
:104970008FEF94E00E94A8090E94030A80E190E072
:104980000E94D10D882389F08EE090E00E94B80E3D
:104990000C94761B61E270E080E090E00E948A0453
:1049A0008FE090E00E94EF0DE3CF8FE090E00E9457
:1049B000D10D8111E9CFF110E7CF0C94761B8091D6
:1049C000910381111CC00E94400E60E081E00E94B2
:1049D0007A0E65E675E08FE095E00E94810680E73B
:1049E00094E00E94C61060357105810591054CF177
:1049F00080E49FE10E94270F81E0809391030E9451
:104A0000400E60E082E00E947A0E68E575E08FE07B
:104A100095E00E94810668EE73E080E090E00E94DD
:104A20008A040E94BC046093770370937803809398
:104A3000790390937A0380E190E00E94EF0D0C944B
:104A4000761B80EA9FE0D6CF8091910381110FC041
:104A50000E94400E60E082E00E947A0E66E775E0F8
:104A60008FE095E00E94810681E08093910380E7CA
:104A700094E00E94C6104B010E94BC044090770352
:104A8000509078036090790370907A0364197509E7
:104A90008609970928EE33E040E050E00E943A2D65
:104AA000821A930A97FC3CC02CE382169104D4F13D
:104AB000C4016CE370E00E94262D9F938F937F9337
:104AC0006F9344E352E05F934F931F9281E18F9382
:104AD0001F930F930E94802F0FB6F894DEBF0FBE76
:104AE000CDBF61E080E00E947A0EB8018FE095E0D2
:104AF0000E941310F80101900020E9F731975F013F
:104B0000A01AB10A90E1A916B104D4F464E775E0E3
:104B10008FE095E00E948106EFEFAE1ABE0AF2CF59
:104B2000912C812C9F928F9224E432E03F932F931B
:104B30001F9281E18F931F930F930E94802FCCCF00
:104B4000892831F486E190E00E94EF0D0C94761BE9
:104B500080917B0390917C038230910589F50E94BE
:104B600024056CE7E62E64E0F62EF701848D84348C
:104B7000C1F4878D90A10297A1F410927203109254
:104B800071030E94BC046093730370937403809359
:104B900075039093760381E190E00E94EF0D0C94F1
:104BA000761B80E10E94C703892B39F3F6E0EF0EF4
:104BB000F11C28EB34E02E153F05B9F60C94761B5A
:104BC000009739F480E10E94C703892BB1F20C945D
:104BD000761B019711F00C94761B8FEF94E00E94E6
:104BE000090A882311F40C94761B8FEF94E00E943D
:104BF000B207F82E882311F40C94761B80910105DE
:104C00000E944C038F3F980779F04AE0489F90013B
:104C1000499F300D112464EC71E0C90181519B4F13
:104C20000E94B110811105C080E190E00E94B80E91
:104C3000F12C8FEF94E00E94A8090E94030AF11062
:104C40009CCF0C94761B80E794E00E94C6104B0129
:104C50000E94BC04409077035090780360907903E1
:104C600070907A03641975098609970928EE33E074
:104C700040E050E00E943A2D821A930A1814190459
:104C800034F086E190E00E94EF0D0C94761B809149
:104C9000910381110AC00E94400E64E271E080E03D
:104CA0000E94080F81E0809391034CE384169104E5
:104CB000C4F1C4016CE370E00E94262D9F938F9392
:104CC0007F936F9382E592E09F938F931F9281E190
:104CD0008F931F930F930E94802F0FB6F894DEBF1F
:104CE0000FBECDBF60E080E00E947A0EB8018FE079
:104CF00095E00E941310F80101900020E9F7319728
:104D00007F01E01AF10AF0E1EF16F104C4F463E860
:104D100075E08FE095E00E9481062FEFE21AF20A1B
:104D2000F2CF9F928F9243E652E05F934F931F9290
:104D300081E18F931F930F930E94802FCECF80919C
:104D40007B0390917C038230910521F50E9424051C
:104D5000ECE7F4E0848D843431F4878D90A10197E1
:104D6000029708F448C0369648EB54E04E175F07A8
:104D700089F780E10E94C703892BE9F180917B03C9
:104D800090917C030197B9F180E190E00E94EF0DD2
:104D90000C94761B009769F3019781F78FEF94E0ED
:104DA0000E94090A882351F38FEF94E00E94B20712
:104DB000882321F3809101050E944C038F3F9807BF
:104DC00089F04AE0489F9001499F300D112464EC1E
:104DD00071E0C90181519B4F0E94B110FF24F394EF
:104DE000811101C0F12C8FEF94E00E94A8090E946C
:104DF000030AFF2019F20E94BC0480907303909074
:104E00007403A0907503B0907603681979098A0934
:104E10009B09643F71408105910510F40C94761B49
:104E20000E94BC04609373037093740380937503B2
:104E300090937603E0907103F090720361E08E2D01
:104E40000E947A0E60E08FE095E00E94EC0EFFEF8A
:104E5000EF1AFF0AF0927203E092710321E1E21669
:104E6000F10414F40C94761B87E190E00E94EF0D9E
:104E70000C94761B81E090E00E94DB0F0C94761B73
:104E800090E080E00E94DB0F0C94761B80919103F0
:104E900081110FC00E94400E60E081E00E947A0EF6
:104EA00065E875E08FE095E00E94810681E08093DF
:104EB00091030E945806B82E80917B0390917C0349
:104EC000009709F446C0019711F00C94761B8FEF00
:104ED00094E00E94090A882379F18FEF94E00E9400
:104EE000B207882349F1809101050E944C038F3F4E
:104EF000980709F481C04AE0489F9001499F300D0E
:104F00001124C90181519B4F7C016DEC71E00E941D
:104F1000B110882309F45FC061E270E080E090E0A6
:104F20000E948A0483E190E00E94EF0D8FEF94E0ED
:104F30000E94A8090E94030A8FE090E00E94D10D10
:104F4000882309F45EC082E190E00E94B80E0C94C0
:104F5000761B8FE090E00E94D10D811103C031E3F8
:104F6000B3120AC061E270E080E090E00E948A041F
:104F700083E190E00E94EF0D80E190E00E94D10D6E
:104F8000811103C042E3B4120AC061E270E080E024
:104F900090E00E948A0484E190E00E94EF0D8FEF80
:104FA00094E00E94090A882311F40C94761B8FEF79
:104FB00094E00E94B207882311F40C94761B82E1DE
:104FC00090E00E94B80E8FEF94E00E94A8090E9422
:104FD000030A0C94761B64EC71E0C7010E94B110C7
:104FE000882309F4A3CF61E270E080E090E00E94A2
:104FF0008A0484E190E098CF82E190E00E94B80EAC
:1050000095CF91E3B91609F49ECF80E190E00E941C
:10501000D10D811198CFE2E3BE120C94761B93CF91
:1050200081E090E00E94D1100C94761B82E090E029
:105030000E94D1100C94761B80919103811177C04E
:105040000E94400E6EE271E080E00E94080F8091A5
:105050008B0390918C0352E0F52E8130910509F07D
:10506000F12CF092890310928A0322E030E0823022
:10507000910511F030E020E03093880320938703FE
:1050800060E08130910519F0029749F461E080E019
:105090000E947A0E60E08FE095E00E94EC0E60E0E6
:1050A0008F2D0E947A0E64EA75E08FE095E00E94F1
:1050B00081068091890390918A03079690938A03D1
:1050C0008093890361E0809187030E947A0E6CE9E6
:1050D00075E08FE095E00E948106809187039091B2
:1050E00088030796909388038093870380918503B4
:1050F00090918603892B71F40E94BC046093810314
:10510000709382038093830390938403D0928603E9
:10511000C09285030E94BC0460937D0370937E035C
:1051200080937F039093800381E0809391030E949A
:10513000BC0480907D0390907E03A0907F03B0908C
:105140008003681979098A099B09683E73408105C3
:105150009105E8F0E0908F03F09090030E94BC046A
:1051600060937D0370937E0380937F03909380030D
:1051700080918B0390918C038130910509F05DC083
:105180002FEFE21AF20AF0929003E0928F0360E0B0
:10519000809189030E947A0E80918F0390919003F1
:1051A0000E94351068E975E08FE095E00E94810665
:1051B00061E0809187030E947A0E80918D03909127
:1051C0008E030E94351064E975E08FE095E00E943F
:1051D00081060E945806F82E0E94BC044B015C0117
:1051E00084E694E00E94C6102B013C01809181036B
:1051F00090918203A0918303B0918403A50194014F
:10520000281B390B4A0B5B0BCA01B90128EE33E0AE
:1052100040E050E00E943A2D24153505460557051B
:10522000C8F061E270E080E090E00E948A0488E1CA
:1052300090E00E94EF0D0C94761B029709F0A7CF27
:1052400080918D0390918E03019690938E038093AD
:105250008D039DCF80912C0190912D0120918F0382
:105260003091900328173907E4F620918D0330918F
:105270008E0328173907ACF680917B0390917C034D
:10528000009709F461C0019711F00C94761B8FEF21
:1052900094E00E94090A882311F40C94761B8FEF86
:1052A00094E00E94B207882311F40C94761B80913D
:1052B00001050E944C038F3F980709F440C04AE063
:1052C000489F9001499F300D1124A90141515B4F26
:1052D0007A016DEC71E0CA010E94B110882331F0AF
:1052E00080918B0390918C03019779F464EC71E0C9
:1052F000C7010E94B110811117C08FEF94E00E9486
:10530000A8090E94030A0C94761BD0928C03C092C9
:105310008B0361E270E080E090E00E948A0485E106
:1053200090E00E94EF0DE9CF80918B0390918C0368
:10533000029719F330928C0320928B03EACF85E118
:1053400090E00E94B80ED9CF51E4F51210C08091C0
:105350008B0390918C03019709F4D3C0D0928C03F6
:10536000C0928B0385E190E00E94EF0D09C081E3BC
:10537000F81669F38FE090E00E94D10D8111E7CF1C
:1053800092E4F91212C080918B0390918C030297E2
:1053900011F40C94761B30928C0320928B0385E1E0
:1053A00090E00E94EF0D0C94761BE2E3FE1659F399
:1053B00080E190E00E94D10D8111E5CF0C94761B25
:1053C00080919103811168C00E94400EE0908F038C
:1053D000F090900380918D0390918E038E159F0520
:1053E0000CF473C0E816F9060CF480C060E081E0AC
:1053F0000E947A0E66ED75E08FE095E00E948106CE
:10540000B701C8010E941E1262E772E0CE01489601
:105410000E9461124D815E8169817A81CE01489638
:105420000E94AB11811104C0CE0148960E943C112C
:1054300045E050E067E772E0CE0148960E94AB116C
:10544000811104C0CE0148960E943C11AC8CBD8CE9
:10545000CE0148960E944E11C8010E944E1180E173
:1054600090E08A199B0997FD01969595879561E0D3
:105470000E947A0E61EC75E08FE095E00E94810653
:10548000C7010E9435106BEB75E08FE095E00E943C
:10549000810681E0809391030E945806882311F4CD
:1054A0000C94761B0E94400E6CEA75E08FE095E04C
:1054B0000E9481066CED75E080E090E00E948A0415
:1054C000F0E0E0E009950C94761BAA24A394B12C9B
:1054D00060E080E00E947A0E66EC75E08FE095E077
:1054E0000E948106C5010E9435108ACF7C0132E0FE
:1054F000A32EB12CEDCF90E080E00E94EF0D0C9434
:10550000761BF2E4FF1609F446CF22E3F21609F403
:1055100042CF4ECF6115710559F0232B49F0FB01A5
:10552000808190E0919581959109892B09F0DFC9DF
:1055300061E270E080E090E00E948A048FE090E0F9
:105540000E94EF0D3CC986E494E00E944E118CE469
:1055500094E00E944E1182E594E00E944E1188E58D
:1055600094E00E944E118EE594E00E944E1184E674
:1055700094E00E944E118AE694E00E944E1180E76A
:1055800094E00E944E1186E794E00E944E1189EF4C
:1055900094E00E944E118FEE94E00C944E111F93F4
:1055A000FC0199278827BC01E89411911032E9F396
:1055B000193010F01E30C8F31B3251F01D3249F47F
:1055C000689406C00E94112B610F711D811D911DF1
:1055D000119110531A30B0F33EF490958095709568
:1055E00061957F4F8F4F9F4F1F910895FB01DC0105
:1055F00005900D920020E1F70895FC010590002030
:10560000E9F7809590958E0F9F1F0895BB274A302C
:1056100031F4992322F4BDE2909581959F4F0C942B
:10562000272B592F482F372F262F660F771F881FBC
:10563000991F660F771F881F991F620F731F841FA2
:10564000951F660F771F881F991F0895BB27FB01C1
:105650005527AA27880F991FAA1FA41710F0A41B6B
:1056600083955051B9F7A05DAA3308F0A95DA193C5
:10567000009779F7B111B1931192CB010C94402BA3
:10568000DC01FC01672F71917723E1F7329704C0A9
:105690007C916D9370836291AE17BF07C8F3089534
:1056A000E89409C097FB3EF49095809570956195BC
:1056B0007F4F8F4F9F4F9923A9F0F92F96E9BB2772
:1056C0009395F695879577956795B795F111F8CFEE
:1056D000FAF4BB0F11F460FF1BC06F5F7F4F8F4F59
:1056E0009F4F16C0882311F096E911C0772321F04F
:1056F0009EE8872F762F05C0662371F096E8862FE7
:1057000070E060E02AF09A95660F771F881FDAF73D
:10571000880F9695879597F908950E94A02B0C9471
:10572000112C0E94032C38F00E940A2C20F09523A3
:1057300011F00C94FA2B0C94002C11240C94452C91
:105740000E94222C70F3959FC1F3950F50E0551FD6
:10575000629FF001729FBB27F00DB11D639FAA27C6
:10576000F00DB11DAA1F649F6627B00DA11D661F15
:10577000829F2227B00DA11D621F739FB00DA11D36
:10578000621F839FA00D611D221F749F3327A00DF0
:10579000611D231F849F600D211D822F762F6A2F8C
:1057A00011249F5750409AF0F1F088234AF0EE0FF1
:1057B000FF1FBB1F661F771F881F91505040A9F71E
:1057C0009E3F510580F00C94FA2B0C94452C5F3FC2
:1057D000E4F3983ED4F3869577956795B795F7955A
:1057E000E7959F5FC1F7FE2B880F911D96958795D2
:1057F00097F9089597F99F6780E870E060E0089551
:105800009FEF80EC089500240A94161617061806D8
:105810000906089500240A941216130614060506B4
:105820000895092E0394000C11F4882352F0BB0F45
:1058300040F4BF2B11F460FF04C06F5F7F4F8F4FA8
:105840009F4F089557FD9058440F551F59F05F3FE3
:1058500071F04795880F97FB991F61F09F3F79F092
:1058600087950895121613061406551FF2CF469514
:10587000F1DF08C0161617061806991FF1CF869596
:105880007105610508940895E894BB27662777277A
:10589000CB0197F90895F999FECF92BD81BDF89A91
:1058A000992780B50895262FF999FECF1FBA92BD8A
:1058B00081BD20BD0FB6F894FA9AF99A0FBE0196F1
:1058C00008952F923F924F925F926F927F928F92A4
:1058D0009F92AF92BF92CF92DF92EF92FF920F937F
:1058E0001F93CF93DF93CDB7DEB7CA1BDB0B0FB689
:1058F000F894DEBF0FBECDBF09942A883988488846
:105900005F846E847D848C849B84AA84B984C884DB
:10591000DF80EE80FD800C811B81AA81B981CE0FD2
:10592000D11D0FB6F894DEBF0FBECDBFED010895B7
:105930000E940E2D90F09F3748F4911116F40C94AC
:10594000452C60E070E080E89FE3089526F01B1688
:10595000611D711D811D0C94E52C0C94002D0E947D
:10596000B62C6894B1110C94452C08950E942A2CF1
:1059700088F09F5798F0B92F9927B751B0F0E1F010
:10598000660F771F881F991F1AF0BA95C9F714C0C0
:10599000B13091F00E94442CB1E008950C94442C55
:1059A000672F782F8827B85F39F0B93FCCF38695F9
:1059B00077956795B395D9F73EF490958095709556
:1059C00061957F4F8F4F9F4F0895882371F4772300
:1059D00021F09850872B762F07C0662311F4992762
:1059E0000DC09051862B70E060E02AF09A95660F0A
:1059F000771F881FDAF7880F9695879597F908958E
:105A00009F3F31F0915020F4879577956795B79532
:105A1000880F911D9695879597F908950E942A2CD5
:105A2000A0F0BEE7B91788F4BB279F3860F41616BC
:105A3000B11D672F782F8827985FF7CF86957795C8
:105A40006795B11D93959639C8F3089597FB072E76
:105A500016F4009407D077FD09D00E94622D07FC50
:105A600005D03EF4909581959F4F0895709561956E
:105A70007F4F0895A1E21A2EAA1BBB1BFD010DC08A
:105A8000AA1FBB1FEE1FFF1FA217B307E407F507EE
:105A900020F0A21BB30BE40BF50B661F771F881FCA
:105AA000991F1A9469F760957095809590959B0160
:105AB000AC01BD01CF010895EE0FFF1F0590F491D9
:105AC000E02D0994AA1BBB1B51E107C0AA1FBB1FF5
:105AD000A617B70710F0A61BB70B881F991F5A957A
