:100000000C94D9010C9401020C9401020C9401028D
:100010000C9401020C9401020C9401020C94010254
:100020000C9401020C9401020C9401020C94010244
:100030000C9401020C9401020C9401020C94010234
:100040000C94B3100C9401020C9423110C94FD1029
:100050000C9401020C9401020C9401020C94010214
:100060000C9455110C9401024469676974652075FC
:100070006D2076616C6F7221004552524F00202036
:100080002020202020202020202020202020002090
:100090002020202020202020202020202020200080
:1000A0005245494E494349414E444F2E2E2E00465B
:1000B000494E414C204445204A4F474F2100444F70
:1000C0004D494E414E444F2041204152454100533D
:1000D000697374656D6120696E69636961646F003D
:1000E00042656D2D56696E646F21004573636F6CB8
:1000F0006861206F206D6F646F004D6F646F2064C6
:10010000652061726D617200202020202020202057
:10011000202020202020202000446566696E612078
:10012000612073656E68610053656E68612073615C
:100130006C7661004C696D69746520646520746536
:100140006D706F0054656D706F2061706F7320610A
:10015000726D61720020202020202020202020208D
:1001600020202020200020202020202020202020AF
:100170002020202020200054656D706F2061706F5A
:10018000732061726D6172007365672E0054656D36
:10019000706F206578706C6F73616F007365672E88
:1001A0000054656D706F206C696D69746500202066
:1001B000202020202020202020202020202000205F
:1001C000202020202020202020202020202020004F
:1001D00054656D706F206C696D69746500283129F4
:1001E00053696D202D202832294E616F0020202078
:1001F000202020202020202020202020200020201F
:1002000020202020202020202020202020200044EA
:1002100065662E206D61782E207074732E004D61FE
:10022000782E20646520706F6E746F73002020201C
:1002300000202D20506F6E746F733A200073656735
:100240002E00202D2054656D706F3A2000202D2047
:1002500053656E68613A20007365672E00202D207B
:1002600054656D706F3A2000202D204475722E3A2F
:100270002000202D2041726D61723A2000204A6FCB
:10028000676F3A2000312D496E69636961722042BF
:100290002D536169720053454E48412045525241E9
:1002A0004441002020202020202020202020202029
:1002B000202020002D2031002D2032002D20330061
:1002C00041524D45204120424F4D424100424F4D49
:1002D00042412041524D4144410041524D414E4422
:1002E0004F2020424F4D4241002000424F4D42419D
:1002F0002041524D4144410020002D2031002D204D
:100300003200202020002020200045512E20323AAB
:10031000200045512E20313A20005245494E494394
:1003200049414E444F2E2E2E00205054532E004350
:100330004F4D200056454E434520412045515549DB
:100340005045200021212120454D50415445202178
:1003500021210000000000240027002A00000000E6
:1003600000250028002B00000000002300260029A3
:10037000000404040404040404020202020202034E
:100380000303030303010204081020408001020458
:1003900008102001020408102000000008000201DB
:1003A00000000304070000000000000000007412B9
:1003B000262211241FBECFEFD8E0DEBFCDBF26E03E
:1003C000A6E4B4E001C01D92A33BB207E1F714E03C
:1003D000A0E0B1E0EEE5F0E502C005900D92A63494
:1003E000B107D9F711E0C8EDD1E004C02197FE01B3
:1003F0000E945F23C73DD107C9F70E948D130C945B
:1004000022280C940000CF93DF9366E976E0EFE7B3
:10041000F6E0DF019B0190E0AD014F5756404817D1
:100420005907BCF4E90159919E014D915417A1F36C
:100430008158994F8E179F0779F0DB013D91BD01DF
:10044000319621853217B1F38FEF9FEFDF91CF9176
:10045000089590E080E0FACF81E090E0F7CF96E059
:10046000899FD0011124A05FB94F90967C936E9321
:100470005F9791E091969C939197E0917D06F09122
:100480007E0690917C06992339F0309751F08111C6
:1004900008C080912C060994309719F05C968C91D5
:1004A000FACF08958CBD9DBD0895833081F028F466
:1004B000813099F08230A9F008958730A9F0883012
:1004C000C9F08430B1F4809180008F7D03C08091A9
:1004D00080008F7780938000089584B58F7784BDE6
:1004E000089584B58F7DFBCF8091B0008F77809386
:1004F000B00008958091B0008F7DF9CFCF93DF9346
:10050000282F30E0F901E756FC4F8491F901EB57B1
:10051000FC4FD491F901EF58FC4FC491CC23A1F0CA
:1005200081110E945502EC2FF0E0EE0FFF1FE959F8
:10053000FC4FA591B491EC91ED2381E090E009F49A
:1005400080E0DF91CF91089580E090E0FACF862F90
:100550000C947E021F93CF93DF93282F30E0F90194
:10056000E756FC4F8491F901EB57FC4FD491F90108
:10057000EF58FC4FC491CC23A9F0162F81110E9493
:100580005502EC2FF0E0EE0FFF1FE35AFC4FA59150
:10059000B4918FB7F894EC91111108C0D095DE2377
:1005A000DC938FBFDF91CF911F910895DE2BF8CFA1
:1005B000862F642F0C94AA02CF93DF9390E0FC0166
:1005C000EB57FC4F24918F589C4FFC01849188235A
:1005D000C9F090E0880F991FFC01ED5AFC4FA591DE
:1005E000B491FC01E35AFC4FC591D49161110DC047
:1005F0009FB7F8948C91209582238C93888128232F
:1006000028839FBFDF91CF910895623051F49FB747
:10061000F8943C91822F809583238C93E8812E2B34
:10062000EFCF8FB7F894EC912E2B2C938FBFEACF9E
:10063000862F642F0C94DC023FB7F89480912D052F
:1006400090912E05A0912F05B091300526B5A89B5D
:1006500005C02F3F19F00196A11DB11D3FBFBA2F54
:10066000A92F982F8827BC01CD01620F711D811D14
:10067000911D42E0660F771F881F991F4A95D1F799
:1006800008958F929F92AF92BF92CF92DF92EF9296
:10069000FF924B015C010E941C036B017C010E94D4
:1006A0001C036C197D098E099F09683E7340810502
:1006B0009105A8F321E0821A9108A108B10888EEFB
:1006C000C80E83E0D81EE11CF11C81149104A10422
:1006D000B10429F7FF90EF90DF90CF90BF90AF90DB
:1006E0009F908F9008952FB7F8946091290570918D
:1006F0002A0580912B0590912C052FBF08950F930B
:100700001F93CF93DF93C82FD62F86E0C89FF001A9
:100710001124E05FF94F11A2878D90A181309105DE
:10072000F1F058F082309105F1F1039709F440C0DF
:10073000DF91CF911F910F9108956623C9F361E076
:1007400070E08C2F0E942F020E9473036093680652
:100750007093690680936A0690936B06E9CF0E94B6
:100760007303009168061091690620916A06309122
:100770006B06AB01BC01401B510B620B730B8091EC
:100780007A0690917B06B0E0A0E084179507A60753
:10079000B70748F462E070E08C2FDF91CF911F9192
:1007A0000F910C942F0263E070E0D111C1CFF4CF10
:1007B00070E060E0F1CF6F927F928F929F92AF9244
:1007C000BF92CF92DF92EF92FF920F931F93CF933E
:1007D000DF930E94730300916C0610916D062091C7
:1007E0006E0630916F06AB01BC01401B510B620BD2
:1007F000730B8091780690917906B0E0A0E010E04C
:1008000084179507A607B70708F0F7C0C0E08091E6
:100810007606C81760F4E0917206F0917306EC0F4B
:10082000F11D62E080810E94DC02CF5FF0CF712C6D
:10083000812C912C5401839480917706781608F0CE
:100840005FC0072D10E0E0917406F0917506E00F8F
:10085000F11F61E080810E94DC02E0917406F0915A
:100860007506E00FF11F60E080810E94AA02D501A9
:10087000C401072C04C0880F991FAA1FBB1F0A942C
:10088000D2F76C017C01E094F094612C80917606A3
:100890006816F8F4C62DD0E0E0917206F091730668
:1008A000EC0FFD1F80810E947E022496CC0FDD1F7D
:1008B000C05FD94F892B41F4888199818C299D296A
:1008C000998388836394E2CF888199818E219F21C7
:1008D000F7CFE0917406F0917506E00FF11F61E02B
:1008E00080810E94AA028091740690917506080F7B
:1008F000191F60E0F80180810E94DC0273949CCF94
:10090000C0E1D6E0FE018FEF9FEF278D30A1232BB2
:1009100021F4148E968F858F11A2369626E0EC3442
:10092000F20799F7F12C96E0D92E80917606F81609
:1009300008F050C0E12C0F2D10E0000F111F085ED1
:10094000194F20917706E21608F042C0F801608145
:1009500071810E2C02C0769567950A94E2F7F29E9B
:10096000900111242E0D311DE0E1F6E080E0458D6F
:10097000568D2417350709F450C08F5F36968A309C
:10098000B1F760FF23C0E0E1F6E090E080E0448D45
:10099000411117C0E0917006F0917106E20FF31F4C
:1009A0004081D89EF001D99EF00D1124E05FF94FEF
:1009B000448F368F258F10A2178E61E00E947F032F
:1009C00005C0019636968A30910509F7E394B9CFB0
:1009D000F394ABCF10E089A18111182F2696F6E091
:1009E000CC34DF07C1F70E94730360936C067093E9
:1009F0006D0680936E0690936F06812FDF91CF91E5
:100A00001F910F91FF90EF90DF90CF90BF90AF902C
:100A10009F908F907F906F9008956170CFCF81E00D
:100A200080937C060E94DB03882369F08091310665
:100A3000882349F080912F0690913006019719F490
:100A400080912C06089510927C0680E00895089508
:100A50000895DB0114964D915C9115976D917C91F1
:100A6000DC01ED91FC910280F381E02D0994EF927D
:100A7000FF920F931F93CF93DF938C017B01D0E004
:100A8000C0E0F701EC0FFD1F6491662361F0D8010F
:100A9000ED91FC910190F081E02DC8010995892B21
:100AA00011F02196EECFCE01DF91CF911F910F91E2
:100AB000FF90EF900895AF92BF92CF92DF92EF92A6
:100AC000FF920F931F93CF93DF936C017B018B01F8
:100AD000040F151FEB015E01AE18BF08C017D10748
:100AE00059F06991D601ED91FC910190F081E02DD2
:100AF000C6010995892B79F7C501DF91CF911F9127
:100B00000F91FF90EF90DF90CF90BF90AF9008953E
:100B1000FC01538D448D252F30E0842F90E0821B03
:100B2000930B541710F0CF96089501970895FC0188
:100B3000918D828D981761F0A28DAE0FBF2FB11DE0
:100B40005D968C91928D9F5F9F73928F90E0089538
:100B50008FEF9FEF0895FC01918D828D981731F0F2
:100B6000828DE80FF11D858D90E008958FEF9FEF46
:100B70000895FC01918D228D892F90E0805C9F4F1C
:100B8000821B91098F739927089581E395E00E9454
:100B9000B90521E0892B09F420E0822F089580E037
:100BA00090E0892B29F00E94C50581110C9400006A
:100BB0000895FC01A48DA80FB92FB11DA35ABF4FF2
:100BC0002C91848D90E001968F739927848FA6894C
:100BD000B7892C93A089B1898C91837080648C93A0
:100BE000938D848D981306C00288F389E02D80814F
:100BF0008F7D80830895EF92FF920F931F93CF9381
:100C0000DF93EC0181E0888F9B8D8C8D98131AC047
:100C1000E889F989808185FF15C09FB7F894EE892E
:100C2000FF896083E889F98980818370806480838B
:100C30009FBF81E090E0DF91CF911F910F91FF90D6
:100C4000EF900895F62E0B8D10E00F5F1F4F0F737E
:100C50001127E02E8C8D8E110CC00FB607FCFACF39
:100C6000E889F989808185FFF5CFCE010E94D905F9
:100C7000F1CFEB8DEC0FFD2FF11DE35AFF4FF0820A
:100C80009FB7F8940B8FEA89FB8980818062CFCF70
:100C9000CF93DF93EC01888D8823B9F0AA89BB89B3
:100CA000E889F9898C9185FD03C0808186FD0DC09E
:100CB0000FB607FCF7CF8C9185FFF2CF808185FFBF
:100CC000EDCFCE010E94D905E9CFDF91CF910895F4
:100CD000BC016E5F7F4FDC01ED91FC910190F081D2
:100CE000E02D40E0099591E0811190E0892F089571
:100CF00008958EBD00000DB407FEFDCF8EB508959A
:100D0000DF92EF92FF920F931F93CF93DF937C01BB
:100D1000062FD42E152F80E590E00E94520260E04D
:100D2000F70186850E94AA0282E10E947906CD2DF4
:100D3000D12F0C0F1D2F111DC017D10721F0899144
:100D40000E947906F9CF61E0F7018685DF91CF91A6
:100D50001F910F91FF90EF90DF900C94AA021F93C8
:100D6000CF93DF93EC01162F80E590E00E945202B2
:100D700060E08E850E94AA02812F80680E94790619
:100D800080E00E947906182F61E08E850E94AA02F9
:100D9000812FDF91CF911F9108950F931F93CF93D0
:100DA000DF93EC01062F142F80E590E00E945202A1
:100DB00060E08E850E94AA02802F0E947906812F12
:100DC0000E94790661E08E85DF91CF911F910F918E
:100DD0000C94AA02CF92DF92EF92FF920F931F938F
:100DE000CF93DF93EC016B01F42E890140E062E0C8
:100DF0000E94CD0644E06AE0CE010E94CD0640E8A4
:100E000064E1CE010E94CD06A6016F2DCE010E94A5
:100E1000800643E062E0CE010E94CD060E9473038B
:100E20006B017C0129E5C20ED11CE11CF11C6AE0BA
:100E3000CE010E94AF0682FF1BC040E062E0CE01FF
:100E40000E94CD0664E4CE010E94AF06F8018083C3
:100E500062E4CE010E94AF06F801818380E0DF9159
:100E6000CF911F910F91FF90EF90DF90CF90089559
:100E70000E9473036C157D058E059F05C0F283E00B
:100E8000EECF2F923F924F925F926F927F928F920E
:100E90009F92AF92CF92DF92EF92FF920F931F93A8
:100EA000CF93DF9300D0CDB7DEB74C012B01D42E0A
:100EB000390180E0E114F10411F0F70180813C2C4C
:100EC000329490EF3922380E40E062E0C4010E9473
:100ED000CD064FE768E0C4010E94CD0640E864E11A
:100EE000C4010E94CD06A2016D2DC4010E9480069E
:100EF000432D6AE1C4010E94CD064CE062E0C401CA
:100F00000E94CD066AE1C4010E94AF06482F4068E6
:100F10006AE1C4010E94CD060E9473031B012C01EB
:100F2000F4E22F0E311C411C511C68E0C4010E94E8
:100F3000AF06982F907309F0B7C080FF15C083E00B
:100F40000F900F90DF91CF911F910F91FF90EF9035
:100F5000DF90CF90AF909F908F907F906F905F9039
:100F60004F903F902F9008950E9473036215730570
:100F700084059505D0F2E3CF6114710409F469C0CA
:100F80000115110509F465C064E1C4010E94AF06B2
:100F9000382EF8018081831508F480C03082332018
:100FA000E1F180E590E00E94520260E0F401868564
:100FB0000E94AA023A9482E90E947906CC20B1F0FC
:100FC0008FEF90E09C0102C0220F331FCA94E2F71A
:100FD000690182E90E9479069C2D9095F301208198
:100FE00092238C21982B9083CC24C39423014C0C06
:100FF000511CC31440F482E90E947906F2018193E6
:101000002F01C394F6CF80E00E947906F20180831D
:1010100061E0F40186850E94AA0268E1C4010E9491
:10102000AF068770E114F10411F0F701808323FC0F
:1010300037C061147104B1F10115110599F1AA20AD
:1010400089F1F8014081413031F4843029F58FEF86
:1010500077CF80E0ECCF4230F8F081111DC04250D4
:101060009E012F5F3F4FB301C4010E94EA06811128
:1010700067CFF8019081690E711CF30132972081CE
:101080009981291309C0F1E06F1A7108F3012081D9
:101090009A81291709F454CF87E052CF84E050CFCA
:1010A00082E04ECF80E04CCF6CE0C4010E94AF06DE
:1010B000282E837109F460CF81E042CF8F929F92F6
:1010C000AF92CF92DF92EF92FF920F931F93CF9345
:1010D000DF9300D000D0CDB7DEB74C0180E5898327
:1010E0001A829E012D5F3F4F42E0BE016F5F7F4F2E
:1010F000C4010E94EA06D82E811116C0A12CC12C71
:10110000F12CE12C10E000E030E020E044E0BE01F2
:101110006F5F7F4FC4010E944107833029F0D82EB2
:10112000811102C0DD24D3948D2D0F900F900F906C
:101130000F90DF91CF911F910F91FF90EF90DF9073
:10114000CF90AF909F908F9008950F931F93CF9360
:10115000DF938C01D62FC42F0E94AF06C0954C2F71
:1011600048236D2FC801DF91CF911F910F910C94EF
:10117000CD0648E060E183E996E00C94A5088F92E3
:101180009F92AF92CF92EF92FF920F931F93CF93C4
:10119000DF9300D000D01F92CDB7DEB74C0182E0C4
:1011A0008D8340E064E2C4010E94CD0640E066E227
:1011B000C4010E94CD0646E268E4C4010E94CD0647
:1011C00086E28B838D818230B0F140E86CE1C4010E
:1011D0000E94A50887E08C83A12CC12CCE01049627
:1011E0007C018E010B5F1F4F9E012F5F3F4F41E03F
:1011F000BE016D5F7F4FC4010E944107982F81118E
:1012000017C08D818230B9F48C81811114C081E0C6
:101210000F900F900F900F900F90DF91CF911F9133
:101220000F91FF90EF90CF90AF909F908F90089587
:1012300081E0923069F380E0EBCF2F923F924F92A2
:101240005F926F927F928F929F92AF92BF92CF9256
:10125000DF92EF92FF920F931F93CF93DF93CDB75F
:10126000DEB72D970FB6F894DEBF0FBECDBF16E0E8
:10127000413508F045C1342E4B013C0140E86CE19A
:101280000E94A50883E98983332029F081E0F401D5
:101290009081953008F480E022242394B12C9B2D7A
:1012A000990F990F990FD32CD91AD7FCD12C32E072
:1012B000882319F098E89B8333E021E09D2D9770F7
:1012C00009F420E09D2D959595959595290FC9F0E8
:1012D00094E0811193E0291708F4922FEB2DF0E0B0
:1012E0003196E80DF91D232F4191A1E0B0E0AC0F3C
:1012F000BD1FA20FB11D4C932F5F422F431B4917F7
:1013000098F3882311F0F8E0DF0E8FE18D150CF0D3
:1013100082C090E79A838B819C8189279D81892750
:101320009E8189278F839E01285F3F4F47E0BE0142
:101330006F5F7F4FC3010E94EA06182F8111E0C042
:101340001A86E3E0EB87DC86CE0107962C0199E054
:101350009D87CA844C2D4295407F4C0D6AE1C301A4
:101360000E94CD06A12CCE010A967C018E01055F5C
:101370001F4F92014D85BE016F5F7F4FC3010E94D9
:101380004107182F823009F065C06CE1C3010E944B
:10139000AF0685FDB5C08F7109F480E2282F30E0DB
:1013A0004D2DDD0C550B421753070CF09DC0D82E68
:1013B000E82FE595E595E595EF5F982F977081E02B
:1013C00009F480E0E80F81E090E08C0F9D1F8E0F04
:1013D000911DFC01215031092770332781E090E0F5
:1013E00002C0880F991F2A95E2F79C018081822B09
:1013F00080838BCF85E98983332031F081E0F4014C
:101400009081983008F04BCF80E049CF87E98983FD
:1014100026E0B22EF9CF9D2D97709A878D2D859558
:10142000859585958E5F282F2295207F290F2A8309
:1014300021E0911101C020E0280F2D87442443941E
:10144000512C4C0E5D1E480E511CE9E0E81BEB8749
:10145000DC867FCF811154C080E2D82E9C859032EB
:101460000CF457CF8B81883809F040C083E093E0BB
:10147000EB2DF0E03196E80DF91D980FA1E0B0E0FA
:10148000AC0FBD1FA80FB11D2C9121938F5F891345
:10149000F5CFBB84E3E0BE124DC08A8581114AC0FE
:1014A0009E012D5F3F4F41E0B201C3010E94EA0659
:1014B000182F811125C09B81F201818198133CC0B6
:1014C0009C818281981338C0808182FF12C023944E
:1014D000F2E02F1609F48ECF83E0281609F496CF98
:1014E00091E0291609F4CECE15E00AC082E094E01E
:1014F000BFCFF4018387822D880F820D8F5F808399
:10150000812F2D960FB6F894DEBF0FBECDBFDF91B1
:10151000CF911F910F91FF90EF90DF90CF90BF90F0
:10152000AF909F908F907F906F905F904F903F9083
:101530002F90089511E0E4CF17E0E2CF08952091B5
:101540008704260F3327331F21323105ECF4209115
:10155000D004FC0190E080E0243069F082E008953E
:10156000A09187042191AC0149595B4FA40FB52F7D
:10157000B11D2C930196861798F380918704680F0C
:101580006093870480E0089581E008951092D0046C
:1015900081E08093CF041092AA0461E082E10E946E
:1015A000AA0261E083E10E94AA02E9EBF0E08081F7
:1015B0008E7F808380818D7F808388E48093B800D4
:1015C00085E48093BC000895CF93DF9391E09093DE
:1015D00066048823B9F0C091B800D091BA00809118
:1015E000BC008A7B8093BC0060E082E10E94AA027A
:1015F00060E083E10E94AA020E94C60AD093BA006A
:10160000C093B800DF91CF9108950895E091FF0451
:101610008091FE04E81730F4F0E0EA5BFB4F808134
:1016200090E008958FEF9FEF08959091FF048091CF
:10163000FE042FEF3FEF981748F4E92FF0E0EA5B44
:10164000FB4F208130E09F5F9093FF04C901089514
:101650008091FE049091FF04891B990B0895CF920D
:10166000DF92EF92FF920F931F93CF93DF937C0152
:10167000CB018A012091D604222389F0EB016B0172
:10168000C40ED51ECC15DD0569F06991D701ED9129
:10169000FC910190F081E02DC7010995F3CF642FF3
:1016A0000E949F0AC801DF91CF911F910F91FF9077
:1016B000EF90DF90CF900895CF93DF931F92CDB737
:1016C000DEB769832091D6042223F9F02091FC042F
:1016D000203258F021E030E0FC013383228390E097
:1016E00080E00F90DF91CF9108958091FD04E82F65
:1016F000F0E0E952FB4F998190838F5F8093FD0466
:101700008093FC0481E090E0ECCF61E0CE01019693
:101710000E949F0AF7CFCF92DF92EF92FF920F9332
:101720001F93CF93DF93FC01C48121E02093D60463
:10173000C093F7041092FD041092FC048385682B7B
:101740008EEC95E00E945C0BD091FC04D13208F045
:1017500092C00E941C036B017C018091D004811116
:1017600065C082E08093D00481E08093CF048FEF46
:101770008093CE041092CD04D093CC04A7EDB4E0B6
:10178000ECEAF4E080E0D81385C01092AB048091BD
:10179000AB04CC0FC82BC093AB048091AA0481305A
:1017A00009F07CC01092AA040E941C036B017C010A
:1017B0008091AB048093BB008091D2049091D304BC
:1017C000A091D404B091D504892B8A2B8B2B99F04E
:1017D0000E941C030091D2041091D3042091D404E0
:1017E0003091D5046C197D098E099F0906171707DA
:1017F00028073907E0F18091BC0083FDD9CF85EC43
:101800008093BC000E941C036B017C018091D0047A
:10181000823009F445C08091CE048F3F61F1809100
:10182000CE04803241F18091CE0425C08091D20453
:101830009091D304A091D404B091D504892B8A2B24
:101840008B2B09F48ACF0E941C030091D2041091C3
:10185000D3042091D4043091D5046C197D098E09EC
:101860009F09061717072807390708F076CF8091D8
:10187000D1040E94E40A1092FD041092FC0410921C
:10188000D604DF91CF911F910F91FF90EF90DF90E1
:10189000CF9008959D9191938F5F75CF85EEB0CFD6
:1018A0008091D2049091D304A091D404B091D50436
:1018B000892B8A2B8B2B09F4A9CF0E941C03009142
:1018C000D2041091D3042091D4043091D5046C1922
:1018D0007D098E099F09061717072807390708F0A1
:1018E00095CFC5CF90E080E00895CF93C82F62E3F5
:1018F00070E080E090E00E9441038C2F0E947E0205
:10190000892B61F48C2F0E947E02892B51F46AE0AE
:1019100070E080E090E00E944103F4CF80E0CF913E
:10192000089581E0FCCF90932705809326051092BF
:1019300025051092190110921801109211011092B0
:101940001001109239011092380110923101109259
:101950003001109229011092280110922101109259
:1019600020011092010110920001109209011092C1
:101970000801892B81F410922405109223051092FE
:1019800022051092210510921A0510921905109245
:10199000200510921F0508950F931F93CF938C017C
:1019A000C62F0E948B0B6C2F6460C8010E948B0BAA
:1019B0006C2F6B7FC8010E948B0B83EC90E001972A
:1019C000F1F7CF911F910F9108950F931F93CF932C
:1019D000DF938C01D62FC42F607F642B0E94CC0C28
:1019E00080E1D89FB00111246C2BC801DF91CF9109
:1019F0001F910F910C94CC0C40E061E083EA96E0DB
:101A00000E94E50C8BE39FE10197F1F70895CF93D6
:101A1000DF93CDB7DEB728970FB6F894DEBF0FBEC1
:101A2000CDBF98E0E2E8F1E0DE01119601900D9261
:101A30009A95E1F79091AB06961710F46FEF690F46
:101A4000262F30E0220F331F41E050E04C0F5D1F86
:101A5000240F351FF9016081680F606840E083EA58
:101A600096E028960FB6F894DEBF0FBECDBFDF918B
:101A7000CF910C94E50CCF93DF93EC010E94FC0C0A
:101A800060E086E00E94070D69E770E083EA96E077
:101A90000E94370568EE73E080E090E00E94410309
:101AA000CE01DF91CF910C94930CCF93DF93EC0197
:101AB0000E94FC0C60E080E00E94070D68E670E088
:101AC00083EA96E00E94370568EB7BE080E090E0D7
:101AD0000E944103CE01DF91CF910C94930C41E021
:101AE0000E94E50C81E090E008950F931F93CF933F
:101AF000DF938C0140E060E483EA96E00E94E50C0D
:101B0000E801085F1F4F699183EA96E00E946F0D1C
:101B10000C171D07C1F7DF91CF911F910F91089509
:101B20008F929F92AF92BF92CF92DF92EF92FF92ED
:101B3000CF936C0182E591E00E94750D0E947303C2
:101B40004B015C0161E080E00E94070D6FE870E0EE
:101B500083EA96E00E9437050D2C000CEE08FF0882
:101B6000C0E00E947303681979098A099B096C1502
:101B70007D058E059F05E8F461E08C2F0E94070D1E
:101B800060E083EA96E00E946F0D6AEF70E080E00B
:101B900090E00E944103CF5FC03119F761E080E01F
:101BA0000E94070D6EE770E083EA96E00E94370519
:101BB000D7CFCF91FF90EF90DF90CF90BF90AF90B5
:101BC0009F908F900895FB0101900020E9F73197D5
:101BD000AF01461B570BDC01ED91FC910280F381B4
:101BE000E02D09948F929F92AF92BF92CF92DF9295
:101BF000EF92FF92CF93DF93CDB7DEB7A1970FB6E9
:101C0000F894DEBF0FBECDBF6C01990FEE08FF0840
:101C1000F7FE40C041E06DE283EA96E00E94E50CE9
:101C200022273327A9012C193D094E095F0919A262
:101C3000CE0181967C019AE0892E912CA12CB12CA9
:101C4000CA01B901A50194010E941E23605DF7013C
:101C500062937F01211531054105510589F790E017
:101C600080E0309729F0BF0183EA96E00E94E30DFF
:101C70000196A1960FB6F894DEBF0FBECDBFDF91DF
:101C8000CF91FF90EF90DF90CF90BF90AF909F905B
:101C90008F900895A701960119A2CE0181967C012B
:101CA0008AE0882E912CA12CB12CCA01B901A50182
:101CB00094010E941E23605DF70162937F0121154C
:101CC00031054105510589F790E080E0309789F2B0
:101CD000BF0183EA96E00E94E30DCBCF4F925F9263
:101CE0006F927F928F929F92AF92BF92CF92DF922C
:101CF000EF92FF920F931F93CF93DF93EC01F62E99
:101D000049015A01AE81BF81FD0101900020E9F730
:101D100031978F010A1B1B0B0E9473034A805B8063
:101D20006C807D80641975098609970968157905A5
:101D30008A059B05A8F1680180E1C80ED11C0E94AC
:101D400073036A837B838C839D836F2D80E00E9465
:101D5000070DF12CE12C888199818E0D9F1DB60114
:101D60000E940A2341E060E28017910734F4EE817B
:101D7000FF81E80FF91F41E0608183EA96E00E944D
:101D8000E50C8FEFE81AF80A80E1E816F10419F77C
:101D9000888199810196B6010E940A2399838883DC
:101DA000DF91CF911F910F91FF90EF90DF90CF9037
:101DB000BF90AF909F908F907F906F905F904F906B
:101DC0000895CF93DF93EC018091250581110FC019
:101DD0000E94FC0C60E081E00E94070D6FEA70E059
:101DE00083EA96E00E94370581E08093250526E985
:101DF00030E040E050E061E070E088E091E0219761
:101E000011F480E091E00E946E0E0E940F0588237D
:101E100099F00E94FC0C60EA70E083EA96E00E9470
:101E200037056CED75E080E090E00E944103F0E042
:101E3000E0E0DF91CF910994DF91CF910895FC010B
:101E400024813581232B39F421E0FB018081882313
:101E500049F020E007C0808191810E94642521E043
:101E6000892BB9F7822F0895FC0180819181009719
:101E700011F00C94522260E070E0CB010895CF93F2
:101E8000DF93EC0180912505811120C00E94FC0C9C
:101E900060E080E00E94070DD0932005C0931F05ED
:101EA0006EEB70E083EA96E00E94370588EF95E0DC
:101EB0000E94340F6A327340810591057CF480EAF8
:101EC0009FE00E94900D81E0809325050E94FC0C0C
:101ED00085E190E0DF91CF910C94930C80E49FE139
:101EE000F0CF0F931F93CF93DF93EC0188819981FB
:101EF000009759F02A813B812617370730F081E09F
:101F0000DF91CF911F910F9108958B016F5F7F4FEC
:101F10000E949E24009759F0998388831B830A832B
:101F20002C813D81232B59F7FC011082E8CF80E002
:101F3000E7CF0F931F93CF93DF938C010E948022F2
:101F40000097F1F0C091DE05D091DF05C80FD91FD1
:101F5000BE018AED95E00E94710F882391F02091D7
:101F6000DA053091DB058091DE059091DF05B8013F
:101F7000820F931F0E947922D093DF05C093DE0564
:101F800081E0DF91CF911F910F910895EF92FF9221
:101F90000F931F93CF93DF936115710541F480E098
:101FA000DF91CF911F910F91FF90EF900895411510
:101FB0005105B1F07B01EC010C811D81040F151F4F
:101FC000B8010E94710F882351F3288139818C81D7
:101FD0009D81B701820F931F0E946D251D830C8385
:101FE00081E0DECFFC0144815581608171818AED01
:101FF00095E00C94C60FCF93DF9300D0CDB7DEB73A
:1020000069831A8241E050E0BE016F5F7F4F0E94FA
:10201000C60F0F900F90DF91CF910895CF93DF936C
:10202000EC0188819981009711F00E941524198292
:1020300018821D821C821B821A82DF91CF91089523
:10204000EF92FF920F931F93CF93DF93EC017B01ED
:102050008A01BA010E94710F81110BC0CE010E944A
:102060000E10CE01DF91CF911F910F91FF90EF9055
:1020700008951D830C83B701888199810E946D2585
:10208000F0CFFB0101900020E9F73197AF01461B2B
:10209000570B0C942010CF93DF93EC01FB018617B4
:1020A000970749F0608171816115710541F04481A4
:1020B00055810E942010CE01DF91CF9108950E949A
:1020C0000E10F9CFFC011182108213821282158248
:1020D0001482FB0101900020E9F73197AF01461B04
:1020E000570B0C942010FC0180819181009711F016
:1020F0000C941524089585ED8093BC008091D20442
:102100009091D304A091D404B091D5040796A11D59
:10211000B11D23E0B695A795979587952A95D1F798
:102120002091BC0024FD03C01092D004089540917A
:10213000D2045091D3046091D4047091D504452BFE
:10214000462B472B69F30097A105B10541F02AE220
:102150002A95F1F700C00197A109B109E1CF80915B
:10216000D1040C94E40A1F920F920FB60F9211241F
:102170002F933F938F939F93AF93BF9380912905A4
:1021800090912A05A0912B05B0912C05309128053E
:1021900023E0230F2D3758F50196A11DB11D209383
:1021A00028058093290590932A05A0932B05B093C9
:1021B0002C0580912D0590912E05A0912F05B091B1
:1021C00030050196A11DB11D80932D0590932E051C
:1021D000A0932F05B0933005BF91AF919F918F9140
:1021E0003F912F910F900FBE0F901F90189526E8EA
:1021F000230F0296A11DB11DD2CF1F920F920FB6D1
:102200000F9211242F933F934F935F936F937F937C
:102210008F939F93AF93BF93EF93FF9381E395E0E9
:102220000E94D905FF91EF91BF91AF919F918F913E
:102230007F916F915F914F913F912F910F900FBEC2
:102240000F901F9018951F920F920FB60F921124A6
:102250002F938F939F93EF93FF93E0914105F0911C
:1022600042058081E0914705F091480582FD1BC041
:10227000908180914A058F5F8F7320914B05821763
:1022800041F0E0914A05F0E0EF5CFA4F958F8093C2
:102290004A05FF91EF919F918F912F910F900FBE63
:1022A0000F901F9018958081F4CF1F920F920FB658
:1022B0000F9211242F933F934F935F936F937F93CC
:1022C0008F939F93AF93BF93EF93FF938091B90048
:1022D000887F803609F44AC0F0F5883209F4A7C037
:1022E00018F5803109F49BC0B8F4882309F4F9C0CB
:1022F000883009F494C0FF91EF91BF91AF919F9105
:102300008F917F916F915F914F913F912F910F909E
:102310000FBE0F901F901895883109F488C0803245
:1023200051F78093CE0414C0803409F49DC040F46A
:102330008033B9F38833F9F68093CE0485ECB0C0CE
:10234000803509F485C0883509F496C0883499F63B
:102350000E947B10D0CF883909F48CC038F58837BB
:1023600029F050F4883611F0803729F683E0809305
:10237000D0041092A90457C0883809F47BC0803972
:1023800019F0803809F0B7CF8091A904803208F0A5
:1023900071C0E091A90481E08E0F8093A90480911F
:1023A000BB00F0E0E757FB4F80833DC0803B39F036
:1023B000E0F4803A09F479C0883A09F09CCF84E0CF
:1023C0008093D0041092880410928704E091FA045C
:1023D000F091FB0409958091870481110FC081E081
:1023E000809387041092670409C0803C09F4A6CF4B
:1023F000883C09F4A3CF883B09F07DCFE0918804A5
:1024000081E08E0F80938804F0E0E959FB4F8081D2
:102410008093BB00909188048091870429C08091AB
:10242000AB048093BB0085EC8093BC0064CF90919B
:10243000CD048091CC04981758F5E091CD0481E04B
:102440008E0F8093CD04F0E0E455FB4F8081E9CFFF
:10245000E091CD0481E08E0F8093CD048091BB008C
:10246000F0E0E455FB4F80839091CD048091CC0443
:102470009817C8F285E8D8CFE091CD0481E08E0F9F
:102480008093CD048091BB00F0E0E455FB4F808346
:102490008091CF0481115CCF81E08093AA0484EA0B
:1024A0008093BC001092D00426CF85EC8093BC00B2
:1024B0001092D0048091A904803230F4E091A904F4
:1024C000F0E0E757FB4F10826091A90470E0E091C3
:1024D000F804F091F90489E894E009951092A904B0
:1024E0000ACF1092CE0434CF1092340510923305E7
:1024F00088EE93E0A0E0B0E0809335059093360538
:10250000A0933705B09338052EE831E030933205BB
:102510002093310525EC30E030933E0520933D05B6
:1025200024EC30E03093400520933F0520EC30E070
:10253000309342052093410521EC30E0309344056F
:102540002093430522EC30E0309346052093450567
:1025500026EC30E0309348052093470510924A0559
:1025600010924B0510924C0510924D051092D1051A
:102570001092D0058093D2059093D305A093D405F3
:10258000B093D50580EA91E09093CF058093CE0576
:102590001092A6061092A50686EC91E09093A406F0
:1025A0008093A30687E28093A70680E18093AC0620
:1025B00082E08093AD061092AE068CEB91E0909392
:1025C0009406809393068AE08093A10689E0809325
:1025D000A2068AEA80937F068BEB809380068CECC0
:1025E000809381068DED809382066EEC71E083E826
:1025F00096E00E94621081E18093890682E28093D6
:102600008A0683E380938B0684E480938C0667EDCF
:1026100071E08DE896E00E9462101092120610920E
:102620001606109215061092170682EB91E0909311
:10263000110680931006ECE2F6E0108214821382F9
:102640001582369686E0E836F807B9F788E691E015
:10265000909373068093720684E691E090937506DA
:102660008093740684E080937606809377068CE6E8
:1026700091E090937106809370068AE090E09093C9
:1026800079068093780684EF91E090937B0680939F
:102690007A0610927E0610927D0610926C061092B9
:1026A0006D0610926E0610926F0610927C0662EE16
:1026B00071E08AE096E00E9462106DED71E084E0C6
:1026C00096E00E94621062EE71E08EEF95E00E944B
:1026D00062106FE072E088EF95E00E94621062EE97
:1026E00071E082EF95E00E94621062EE71E08CEE84
:1026F00095E00E94621062EE71E086EE95E00E9425
:10270000621062EE71E080EE95E00E94621062EE6F
:1027100071E08AED95E00C946210CF93DF93CDB712
:10272000DEB761970FB6F894DEBF0FBECDBF7894C9
:1027300084B5826084BD84B5816084BD85B58260C6
:1027400085BD85B5816085BD80916E008160809377
:102750006E001092810080918100826080938100E0
:1027600080918100816080938100809180008160F0
:10277000809380008091B10084608093B10080914B
:10278000B00081608093B00080917A008460809373
:102790007A0080917A00826080937A0080917A003A
:1027A000816080937A0080917A00806880937A00BB
:1027B0001092C100E0914105F091420582E08083D2
:1027C000E0913D05F0913E051082E0913F05F091CA
:1027D000400580E1808310924905E0914505F09124
:1027E000460586E08083E0914305F09144058081B1
:1027F00080618083E0914305F09144058081886089
:102800008083E0914305F091440580818068808356
:10281000E0914305F091440580818F7D8083109283
:10282000FF041092FE041092FD041092FC040E941A
:10283000C60A87E295E09093FB048093FA0488E24D
:1028400095E09093F9048093F8041092A806809183
:10285000AD06823018F098E09093A8068093AB06FE
:1028600062E370E080E090E00E9441036091AE0678
:1028700083EA96E00E948B0B68EE73E080E090E0C4
:102880000E94410360E383EA96E00E94CC0C0BE4D3
:1028900016E4C8010197F1F760E383EA96E00E942D
:1028A000CC0CC8010197F1F760E383EA96E00E943F
:1028B000CC0C83E592E00197F1F760E283EA96E0C1
:1028C0000E94CC0C6091A806606240E083EA96E02A
:1028D0000E94E50C84E08093A90640E06CE083EA66
:1028E00096E00E94E50C0E94FC0C82E08093AA0610
:1028F00040E066E083EA96E00E94E50C40E062E09A
:1029000083EA96E00E94E50C8BE39FE10197F1F7E3
:1029100088E08093AE0660E083EA96E00E948B0B2D
:102920000E94FC0C1FB7F89480910005811127C00C
:10293000EBE7F3E08491EFE8F3E09491E82FF0E027
:10294000EE0FFF1FED5AFC4FA591B491EC91E923D6
:1029500021F461E08AE00E94AA0261E08AE00E941C
:10296000DC028CB580618CBD8CB580648CBD61E06F
:102970008DE00E94DC0261E08BE00E94DC0280912D
:1029800000058F5F809300051FBF61E08091A10665
:102990000E94DC0261E08091A1060E94AA0280915F
:1029A000A2068F3F09F4B1C060E00E94DC02809172
:1029B000A2060E947E02892B09F0A7C061E08091E7
:1029C000A2060E94DC0260E08091A2060E94AA0298
:1029D00083E090E00197F1F761E08091A2060E9408
:1029E000AA0262E370E080E090E00E94410340E0D0
:1029F00064E283E996E00E94CD0640E066E283E966
:102A000096E00E94CD0646E268E483E996E00E94E3
:102A1000CD0640E864E583E996E00E94CD0649EAE8
:102A200066E583E996E00E94CD0643E068E583E928
:102A300096E00E94CD0648EE6AE583E996E00E94A2
:102A4000CD0640E46AE283E996E00E94CD064DE3BC
:102A500062E283E996E00E94CD0668E283E996E0AF
:102A60000E94AF06982F9370933039F0482F43603F
:102A700068E283E996E00E94CD0662E08FE00E9462
:102A8000DC0262E080E10E94DC0282E390E090934D
:102A90007906809378066FEC70E081E395E00E9400
:102AA000370560EE71E081E395E00E94E30D8E0151
:102AB0000F5F1F4FCC24C394D12C52E0252E312C14
:102AC000E0912605F0912705E931F10508F0E7C509
:102AD000E459FA4E0C945F239C15C7150F16521734
:102AE00097164B199C190B18D5188118AB182E176F
:102AF000181A331A521BA61CE81CDB1DF31EDA1F22
:102B0000E01FE31FEA1EF01EA0214FE062E083E910
:102B100096E00E94CD0613E062E370E080E090E072
:102B20000E94410362E083E996E00E94AF0684FFC1
:102B30005ECF115089F75BCF10920205109201050C
:102B40008091250581110FC00E94FC0C60E080E09F
:102B50000E94070D60EE70E083EA96E00E94370560
:102B600081E0809325052CE231E040E050E061E017
:102B700070E080E191E00E946E0E0E940F058133AB
:102B800009F07FC081E090E00E94930C7AC010921F
:102B90000205109201058091250581110FC00E9448
:102BA000FC0C60E080E00E94070D6BEE70E083EAB1
:102BB00096E00E94370581E0809325052CE231E004
:102BC00040E050E061E070E088E191E00E946E0E2C
:102BD0000E940F05823439F461E270E080E090E0F9
:102BE0000E9441039BC1813369F461E270E080E09F
:102BF00090E00E944103109204051092030582E0C8
:102C000090E0C2CF8233E9F561E270E080E090E0CD
:102C10000E944103D0920405C0920305F0CFD092E8
:102C20000205C09201058091250581110FC00E9407
:102C3000FC0C60E080E00E94070D6AEF70E083EA20
:102C400096E00E94370581E0809325050E940F05DC
:102C5000F82E22E482130CC061E270E080E090E084
:102C60000E94410380910105909102050E94930CFE
:102C70008091030590910405009781F0019709F474
:102C800045C080E090E0892B09F41ACF0E94C50569
:102C9000882309F415CF0E94000012CF2CE231E006
:102CA00040E050E061E070E088E291E00E946E0E4A
:102CB00031E3F3120DC061E270E080E090E00E9429
:102CC00041031092100510920F0583E090E05CCF55
:102CD00042E3F4120BC061E270E080E090E00E94F9
:102CE0004103D0921005C0920F05EFCF53E3F512C8
:102CF000C8CF61E270E080E090E00E944103309232
:102D0000100520920F0584E090E03ECF2CE231E0E8
:102D100040E050E061E070E080E291E00E946E0EE1
:102D200081E3F81641F292E3F912ABCFD4CF30929F
:102D300002052092010580912505811115C062EEE2
:102D400071E086EE95E00E9441100E94FC0C60E06C
:102D500080E00E94070D69E171E083EA96E00E943D
:102D6000370581E0809325050E940F05F82E80ED40
:102D70008F0D8A30E8F46F2D86EE95E00E94FB0FF0
:102D800061E080E00E94070D63EE71E083EA96E067
:102D90000E94E30D61E080E00E94070D66EE75E0A1
:102DA00083EA96E00E94290522E4F2126ACF14CF4A
:102DB000E4E4FE1211C062EE71E086EE95E00E943E
:102DC000411061E080E00E94070D68E071E083EA55
:102DD00096E00E94370555CFF3E2FF12E5CF61E29E
:102DE00070E080E090E00E94410362EE71E086EEC8
:102DF00095E00E941F0F882329F084E090E00E9454
:102E0000550D3FCF66EE75E08CEE95E00E944B10BD
:102E100064EF71E0C8010E9462104091F00550918A
:102E2000F1056091EC057091ED05C8010E94C60F97
:102E3000811103C0C8010E940E10B80181E395E022
:102E40000E94290560EE71E081E395E00E94E30DA8
:102E5000C8010E9473108BE090E096CE809125050A
:102E6000811119C00E94FC0C60E080E00E94070DF7
:102E700068E271E083EA96E00E94370561E080E055
:102E80000E94070D6CEE75E083EA96E00E9429052A
:102E900081E08093250568EE73E080E090E00E9479
:102EA000410313CF30920205209201058091250540
:102EB00081111BC0E0900305F09004050E94FC0CFA
:102EC00060E080E00E94070D64E471E0E114F10429
:102ED00029F0EA94EF2831F464E371E083EA96E0A4
:102EE0000E94370581E0809325058091030590912C
:102EF00004050097C1F42CE231E040E050E061E0CD
:102F000070E088E391E00E946E0E0E940F059FEC36
:102F1000980F943098F0823409F0B3CE8091010577
:102F20009091020531CE019781F72CE231E040E02B
:102F300050E061E070E080E391E0E5CF209103058F
:102F4000309104058333F1F1843309F451C08233A5
:102F500081F4D0924901C09248012115310529F52B
:102F600062E072E084E096E00E9441108DE090E023
:102F70000BCE10924901109248016DED71E02115C0
:102F8000310581F32130310509F07BCE6FE072E02D
:102F900088EF95E00E9441108CE291E090935B01F4
:102FA00080935A0185E090E0EFCD2130310509F0A2
:102FB00068CE65E072E088EF95E00E94411084E8F9
:102FC00093E0ECCF30924901209248016AE072E030
:102FD0002115310539F22130310509F052CE6EE06C
:102FE00072E088EF95E00E94411088E097E0D6CF2C
:102FF00083E090E0909349018093480187E090E05E
:103000002115310509F4C0CD88E090E0213031056B
:1030100009F037CEB9CD83E090E09093020580931C
:10302000010580912505811115C062EE71E08EEFDA
:1030300095E00E9441100E94FC0C60E080E00E943C
:10304000070D67E771E083EA96E00E94370581E0AB
:10305000809325050E940F05F82E80ED8F0D8A3094
:10306000E8F46F2D8EEF95E00E94FB0F61E080E0A9
:103070000E94070D66E671E083EA96E00E9437053C
:1030800061E080E00E94070D6EEF75E083EA96E054
:103090000E94290582E4F812F4CD9ECD44E4F41296
:1030A00013C061E270E080E090E00E94410362EEB4
:1030B00071E08EEF95E00E94411061E080E00E9497
:1030C000070D65E571E083CE53E2F512E3CF61E2CF
:1030D00070E080E090E00E94410362EE71E08EEFCC
:1030E00095E00E941F0F882319F087E090E087CEBB
:1030F0006EEF75E084E096E00E944B1089E090E06E
:1031000043CD8091250581111FC00E94FC0C60E019
:1031100080E00E94070D6DE871E083EA96E00E946E
:10312000370561E080E00E94070D64E076E083EA05
:1031300096E00E94290568E871E083EA96E00E9423
:10314000370581E08093250568EE73E080E090E02C
:103150000E9441030BCF8091250581111FC00E9461
:10316000FC0C60E080E00E94070D61EA71E083EAF8
:1031700096E00E94370561E080E00E94070D68EF4D
:1031800075E083EA96E00E9429056CE971E083EA24
:1031900096E00E94370581E08093250568EE73E094
:1031A00080E090E00E944103FDCE83E090E09093A8
:1031B00002058093010580912505811115C062EEFD
:1031C00071E082EF95E00E9441100E94FC0C60E0EB
:1031D00080E00E94070D60ED71E083EA96E00E94B6
:1031E000370581E0809325050E940F05F82E80EDBC
:1031F0008F0D8A30E8F46F2D82EF95E00E94FB0F6F
:1032000061E080E00E94070D6FEB71E083EA96E0D9
:103210000E94370561E080E00E94070D62EF75E0D3
:1032200083EA96E00E942905F2E4FF122ACDD4CC6D
:1032300094E4F91213C061E270E080E090E00E9433
:10324000410362EE71E082EF95E00E94411061E07F
:1032500080E00E94070D6EEA71E0B9CDE3E2FE1254
:10326000E3CF61E270E080E090E00E94410362EE13
:1032700071E082EF95E00E941F0F882319F088E02B
:1032800090E0BDCD62EF75E088EF95E00E944B10B5
:103290008AE090E079CC28E030E03093020520937A
:1032A00001058091250581110FC00E94FC0C61E091
:1032B00080E00E94070D6DED71E083EA96E00E94C8
:1032C000370581E08093250560E080E00E94070DCE
:1032D0002CE231E040E050E070E060E080E491E01A
:1032E0000E946E0E0E940F05813349F461E270E086
:1032F00080E090E00E94410386E090E045CC82337C
:10330000B9F461E270E080E090E00E94410388EF50
:1033100095E00E94340F22E030E040E050E00E944F
:10332000402330935B0120935A018CE090E02CCC39
:10333000823409F0A6CC50CC45E050E05093020511
:103340004093010580912505811115C062EE71E061
:1033500080EE95E00E9441100E94FC0C60E080E04D
:103360000E94070D6FE072E083EA96E00E94370545
:1033700081E0809325050E940F05F82E80ED8F0DCA
:103380008A30E8F46F2D80EE95E00E94FB0F61E03B
:1033900080E00E94070D6EEF71E083EA96E00E94E4
:1033A000370561E080E00E94070D60EE75E083EA7A
:1033B00096E00E94290592E4F91263CC0DCC54E406
:1033C000F5120DC062EE71E080EE95E00E944110B2
:1033D00061E080E00E94070D6DEE71E0F8CC83E2C1
:1033E000F812E9CF61E270E080E090E00E944103D2
:1033F00062EE71E080EE95E00E941F0F882319F0C5
:1034000086E090E0FCCC80EE95E00E94340F709353
:103410005B0160935A016D5E7D4F81E395E00E94F0
:10342000E30D60EE71E081E395E00E94E30D7DCF56
:1034300080912505811188CE0E94FC0C60E080E01F
:103440000E94070D6EE172E083EA96E00E94370564
:1034500061E080E00E94070D80915A0190915B012C
:103460000E94F20D6ECE8091250581118EC00E94C2
:10347000FC0C67E070E08AED95E00E94710F81110D
:10348000A3C08AED95E00E940E10809103059091F3
:103490000405009709F4A7C0019709F4AAC0C80160
:1034A0000E94F20FC8010E94731082E792E00E940E
:1034B000990F80910F05909110058130910509F4C5
:1034C000A1C008F499C0029709F49FC0C8010E94E6
:1034D000F20FC8010E94731088E692E00E94990FD3
:1034E00080914801909149018130910509F496C07D
:1034F00008F48EC08230910509F493C0039709F453
:1035000093C0C8010E94F20FC8010E9473108091FD
:10351000030590910405009709F089C08DE592E0BC
:103520000E94990F84E096E00E94F20F88E592E0F5
:103530000E94990F80910F0590911005029741F418
:103540008DE492E00E94990F8CEE95E00E94F20FBC
:103550008DE292E00E94990F8091DA059091DB054F
:10356000909351018093500110924B0110924A01A7
:1035700061E080E00E94070D65E872E083EA96E072
:103580000E94370581E0809325052CE231E040E080
:1035900050E070E060E08AE491E00E946E0E0E94CC
:1035A0000F05813309F072C061E270E080E090E0C5
:1035B0000E9441038091030590910405009709F052
:1035C0005FC08EE090E0E0CA87E090E09093DF0576
:1035D0008093DE056DE772E08091DA059091DB055E
:1035E0000E94792252CF67E272E0C8010E94621005
:1035F00056CF67E173E0F9CF61E372E0C8010E9442
:10360000621064CF62E373E0F9CF67E573E0F6CF51
:1036100067E372E0C8010E94621073CF6BE372E04F
:10362000F9CF62E472E0F6CF6FE472E0F3CF019776
:1036300009F08ECF82E492E00E94990F88EF95E026
:103640000E94F20F8DE392E00E94990F81E392E0D5
:103650000E94990F4AE0B80180915A0190915B0154
:103660000E948922F80101900020E9F73197AF010B
:10367000401B510BB8018AED95E00E94C60F68CF40
:10368000019709F0FECA82E190E07ECA823409F017
:10369000F8CA61E270E080E090E00E94410390E0AF
:1036A00080E072CA62EE71E0C8010E9462108091EF
:1036B000250581112FC00E94FC0C60E080E00E9473
:1036C000070D67E572E0C8010E94411060EC72E0EE
:1036D00083EA96E00E9437058D8160E08F5F0E944B
:1036E000070D80910F05909110058130910521F112
:1036F00030F1029761F462EE71E086EE95E00E948F
:1037000041106CEB72E083EA96E00E94370581E09D
:10371000809325050E940F05F82E80910F0590914A
:1037200010058130910509F4CBC060F00297B9F122
:10373000C8010E947310A5CA68EB72E0E4CF64EB85
:1037400072E0E1CF8FE090E00E94750C882321F0B9
:103750008FE090E00E94930C80E190E00E94750C55
:10376000811102C0FF2021F08EE090E00E943B0D0D
:1037700083E996E00E94BF088823D1F283E996E0AE
:103780000E9468068823A1F28EE090E00E943B0D23
:1037900083E996E00E945E080E94B908C9CF80EDD7
:1037A0008F0D8A3008F04DC06F2D86EE95E00E9497
:1037B000FB0F61E080E00E94070D63EA72E083EA9C
:1037C00096E00E94370561E080E00E94070D66EEFA
:1037D00075E083EA96E00E9429058FE090E00E9460
:1037E000750C811131C083E996E00E94BF088823DF
:1037F000B1F083E996E00E946806882381F061E2D7
:1038000070E080E090E00E9441038EE090E00E9432
:103810003B0D83E996E00E945E080E94B90880E1B2
:1038200090E00E94750C882309F482CF61E270E079
:1038300080E090E00E9441038EE090E00E943B0D0A
:1038400077CFE1E4FE1220C02091EA053091EB052C
:103850008091F0059091F10528173907E1F48091E6
:10386000E6059091E7056091EC057091ED050097F4
:1038700009F4D3C56115710559F4232B09F4DBC58F
:10388000FC01808190E0D4C5F3E2FF16E9F2A5CFF8
:103890000E946425CDC50E94FC0C60E082E00E947D
:1038A000070D66E972E083EA96E00E94370568EE4C
:1038B00073E080E090E00E9441038EE090E0C3C599
:1038C00083E996E00E94BF08882331F183E996E0FE
:1038D0000E946806882301F1809195060E940302E8
:1038E0008F3F980779F04AE0489F9001499F300D3B
:1038F000112467ED71E0C9018D57994F0E941F0F88
:10390000811119C08EE090E00E943B0D83E996E0A2
:103910000E945E080E94B90880E190E00E94750C48
:1039200081118ACF8FE090E00E94750C811184CFC5
:10393000F11082CFFDCE61E270E080E090E00E9465
:1039400041038FE090E00E94930CE0CF8091250529
:1039500081111CC00E94FC0C60E081E00E94070DF8
:103960006AED72E083EA96E00E94370584E096E013
:103970000E94340F603571058105910534F180E4B2
:103980009FE10E94900D81E0809325050E94FC0C30
:1039900060E082E00E94070D6DEC72E083EA96E041
:1039A0000E94370568EE73E080E090E00E944103DA
:1039B0000E94730360930B0570930C0580930D05B3
:1039C00090930E0580E190E0DFC880EA9FE0D9CFB8
:1039D0008091250581110FC00E94FC0C60E082E0FF
:1039E0000E94070D6BEE72E083EA96E00E943705B5
:1039F00081E08093250584E096E00E94340F4B011E
:103A00000E94730340900B0550900C0560900D05CB
:103A100070900E05641975098609970928EE33E040
:103A200040E050E00E941E23821A930A97FC3CC09B
:103A30002CE382169104D4F1C4016CE370E00E947F
:103A40000A239F938F937F936F9344E652E05F9393
:103A50004F931F9281E18F931F930F930E947425C0
:103A60000FB6F894DEBF0FBECDBF61E080E00E94CC
:103A7000070DB80183EA96E00E94E30DF80101907A
:103A80000020E9F731975F01A01AB10A90E1A91669
:103A9000B104D4F469EE72E083EA96E00E9437053F
:103AA000EFEFAE1ABE0AF2CF912C812C9F928F922B
:103AB00024E732E03F932F931F9281E18F931F936E
:103AC0000F930E947425CCCF892819F486E190E0E9
:103AD0005BC880910F05909110058230910569F5C2
:103AE0000E94DB0330E1E32E36E0F32EF701848DF4
:103AF0008434A9F4878D90A1029789F41092060569
:103B0000109205050E9473036093070570930805E2
:103B10008093090590930A0581E190E035C880E122
:103B20000E947E02892B51F3F6E0EF0EF11C2CE48B
:103B3000E21626E0F206D1F6A4C8009731F480E13F
:103B40000E947E02892BD1F29CC8019709F099C886
:103B500083E996E00E94BF08882309F492C883E9AC
:103B600096E00E946806F82E882309F48AC880919E
:103B700095060E9403028F3F980779F04AE0489F1C
:103B80009001499F300D11246EEC71E0C9018D57F1
:103B9000994F0E941F0F811105C080E190E00E94A3
:103BA0003B0DF12C83E996E00E945E080E94B90863
:103BB000F110A4CF66C884E096E00E94340F4B0158
:103BC0000E94730340900B0550900C0560900D050A
:103BD00070900E05641975098609970928EE33E07F
:103BE00040E050E00E941E23821A930A1814190420
:103BF0000CF06CCF80912505811109C00E94FC0C4E
:103C000082E591E00E94750D81E0809325054CE3EB
:103C100084169104C4F1C4016CE370E00E940A238D
:103C20009F938F937F936F9382E892E09F938F93FC
:103C30001F9281E18F931F930F930E9474250FB6FB
:103C4000F894DEBF0FBECDBF60E080E00E94070D9C
:103C5000B80183EA96E00E94E30DF801019000208C
:103C6000E9F731977F01E01AF10AF0E1EF16F1046C
:103C7000C4F468EF72E083EA96E00E9437052FEF04
:103C8000E21AF20AF2CF9F928F9243E952E05F93D9
:103C90004F931F9281E18F931F930F930E9474257E
:103CA000CECF80910F05909110058230910509F0DB
:103CB0005BC00E94DB03E0E1F6E0848D843429F4EC
:103CC000878D90A10197029790F036964CE456E0CC
:103CD0004E175F0791F780E10E947E02892B39F031
:103CE00080910F0590911005019709F06BCE0E940D
:103CF00073038090070590900805A0900905B09087
:103D00000A05681979098A099B09643F7140810590
:103D1000910510F40C9441160E94730360930705FB
:103D2000709308058093090590930A05E0900505B6
:103D3000F090060561E08E2D0E94070D60E083EA99
:103D400096E00E946F0DFFEFEF1AFF0AF092060552
:103D5000E092050587E190E021E1E216F10414F418
:103D60000C9441160C94C415009709F4B4CF019734
:103D700009F0B6CF83E996E00E94BF08882309F4D2
:103D8000AFCF83E996E00E946806882309F4A8CFA4
:103D9000809195060E9403028F3F980789F04AE0C0
:103DA000489F9001499F300D11246EEC71E0C901CC
:103DB0008D57994F0E941F0FFF24F394811101C06A
:103DC000F12C83E996E00E945E080E94B908F11088
:103DD0008ECF86CF81E090E00E94E10E0C944116D8
:103DE00090E080E0F9CF8091250581112CC062EE32
:103DF00071E0C8010E9462100E94FC0C60E080E04B
:103E00000E94070D62EA72E0C8010E944110B801E9
:103E100083EA96E00E9429058D8160E08F5F0E9411
:103E2000070D80910F0590911005009709F45BC074
:103E30006EEF72E0019709F458C081E08093250588
:103E4000C8010E9473100E940F05B82E80910F05C3
:103E500090911005009709F44DC0019711F00C9452
:103E6000411683E996E00E94BF08882379F183E92F
:103E700096E00E946806882349F1809195060E9489
:103E800003028F3F980709F481C04AE0489F9001E0
:103E9000499F300D1124C9018D57994F7C0167ED61
:103EA00071E00E941F0F882309F45FC061E270E097
:103EB00080E090E00E94410383E190E00E94930C37
:103EC00083E996E00E945E080E94B9088FE090E0C6
:103ED0000E94750C882309F45EC082E190E00E9484
:103EE0003B0D0C9441166AEF72E083EA96E00E9463
:103EF0003705A3CF8FE090E00E94750C811103C0BD
:103F000031E3B3120AC061E270E080E090E00E9409
:103F1000410383E190E00E94930C80E190E00E94D5
:103F2000750C811103C042E3B4120AC061E270E073
:103F300080E090E00E94410384E190E00E94930CB5
:103F400083E996E00E94BF08882311F40C9441167F
:103F500083E996E00E946806882311F40C944116C8
:103F600082E190E00E943B0D8CC16EEC71E0C701D4
:103F70000E941F0F882309F4A3CF61E270E080E064
:103F800090E00E94410384E190E098CF82E190E0CC
:103F90000E943B0D95CF91E3B91609F49ECF80E1C5
:103FA00090E00E94750C811198CFE2E3BE120C9450
:103FB000411693CF81E090E00E943F0F0C94411690
:103FC00082E090E0F9CF80912505811176C00E94B2
:103FD000FC0C8CE591E00E94750D80911F0590917D
:103FE000200522E0F22E8130910509F0F12CF092AB
:103FF0001D0510921E0522E030E08230910511F07F
:1040000030E020E030931C0520931B0560E08130F8
:10401000910519F0029749F461E080E00E94070DD4
:1040200060E083EA96E00E946F0D60E08F2D0E94B1
:10403000070D62E173E083EA96E00E943705809104
:104040001D0590911E05079690931E0580931D05F2
:1040500061E080911B050E94070D6AE073E083EA2E
:1040600096E00E94370580911B0590911C050796EC
:1040700090931C0580931B058091190590911A055A
:10408000892B71F40E9473036093150570931605D4
:104090008093170590931805D0921A05C0921905C0
:1040A0000E947303609311057093120580931305AA
:1040B0009093140581E0809325050E9473038090FE
:1040C000110590901205A0901305B0901405681981
:1040D00079098A099B09683E734081059105E8F0DA
:1040E000E0902305F09024050E947303609311056E
:1040F00070931205809313059093140580911F050A
:10410000909120058130910509F05BC02FEFE21AF4
:10411000F20AF0922405E092230560E080911D05EB
:104120000E94070D80912305909124050E94F20DB5
:1041300066E073E083EA96E00E94370561E08091D3
:104140001B050E94070D80912105909122050E9478
:10415000F20D62E073E083EA96E00E9437050E9468
:104160000F05F82E0E9473034B015C0188EF95E068
:104170000E94340F2B013C0180911505909116058A
:10418000A0911705B0911805A5019401281B390BC2
:104190004A0B5B0BCA01B90128EE33E040E050E066
:1041A0000E941E232415350546055705B8F061E227
:1041B00070E080E090E00E94410388E190E00C9480
:1041C000C415029709F0A9CF80912105909122058D
:1041D000019690932205809321059FCF80915A01EB
:1041E00090915B0120912305309124052817390710
:1041F000F4F6209121053091220528173907BCF6E5
:1042000080910F0590911005009709F45FC0019708
:1042100011F00C94411683E996E00E94BF088823B0
:1042200011F40C94411683E996E00E9468068823F5
:1042300011F40C944116809195060E9403028F3F61
:10424000980709F440C04AE0489F9001499F300D0B
:104250001124A9014D57594F7A0167ED71E0CA0148
:104260000E941F0F882331F080911F059091200537
:10427000019779F46EEC71E0C7010E941F0F811164
:1042800017C083E996E00E945E080E94B9080C946A
:104290004116D0922005C0921F0561E270E080E0D7
:1042A00090E00E94410385E190E00E94930CE9CFE9
:1042B00080911F0590912005029719F330922005F7
:1042C00020921F05EACF85E190E04CCE51E4F51233
:1042D00010C080911F0590912005019709F494C0AA
:1042E000D0922005C0921F0585E190E00E94930CBA
:1042F00009C081E3F81669F38FE090E00E94750C25
:104300008111E7CF92E4F91210C080911F059091BE
:104310002005029711F40C9441163092200520924A
:104320001F0585E190E00C94C415E2E3FE1669F3E5
:1043300080E190E00E94750C8111E7CF0C9441164A
:1043400080912505811131C00E94FC0CE09023056D
:10435000F090240580912105909122058E159F05EE
:10436000ECF1E816F9060CF44AC060E081E00E9426
:10437000070D64E473E083EA96E00E94370561E08C
:1043800080E00E94070D6FE273E083EA96E00E94EE
:104390003705C7010E94F20D69E273E083EA96E0F7
:1043A0000E94370581E0809325050E940F05882330
:1043B00011F40C9441160E94FC0C6AE173E083EA4C
:1043C00096E00E9437056CED75E080E090E00E9479
:1043D0004103F0E0E0E009950C944116AA24A3946F
:1043E000B12C60E080E00E94070D64E373E083EA93
:1043F00096E00E943705C5010E94F20DC0CF7C01F6
:1044000082E0A82EB12CEDCFF2E4FF1609F485CF9F
:1044100022E3F21609F481CF8BCF6115710559F0B3
:10442000232B49F0FB01808190E0919581959109C2
:10443000892B09F030CA61E270E080E090E00E94D0
:1044400041038FE090E00E94930CCDC98AED95E086
:104450000E94731080EE95E00E94731086EE95E046
:104460000E9473108CEE95E00E94731082EF95E02D
:104470000E94731088EF95E00E9473108EEF95E014
:104480000E94731084E096E00E9473108AE096E028
:104490000E9473108DE896E00E94731083E896E006
:1044A0000C9473101F93FC0199278827BC01E89492
:1044B00011911032E9F3193010F01E30C8F31B329D
:1044C00051F01D3249F4689406C00E949422610F95
:1044D000711D811D911D119110531A30B0F33EF4DE
:1044E00090958095709561957F4F8F4F9F4F1F914D
:1044F0000895FB01DC0105900D920020E1F708957D
:10450000FC0105900020E9F7809590958E0F9F1F84
:104510000895BB274A3031F4992322F4BDE29095E7
:1045200081959F4F0C94AA22592F482F372F262F61
:10453000660F771F881F991F660F771F881F991FA7
:10454000620F731F841F951F660F771F881F991FA7
:104550000895BB27FB015527AA27880F991FAA1F7B
:10456000A41710F0A41B83955051B9F7A05DAA338E
:1045700008F0A95DA193009779F7B111B193119259
:10458000CB010C94C322DC01FC01672F71917723CE
:10459000E1F7329704C07C916D9370836291AE17FE
:1045A000BF07C8F308952F923F924F925F926F9288
:1045B0007F928F929F92AF92BF92CF92DF92EF92B3
:1045C000FF920F931F93CF93DF93CDB7DEB7CA1B34
:1045D000DB0B0FB6F894DEBF0FBECDBF09942A885F
:1045E000398848885F846E847D848C849B84AA8407
:1045F000B984C884DF80EE80FD800C811B81AA8194
:10460000B981CE0FD11D0FB6F894DEBF0FBECDBF5E
:10461000ED01089597FB072E16F4009407D077FD5F
:1046200009D00E94652307FC05D03EF49095819542
:104630009F4F0895709561957F4F0895A1E21A2EBE
:10464000AA1BBB1BFD010DC0AA1FBB1FEE1FFF1F36
:10465000A217B307E407F50720F0A21BB30BE40B86
:10466000F50B661F771F881F991F1A9469F76095CD
:104670007095809590959B01AC01BD01CF01089587
:10468000052E97FB1EF400940E94572357FD07D078
:104690000E941E2307FC03D04EF40C945723509520
:1046A0004095309521953F4F4F4F5F4F089590951E
:1046B0008095709561957F4F8F4F9F4F0895EE0FB6
:1046C000FF1F0590F491E02D0994AA1BBB1B51E13B
:1046D00007C0AA1FBB1FA617B70710F0A61BB70B72
:1046E000881F991F5A95A9F780959095BC01CD0117
:1046F00008950F931F93CF93DF938230910510F4A9
:1047000082E090E0E091B106F091B20630E020E066
:10471000B0E0A0E0309799F42115310509F44AC0C2
:10472000281B390B24303105D8F58A819B8161150E
:10473000710589F1FB0193838283FE0111C04081E1
:1047400051810281138148175907E0F04817590732
:1047500099F4109761F012960C93129713961C938C
:104760003296CF01DF91CF911F910F910895009361
:10477000B1061093B206F4CF2115310551F042175E
:10478000530738F0A901DB019A01BD01DF01F801EF
:10479000C1CFEF01F9CF9093B2068093B106CDCF90
:1047A000FE01E20FF31F8193919322503109398367
:1047B0002883D7CF2091AF063091B006232B41F448
:1047C00020917E0130917F013093B0062093AF0697
:1047D00020917C0130917D012115310541F42DB7E7
:1047E0003EB74091800150918101241B350BE0912F
:1047F000AF06F091B006E217F307A0F42E1B3F0BB3
:104800002817390778F0AC014E5F5F4F2417350742
:1048100048F04E0F5F1F5093B0064093AF06819350
:1048200091939FCFF0E0E0E09CCFCF93DF93009790
:10483000E9F0FC01329713821282A091B106B09187
:10484000B206ED0130E020E01097A1F42081318123
:10485000820F931F2091AF063091B00628173907B9
:1048600009F061C0F093B006E093AF06DF91CF91FD
:104870000895EA01CE17DF07E8F54A815B819E01C2
:1048800041155105B1F7E901FB83EA83499159913B
:10489000C40FD51FEC17FD0761F48081918102964A
:1048A000840F951FE90199838883828193819B837B
:1048B0008A83F0E0E0E012968D919C911397009727
:1048C000B9F52D913C911197CD010296820F931F5E
:1048D0002091AF063091B0062817390739F6309786
:1048E00051F51092B2061092B106B093B006A093A3
:1048F000AF06BCCFD383C28340815181840F951F03
:10490000C817D90761F44E5F5F4F88819981480FBE
:10491000591F518340838A819B8193838283211510
:10492000310509F0B0CFF093B206E093B1069ECF07
:10493000FD01DC01C0CF13821282D7CFB0E0A0E02E
:10494000E4EAF4E20C94D5228C01009751F4CB01F7
:104950000E9479238C01C801CDB7DEB7E0E10C9449
:10496000F122FC01E60FF71F9C0122503109E217EA
:10497000F30708F49DC0D901CD91DC911197C617BA
:10498000D70798F0C530D10530F3CE0104978617CC
:10499000970708F3C61BD70B2297C193D1936D934A
:1049A0007C93CF010E941524D6CF5B01AC1ABD0ABF
:1049B0004C018C0E9D1EA091B106B091B206512CF7
:1049C000412CF12CE12C109731F58091AF0690919C
:1049D000B0068815990509F05CC04616570608F020
:1049E00058C080917C0190917D01009741F48DB772
:1049F0009EB74091800150918101841B950BE8176F
:104A0000F90708F055C0F093B006E093AF06F9013E
:104A100071836083A0CF8D919C91119712966C90B9
:104A2000129713967C901397A815B90559F56C0148
:104A300042E0C40ED11CCA14DB0420F1AC014A19B7
:104A40005B09DA011296159780F0628273825183B6
:104A50004083D9016D937C93E114F10471F0D70187
:104A60001396FC93EE93129776CF22968C0F9D1F90
:104A7000F90191838083F301EFCFF093B206E093C5
:104A8000B10669CF4816590608F42C017D01D301FF
:104A90009ACFCB010E9479237C01009749F0AE01A7
:104AA000B8010E945B25C8010E941524870153CFDD
:104AB00010E000E050CFFB01DC0102C001900D923C
:104AC00041505040D8F70895FB01DC018D910190D1
:104AD00080190110D9F3990B0895FB01DC010190B5
:104AE0000D920020E1F70895AEE0B0E0EAE7F5E2CC
:104AF0000C94E1220D891E898F89988D26E02C83E4
:104B00001A83098397FF02C080E090E801979E8393
:104B10008D83AE01455E5F4F698D7A8DCE01019622
:104B20000E94A4254D815E8157FD0AC02F813885E2
:104B3000421753070CF49A01020F131FF801108259
:104B40002E96E4E00C94FD22ABE0B0E0EAEAF5E258
:104B50000C94D3227C013B018A01FC01178216824E
:104B6000838181FFC8C1CE0101965C01F701938169
:104B7000F30193FD859193FF81913F01882309F40F
:104B800053C1853239F493FD859193FF81913F01A3
:104B9000853229F4B70190E00E949427E7CF912C49
:104BA000212C312CFFE1F31538F08B3211F190F408
:104BB000803209F1833229F137FC3CC020ED280F07
:104BC0002A3050F536FE20C08AE0989E200D112430
:104BD000922E06C08D3291F0803371F7689430F8D0
:104BE000F30193FD859193FF81913F018111DACF0C
:104BF00021C0689431F8689432F8F2CF689433F8A1
:104C0000EFCF689434F8ECCFEAE02E9E200D11240B
:104C1000222E689435F8E4CF8E3229F436FC04C194
:104C2000689436F8DDCF8C3619F4689437F8D8CF0D
:104C30008836B1F2982F9F7D95549330E0F08336FB
:104C4000A1F18337C1F1833509F063C02801F2E097
:104C50004F0E511CF801C080D180692D70E036FCE8
:104C600002C06FEF7FEFC6010E947E274C0168945F
:104C700037F882010AC00C5F1F4FFFE3F9838824D5
:104C80008394912C6501E89437F833FE2DC0522CA3
:104C90008114910471F5552009F468CFB70180E2C1
:104CA00090E00E9494275A94F6CFF801808189837E
:104CB0000E5F1F4FE4CF2801F2E04F0E511CF801A8
:104CC000C080D180692D70E036FC02C06FEF7FEFAD
:104CD000C6010E9489274C018201D5CFB70180E22D
:104CE00090E00E9494272A942814190409F0B0F740
:104CF000CECFF60137FC859137FE81916F01B70168
:104D000090E00E94942751105A94F1E08F1A910874
:104D1000BFCF843619F0893609F077C0F80137FE25
:104D20006BC060817181828193810C5F1F4FF32D75
:104D3000FF763F2E97FF09C09095809570956195FD
:104D40007F4F8F4F9F4F689437F82AE030E0A501DE
:104D50000E94C427C82ECA188C2C432C36FE0CC0C7
:104D6000E89440F8C91440F434FE05C032FC03C096
:104D7000F32DFE7E4F2E892C44FE95C0FE01EC0DD6
:104D8000F11D8081803309F087C0242D297E422EB9
:104D9000842D8870582E43FC95C040FE8FC09C2CFB
:104DA000821418F42C0C922C981844FE91C0B70170
:104DB00080E390E00E94942742FE09C088E790E0DB
:104DC00041FE02C088E590E0B7010E949427C91413
:104DD00008F48AC0CA94D12C9FEFC91AD90ACA0C08
:104DE000DB1CF60182916F01B70190E00E949427CD
:104DF000AC14BD04B1F74FCF60817181072E000C58
:104E0000880B990B0E5F1F4F92CFD32CE894D4F8E8
:104E10002AE030E0853739F1232D297FD22E8F36D5
:104E200001F148F48835A9F0F701868197812B9626
:104E3000E2E10C94EF22803749F08837A9F7D4FEDD
:104E400002C06894D2F820E130E00DC06894D4F834
:104E5000F6CF34FE03C0822F8660D82E20E132E0E8
:104E600002C028E030E0F801D7FE0FC060817181F8
:104E7000828193810C5F1F4FA5010E94C427C82E19
:104E8000CA183D2CE89437F867CF6081718190E0B3
:104E900080E00E5F1F4FF0CF42FC02C0839478CFBA
:104EA0008394839475CF842D867809F471CFF6CFDF
:104EB000B70180E290E00E94942783948214C0F3AB
:104EC000512C73CF522C5818821408F46ECFF8CF9F
:104ED000842D867809F47BCF8BE241FE80E247FC8B
:104EE0008DE2B70190E071CFB70180E390E00E94BE
:104EF00094279A946CCF8FEF9FEF99CFFC01059088
:104F0000615070400110D8F7809590958E0F9F1FCB
:104F10000895FC016150704001900110D8F7809510
:104F200090958E0F9F1F08950F931F93CF93DF933C
:104F3000182F092FEB018B8181FD09C01FEF0FEFA7
:104F4000812F902FDF91CF911F910F91089582FFB4
:104F500014C02E813F818C819D81281739073CF434
:104F6000E881F981CF0101969983888310838E812E
:104F70009F8101969F838E83E3CFE885F985812FFA
:104F80000995892BA1F3DACFFA01AA27283051F12C
:104F9000203181F1E8946F936E7F6E5F7F4F8F4F6A
:104FA0009F4FAF4FB1E03ED0B4E03CD0670F781FC9
:104FB000891F9A1FA11D680F791F8A1F911DA11DAE
:104FC0006A0F711D811D911DA11D20D009F46894E7
:104FD0003F912AE0269F11243019305D3193DEF68F
:104FE000CF010895462F4770405D4193B3E00FD045
:104FF000C9F7F6CF462F4F70405D4A3318F0495D30
:1050000031FD4052419302D0A9F7EACFB4E0A69512
:105010009795879577956795BA95C9F70097610534
:10502000710508959B01AC010A2E0694579547958A
:1050300037952795BA95C9F7620F731F841F951F7F
:10504000A01D089511E0C8EDD1E004C0FE010E944A
:0E5050005F232196C93DD107C9F7F894FFCF21
:10505E00000000000000B002000000000000C802C6
:10506E00000000000000E10200000000000002034A
:10507E0000000000000021030000000000003903C2
:10508E000000000000005D03000000000000B203FD
:10509E0000000000000005040100000000000000F8
:1050AE00E2011F1F1F1F1F1F1F1F2C011C1E1F1F72
:1050BE001F1E1C000607080E020304053132334181
:1050CE0034353642373839432A3023440000B3068C
:1050DE008000000040001400540000000000FB059A
:1050EE005B0588054806B9059705AB05000000006D
:1050FE005C0B2F0B720C050B280B150B060B00000F
:10510E0000001803D802A702000000001D09BF0806
:10511E006806000000006F0D5B05720C9E0A566556
:10512E00726D656C686F005665726465003530008F
:10513E000D0A0020202020202020202020202020AA
:10514E002020200053454E48412053414C56413AB1
:10515E0020003930003138303000323630003336EE
:10516E003030004C494D2E20504F4E544F5320534B
:10517E00414C564F3A20005361626F746167656D02
:10518E0000426F74616F004351420050616472615E
:10519E006F0043616D706F2041626572746F0050D5
:1051AE006572736F6E2E0041524D45204120424F65
:1051BE004D42410054656D706F3A2025646D696EE5
:1051CE002564730054656D706F3A202564736567AE
:1051DE002E0044455341524D2E2025646D696E2597
:1051EE0064730044455341524D2E20256473656708
:1051FE002E00444F4D494E4520412041524541001D
:10520E002020202041544143414E544553205645C1
:10521E004E434552414D2100202020204445464515
:10522E004E534F5245532056454E434552414D2104
:10523E000020283129204E6F766F204A6F676F202D
:10524E002D2028322920556C74696D6F204A6F67A6
:10525E006F0020283129205361626F746167656D7C
:10526E00202D2028322920446F6D696E6163616F95
:10527E00002028312920426F74616F202D202832A2
:10528E00292043617274616F002028312920426FFA
:10529E0074616F202D202832292043617274616F52
:1052AE00202D202833292053656E68610020283177
:1052BE0029204351423A2031306D696E2E202D2027
:1052CE002832292050616472616F3A2033306D6943
:1052DE006E2E202D202833292043616D706F2041C2
:1052EE00626572746F3A2036306D696E2E202D20F5
:1052FE0028342920506572736F6E616C697A61640F
:10530E00610020283129204351423A203530732E36
:10531E00202D202832292050616472616F3A20318D
:10532E006D3330732E202D202833292043616D706C
:10533E006F2041626572746F3A20346D3230732E75
:10534E00202D2028342920506572736F6E616C6990
:10535E007A6164610020446573656A6120706572CC
:10536E00736F6E616C697A6172206F206D61782E39
:10537E0020646520706F6E746F733F202850414417
:10538E0052414F203D202854656D706F204C696D41
:06539E002E2F3229000051
:00000001FF
